Component: ARM Compiler 5.06 update 6 (build 750) Tool: armlink [4d35ed]

==============================================================================

Section Cross References

    startup_stm32f405xx.o(STACK) refers (Special) to heapauxi.o(.text) for __use_two_region_memory
    startup_stm32f405xx.o(HEAP) refers (Special) to heapauxi.o(.text) for __use_two_region_memory
    startup_stm32f405xx.o(RESET) refers (Special) to heapauxi.o(.text) for __use_two_region_memory
    startup_stm32f405xx.o(RESET) refers to startup_stm32f405xx.o(STACK) for __initial_sp
    startup_stm32f405xx.o(RESET) refers to startup_stm32f405xx.o(.text) for Reset_Handler
    startup_stm32f405xx.o(RESET) refers to stm32f4xx_it.o(i.NMI_Handler) for NMI_Handler
    startup_stm32f405xx.o(RESET) refers to stm32f4xx_it.o(i.HardFault_Handler) for HardFault_Handler
    startup_stm32f405xx.o(RESET) refers to stm32f4xx_it.o(i.MemManage_Handler) for MemManage_Handler
    startup_stm32f405xx.o(RESET) refers to stm32f4xx_it.o(i.BusFault_Handler) for BusFault_Handler
    startup_stm32f405xx.o(RESET) refers to stm32f4xx_it.o(i.UsageFault_Handler) for UsageFault_Handler
    startup_stm32f405xx.o(RESET) refers to stm32f4xx_it.o(i.SVC_Handler) for SVC_Handler
    startup_stm32f405xx.o(RESET) refers to stm32f4xx_it.o(i.DebugMon_Handler) for DebugMon_Handler
    startup_stm32f405xx.o(RESET) refers to stm32f4xx_it.o(i.PendSV_Handler) for PendSV_Handler
    startup_stm32f405xx.o(RESET) refers to stm32f4xx_it.o(i.SysTick_Handler) for SysTick_Handler
    startup_stm32f405xx.o(RESET) refers to stm32f4xx_it.o(i.DMA1_Stream1_IRQHandler) for DMA1_Stream1_IRQHandler
    startup_stm32f405xx.o(RESET) refers to stm32f4xx_it.o(i.DMA1_Stream3_IRQHandler) for DMA1_Stream3_IRQHandler
    startup_stm32f405xx.o(RESET) refers to stm32f4xx_it.o(i.DMA1_Stream5_IRQHandler) for DMA1_Stream5_IRQHandler
    startup_stm32f405xx.o(RESET) refers to stm32f4xx_it.o(i.DMA1_Stream6_IRQHandler) for DMA1_Stream6_IRQHandler
==============================================================================

Removing Unused input sections from the image.

    Removing main.o(.rev16_text), (4 bytes).
    Removing main.o(.revsh_text), (4 bytes).
    Removing main.o(.rrx_text), (6 bytes).
    Removing gpio.o(.rev16_text), (4 bytes).
    Removing gpio.o(.revsh_text), (4 bytes).
    Removing gpio.o(.rrx_text), (6 bytes).
    Removing can.o(.rev16_text), (4 bytes).
    Removing can.o(.revsh_text), (4 bytes).
    Removing can.o(.rrx_text), (6 bytes).
    Removing can.o(i.CAN_Start_IT), (72 bytes).
    Removing can.o(i.HAL_CAN_MspDeInit), (116 bytes).
    Removing dma.o(.rev16_text), (4 bytes).
    Removing dma.o(.revsh_text), (4 bytes).
    Removing dma.o(.rrx_text), (6 bytes).
    Removing tim.o(.rev16_text), (4 bytes).
    Removing tim.o(.revsh_text), (4 bytes).
    Removing tim.o(.rrx_text), (6 bytes).
    Removing tim.o(i.HAL_TIM_Base_MspDeInit), (32 bytes).
==============================================================================

Image Symbol Table

    Local Symbols

    Symbol Name                              Value     Ov Type        Size  Object(Section)

    ../Drivers/STM32F4xx_HAL_Driver/Src/stm32f4xx_hal.c 0x00000000   Number         0  stm32f4xx_hal.o ABSOLUTE
    ../Drivers/STM32F4xx_HAL_Driver/Src/stm32f4xx_hal_can.c 0x00000000   Number         0  stm32f4xx_hal_can.o ABSOLUTE
    ../Drivers/STM32F4xx_HAL_Driver/Src/stm32f4xx_hal_cortex.c 0x00000000   Number         0  stm32f4xx_hal_cortex.o ABSOLUTE
    ../Drivers/STM32F4xx_HAL_Driver/Src/stm32f4xx_hal_dma.c 0x00000000   Number         0  stm32f4xx_hal_dma.o ABSOLUTE
    ../Drivers/STM32F4xx_HAL_Driver/Src/stm32f4xx_hal_dma_ex.c 0x00000000   Number         0  stm32f4xx_hal_dma_ex.o ABSOLUTE
    ../Drivers/STM32F4xx_HAL_Driver/Src/stm32f4xx_hal_exti.c 0x00000000   Number         0  stm32f4xx_hal_exti.o ABSOLUTE
    ../Drivers/STM32F4xx_HAL_Driver/Src/stm32f4xx_hal_flash.c 0x00000000   Number         0  stm32f4xx_hal_flash.o ABSOLUTE
    ../Drivers/STM32F4xx_HAL_Driver/Src/stm32f4xx_hal_flash_ex.c 0x00000000   Number         0  stm32f4xx_hal_flash_ex.o ABSOLUTE
    ../Drivers/STM32F4xx_HAL_Driver/Src/stm32f4xx_hal_flash_ramfunc.c 0x00000000   Number         0  stm32f4xx_hal_flash_ramfunc.o ABSOLUTE
    ../Drivers/STM32F4xx_HAL_Driver/Src/stm32f4xx_hal_gpio.c 0x00000000   Number         0  stm32f4xx_hal_gpio.o ABSOLUTE
    ../Drivers/STM32F4xx_HAL_Driver/Src/stm32f4xx_hal_pwr.c 0x00000000   Number         0  stm32f4xx_hal_pwr.o ABSOLUTE
    ../Drivers/STM32F4xx_HAL_Driver/Src/stm32f4xx_hal_pwr_ex.c 0x00000000   Number         0  stm32f4xx_hal_pwr_ex.o ABSOLUTE
    ../Drivers/STM32F4xx_HAL_Driver/Src/stm32f4xx_hal_rcc.c 0x00000000   Number         0  stm32f4xx_hal_rcc.o ABSOLUTE
    ../Drivers/STM32F4xx_HAL_Driver/Src/stm32f4xx_hal_rcc_ex.c 0x00000000   Number         0  stm32f4xx_hal_rcc_ex.o ABSOLUTE
    ../Drivers/STM32F4xx_HAL_Driver/Src/stm32f4xx_hal_tim.c 0x00000000   Number         0  stm32f4xx_hal_tim.o ABSOLUTE
    ../Drivers/STM32F4xx_HAL_Driver/Src/stm32f4xx_hal_tim_ex.c 0x00000000   Number         0  stm32f4xx_hal_tim_ex.o ABSOLUTE
    ../Drivers/STM32F4xx_HAL_Driver/Src/stm32f4xx_hal_uart.c 0x00000000   Number         0  stm32f4xx_hal_uart.o ABSOLUTE
    ../Src/can.c                             0x00000000   Number         0  can.o ABSOLUTE
    ../Src/dma.c                             0x00000000   Number         0  dma.o ABSOLUTE
    ../Src/gpio.c                            0x00000000   Number         0  gpio.o ABSOLUTE
    ../Src/main.c                            0x00000000   Number         0  main.o ABSOLUTE
    ../Src/stm32f4xx_hal_msp.c               0x00000000   Number         0  stm32f4xx_hal_msp.o ABSOLUTE
    ../Src/stm32f4xx_it.c                    0x00000000   Number         0  stm32f4xx_it.o ABSOLUTE
    ../Src/system_stm32f4xx.c                0x00000000   Number         0  system_stm32f4xx.o ABSOLUTE
    ../Src/tim.c                             0x00000000   Number         0  tim.o ABSOLUTE
    ../Src/usart.c                           0x00000000   Number         0  usart.o ABSOLUTE
    ../clib/angel/boardlib.s                 0x00000000   Number         0  boardinit3.o ABSOLUTE
    ../clib/angel/boardlib.s                 0x00000000   Number         0  boardinit1.o ABSOLUTE
    ../clib/angel/boardlib.s                 0x00000000   Number         0  boardinit2.o ABSOLUTE
    ../clib/angel/boardlib.s                 0x00000000   Number         0  boardshut.o ABSOLUTE
    ../clib/angel/handlers.s                 0x00000000   Number         0  __scatter_copy.o ABSOLUTE
    ../clib/angel/handlers.s                 0x00000000   Number         0  __scatter_zi.o ABSOLUTE
    ../clib/angel/kernel.s                   0x00000000   Number         0  __rtentry4.o ABSOLUTE
    ../clib/angel/kernel.s                   0x00000000   Number         0  rtexit2.o ABSOLUTE
    ../clib/angel/kernel.s                   0x00000000   Number         0  __rtentry.o ABSOLUTE
    ../clib/angel/kernel.s                   0x00000000   Number         0  rtexit.o ABSOLUTE
    ../clib/angel/kernel.s                   0x00000000   Number         0  __rtentry2.o ABSOLUTE
    ../clib/angel/rt.s                       0x00000000   Number         0  rt_div0.o ABSOLUTE
    ../clib/angel/rt.s                       0x00000000   Number         0  rt_errno_addr.o ABSOLUTE
    ../clib/angel/rt.s                       0x00000000   Number         0  rt_errno_addr_intlibspace.o ABSOLUTE
    ../clib/angel/rt.s                       0x00000000   Number         0  aeabi_ldiv0_sigfpe.o ABSOLUTE
    ../clib/angel/rt.s                       0x00000000   Number         0  aeabi_ldiv0.o ABSOLUTE
    ../clib/angel/rt.s                       0x00000000   Number         0  rt_raise.o ABSOLUTE
    ../clib/angel/scatter.s                  0x00000000   Number         0  __scatter.o ABSOLUTE
    ../clib/angel/startup.s                  0x00000000   Number         0  __main.o ABSOLUTE
    ../clib/angel/sys.s                      0x00000000   Number         0  sys_stackheap_outer.o ABSOLUTE
    ../clib/angel/sys.s                      0x00000000   Number         0  use_no_semi.o ABSOLUTE
    ../clib/angel/sys.s                      0x00000000   Number         0  libspace.o ABSOLUTE
    ../clib/angel/sys.s                      0x00000000   Number         0  indicate_semi.o ABSOLUTE
    ../clib/angel/sysapp.c                   0x00000000   Number         0  sys_exit.o ABSOLUTE
    ../clib/angel/sysapp.c                   0x00000000   Number         0  sys_command.o ABSOLUTE
    ../clib/angel/sysapp.c                   0x00000000   Number         0  sys_wrch.o ABSOLUTE
    ../clib/armsys.c                         0x00000000   Number         0  _get_argv_nomalloc.o ABSOLUTE
    ../clib/armsys.c                         0x00000000   Number         0  argv_veneer.o ABSOLUTE
    ../clib/armsys.c                         0x00000000   Number         0  no_argv.o ABSOLUTE
    ../clib/armsys.c                         0x00000000   Number         0  argv_veneer.o ABSOLUTE
    ../clib/fenv.c                           0x00000000   Number         0  _rserrno.o ABSOLUTE
    ../clib/heapalloc.c                      0x00000000   Number         0  hrguard.o ABSOLUTE
    ../clib/heapaux.c                        0x00000000   Number         0  heapauxi.o ABSOLUTE
    ../clib/libinit.s                        0x00000000   Number         0  libshutdown2.o ABSOLUTE
    ../clib/libinit.s                        0x00000000   Number         0  libinit2.o ABSOLUTE
    ../clib/libinit.s                        0x00000000   Number         0  libshutdown.o ABSOLUTE
    ../clib/libinit.s                        0x00000000   Number         0  libinit.o ABSOLUTE
    ../clib/longlong.s                       0x00000000   Number         0  lludivv7m.o ABSOLUTE
    ../clib/memcpset.s                       0x00000000   Number         0  rt_memclr_w.o ABSOLUTE
    ../clib/memcpset.s                       0x00000000   Number         0  rt_memcpy_w.o ABSOLUTE
    ../clib/memcpset.s                       0x00000000   Number         0  rt_memcpy_v6.o ABSOLUTE
    ../clib/signal.c                         0x00000000   Number         0  defsig_pvfn_inner.o ABSOLUTE
    ../clib/signal.c                         0x00000000   Number         0  defsig_stak_inner.o ABSOLUTE
    ../clib/signal.c                         0x00000000   Number         0  defsig_fpe_outer.o ABSOLUTE
    ../clib/signal.c                         0x00000000   Number         0  defsig_fpe_formal.o ABSOLUTE
    ../clib/signal.c                         0x00000000   Number         0  defsig_rtmem_formal.o ABSOLUTE
    ../clib/signal.c                         0x00000000   Number         0  defsig_general.o ABSOLUTE
    ../clib/signal.c                         0x00000000   Number         0  __raise.o ABSOLUTE
    ../clib/signal.c                         0x00000000   Number         0  defsig_abrt_inner.o ABSOLUTE
    ../clib/signal.c                         0x00000000   Number         0  defsig_rtred_inner.o ABSOLUTE
    ../clib/signal.c                         0x00000000   Number         0  defsig_rtmem_inner.o ABSOLUTE
    ../clib/signal.c                         0x00000000   Number         0  defsig_other.o ABSOLUTE
    ../clib/signal.c                         0x00000000   Number         0  defsig_rtmem_outer.o ABSOLUTE
    ../clib/signal.c                         0x00000000   Number         0  defsig_fpe_inner.o ABSOLUTE
    ../clib/signal.c                         0x00000000   Number         0  defsig_exit.o ABSOLUTE
    ../clib/signal.c                         0x00000000   Number         0  defsig_segv_inner.o ABSOLUTE
    ../clib/signal.c                         0x00000000   Number         0  defsig_cppl_inner.o ABSOLUTE
    ../clib/signal.s                         0x00000000   Number         0  defsig.o ABSOLUTE
    ../clib/stdlib.c                         0x00000000   Number         0  exit.o ABSOLUTE
    ../clib/string.c                         0x00000000   Number         0  strlen.o ABSOLUTE
    ../clib/string.c                         0x00000000   Number         0  strcpy.o ABSOLUTE
    ../fplib/basic.s                         0x00000000   Number         0  basic.o ABSOLUTE
    ../fplib/d2f.s                           0x00000000   Number         0  d2f.o ABSOLUTE
    ../fplib/daddsub.s                       0x00000000   Number         0  daddsub_clz.o ABSOLUTE
    ../fplib/dcmpi.s                         0x00000000   Number         0  dcmpi.o ABSOLUTE
    ../fplib/ddiv.s                          0x00000000   Number         0  ddiv.o ABSOLUTE
    ../fplib/deqf.s                          0x00000000   Number         0  deqf.o ABSOLUTE
    ../fplib/dfix.s                          0x00000000   Number         0  dfix.o ABSOLUTE
    ../fplib/dflt.s                          0x00000000   Number         0  dflt_clz.o ABSOLUTE
    ../fplib/dleqf.s                         0x00000000   Number         0  dleqf.o ABSOLUTE
    ../fplib/dmul.s                          0x00000000   Number         0  dmul.o ABSOLUTE
    ../fplib/dnaninf.s                       0x00000000   Number         0  dnaninf.o ABSOLUTE
    ../fplib/dretinf.s                       0x00000000   Number         0  dretinf.o ABSOLUTE
    ../fplib/drleqf.s                        0x00000000   Number         0  drleqf.o ABSOLUTE
    ../fplib/dsqrt.s                         0x00000000   Number         0  dsqrt_umaal.o ABSOLUTE
    ../fplib/f2d.s                           0x00000000   Number         0  f2d.o ABSOLUTE
    ../fplib/fnaninf.s                       0x00000000   Number         0  fnaninf.o ABSOLUTE
    ../fplib/fpinit.s                        0x00000000   Number         0  fpinit.o ABSOLUTE
    ../fplib/fretinf.s                       0x00000000   Number         0  fretinf.o ABSOLUTE
    ../fplib/usenofp.s                       0x00000000   Number         0  usenofp.o ABSOLUTE
    ../mathlib/atan.c                        0x00000000   Number         0  atan_x.o ABSOLUTE
    ../mathlib/atan.c                        0x00000000   Number         0  atan.o ABSOLUTE
    ../mathlib/atan2.c                       0x00000000   Number         0  atan2_x.o ABSOLUTE
    ../mathlib/atan2.c                       0x00000000   Number         0  atan2.o ABSOLUTE
    ../mathlib/cos.c                         0x00000000   Number         0  cos.o ABSOLUTE
    ../mathlib/cos.c                         0x00000000   Number         0  cos_x.o ABSOLUTE
    ../mathlib/cos_i.c                       0x00000000   Number         0  cos_i.o ABSOLUTE
    ../mathlib/dunder.c                      0x00000000   Number         0  dunder.o ABSOLUTE
    ../mathlib/fabs.c                        0x00000000   Number         0  fabs.o ABSOLUTE
    ../mathlib/fpclassify.c                  0x00000000   Number         0  fpclassify.o ABSOLUTE
    ../mathlib/poly.c                        0x00000000   Number         0  poly.o ABSOLUTE
    ../mathlib/qnan.c                        0x00000000   Number         0  qnan.o ABSOLUTE
    ../mathlib/rred.c                        0x00000000   Number         0  rred.o ABSOLUTE
    ../mathlib/sin.c                         0x00000000   Number         0  sin_x.o ABSOLUTE
    ../mathlib/sin.c                         0x00000000   Number         0  sin.o ABSOLUTE
    ../mathlib/sin_i.c                       0x00000000   Number         0  sin_i_x.o ABSOLUTE
    ../mathlib/sin_i.c                       0x00000000   Number         0  sin_i.o ABSOLUTE
    ../mathlib/sqrt.c                        0x00000000   Number         0  sqrt.o ABSOLUTE
    ../mathlib/sqrt.c                        0x00000000   Number         0  sqrt_x.o ABSOLUTE
    ..\Behavior\Chassis_behavior.c           0x00000000   Number         0  chassis_behavior.o ABSOLUTE
    ..\Behavior\imu_analyse.c                0x00000000   Number         0  imu_analyse.o ABSOLUTE
    ..\Drivers\STM32F4xx_HAL_Driver\Src\stm32f4xx_hal.c 0x00000000   Number         0  stm32f4xx_hal.o ABSOLUTE
    ..\Drivers\STM32F4xx_HAL_Driver\Src\stm32f4xx_hal_can.c 0x00000000   Number         0  stm32f4xx_hal_can.o ABSOLUTE
    ..\Drivers\STM32F4xx_HAL_Driver\Src\stm32f4xx_hal_cortex.c 0x00000000   Number         0  stm32f4xx_hal_cortex.o ABSOLUTE
    ..\Drivers\STM32F4xx_HAL_Driver\Src\stm32f4xx_hal_dma.c 0x00000000   Number         0  stm32f4xx_hal_dma.o ABSOLUTE
    ..\Drivers\STM32F4xx_HAL_Driver\Src\stm32f4xx_hal_dma_ex.c 0x00000000   Number         0  stm32f4xx_hal_dma_ex.o ABSOLUTE
    ..\Drivers\STM32F4xx_HAL_Driver\Src\stm32f4xx_hal_exti.c 0x00000000   Number         0  stm32f4xx_hal_exti.o ABSOLUTE
    ..\Drivers\STM32F4xx_HAL_Driver\Src\stm32f4xx_hal_flash.c 0x00000000   Number         0  stm32f4xx_hal_flash.o ABSOLUTE
    ..\Drivers\STM32F4xx_HAL_Driver\Src\stm32f4xx_hal_flash_ex.c 0x00000000   Number         0  stm32f4xx_hal_flash_ex.o ABSOLUTE
    ..\Drivers\STM32F4xx_HAL_Driver\Src\stm32f4xx_hal_flash_ramfunc.c 0x00000000   Number         0  stm32f4xx_hal_flash_ramfunc.o ABSOLUTE
    ..\Drivers\STM32F4xx_HAL_Driver\Src\stm32f4xx_hal_gpio.c 0x00000000   Number         0  stm32f4xx_hal_gpio.o ABSOLUTE
    ..\Drivers\STM32F4xx_HAL_Driver\Src\stm32f4xx_hal_pwr.c 0x00000000   Number         0  stm32f4xx_hal_pwr.o ABSOLUTE
    ..\Drivers\STM32F4xx_HAL_Driver\Src\stm32f4xx_hal_pwr_ex.c 0x00000000   Number         0  stm32f4xx_hal_pwr_ex.o ABSOLUTE
    ..\Drivers\STM32F4xx_HAL_Driver\Src\stm32f4xx_hal_rcc.c 0x00000000   Number         0  stm32f4xx_hal_rcc.o ABSOLUTE
    ..\Drivers\STM32F4xx_HAL_Driver\Src\stm32f4xx_hal_rcc_ex.c 0x00000000   Number         0  stm32f4xx_hal_rcc_ex.o ABSOLUTE
    ..\Drivers\STM32F4xx_HAL_Driver\Src\stm32f4xx_hal_tim.c 0x00000000   Number         0  stm32f4xx_hal_tim.o ABSOLUTE
    ..\Drivers\STM32F4xx_HAL_Driver\Src\stm32f4xx_hal_tim_ex.c 0x00000000   Number         0  stm32f4xx_hal_tim_ex.o ABSOLUTE
    ..\Drivers\STM32F4xx_HAL_Driver\Src\stm32f4xx_hal_uart.c 0x00000000   Number         0  stm32f4xx_hal_uart.o ABSOLUTE
    ..\IFR_Lib\ifr_can.c                     0x00000000   Number         0  ifr_can.o ABSOLUTE
    ..\IFR_Lib\ifr_dji_motor.c               0x00000000   Number         0  ifr_dji_motor.o ABSOLUTE
    ..\IFR_Lib\ifr_dji_remote.c              0x00000000   Number         0  ifr_dji_remote.o ABSOLUTE
    ..\IFR_Lib\ifr_pid.c                     0x00000000   Number         0  ifr_pid.o ABSOLUTE
    ..\IFR_Lib\ifr_state.c                   0x00000000   Number         0  ifr_state.o ABSOLUTE
    ..\IFR_Lib\ifr_tim.c                     0x00000000   Number         0  ifr_tim.o ABSOLUTE
    ..\IFR_Lib\ifr_usart.c                   0x00000000   Number         0  ifr_usart.o ABSOLUTE
    ..\Segger\SEGGER_RTT.c                   0x00000000   Number         0  segger_rtt.o ABSOLUTE
    ..\Src\can.c                             0x00000000   Number         0  can.o ABSOLUTE
    ..\Src\dma.c                             0x00000000   Number         0  dma.o ABSOLUTE
    ..\Src\gpio.c                            0x00000000   Number         0  gpio.o ABSOLUTE
    ..\Src\main.c                            0x00000000   Number         0  main.o ABSOLUTE
    ..\Src\stm32f4xx_hal_msp.c               0x00000000   Number         0  stm32f4xx_hal_msp.o ABSOLUTE
    ..\Src\stm32f4xx_it.c                    0x00000000   Number         0  stm32f4xx_it.o ABSOLUTE
    ..\Src\system_stm32f4xx.c                0x00000000   Number         0  system_stm32f4xx.o ABSOLUTE
    ..\Src\tim.c                             0x00000000   Number         0  tim.o ABSOLUTE
    ..\Src\usart.c                           0x00000000   Number         0  usart.o ABSOLUTE
    ..\Task\Chassis_task.c                   0x00000000   Number         0  chassis_task.o ABSOLUTE
    ..\\Behavior\\Chassis_behavior.c         0x00000000   Number         0  chassis_behavior.o ABSOLUTE
    ..\\Behavior\\imu_analyse.c              0x00000000   Number         0  imu_analyse.o ABSOLUTE
    ..\\IFR_Lib\\ifr_can.c                   0x00000000   Number         0  ifr_can.o ABSOLUTE
    ..\\IFR_Lib\\ifr_dji_motor.c             0x00000000   Number         0  ifr_dji_motor.o ABSOLUTE
    ..\\IFR_Lib\\ifr_dji_remote.c            0x00000000   Number         0  ifr_dji_remote.o ABSOLUTE
    ..\\IFR_Lib\\ifr_pid.c                   0x00000000   Number         0  ifr_pid.o ABSOLUTE
    ..\\IFR_Lib\\ifr_state.c                 0x00000000   Number         0  ifr_state.o ABSOLUTE
    ..\\IFR_Lib\\ifr_tim.c                   0x00000000   Number         0  ifr_tim.o ABSOLUTE
    ..\\IFR_Lib\\ifr_usart.c                 0x00000000   Number         0  ifr_usart.o ABSOLUTE
    ..\\Task\\Chassis_task.c                 0x00000000   Number         0  chassis_task.o ABSOLUTE
    dc.s                                     0x00000000   Number         0  dc.o ABSOLUTE
    startup_stm32f405xx.s                    0x00000000   Number         0  startup_stm32f405xx.o ABSOLUTE
    RESET                                    0x08000000   Section      392  startup_stm32f405xx.o(RESET)
    !!!main                                  0x08000188   Section        8  __main.o(!!!main)
    !!!scatter                               0x08000190   Section       52  __scatter.o(!!!scatter)
    !!handler_copy                           0x080001c4   Section       26  __scatter_copy.o(!!handler_copy)
    !!handler_zi                             0x080001e0   Section       28  __scatter_zi.o(!!handler_zi)
    .ARM.Collect$$libinit$$00000000          0x080001fc   Section        2  libinit.o(.ARM.Collect$$libinit$$00000000)
    .ARM.Collect$$libinit$$00000001          0x080001fe   Section        4  libinit2.o(.ARM.Collect$$libinit$$00000001)
    .ARM.Collect$$libinit$$00000004          0x08000202   Section        0  libinit2.o(.ARM.Collect$$libinit$$00000004)
    .ARM.Collect$$libinit$$0000000A          0x08000202   Section        0  libinit2.o(.ARM.Collect$$libinit$$0000000A)
    .ARM.Collect$$libinit$$0000000C          0x08000202   Section        0  libinit2.o(.ARM.Collect$$libinit$$0000000C)
    .ARM.Collect$$libinit$$0000000E          0x08000202   Section        0  libinit2.o(.ARM.Collect$$libinit$$0000000E)
    .ARM.Collect$$libinit$$00000011          0x08000202   Section        0  libinit2.o(.ARM.Collect$$libinit$$00000011)
    .ARM.Collect$$libinit$$00000013          0x08000202   Section        0  libinit2.o(.ARM.Collect$$libinit$$00000013)
    .ARM.Collect$$libinit$$00000015          0x08000202   Section        0  libinit2.o(.ARM.Collect$$libinit$$00000015)
    .ARM.Collect$$libinit$$00000017          0x08000202   Section        0  libinit2.o(.ARM.Collect$$libinit$$00000017)
    .ARM.Collect$$libinit$$00000019          0x08000202   Section        0  libinit2.o(.ARM.Collect$$libinit$$00000019)
    .ARM.Collect$$libinit$$0000001B          0x08000202   Section        0  libinit2.o(.ARM.Collect$$libinit$$0000001B)
    .ARM.Collect$$libinit$$0000001D          0x08000202   Section        0  libinit2.o(.ARM.Collect$$libinit$$0000001D)
    .ARM.Collect$$libinit$$0000001F          0x08000202   Section        0  libinit2.o(.ARM.Collect$$libinit$$0000001F)
    .ARM.Collect$$libinit$$00000021          0x08000202   Section        0  libinit2.o(.ARM.Collect$$libinit$$00000021)
    .ARM.Collect$$libinit$$00000023          0x08000202   Section        0  libinit2.o(.ARM.Collect$$libinit$$00000023)
    .ARM.Collect$$libinit$$00000025          0x08000202   Section        0  libinit2.o(.ARM.Collect$$libinit$$00000025)
    .ARM.Collect$$libinit$$0000002C          0x08000202   Section        0  libinit2.o(.ARM.Collect$$libinit$$0000002C)
    .ARM.Collect$$libinit$$0000002E          0x08000202   Section        0  libinit2.o(.ARM.Collect$$libinit$$0000002E)
    .ARM.Collect$$libinit$$00000030          0x08000202   Section        0  libinit2.o(.ARM.Collect$$libinit$$00000030)
    .ARM.Collect$$libinit$$00000032          0x08000202   Section        0  libinit2.o(.ARM.Collect$$libinit$$00000032)
    .ARM.Collect$$libinit$$00000033          0x08000202   Section        2  libinit2.o(.ARM.Collect$$libinit$$00000033)
    .ARM.Collect$$libshutdown$$00000000      0x08000204   Section        2  libshutdown.o(.ARM.Collect$$libshutdown$$00000000)
    .ARM.Collect$$libshutdown$$00000002      0x08000206   Section        0  libshutdown2.o(.ARM.Collect$$libshutdown$$00000002)
    .ARM.Collect$$libshutdown$$00000004      0x08000206   Section        0  libshutdown2.o(.ARM.Collect$$libshutdown$$00000004)
    .ARM.Collect$$libshutdown$$00000007      0x08000206   Section        0  libshutdown2.o(.ARM.Collect$$libshutdown$$00000007)
    .ARM.Collect$$libshutdown$$0000000A      0x08000206   Section        0  libshutdown2.o(.ARM.Collect$$libshutdown$$0000000A)
    .ARM.Collect$$libshutdown$$0000000C      0x08000206   Section        0  libshutdown2.o(.ARM.Collect$$libshutdown$$0000000C)
    .ARM.Collect$$libshutdown$$0000000F      0x08000206   Section        0  libshutdown2.o(.ARM.Collect$$libshutdown$$0000000F)
    .ARM.Collect$$libshutdown$$00000010      0x08000206   Section        2  libshutdown2.o(.ARM.Collect$$libshutdown$$00000010)
    .ARM.Collect$$rtentry$$00000000          0x08000208   Section        0  __rtentry.o(.ARM.Collect$$rtentry$$00000000)
    .ARM.Collect$$rtentry$$00000002          0x08000208   Section        0  __rtentry2.o(.ARM.Collect$$rtentry$$00000002)
    .ARM.Collect$$rtentry$$00000004          0x08000208   Section        6  __rtentry4.o(.ARM.Collect$$rtentry$$00000004)
    .ARM.Collect$$rtentry$$00000009          0x0800020e   Section        0  __rtentry2.o(.ARM.Collect$$rtentry$$00000009)
    .ARM.Collect$$rtentry$$0000000A          0x0800020e   Section        4  __rtentry2.o(.ARM.Collect$$rtentry$$0000000A)
    .ARM.Collect$$rtentry$$0000000C          0x08000212   Section        0  __rtentry2.o(.ARM.Collect$$rtentry$$0000000C)
    .ARM.Collect$$rtentry$$0000000D          0x08000212   Section        8  __rtentry2.o(.ARM.Collect$$rtentry$$0000000D)
    .ARM.Collect$$rtexit$$00000000           0x0800021a   Section        2  rtexit.o(.ARM.Collect$$rtexit$$00000000)
    .ARM.Collect$$rtexit$$00000002           0x0800021c   Section        0  rtexit2.o(.ARM.Collect$$rtexit$$00000002)
    .ARM.Collect$$rtexit$$00000003           0x0800021c   Section        4  rtexit2.o(.ARM.Collect$$rtexit$$00000003)
    .ARM.Collect$$rtexit$$00000004           0x08000220   Section        6  rtexit2.o(.ARM.Collect$$rtexit$$00000004)
    .text                                    0x08000228   Section       64  startup_stm32f405xx.o(.text)
    $v0                                      0x08000228   Number         0  startup_stm32f405xx.o(.text)
    .text                                    0x08000268   Section      238  lludivv7m.o(.text)
    .text                                    0x08000356   Section       78  rt_memclr_w.o(.text)
    .text                                    0x080003a4   Section        0  heapauxi.o(.text)
    .text                                    0x080003aa   Section        0  _rserrno.o(.text)
    .text                                    0x080003c0   Section        8  rt_errno_addr_intlibspace.o(.text)
    .text                                    0x080003c8   Section        8  libspace.o(.text)
    .text                                    0x080003d0   Section       74  sys_stackheap_outer.o(.text)
    .text                                    0x0800041a   Section        0  exit.o(.text)
    .text                                    0x0800042c   Section        0  sys_exit.o(.text)
    .text                                    0x08000438   Section        2  use_no_semi.o(.text)
    .text                                    0x0800043a   Section        0  indicate_semi.o(.text)
    i.ALL_Init                               0x0800043c   Section        0  chassis_task.o(i.ALL_Init)
    i.BusFault_Handler                       0x080004a4   Section        0  stm32f4xx_it.o(i.BusFault_Handler)
    i.CAN1_RX0_IRQHandler                    0x080004a8   Section        0  stm32f4xx_it.o(i.CAN1_RX0_IRQHandler)
    i.CAN2_RX0_IRQHandler                    0x080004b4   Section        0  stm32f4xx_it.o(i.CAN2_RX0_IRQHandler)
    i.ChassisMove_Control                    0x080004c0   Section        0  chassis_task.o(i.ChassisMove_Control)
    i.DMA1_Stream1_IRQHandler                0x080004dc   Section        0  stm32f4xx_it.o(i.DMA1_Stream1_IRQHandler)
    i.DMA1_Stream3_IRQHandler                0x080004e8   Section        0  stm32f4xx_it.o(i.DMA1_Stream3_IRQHandler)
    i.DMA1_Stream5_IRQHandler                0x080004f4   Section        0  stm32f4xx_it.o(i.DMA1_Stream5_IRQHandler)
    i.DMA1_Stream6_IRQHandler                0x08000500   Section        0  stm32f4xx_it.o(i.DMA1_Stream6_IRQHandler)
    i.DMA2_Stream2_IRQHandler                0x0800050c   Section        0  stm32f4xx_it.o(i.DMA2_Stream2_IRQHandler)
    i.DMA_CalcBaseAndBitshift                0x08000518   Section        0  stm32f4xx_hal_dma.o(i.DMA_CalcBaseAndBitshift)
    DMA_CalcBaseAndBitshift                  0x08000519   Thumb Code    34  stm32f4xx_hal_dma.o(i.DMA_CalcBaseAndBitshift)
    i.DMA_CheckFifoParam                     0x08000540   Section        0  stm32f4xx_hal_dma.o(i.DMA_CheckFifoParam)
    DMA_CheckFifoParam                       0x08000541   Thumb Code    84  stm32f4xx_hal_dma.o(i.DMA_CheckFifoParam)
    i.DMA_MultiBufferSetConfig               0x08000594   Section        0  stm32f4xx_hal_dma_ex.o(i.DMA_MultiBufferSetConfig)
    DMA_MultiBufferSetConfig                 0x08000595   Thumb Code    30  stm32f4xx_hal_dma_ex.o(i.DMA_MultiBufferSetConfig)
    i.DebugMon_Handler                       0x080005b2   Section        0  stm32f4xx_it.o(i.DebugMon_Handler)
    i.Error_Handler                          0x080005b4   Section        0  main.o(i.Error_Handler)
    i.FourSteering_MoveIK                    0x080005b8   Section        0  chassis_behavior.o(i.FourSteering_MoveIK)
    i.HAL_CAN_ActivateNotification           0x08000d74   Section        0  stm32f4xx_hal_can.o(i.HAL_CAN_ActivateNotification)
    i.HAL_CAN_AddTxMessage                   0x08000d98   Section        0  stm32f4xx_hal_can.o(i.HAL_CAN_AddTxMessage)
    i.HAL_CAN_ConfigFilter                   0x08000e60   Section        0  stm32f4xx_hal_can.o(i.HAL_CAN_ConfigFilter)
    i.HAL_CAN_ErrorCallback                  0x08000f6c   Section        0  stm32f4xx_hal_can.o(i.HAL_CAN_ErrorCallback)
    i.HAL_CAN_GetRxMessage                   0x08000f6e   Section        0  stm32f4xx_hal_can.o(i.HAL_CAN_GetRxMessage)
    i.HAL_CAN_IRQHandler                     0x08001056   Section        0  stm32f4xx_hal_can.o(i.HAL_CAN_IRQHandler)
    i.HAL_CAN_Init                           0x0800124c   Section        0  stm32f4xx_hal_can.o(i.HAL_CAN_Init)
    i.HAL_CAN_MspInit                        0x080013dc   Section        0  can.o(i.HAL_CAN_MspInit)
    i.HAL_CAN_RegisterCallback               0x080014dc   Section        0  stm32f4xx_hal_can.o(i.HAL_CAN_RegisterCallback)
    i.HAL_CAN_RxFifo0FullCallback            0x08001568   Section        0  stm32f4xx_hal_can.o(i.HAL_CAN_RxFifo0FullCallback)
    i.HAL_CAN_RxFifo0MsgPendingCallback      0x0800156a   Section        0  stm32f4xx_hal_can.o(i.HAL_CAN_RxFifo0MsgPendingCallback)
    i.HAL_CAN_RxFifo1FullCallback            0x0800156c   Section        0  stm32f4xx_hal_can.o(i.HAL_CAN_RxFifo1FullCallback)
    i.HAL_CAN_RxFifo1MsgPendingCallback      0x0800156e   Section        0  stm32f4xx_hal_can.o(i.HAL_CAN_RxFifo1MsgPendingCallback)
    i.HAL_CAN_SleepCallback                  0x08001570   Section        0  stm32f4xx_hal_can.o(i.HAL_CAN_SleepCallback)
    i.HAL_CAN_Start                          0x08001574   Section        0  stm32f4xx_hal_can.o(i.HAL_CAN_Start)
    i.HAL_CAN_TxMailbox0AbortCallback        0x080015cc   Section        0  stm32f4xx_hal_can.o(i.HAL_CAN_TxMailbox0AbortCallback)
    i.HAL_CAN_TxMailbox0CompleteCallback     0x080015ce   Section        0  stm32f4xx_hal_can.o(i.HAL_CAN_TxMailbox0CompleteCallback)
    i.HAL_CAN_TxMailbox1AbortCallback        0x080015d0   Section        0  stm32f4xx_hal_can.o(i.HAL_CAN_TxMailbox1AbortCallback)
    i.HAL_CAN_TxMailbox1CompleteCallback     0x080015d2   Section        0  stm32f4xx_hal_can.o(i.HAL_CAN_TxMailbox1CompleteCallback)
    i.HAL_CAN_TxMailbox2AbortCallback        0x080015d4   Section        0  stm32f4xx_hal_can.o(i.HAL_CAN_TxMailbox2AbortCallback)
    i.HAL_CAN_TxMailbox2CompleteCallback     0x080015d6   Section        0  stm32f4xx_hal_can.o(i.HAL_CAN_TxMailbox2CompleteCallback)
    i.HAL_CAN_WakeUpFromRxMsgCallback        0x080015d8   Section        0  stm32f4xx_hal_can.o(i.HAL_CAN_WakeUpFromRxMsgCallback)
    i.HAL_DMAEx_MultiBufferStart             0x080015da   Section        0  stm32f4xx_hal_dma_ex.o(i.HAL_DMAEx_MultiBufferStart)
    i.HAL_DMA_Abort                          0x0800163e   Section        0  stm32f4xx_hal_dma.o(i.HAL_DMA_Abort)
    i.HAL_DMA_Abort_IT                       0x080016d0   Section        0  stm32f4xx_hal_dma.o(i.HAL_DMA_Abort_IT)
    i.HAL_DMA_IRQHandler                     0x080016f4   Section        0  stm32f4xx_hal_dma.o(i.HAL_DMA_IRQHandler)
    i.HAL_DMA_Init                           0x08001894   Section        0  stm32f4xx_hal_dma.o(i.HAL_DMA_Init)
    i.HAL_GPIO_Init                          0x08001968   Section        0  stm32f4xx_hal_gpio.o(i.HAL_GPIO_Init)
    i.HAL_GetTick                            0x08001b58   Section        0  stm32f4xx_hal.o(i.HAL_GetTick)
    i.HAL_IncTick                            0x08001b64   Section        0  stm32f4xx_hal.o(i.HAL_IncTick)
    i.HAL_Init                               0x08001b74   Section        0  stm32f4xx_hal.o(i.HAL_Init)
    i.HAL_InitTick                           0x08001ba8   Section        0  stm32f4xx_hal.o(i.HAL_InitTick)
    i.HAL_MspInit                            0x08001be8   Section        0  stm32f4xx_hal_msp.o(i.HAL_MspInit)
    i.HAL_NVIC_EnableIRQ                     0x08001c18   Section        0  stm32f4xx_hal_cortex.o(i.HAL_NVIC_EnableIRQ)
    i.HAL_NVIC_SetPriority                   0x08001c34   Section        0  stm32f4xx_hal_cortex.o(i.HAL_NVIC_SetPriority)
    i.HAL_NVIC_SetPriorityGrouping           0x08001c74   Section        0  stm32f4xx_hal_cortex.o(i.HAL_NVIC_SetPriorityGrouping)
    i.HAL_RCC_ClockConfig                    0x08001c98   Section        0  stm32f4xx_hal_rcc.o(i.HAL_RCC_ClockConfig)
    i.HAL_RCC_GetPCLK1Freq                   0x08001dcc   Section        0  stm32f4xx_hal_rcc.o(i.HAL_RCC_GetPCLK1Freq)
    i.HAL_RCC_GetPCLK2Freq                   0x08001dec   Section        0  stm32f4xx_hal_rcc.o(i.HAL_RCC_GetPCLK2Freq)
    i.HAL_RCC_GetSysClockFreq                0x08001e0c   Section        0  stm32f4xx_hal_rcc.o(i.HAL_RCC_GetSysClockFreq)
    i.HAL_RCC_OscConfig                      0x08001e6c   Section        0  stm32f4xx_hal_rcc.o(i.HAL_RCC_OscConfig)
    i.HAL_SYSTICK_Config                     0x080021d8   Section        0  stm32f4xx_hal_cortex.o(i.HAL_SYSTICK_Config)
    i.HAL_TIMEx_BreakCallback                0x08002200   Section        0  stm32f4xx_hal_tim_ex.o(i.HAL_TIMEx_BreakCallback)
    i.HAL_TIMEx_CommutCallback               0x08002202   Section        0  stm32f4xx_hal_tim_ex.o(i.HAL_TIMEx_CommutCallback)
    i.HAL_TIMEx_CommutHalfCpltCallback       0x08002204   Section        0  stm32f4xx_hal_tim_ex.o(i.HAL_TIMEx_CommutHalfCpltCallback)
    i.HAL_TIMEx_MasterConfigSynchronization  0x08002208   Section        0  stm32f4xx_hal_tim_ex.o(i.HAL_TIMEx_MasterConfigSynchronization)
    i.HAL_TIM_Base_Init                      0x08002298   Section        0  stm32f4xx_hal_tim.o(i.HAL_TIM_Base_Init)
    i.HAL_TIM_Base_MspInit                   0x08002304   Section        0  tim.o(i.HAL_TIM_Base_MspInit)
    i.HAL_TIM_Base_Start_IT                  0x0800233c   Section        0  stm32f4xx_hal_tim.o(i.HAL_TIM_Base_Start_IT)
    i.HAL_TIM_ConfigClockSource              0x080023bc   Section        0  stm32f4xx_hal_tim.o(i.HAL_TIM_ConfigClockSource)
    i.HAL_TIM_ErrorCallback                  0x08002498   Section        0  stm32f4xx_hal_tim.o(i.HAL_TIM_ErrorCallback)
    i.HAL_TIM_IC_CaptureCallback             0x0800249a   Section        0  stm32f4xx_hal_tim.o(i.HAL_TIM_IC_CaptureCallback)
    i.HAL_TIM_IC_CaptureHalfCpltCallback     0x0800249c   Section        0  stm32f4xx_hal_tim.o(i.HAL_TIM_IC_CaptureHalfCpltCallback)
    i.HAL_TIM_IRQHandler                     0x0800249e   Section        0  stm32f4xx_hal_tim.o(i.HAL_TIM_IRQHandler)
    i.HAL_TIM_OC_DelayElapsedCallback        0x0800261c   Section        0  stm32f4xx_hal_tim.o(i.HAL_TIM_OC_DelayElapsedCallback)
    i.HAL_TIM_PWM_PulseFinishedCallback      0x0800261e   Section        0  stm32f4xx_hal_tim.o(i.HAL_TIM_PWM_PulseFinishedCallback)
    i.HAL_TIM_PWM_PulseFinishedHalfCpltCallback 0x08002620   Section        0  stm32f4xx_hal_tim.o(i.HAL_TIM_PWM_PulseFinishedHalfCpltCallback)
    i.HAL_TIM_PeriodElapsedCallback          0x08002622   Section        0  stm32f4xx_hal_tim.o(i.HAL_TIM_PeriodElapsedCallback)
    i.HAL_TIM_PeriodElapsedHalfCpltCallback  0x08002624   Section        0  stm32f4xx_hal_tim.o(i.HAL_TIM_PeriodElapsedHalfCpltCallback)
    i.HAL_TIM_RegisterCallback               0x08002626   Section        0  stm32f4xx_hal_tim.o(i.HAL_TIM_RegisterCallback)
    i.HAL_TIM_TriggerCallback                0x08002720   Section        0  stm32f4xx_hal_tim.o(i.HAL_TIM_TriggerCallback)
    i.HAL_TIM_TriggerHalfCpltCallback        0x08002722   Section        0  stm32f4xx_hal_tim.o(i.HAL_TIM_TriggerHalfCpltCallback)
    i.HAL_UARTEx_RxEventCallback             0x08002724   Section        0  stm32f4xx_hal_uart.o(i.HAL_UARTEx_RxEventCallback)
    i.HAL_UART_AbortCpltCallback             0x08002726   Section        0  stm32f4xx_hal_uart.o(i.HAL_UART_AbortCpltCallback)
    i.HAL_UART_AbortReceiveCpltCallback      0x08002728   Section        0  stm32f4xx_hal_uart.o(i.HAL_UART_AbortReceiveCpltCallback)
    i.HAL_UART_AbortTransmitCpltCallback     0x0800272a   Section        0  stm32f4xx_hal_uart.o(i.HAL_UART_AbortTransmitCpltCallback)
    i.HAL_UART_ErrorCallback                 0x0800272c   Section        0  stm32f4xx_hal_uart.o(i.HAL_UART_ErrorCallback)
    i.HAL_UART_IRQHandler                    0x08002730   Section        0  stm32f4xx_hal_uart.o(i.HAL_UART_IRQHandler)
    i.HAL_UART_Init                          0x08002998   Section        0  stm32f4xx_hal_uart.o(i.HAL_UART_Init)
    i.HAL_UART_MspInit                       0x08002a0c   Section        0  usart.o(i.HAL_UART_MspInit)
    i.HAL_UART_RegisterRxEventCallback       0x08002c68   Section        0  stm32f4xx_hal_uart.o(i.HAL_UART_RegisterRxEventCallback)
    i.HAL_UART_RxCpltCallback                0x08002caa   Section        0  stm32f4xx_hal_uart.o(i.HAL_UART_RxCpltCallback)
    i.HAL_UART_RxHalfCpltCallback            0x08002cac   Section        0  stm32f4xx_hal_uart.o(i.HAL_UART_RxHalfCpltCallback)
    i.HAL_UART_TxCpltCallback                0x08002cae   Section        0  stm32f4xx_hal_uart.o(i.HAL_UART_TxCpltCallback)
    i.HAL_UART_TxHalfCpltCallback            0x08002cb0   Section        0  stm32f4xx_hal_uart.o(i.HAL_UART_TxHalfCpltCallback)
    i.HardFault_Handler                      0x08002cb2   Section        0  stm32f4xx_it.o(i.HardFault_Handler)
    i.IFR_Absolute_Angle_Analysis            0x08002cb4   Section        0  ifr_dji_motor.o(i.IFR_Absolute_Angle_Analysis)
    IFR_Absolute_Angle_Analysis              0x08002cb5   Thumb Code    74  ifr_dji_motor.o(i.IFR_Absolute_Angle_Analysis)
    i.IFR_CAN_Init                           0x08002d00   Section        0  ifr_can.o(i.IFR_CAN_Init)
    i.IFR_CAN_Recevice_Callback              0x08002d94   Section        0  ifr_can.o(i.IFR_CAN_Recevice_Callback)
    i.IFR_DJI_Motor_Analysis                 0x08002df4   Section        0  ifr_dji_motor.o(i.IFR_DJI_Motor_Analysis)
    i.IFR_DJI_Motor_Init                     0x08002e38   Section        0  ifr_dji_motor.o(i.IFR_DJI_Motor_Init)
    i.IFR_DJI_Motor_Transmit                 0x08002e54   Section        0  ifr_dji_motor.o(i.IFR_DJI_Motor_Transmit)
    i.IFR_DJI_Remote_Analysis                0x08002f38   Section        0  ifr_dji_remote.o(i.IFR_DJI_Remote_Analysis)
    i.IFR_Incremental_PID                    0x08002fb4   Section        0  ifr_pid.o(i.IFR_Incremental_PID)
    i.IFR_Key_Analysis                       0x08003098   Section        0  ifr_dji_remote.o(i.IFR_Key_Analysis)
    IFR_Key_Analysis                         0x08003099   Thumb Code   124  ifr_dji_remote.o(i.IFR_Key_Analysis)
    i.IFR_PID_Param_Init                     0x0800311c   Section        0  ifr_pid.o(i.IFR_PID_Param_Init)
    i.IFR_Positional_PID                     0x08003134   Section        0  ifr_pid.o(i.IFR_Positional_PID)
    i.IFR_TIM_Init                           0x08003248   Section        0  ifr_tim.o(i.IFR_TIM_Init)
    i.IFR_TIM_Overflow_Callback              0x08003334   Section        0  ifr_tim.o(i.IFR_TIM_Overflow_Callback)
    i.IFR_UART_Double_Buffer_Recevice_Callback 0x0800340c   Section        0  ifr_usart.o(i.IFR_UART_Double_Buffer_Recevice_Callback)
    i.IFR_UART_Init                          0x080034d4   Section        0  ifr_usart.o(i.IFR_UART_Init)
    i.IMU_Analysis                           0x08003584   Section        0  imu_analyse.o(i.IMU_Analysis)
    i.MX_CAN1_Init                           0x080035dc   Section        0  can.o(i.MX_CAN1_Init)
    i.MX_CAN2_Init                           0x08003620   Section        0  can.o(i.MX_CAN2_Init)
    i.MX_DMA_Init                            0x08003664   Section        0  dma.o(i.MX_DMA_Init)
    i.MX_GPIO_Init                           0x080036e0   Section        0  gpio.o(i.MX_GPIO_Init)
    i.MX_TIM2_Init                           0x0800371c   Section        0  tim.o(i.MX_TIM2_Init)
    i.MX_USART1_UART_Init                    0x08003780   Section        0  usart.o(i.MX_USART1_UART_Init)
    i.MX_USART2_UART_Init                    0x080037c4   Section        0  usart.o(i.MX_USART2_UART_Init)
    i.MX_USART3_UART_Init                    0x080037fc   Section        0  usart.o(i.MX_USART3_UART_Init)
    i.MemManage_Handler                      0x08003834   Section        0  stm32f4xx_it.o(i.MemManage_Handler)
    i.MotorTarget_Set                        0x08003838   Section        0  chassis_behavior.o(i.MotorTarget_Set)
    i.Motor_ALL_Init                         0x08003968   Section        0  chassis_task.o(i.Motor_ALL_Init)
    i.Motor_Drive                            0x08003bc0   Section        0  chassis_behavior.o(i.Motor_Drive)
    i.NMI_Handler                            0x08003c70   Section        0  stm32f4xx_it.o(i.NMI_Handler)
    i.PendSV_Handler                         0x08003c72   Section        0  stm32f4xx_it.o(i.PendSV_Handler)
    i.SVC_Handler                            0x08003c74   Section        0  stm32f4xx_it.o(i.SVC_Handler)
    i.State_Machine                          0x08003c78   Section        0  ifr_state.o(i.State_Machine)
    i.State_Task                             0x08003cb4   Section        0  ifr_state.o(i.State_Task)
    State_Task                               0x08003cb5   Thumb Code    76  ifr_state.o(i.State_Task)
    i.SysTick_Handler                        0x08003d0c   Section        0  stm32f4xx_it.o(i.SysTick_Handler)
    i.SystemClock_Config                     0x08003d10   Section        0  main.o(i.SystemClock_Config)
    i.SystemInit                             0x08003da4   Section        0  system_stm32f4xx.o(i.SystemInit)
    i.TIM2_IRQHandler                        0x08003db4   Section        0  stm32f4xx_it.o(i.TIM2_IRQHandler)
    i.TIM_Base_SetConfig                     0x08003dc0   Section        0  stm32f4xx_hal_tim.o(i.TIM_Base_SetConfig)
    i.TIM_ETR_SetConfig                      0x08003e88   Section        0  stm32f4xx_hal_tim.o(i.TIM_ETR_SetConfig)
    i.TIM_ITRx_SetConfig                     0x08003e9c   Section        0  stm32f4xx_hal_tim.o(i.TIM_ITRx_SetConfig)
    TIM_ITRx_SetConfig                       0x08003e9d   Thumb Code    16  stm32f4xx_hal_tim.o(i.TIM_ITRx_SetConfig)
    i.TIM_ResetCallback                      0x08003eac   Section        0  stm32f4xx_hal_tim.o(i.TIM_ResetCallback)
    i.TIM_TI1_ConfigInputStage               0x08003f18   Section        0  stm32f4xx_hal_tim.o(i.TIM_TI1_ConfigInputStage)
    TIM_TI1_ConfigInputStage                 0x08003f19   Thumb Code    34  stm32f4xx_hal_tim.o(i.TIM_TI1_ConfigInputStage)
    i.TIM_TI2_ConfigInputStage               0x08003f3a   Section        0  stm32f4xx_hal_tim.o(i.TIM_TI2_ConfigInputStage)
    TIM_TI2_ConfigInputStage                 0x08003f3b   Thumb Code    36  stm32f4xx_hal_tim.o(i.TIM_TI2_ConfigInputStage)
    i.TarSpeed_Receive                       0x08003f60   Section        0  chassis_behavior.o(i.TarSpeed_Receive)
    i.UART_DMAAbortOnError                   0x08003f98   Section        0  stm32f4xx_hal_uart.o(i.UART_DMAAbortOnError)
    UART_DMAAbortOnError                     0x08003f99   Thumb Code    12  stm32f4xx_hal_uart.o(i.UART_DMAAbortOnError)
    i.UART_EndRxTransfer                     0x08003fa4   Section        0  stm32f4xx_hal_uart.o(i.UART_EndRxTransfer)
    UART_EndRxTransfer                       0x08003fa5   Thumb Code    78  stm32f4xx_hal_uart.o(i.UART_EndRxTransfer)
    i.UART_InitCallbacksToDefault            0x08003ff4   Section        0  stm32f4xx_hal_uart.o(i.UART_InitCallbacksToDefault)
    i.UART_Receive_IT                        0x08004040   Section        0  stm32f4xx_hal_uart.o(i.UART_Receive_IT)
    UART_Receive_IT                          0x08004041   Thumb Code   192  stm32f4xx_hal_uart.o(i.UART_Receive_IT)
    i.UART_SetConfig                         0x08004100   Section        0  stm32f4xx_hal_uart.o(i.UART_SetConfig)
    UART_SetConfig                           0x08004101   Thumb Code   258  stm32f4xx_hal_uart.o(i.UART_SetConfig)
    i.USART1_IRQHandler                      0x0800420c   Section        0  stm32f4xx_it.o(i.USART1_IRQHandler)
    i.USART2_IRQHandler                      0x08004218   Section        0  stm32f4xx_it.o(i.USART2_IRQHandler)
    i.USART3_IRQHandler                      0x08004224   Section        0  stm32f4xx_it.o(i.USART3_IRQHandler)
    i.UsageFault_Handler                     0x08004230   Section        0  stm32f4xx_it.o(i.UsageFault_Handler)
    i.__ARM_fpclassify                       0x08004232   Section        0  fpclassify.o(i.__ARM_fpclassify)
    i.__NVIC_SetPriority                     0x08004262   Section        0  stm32f4xx_hal_cortex.o(i.__NVIC_SetPriority)
    __NVIC_SetPriority                       0x08004263   Thumb Code    32  stm32f4xx_hal_cortex.o(i.__NVIC_SetPriority)
    i.__hardfp_atan                          0x08004288   Section        0  atan.o(i.__hardfp_atan)
    i.__hardfp_atan2                         0x08004560   Section        0  atan2.o(i.__hardfp_atan2)
    i.__hardfp_cos                           0x08004750   Section        0  cos.o(i.__hardfp_cos)
    i.__hardfp_sin                           0x08004818   Section        0  sin.o(i.__hardfp_sin)
    i.__hardfp_sqrt                          0x080048e0   Section        0  sqrt.o(i.__hardfp_sqrt)
    i.__ieee754_rem_pio2                     0x08004960   Section        0  rred.o(i.__ieee754_rem_pio2)
    i.__kernel_cos                           0x08004d98   Section        0  cos_i.o(i.__kernel_cos)
    i.__kernel_poly                          0x08004f08   Section        0  poly.o(i.__kernel_poly)
    i.__kernel_sin                           0x08005000   Section        0  sin_i.o(i.__kernel_sin)
    i.__mathlib_dbl_infnan                   0x08005130   Section        0  dunder.o(i.__mathlib_dbl_infnan)
    i.__mathlib_dbl_infnan2                  0x08005144   Section        0  dunder.o(i.__mathlib_dbl_infnan2)
    i.__mathlib_dbl_invalid                  0x08005158   Section        0  dunder.o(i.__mathlib_dbl_invalid)
    i.__mathlib_dbl_underflow                0x08005178   Section        0  dunder.o(i.__mathlib_dbl_underflow)
    i.atan                                   0x08005198   Section        0  atan.o(i.atan)
    i.fabs                                   0x080051a8   Section        0  fabs.o(i.fabs)
    i.main                                   0x080051c0   Section        0  main.o(i.main)
    x$fpl$basic                              0x080051ee   Section       24  basic.o(x$fpl$basic)
    $v0                                      0x080051ee   Number         0  basic.o(x$fpl$basic)
    x$fpl$d2f                                0x08005208   Section       98  d2f.o(x$fpl$d2f)
    $v0                                      0x08005208   Number         0  d2f.o(x$fpl$d2f)
    x$fpl$dadd                               0x0800526c   Section      336  daddsub_clz.o(x$fpl$dadd)
    $v0                                      0x0800526c   Number         0  daddsub_clz.o(x$fpl$dadd)
    _dadd1                                   0x0800527d   Thumb Code     0  daddsub_clz.o(x$fpl$dadd)
    x$fpl$dcmpinf                            0x080053bc   Section       24  dcmpi.o(x$fpl$dcmpinf)
    $v0                                      0x080053bc   Number         0  dcmpi.o(x$fpl$dcmpinf)
    x$fpl$ddiv                               0x080053d4   Section      688  ddiv.o(x$fpl$ddiv)
    $v0                                      0x080053d4   Number         0  ddiv.o(x$fpl$ddiv)
    ddiv_entry                               0x080053db   Thumb Code     0  ddiv.o(x$fpl$ddiv)
    x$fpl$deqf                               0x08005684   Section      120  deqf.o(x$fpl$deqf)
    $v0                                      0x08005684   Number         0  deqf.o(x$fpl$deqf)
    x$fpl$dfix                               0x080056fc   Section       94  dfix.o(x$fpl$dfix)
    $v0                                      0x080056fc   Number         0  dfix.o(x$fpl$dfix)
    x$fpl$dflt                               0x0800575a   Section       46  dflt_clz.o(x$fpl$dflt)
    $v0                                      0x0800575a   Number         0  dflt_clz.o(x$fpl$dflt)
    x$fpl$dfltu                              0x08005788   Section       38  dflt_clz.o(x$fpl$dfltu)
    $v0                                      0x08005788   Number         0  dflt_clz.o(x$fpl$dfltu)
    x$fpl$dleqf                              0x080057b0   Section      120  dleqf.o(x$fpl$dleqf)
    $v0                                      0x080057b0   Number         0  dleqf.o(x$fpl$dleqf)
    x$fpl$dmul                               0x08005828   Section      340  dmul.o(x$fpl$dmul)
    $v0                                      0x08005828   Number         0  dmul.o(x$fpl$dmul)
    x$fpl$dnaninf                            0x0800597c   Section      156  dnaninf.o(x$fpl$dnaninf)
    $v0                                      0x0800597c   Number         0  dnaninf.o(x$fpl$dnaninf)
    x$fpl$dretinf                            0x08005a18   Section       12  dretinf.o(x$fpl$dretinf)
    $v0                                      0x08005a18   Number         0  dretinf.o(x$fpl$dretinf)
    x$fpl$drleqf                             0x08005a24   Section      108  drleqf.o(x$fpl$drleqf)
    $v0                                      0x08005a24   Number         0  drleqf.o(x$fpl$drleqf)
    x$fpl$drsb                               0x08005a90   Section       22  daddsub_clz.o(x$fpl$drsb)
    $v0                                      0x08005a90   Number         0  daddsub_clz.o(x$fpl$drsb)
    x$fpl$dsqrt                              0x08005aa8   Section      408  dsqrt_umaal.o(x$fpl$dsqrt)
    $v0                                      0x08005aa8   Number         0  dsqrt_umaal.o(x$fpl$dsqrt)
    x$fpl$dsub                               0x08005c40   Section      468  daddsub_clz.o(x$fpl$dsub)
    $v0                                      0x08005c40   Number         0  daddsub_clz.o(x$fpl$dsub)
    _dsub1                                   0x08005c51   Thumb Code     0  daddsub_clz.o(x$fpl$dsub)
    x$fpl$f2d                                0x08005e14   Section       86  f2d.o(x$fpl$f2d)
    $v0                                      0x08005e14   Number         0  f2d.o(x$fpl$f2d)
    x$fpl$fnaninf                            0x08005e6a   Section      140  fnaninf.o(x$fpl$fnaninf)
    $v0                                      0x08005e6a   Number         0  fnaninf.o(x$fpl$fnaninf)
    x$fpl$fpinit                             0x08005ef6   Section       10  fpinit.o(x$fpl$fpinit)
    $v0                                      0x08005ef6   Number         0  fpinit.o(x$fpl$fpinit)
    x$fpl$fretinf                            0x08005f00   Section       10  fretinf.o(x$fpl$fretinf)
    $v0                                      0x08005f00   Number         0  fretinf.o(x$fpl$fretinf)
    .constdata                               0x08005f0a   Section        8  stm32f4xx_hal_dma.o(.constdata)
    x$fpl$usenofp                            0x08005f0a   Section        0  usenofp.o(x$fpl$usenofp)
    flagBitshiftOffset                       0x08005f0a   Data           8  stm32f4xx_hal_dma.o(.constdata)
    .constdata                               0x08005f12   Section       16  system_stm32f4xx.o(.constdata)
    .constdata                               0x08005f22   Section        8  system_stm32f4xx.o(.constdata)
    .constdata                               0x08005f30   Section      152  atan.o(.constdata)
    atanhi                                   0x08005f30   Data          32  atan.o(.constdata)
    atanlo                                   0x08005f50   Data          32  atan.o(.constdata)
    aTodd                                    0x08005f70   Data          40  atan.o(.constdata)
    aTeven                                   0x08005f98   Data          48  atan.o(.constdata)
    .constdata                               0x08005fc8   Section       48  cos_i.o(.constdata)
    C                                        0x08005fc8   Data          48  cos_i.o(.constdata)
    .constdata                               0x08005ff8   Section        8  qnan.o(.constdata)
    .constdata                               0x08006000   Section      200  rred.o(.constdata)
    pio2s                                    0x08006000   Data          48  rred.o(.constdata)
    twooverpi                                0x08006030   Data         152  rred.o(.constdata)
    .constdata                               0x080060c8   Section       40  sin_i.o(.constdata)
    S                                        0x080060c8   Data          40  sin_i.o(.constdata)
    .data                                    0x20000000   Section        4  can.o(.data)
    HAL_RCC_CAN1_CLK_ENABLED                 0x20000000   Data           4  can.o(.data)
    .data                                    0x20000004   Section       12  stm32f4xx_hal.o(.data)
    .data                                    0x20000010   Section        4  system_stm32f4xx.o(.data)
    .data                                    0x20000014   Section       26  ifr_dji_remote.o(.data)
    i                                        0x20000014   Data           4  ifr_dji_remote.o(.data)
    .data                                    0x2000002e   Section        1  ifr_state.o(.data)
    .data                                    0x20000030   Section       32  chassis_behavior.o(.data)
    .data                                    0x20000050   Section        8  imu_analyse.o(.data)
    .bss                                     0x20000058   Section      200  can.o(.bss)
    .bss                                     0x20000120   Section      180  tim.o(.bss)
    .bss                                     0x200001d4   Section      828  usart.o(.bss)
    .bss                                     0x20000510   Section     1264  chassis_task.o(.bss)
    .bss                                     0x20000a00   Section      180  ifr_can.o(.bss)
    .bss                                     0x20000ab4   Section      288  ifr_dji_motor.o(.bss)
    .bss                                     0x20000bd4   Section       96  ifr_dji_remote.o(.bss)
    .bss                                     0x20000c34   Section       60  ifr_tim.o(.bss)
    .bss                                     0x20000c70   Section      972  ifr_usart.o(.bss)
    .bss                                     0x2000103c   Section       88  chassis_behavior.o(.bss)
    .bss                                     0x20001094   Section       28  imu_analyse.o(.bss)
    .bss                                     0x200010b0   Section       96  libspace.o(.bss)
    HEAP                                     0x20001110   Section      512  startup_stm32f405xx.o(HEAP)
    Heap_Mem                                 0x20001110   Data         512  startup_stm32f405xx.o(HEAP)
    STACK                                    0x20001310   Section     1024  startup_stm32f405xx.o(STACK)
    Stack_Mem                                0x20001310   Data        1024  startup_stm32f405xx.o(STACK)
    __initial_sp                             0x20001710   Data           0  startup_stm32f405xx.o(STACK)

    Global Symbols

    Symbol Name                              Value     Ov Type        Size  Object(Section)

    BuildAttributes$$THM_ISAv4$E$P$D$K$B$S$7EM$VFPi3$EXTD16$VFPS$VFMA$PE$A:L22UL41UL21$X:L11$S22US41US21$IEEE1$IW$USESV6$~STKCKD$USESV7$~SHL$OTIME$ROPI$IEEEX$EBA8$UX$STANDARDLIB$REQ8$PRES8$EABIv2 0x00000000   Number         0  anon$$obj.o ABSOLUTE
    __ARM_use_no_argv                        0x00000000   Number         0  main.o ABSOLUTE
    __ARM_exceptions_init                     - Undefined Weak Reference
    __alloca_initialize                       - Undefined Weak Reference
    __arm_preinit_                            - Undefined Weak Reference
    __cpp_initialize__aeabi_                  - Undefined Weak Reference
    __cxa_finalize                            - Undefined Weak Reference
    __rt_locale                               - Undefined Weak Reference
    __sigvec_lookup                           - Undefined Weak Reference
    _atexit_init                              - Undefined Weak Reference
    _call_atexit_fns                          - Undefined Weak Reference
    _clock_init                               - Undefined Weak Reference
    _fp_trap_init                             - Undefined Weak Reference
    _fp_trap_shutdown                         - Undefined Weak Reference
    _get_lc_collate                           - Undefined Weak Reference
    _get_lc_ctype                             - Undefined Weak Reference
    _get_lc_monetary                          - Undefined Weak Reference
    _get_lc_numeric                           - Undefined Weak Reference
    _get_lc_time                              - Undefined Weak Reference
    _getenv_init                              - Undefined Weak Reference
    _handle_redirection                       - Undefined Weak Reference
    _init_alloc                               - Undefined Weak Reference
    _init_user_alloc                          - Undefined Weak Reference
    _initio                                   - Undefined Weak Reference
    _rand_init                                - Undefined Weak Reference
    _signal_finish                            - Undefined Weak Reference
    _signal_init                              - Undefined Weak Reference
    _terminate_alloc                          - Undefined Weak Reference
    _terminate_user_alloc                     - Undefined Weak Reference
    _terminateio                              - Undefined Weak Reference
    __Vectors_Size                           0x00000188   Number         0  startup_stm32f405xx.o ABSOLUTE
    __Vectors                                0x08000000   Data           4  startup_stm32f405xx.o(RESET)
    __Vectors_End                            0x08000188   Data           0  startup_stm32f405xx.o(RESET)
    __main                                   0x08000189   Thumb Code     8  __main.o(!!!main)
    __scatterload                            0x08000191   Thumb Code     0  __scatter.o(!!!scatter)
    __scatterload_rt2                        0x08000191   Thumb Code    44  __scatter.o(!!!scatter)
    __scatterload_rt2_thumb_only             0x08000191   Thumb Code     0  __scatter.o(!!!scatter)
    __scatterload_null                       0x0800019f   Thumb Code     0  __scatter.o(!!!scatter)
    __scatterload_copy                       0x080001c5   Thumb Code    26  __scatter_copy.o(!!handler_copy)
    __scatterload_zeroinit                   0x080001e1   Thumb Code    28  __scatter_zi.o(!!handler_zi)
    __rt_lib_init                            0x080001fd   Thumb Code     0  libinit.o(.ARM.Collect$$libinit$$00000000)
    __rt_lib_init_fp_1                       0x080001ff   Thumb Code     0  libinit2.o(.ARM.Collect$$libinit$$00000001)
    __rt_lib_init_alloca_1                   0x08000203   Thumb Code     0  libinit2.o(.ARM.Collect$$libinit$$0000002E)
    __rt_lib_init_argv_1                     0x08000203   Thumb Code     0  libinit2.o(.ARM.Collect$$libinit$$0000002C)
    __rt_lib_init_atexit_1                   0x08000203   Thumb Code     0  libinit2.o(.ARM.Collect$$libinit$$0000001B)
    __rt_lib_init_clock_1                    0x08000203   Thumb Code     0  libinit2.o(.ARM.Collect$$libinit$$00000021)
    __rt_lib_init_cpp_1                      0x08000203   Thumb Code     0  libinit2.o(.ARM.Collect$$libinit$$00000032)
    __rt_lib_init_exceptions_1               0x08000203   Thumb Code     0  libinit2.o(.ARM.Collect$$libinit$$00000030)
    __rt_lib_init_fp_trap_1                  0x08000203   Thumb Code     0  libinit2.o(.ARM.Collect$$libinit$$0000001F)
    __rt_lib_init_getenv_1                   0x08000203   Thumb Code     0  libinit2.o(.ARM.Collect$$libinit$$00000023)
    __rt_lib_init_heap_1                     0x08000203   Thumb Code     0  libinit2.o(.ARM.Collect$$libinit$$0000000A)
    __rt_lib_init_lc_collate_1               0x08000203   Thumb Code     0  libinit2.o(.ARM.Collect$$libinit$$00000011)
    __rt_lib_init_lc_ctype_1                 0x08000203   Thumb Code     0  libinit2.o(.ARM.Collect$$libinit$$00000013)
    __rt_lib_init_lc_monetary_1              0x08000203   Thumb Code     0  libinit2.o(.ARM.Collect$$libinit$$00000015)
    __rt_lib_init_lc_numeric_1               0x08000203   Thumb Code     0  libinit2.o(.ARM.Collect$$libinit$$00000017)
    __rt_lib_init_lc_time_1                  0x08000203   Thumb Code     0  libinit2.o(.ARM.Collect$$libinit$$00000019)
    __rt_lib_init_preinit_1                  0x08000203   Thumb Code     0  libinit2.o(.ARM.Collect$$libinit$$00000004)
    __rt_lib_init_rand_1                     0x08000203   Thumb Code     0  libinit2.o(.ARM.Collect$$libinit$$0000000E)
    __rt_lib_init_return                     0x08000203   Thumb Code     0  libinit2.o(.ARM.Collect$$libinit$$00000033)
    __rt_lib_init_signal_1                   0x08000203   Thumb Code     0  libinit2.o(.ARM.Collect$$libinit$$0000001D)
    __rt_lib_init_stdio_1                    0x08000203   Thumb Code     0  libinit2.o(.ARM.Collect$$libinit$$00000025)
    __rt_lib_init_user_alloc_1               0x08000203   Thumb Code     0  libinit2.o(.ARM.Collect$$libinit$$0000000C)
    __rt_lib_shutdown                        0x08000205   Thumb Code     0  libshutdown.o(.ARM.Collect$$libshutdown$$00000000)
    __rt_lib_shutdown_cpp_1                  0x08000207   Thumb Code     0  libshutdown2.o(.ARM.Collect$$libshutdown$$00000002)
    __rt_lib_shutdown_fp_trap_1              0x08000207   Thumb Code     0  libshutdown2.o(.ARM.Collect$$libshutdown$$00000007)
    __rt_lib_shutdown_heap_1                 0x08000207   Thumb Code     0  libshutdown2.o(.ARM.Collect$$libshutdown$$0000000F)
    __rt_lib_shutdown_return                 0x08000207   Thumb Code     0  libshutdown2.o(.ARM.Collect$$libshutdown$$00000010)
    __rt_lib_shutdown_signal_1               0x08000207   Thumb Code     0  libshutdown2.o(.ARM.Collect$$libshutdown$$0000000A)
    __rt_lib_shutdown_stdio_1                0x08000207   Thumb Code     0  libshutdown2.o(.ARM.Collect$$libshutdown$$00000004)
    __rt_lib_shutdown_user_alloc_1           0x08000207   Thumb Code     0  libshutdown2.o(.ARM.Collect$$libshutdown$$0000000C)
    __rt_entry                               0x08000209   Thumb Code     0  __rtentry.o(.ARM.Collect$$rtentry$$00000000)
    __rt_entry_presh_1                       0x08000209   Thumb Code     0  __rtentry2.o(.ARM.Collect$$rtentry$$00000002)
    __rt_entry_sh                            0x08000209   Thumb Code     0  __rtentry4.o(.ARM.Collect$$rtentry$$00000004)
    __rt_entry_li                            0x0800020f   Thumb Code     0  __rtentry2.o(.ARM.Collect$$rtentry$$0000000A)
    __rt_entry_postsh_1                      0x0800020f   Thumb Code     0  __rtentry2.o(.ARM.Collect$$rtentry$$00000009)
    __rt_entry_main                          0x08000213   Thumb Code     0  __rtentry2.o(.ARM.Collect$$rtentry$$0000000D)
    __rt_entry_postli_1                      0x08000213   Thumb Code     0  __rtentry2.o(.ARM.Collect$$rtentry$$0000000C)
    __rt_exit                                0x0800021b   Thumb Code     0  rtexit.o(.ARM.Collect$$rtexit$$00000000)
    __rt_exit_ls                             0x0800021d   Thumb Code     0  rtexit2.o(.ARM.Collect$$rtexit$$00000003)
    __rt_exit_prels_1                        0x0800021d   Thumb Code     0  rtexit2.o(.ARM.Collect$$rtexit$$00000002)
    __rt_exit_exit                           0x08000221   Thumb Code     0  rtexit2.o(.ARM.Collect$$rtexit$$00000004)
    Reset_Handler                            0x08000229   Thumb Code     8  startup_stm32f405xx.o(.text)
    ADC_IRQHandler                           0x08000243   Thumb Code     0  startup_stm32f405xx.o(.text)
    CAN1_RX1_IRQHandler                      0x08000243   Thumb Code     0  startup_stm32f405xx.o(.text)
    CAN1_SCE_IRQHandler                      0x08000243   Thumb Code     0  startup_stm32f405xx.o(.text)
    CAN1_TX_IRQHandler                       0x08000243   Thumb Code     0  startup_stm32f405xx.o(.text)
    CAN2_RX1_IRQHandler                      0x08000243   Thumb Code     0  startup_stm32f405xx.o(.text)
    CAN2_SCE_IRQHandler                      0x08000243   Thumb Code     0  startup_stm32f405xx.o(.text)
    CAN2_TX_IRQHandler                       0x08000243   Thumb Code     0  startup_stm32f405xx.o(.text)
    DMA1_Stream0_IRQHandler                  0x08000243   Thumb Code     0  startup_stm32f405xx.o(.text)
    DMA1_Stream2_IRQHandler                  0x08000243   Thumb Code     0  startup_stm32f405xx.o(.text)
    DMA1_Stream4_IRQHandler                  0x08000243   Thumb Code     0  startup_stm32f405xx.o(.text)
    DMA1_Stream7_IRQHandler                  0x08000243   Thumb Code     0  startup_stm32f405xx.o(.text)
    DMA2_Stream0_IRQHandler                  0x08000243   Thumb Code     0  startup_stm32f405xx.o(.text)
    DMA2_Stream1_IRQHandler                  0x08000243   Thumb Code     0  startup_stm32f405xx.o(.text)
    DMA2_Stream3_IRQHandler                  0x08000243   Thumb Code     0  startup_stm32f405xx.o(.text)
    DMA2_Stream4_IRQHandler                  0x08000243   Thumb Code     0  startup_stm32f405xx.o(.text)
    DMA2_Stream5_IRQHandler                  0x08000243   Thumb Code     0  startup_stm32f405xx.o(.text)
    DMA2_Stream6_IRQHandler                  0x08000243   Thumb Code     0  startup_stm32f405xx.o(.text)
    DMA2_Stream7_IRQHandler                  0x08000243   Thumb Code     0  startup_stm32f405xx.o(.text)
    EXTI0_IRQHandler                         0x08000243   Thumb Code     0  startup_stm32f405xx.o(.text)
    EXTI15_10_IRQHandler                     0x08000243   Thumb Code     0  startup_stm32f405xx.o(.text)
    EXTI1_IRQHandler                         0x08000243   Thumb Code     0  startup_stm32f405xx.o(.text)
    EXTI2_IRQHandler                         0x08000243   Thumb Code     0  startup_stm32f405xx.o(.text)
    EXTI3_IRQHandler                         0x08000243   Thumb Code     0  startup_stm32f405xx.o(.text)
    EXTI4_IRQHandler                         0x08000243   Thumb Code     0  startup_stm32f405xx.o(.text)
    EXTI9_5_IRQHandler                       0x08000243   Thumb Code     0  startup_stm32f405xx.o(.text)
    FLASH_IRQHandler                         0x08000243   Thumb Code     0  startup_stm32f405xx.o(.text)
    FMC_IRQHandler                           0x08000243   Thumb Code     0  startup_stm32f405xx.o(.text)
    FPU_IRQHandler                           0x08000243   Thumb Code     0  startup_stm32f405xx.o(.text)
    HASH_RNG_IRQHandler                      0x08000243   Thumb Code     0  startup_stm32f405xx.o(.text)
    I2C1_ER_IRQHandler                       0x08000243   Thumb Code     0  startup_stm32f405xx.o(.text)
    I2C1_EV_IRQHandler                       0x08000243   Thumb Code     0  startup_stm32f405xx.o(.text)
    I2C2_ER_IRQHandler                       0x08000243   Thumb Code     0  startup_stm32f405xx.o(.text)
    I2C2_EV_IRQHandler                       0x08000243   Thumb Code     0  startup_stm32f405xx.o(.text)
    I2C3_ER_IRQHandler                       0x08000243   Thumb Code     0  startup_stm32f405xx.o(.text)
    I2C3_EV_IRQHandler                       0x08000243   Thumb Code     0  startup_stm32f405xx.o(.text)
    OTG_FS_IRQHandler                        0x08000243   Thumb Code     0  startup_stm32f405xx.o(.text)
    OTG_FS_WKUP_IRQHandler                   0x08000243   Thumb Code     0  startup_stm32f405xx.o(.text)
    OTG_HS_EP1_IN_IRQHandler                 0x08000243   Thumb Code     0  startup_stm32f405xx.o(.text)
    OTG_HS_EP1_OUT_IRQHandler                0x08000243   Thumb Code     0  startup_stm32f405xx.o(.text)
    OTG_HS_IRQHandler                        0x08000243   Thumb Code     0  startup_stm32f405xx.o(.text)
    OTG_HS_WKUP_IRQHandler                   0x08000243   Thumb Code     0  startup_stm32f405xx.o(.text)
    PVD_IRQHandler                           0x08000243   Thumb Code     0  startup_stm32f405xx.o(.text)
    RCC_IRQHandler                           0x08000243   Thumb Code     0  startup_stm32f405xx.o(.text)
    RTC_Alarm_IRQHandler                     0x08000243   Thumb Code     0  startup_stm32f405xx.o(.text)
    RTC_WKUP_IRQHandler                      0x08000243   Thumb Code     0  startup_stm32f405xx.o(.text)
    SDIO_IRQHandler                          0x08000243   Thumb Code     0  startup_stm32f405xx.o(.text)
    SPI1_IRQHandler                          0x08000243   Thumb Code     0  startup_stm32f405xx.o(.text)
    SPI2_IRQHandler                          0x08000243   Thumb Code     0  startup_stm32f405xx.o(.text)
    SPI3_IRQHandler                          0x08000243   Thumb Code     0  startup_stm32f405xx.o(.text)
    TAMP_STAMP_IRQHandler                    0x08000243   Thumb Code     0  startup_stm32f405xx.o(.text)
    TIM1_BRK_TIM9_IRQHandler                 0x08000243   Thumb Code     0  startup_stm32f405xx.o(.text)
    TIM1_CC_IRQHandler                       0x08000243   Thumb Code     0  startup_stm32f405xx.o(.text)
    TIM1_TRG_COM_TIM11_IRQHandler            0x08000243   Thumb Code     0  startup_stm32f405xx.o(.text)
    TIM1_UP_TIM10_IRQHandler                 0x08000243   Thumb Code     0  startup_stm32f405xx.o(.text)
    TIM3_IRQHandler                          0x08000243   Thumb Code     0  startup_stm32f405xx.o(.text)
    TIM4_IRQHandler                          0x08000243   Thumb Code     0  startup_stm32f405xx.o(.text)
    TIM5_IRQHandler                          0x08000243   Thumb Code     0  startup_stm32f405xx.o(.text)
    TIM6_DAC_IRQHandler                      0x08000243   Thumb Code     0  startup_stm32f405xx.o(.text)
    TIM7_IRQHandler                          0x08000243   Thumb Code     0  startup_stm32f405xx.o(.text)
    TIM8_BRK_TIM12_IRQHandler                0x08000243   Thumb Code     0  startup_stm32f405xx.o(.text)
    TIM8_CC_IRQHandler                       0x08000243   Thumb Code     0  startup_stm32f405xx.o(.text)
    TIM8_TRG_COM_TIM14_IRQHandler            0x08000243   Thumb Code     0  startup_stm32f405xx.o(.text)
    TIM8_UP_TIM13_IRQHandler                 0x08000243   Thumb Code     0  startup_stm32f405xx.o(.text)
    UART4_IRQHandler                         0x08000243   Thumb Code     0  startup_stm32f405xx.o(.text)
    UART5_IRQHandler                         0x08000243   Thumb Code     0  startup_stm32f405xx.o(.text)
    USART6_IRQHandler                        0x08000243   Thumb Code     0  startup_stm32f405xx.o(.text)
    WWDG_IRQHandler                          0x08000243   Thumb Code     0  startup_stm32f405xx.o(.text)
    __user_initial_stackheap                 0x08000245   Thumb Code     0  startup_stm32f405xx.o(.text)
    __aeabi_uldivmod                         0x08000269   Thumb Code     0  lludivv7m.o(.text)
    _ll_udiv                                 0x08000269   Thumb Code   238  lludivv7m.o(.text)
    __aeabi_memclr4                          0x08000357   Thumb Code     0  rt_memclr_w.o(.text)
    __aeabi_memclr8                          0x08000357   Thumb Code     0  rt_memclr_w.o(.text)
    __rt_memclr_w                            0x08000357   Thumb Code    78  rt_memclr_w.o(.text)
    _memset_w                                0x0800035b   Thumb Code     0  rt_memclr_w.o(.text)
    __use_two_region_memory                  0x080003a5   Thumb Code     2  heapauxi.o(.text)
    __rt_heap_escrow$2region                 0x080003a7   Thumb Code     2  heapauxi.o(.text)
    __rt_heap_expand$2region                 0x080003a9   Thumb Code     2  heapauxi.o(.text)
    __read_errno                             0x080003ab   Thumb Code    10  _rserrno.o(.text)
    __set_errno                              0x080003b5   Thumb Code    12  _rserrno.o(.text)
    __aeabi_errno_addr                       0x080003c1   Thumb Code     8  rt_errno_addr_intlibspace.o(.text)
    __errno$intlibspace                      0x080003c1   Thumb Code     0  rt_errno_addr_intlibspace.o(.text)
    __rt_errno_addr$intlibspace              0x080003c1   Thumb Code     0  rt_errno_addr_intlibspace.o(.text)
    __user_libspace                          0x080003c9   Thumb Code     8  libspace.o(.text)
    __user_perproc_libspace                  0x080003c9   Thumb Code     0  libspace.o(.text)
    __user_perthread_libspace                0x080003c9   Thumb Code     0  libspace.o(.text)
    __user_setup_stackheap                   0x080003d1   Thumb Code    74  sys_stackheap_outer.o(.text)
    exit                                     0x0800041b   Thumb Code    18  exit.o(.text)
    _sys_exit                                0x0800042d   Thumb Code     8  sys_exit.o(.text)
    __I$use$semihosting                      0x08000439   Thumb Code     0  use_no_semi.o(.text)
    __use_no_semihosting_swi                 0x08000439   Thumb Code     2  use_no_semi.o(.text)
    __semihosting_library_function           0x0800043b   Thumb Code     0  indicate_semi.o(.text)
    ALL_Init                                 0x0800043d   Thumb Code    58  chassis_task.o(i.ALL_Init)
    BusFault_Handler                         0x080004a5   Thumb Code     2  stm32f4xx_it.o(i.BusFault_Handler)
    CAN1_RX0_IRQHandler                      0x080004a9   Thumb Code     6  stm32f4xx_it.o(i.CAN1_RX0_IRQHandler)
    CAN2_RX0_IRQHandler                      0x080004b5   Thumb Code     6  stm32f4xx_it.o(i.CAN2_RX0_IRQHandler)
    ChassisMove_Control                      0x080004c1   Thumb Code    22  chassis_task.o(i.ChassisMove_Control)
    DMA1_Stream1_IRQHandler                  0x080004dd   Thumb Code     6  stm32f4xx_it.o(i.DMA1_Stream1_IRQHandler)
    DMA1_Stream3_IRQHandler                  0x080004e9   Thumb Code     6  stm32f4xx_it.o(i.DMA1_Stream3_IRQHandler)
    DMA1_Stream5_IRQHandler                  0x080004f5   Thumb Code     6  stm32f4xx_it.o(i.DMA1_Stream5_IRQHandler)
    DMA1_Stream6_IRQHandler                  0x08000501   Thumb Code     6  stm32f4xx_it.o(i.DMA1_Stream6_IRQHandler)
    DMA2_Stream2_IRQHandler                  0x0800050d   Thumb Code     6  stm32f4xx_it.o(i.DMA2_Stream2_IRQHandler)
    DebugMon_Handler                         0x080005b3   Thumb Code     2  stm32f4xx_it.o(i.DebugMon_Handler)
    Error_Handler                            0x080005b5   Thumb Code     4  main.o(i.Error_Handler)
    FourSteering_MoveIK                      0x080005b9   Thumb Code  1968  chassis_behavior.o(i.FourSteering_MoveIK)
    HAL_CAN_ActivateNotification             0x08000d75   Thumb Code    36  stm32f4xx_hal_can.o(i.HAL_CAN_ActivateNotification)
    HAL_CAN_AddTxMessage                     0x08000d99   Thumb Code   200  stm32f4xx_hal_can.o(i.HAL_CAN_AddTxMessage)
    HAL_CAN_ConfigFilter                     0x08000e61   Thumb Code   262  stm32f4xx_hal_can.o(i.HAL_CAN_ConfigFilter)
    HAL_CAN_ErrorCallback                    0x08000f6d   Thumb Code     2  stm32f4xx_hal_can.o(i.HAL_CAN_ErrorCallback)
    HAL_CAN_GetRxMessage                     0x08000f6f   Thumb Code   232  stm32f4xx_hal_can.o(i.HAL_CAN_GetRxMessage)
    HAL_CAN_IRQHandler                       0x08001057   Thumb Code   500  stm32f4xx_hal_can.o(i.HAL_CAN_IRQHandler)
    HAL_CAN_Init                             0x0800124d   Thumb Code   342  stm32f4xx_hal_can.o(i.HAL_CAN_Init)
    HAL_CAN_MspInit                          0x080013dd   Thumb Code   232  can.o(i.HAL_CAN_MspInit)
    HAL_CAN_RegisterCallback                 0x080014dd   Thumb Code   140  stm32f4xx_hal_can.o(i.HAL_CAN_RegisterCallback)
    HAL_CAN_RxFifo0FullCallback              0x08001569   Thumb Code     2  stm32f4xx_hal_can.o(i.HAL_CAN_RxFifo0FullCallback)
    HAL_CAN_RxFifo0MsgPendingCallback        0x0800156b   Thumb Code     2  stm32f4xx_hal_can.o(i.HAL_CAN_RxFifo0MsgPendingCallback)
    HAL_CAN_RxFifo1FullCallback              0x0800156d   Thumb Code     2  stm32f4xx_hal_can.o(i.HAL_CAN_RxFifo1FullCallback)
    HAL_CAN_RxFifo1MsgPendingCallback        0x0800156f   Thumb Code     2  stm32f4xx_hal_can.o(i.HAL_CAN_RxFifo1MsgPendingCallback)
    HAL_CAN_SleepCallback                    0x08001571   Thumb Code     2  stm32f4xx_hal_can.o(i.HAL_CAN_SleepCallback)
    HAL_CAN_Start                            0x08001575   Thumb Code    88  stm32f4xx_hal_can.o(i.HAL_CAN_Start)
    HAL_CAN_TxMailbox0AbortCallback          0x080015cd   Thumb Code     2  stm32f4xx_hal_can.o(i.HAL_CAN_TxMailbox0AbortCallback)
    HAL_CAN_TxMailbox0CompleteCallback       0x080015cf   Thumb Code     2  stm32f4xx_hal_can.o(i.HAL_CAN_TxMailbox0CompleteCallback)
    HAL_CAN_TxMailbox1AbortCallback          0x080015d1   Thumb Code     2  stm32f4xx_hal_can.o(i.HAL_CAN_TxMailbox1AbortCallback)
    HAL_CAN_TxMailbox1CompleteCallback       0x080015d3   Thumb Code     2  stm32f4xx_hal_can.o(i.HAL_CAN_TxMailbox1CompleteCallback)
    HAL_CAN_TxMailbox2AbortCallback          0x080015d5   Thumb Code     2  stm32f4xx_hal_can.o(i.HAL_CAN_TxMailbox2AbortCallback)
    HAL_CAN_TxMailbox2CompleteCallback       0x080015d7   Thumb Code     2  stm32f4xx_hal_can.o(i.HAL_CAN_TxMailbox2CompleteCallback)
    HAL_CAN_WakeUpFromRxMsgCallback          0x080015d9   Thumb Code     2  stm32f4xx_hal_can.o(i.HAL_CAN_WakeUpFromRxMsgCallback)
    HAL_DMAEx_MultiBufferStart               0x080015db   Thumb Code   100  stm32f4xx_hal_dma_ex.o(i.HAL_DMAEx_MultiBufferStart)
    HAL_DMA_Abort                            0x0800163f   Thumb Code   146  stm32f4xx_hal_dma.o(i.HAL_DMA_Abort)
    HAL_DMA_Abort_IT                         0x080016d1   Thumb Code    36  stm32f4xx_hal_dma.o(i.HAL_DMA_Abort_IT)
    HAL_DMA_IRQHandler                       0x080016f5   Thumb Code   412  stm32f4xx_hal_dma.o(i.HAL_DMA_IRQHandler)
    HAL_DMA_Init                             0x08001895   Thumb Code   206  stm32f4xx_hal_dma.o(i.HAL_DMA_Init)
    HAL_GPIO_Init                            0x08001969   Thumb Code   450  stm32f4xx_hal_gpio.o(i.HAL_GPIO_Init)
    HAL_GetTick                              0x08001b59   Thumb Code     6  stm32f4xx_hal.o(i.HAL_GetTick)
    HAL_IncTick                              0x08001b65   Thumb Code    12  stm32f4xx_hal.o(i.HAL_IncTick)
    HAL_Init                                 0x08001b75   Thumb Code    48  stm32f4xx_hal.o(i.HAL_Init)
    HAL_InitTick                             0x08001ba9   Thumb Code    54  stm32f4xx_hal.o(i.HAL_InitTick)
    HAL_MspInit                              0x08001be9   Thumb Code    42  stm32f4xx_hal_msp.o(i.HAL_MspInit)
    HAL_NVIC_EnableIRQ                       0x08001c19   Thumb Code    26  stm32f4xx_hal_cortex.o(i.HAL_NVIC_EnableIRQ)
    HAL_NVIC_SetPriority                     0x08001c35   Thumb Code    60  stm32f4xx_hal_cortex.o(i.HAL_NVIC_SetPriority)
    HAL_NVIC_SetPriorityGrouping             0x08001c75   Thumb Code    26  stm32f4xx_hal_cortex.o(i.HAL_NVIC_SetPriorityGrouping)
    HAL_RCC_ClockConfig                      0x08001c99   Thumb Code   288  stm32f4xx_hal_rcc.o(i.HAL_RCC_ClockConfig)
    HAL_RCC_GetPCLK1Freq                     0x08001dcd   Thumb Code    20  stm32f4xx_hal_rcc.o(i.HAL_RCC_GetPCLK1Freq)
    HAL_RCC_GetPCLK2Freq                     0x08001ded   Thumb Code    20  stm32f4xx_hal_rcc.o(i.HAL_RCC_GetPCLK2Freq)
    HAL_RCC_GetSysClockFreq                  0x08001e0d   Thumb Code    88  stm32f4xx_hal_rcc.o(i.HAL_RCC_GetSysClockFreq)
    HAL_RCC_OscConfig                        0x08001e6d   Thumb Code   856  stm32f4xx_hal_rcc.o(i.HAL_RCC_OscConfig)
    HAL_SYSTICK_Config                       0x080021d9   Thumb Code    40  stm32f4xx_hal_cortex.o(i.HAL_SYSTICK_Config)
    HAL_TIMEx_BreakCallback                  0x08002201   Thumb Code     2  stm32f4xx_hal_tim_ex.o(i.HAL_TIMEx_BreakCallback)
    HAL_TIMEx_CommutCallback                 0x08002203   Thumb Code     2  stm32f4xx_hal_tim_ex.o(i.HAL_TIMEx_CommutCallback)
    HAL_TIMEx_CommutHalfCpltCallback         0x08002205   Thumb Code     2  stm32f4xx_hal_tim_ex.o(i.HAL_TIMEx_CommutHalfCpltCallback)
    HAL_TIMEx_MasterConfigSynchronization    0x08002209   Thumb Code   116  stm32f4xx_hal_tim_ex.o(i.HAL_TIMEx_MasterConfigSynchronization)
    HAL_TIM_Base_Init                        0x08002299   Thumb Code   104  stm32f4xx_hal_tim.o(i.HAL_TIM_Base_Init)
    HAL_TIM_Base_MspInit                     0x08002305   Thumb Code    50  tim.o(i.HAL_TIM_Base_MspInit)
    HAL_TIM_Base_Start_IT                    0x0800233d   Thumb Code   100  stm32f4xx_hal_tim.o(i.HAL_TIM_Base_Start_IT)
    HAL_TIM_ConfigClockSource                0x080023bd   Thumb Code   220  stm32f4xx_hal_tim.o(i.HAL_TIM_ConfigClockSource)
    HAL_TIM_ErrorCallback                    0x08002499   Thumb Code     2  stm32f4xx_hal_tim.o(i.HAL_TIM_ErrorCallback)
    HAL_TIM_IC_CaptureCallback               0x0800249b   Thumb Code     2  stm32f4xx_hal_tim.o(i.HAL_TIM_IC_CaptureCallback)
    HAL_TIM_IC_CaptureHalfCpltCallback       0x0800249d   Thumb Code     2  stm32f4xx_hal_tim.o(i.HAL_TIM_IC_CaptureHalfCpltCallback)
    HAL_TIM_IRQHandler                       0x0800249f   Thumb Code   382  stm32f4xx_hal_tim.o(i.HAL_TIM_IRQHandler)
    HAL_TIM_OC_DelayElapsedCallback          0x0800261d   Thumb Code     2  stm32f4xx_hal_tim.o(i.HAL_TIM_OC_DelayElapsedCallback)
    HAL_TIM_PWM_PulseFinishedCallback        0x0800261f   Thumb Code     2  stm32f4xx_hal_tim.o(i.HAL_TIM_PWM_PulseFinishedCallback)
    HAL_TIM_PWM_PulseFinishedHalfCpltCallback 0x08002621   Thumb Code     2  stm32f4xx_hal_tim.o(i.HAL_TIM_PWM_PulseFinishedHalfCpltCallback)
    HAL_TIM_PeriodElapsedCallback            0x08002623   Thumb Code     2  stm32f4xx_hal_tim.o(i.HAL_TIM_PeriodElapsedCallback)
    HAL_TIM_PeriodElapsedHalfCpltCallback    0x08002625   Thumb Code     2  stm32f4xx_hal_tim.o(i.HAL_TIM_PeriodElapsedHalfCpltCallback)
    HAL_TIM_RegisterCallback                 0x08002627   Thumb Code   250  stm32f4xx_hal_tim.o(i.HAL_TIM_RegisterCallback)
    HAL_TIM_TriggerCallback                  0x08002721   Thumb Code     2  stm32f4xx_hal_tim.o(i.HAL_TIM_TriggerCallback)
    HAL_TIM_TriggerHalfCpltCallback          0x08002723   Thumb Code     2  stm32f4xx_hal_tim.o(i.HAL_TIM_TriggerHalfCpltCallback)
    HAL_UARTEx_RxEventCallback               0x08002725   Thumb Code     2  stm32f4xx_hal_uart.o(i.HAL_UARTEx_RxEventCallback)
    HAL_UART_AbortCpltCallback               0x08002727   Thumb Code     2  stm32f4xx_hal_uart.o(i.HAL_UART_AbortCpltCallback)
    HAL_UART_AbortReceiveCpltCallback        0x08002729   Thumb Code     2  stm32f4xx_hal_uart.o(i.HAL_UART_AbortReceiveCpltCallback)
    HAL_UART_AbortTransmitCpltCallback       0x0800272b   Thumb Code     2  stm32f4xx_hal_uart.o(i.HAL_UART_AbortTransmitCpltCallback)
    HAL_UART_ErrorCallback                   0x0800272d   Thumb Code     2  stm32f4xx_hal_uart.o(i.HAL_UART_ErrorCallback)
    HAL_UART_IRQHandler                      0x08002731   Thumb Code   612  stm32f4xx_hal_uart.o(i.HAL_UART_IRQHandler)
    HAL_UART_Init                            0x08002999   Thumb Code   112  stm32f4xx_hal_uart.o(i.HAL_UART_Init)
    HAL_UART_MspInit                         0x08002a0d   Thumb Code   562  usart.o(i.HAL_UART_MspInit)
    HAL_UART_RegisterRxEventCallback         0x08002c69   Thumb Code    66  stm32f4xx_hal_uart.o(i.HAL_UART_RegisterRxEventCallback)
    HAL_UART_RxCpltCallback                  0x08002cab   Thumb Code     2  stm32f4xx_hal_uart.o(i.HAL_UART_RxCpltCallback)
    HAL_UART_RxHalfCpltCallback              0x08002cad   Thumb Code     2  stm32f4xx_hal_uart.o(i.HAL_UART_RxHalfCpltCallback)
    HAL_UART_TxCpltCallback                  0x08002caf   Thumb Code     2  stm32f4xx_hal_uart.o(i.HAL_UART_TxCpltCallback)
    HAL_UART_TxHalfCpltCallback              0x08002cb1   Thumb Code     2  stm32f4xx_hal_uart.o(i.HAL_UART_TxHalfCpltCallback)
    HardFault_Handler                        0x08002cb3   Thumb Code     2  stm32f4xx_it.o(i.HardFault_Handler)
    IFR_CAN_Init                             0x08002d01   Thumb Code   130  ifr_can.o(i.IFR_CAN_Init)
    IFR_CAN_Recevice_Callback                0x08002d95   Thumb Code    84  ifr_can.o(i.IFR_CAN_Recevice_Callback)
    IFR_DJI_Motor_Analysis                   0x08002df5   Thumb Code    64  ifr_dji_motor.o(i.IFR_DJI_Motor_Analysis)
    IFR_DJI_Motor_Init                       0x08002e39   Thumb Code    24  ifr_dji_motor.o(i.IFR_DJI_Motor_Init)
    IFR_DJI_Motor_Transmit                   0x08002e55   Thumb Code   214  ifr_dji_motor.o(i.IFR_DJI_Motor_Transmit)
    IFR_DJI_Remote_Analysis                  0x08002f39   Thumb Code   118  ifr_dji_remote.o(i.IFR_DJI_Remote_Analysis)
    IFR_Incremental_PID                      0x08002fb5   Thumb Code   222  ifr_pid.o(i.IFR_Incremental_PID)
    IFR_PID_Param_Init                       0x0800311d   Thumb Code    22  ifr_pid.o(i.IFR_PID_Param_Init)
    IFR_Positional_PID                       0x08003135   Thumb Code   270  ifr_pid.o(i.IFR_Positional_PID)
    IFR_TIM_Init                             0x08003249   Thumb Code   174  ifr_tim.o(i.IFR_TIM_Init)
    IFR_TIM_Overflow_Callback                0x08003335   Thumb Code   158  ifr_tim.o(i.IFR_TIM_Overflow_Callback)
    IFR_UART_Double_Buffer_Recevice_Callback 0x0800340d   Thumb Code   170  ifr_usart.o(i.IFR_UART_Double_Buffer_Recevice_Callback)
    IFR_UART_Init                            0x080034d5   Thumb Code   144  ifr_usart.o(i.IFR_UART_Init)
    IMU_Analysis                             0x08003585   Thumb Code    78  imu_analyse.o(i.IMU_Analysis)
    MX_CAN1_Init                             0x080035dd   Thumb Code    58  can.o(i.MX_CAN1_Init)
    MX_CAN2_Init                             0x08003621   Thumb Code    58  can.o(i.MX_CAN2_Init)
    MX_DMA_Init                              0x08003665   Thumb Code   120  dma.o(i.MX_DMA_Init)
    MX_GPIO_Init                             0x080036e1   Thumb Code    54  gpio.o(i.MX_GPIO_Init)
    MX_TIM2_Init                             0x0800371d   Thumb Code    96  tim.o(i.MX_TIM2_Init)
    MX_USART1_UART_Init                      0x08003781   Thumb Code    54  usart.o(i.MX_USART1_UART_Init)
    MX_USART2_UART_Init                      0x080037c5   Thumb Code    48  usart.o(i.MX_USART2_UART_Init)
    MX_USART3_UART_Init                      0x080037fd   Thumb Code    48  usart.o(i.MX_USART3_UART_Init)
    MemManage_Handler                        0x08003835   Thumb Code     2  stm32f4xx_it.o(i.MemManage_Handler)
    MotorTarget_Set                          0x08003839   Thumb Code   276  chassis_behavior.o(i.MotorTarget_Set)
    Motor_ALL_Init                           0x08003969   Thumb Code   558  chassis_task.o(i.Motor_ALL_Init)
    Motor_Drive                              0x08003bc1   Thumb Code   160  chassis_behavior.o(i.Motor_Drive)
    NMI_Handler                              0x08003c71   Thumb Code     2  stm32f4xx_it.o(i.NMI_Handler)
    PendSV_Handler                           0x08003c73   Thumb Code     2  stm32f4xx_it.o(i.PendSV_Handler)
    SVC_Handler                              0x08003c75   Thumb Code     2  stm32f4xx_it.o(i.SVC_Handler)
    State_Machine                            0x08003c79   Thumb Code    50  ifr_state.o(i.State_Machine)
    SysTick_Handler                          0x08003d0d   Thumb Code     4  stm32f4xx_it.o(i.SysTick_Handler)
    SystemClock_Config                       0x08003d11   Thumb Code   138  main.o(i.SystemClock_Config)
    SystemInit                               0x08003da5   Thumb Code    12  system_stm32f4xx.o(i.SystemInit)
    TIM2_IRQHandler                          0x08003db5   Thumb Code     6  stm32f4xx_it.o(i.TIM2_IRQHandler)
    TIM_Base_SetConfig                       0x08003dc1   Thumb Code   156  stm32f4xx_hal_tim.o(i.TIM_Base_SetConfig)
    TIM_ETR_SetConfig                        0x08003e89   Thumb Code    20  stm32f4xx_hal_tim.o(i.TIM_ETR_SetConfig)
    TIM_ResetCallback                        0x08003ead   Thumb Code    56  stm32f4xx_hal_tim.o(i.TIM_ResetCallback)
    TarSpeed_Receive                         0x08003f61   Thumb Code    52  chassis_behavior.o(i.TarSpeed_Receive)
    UART_InitCallbacksToDefault              0x08003ff5   Thumb Code    38  stm32f4xx_hal_uart.o(i.UART_InitCallbacksToDefault)
    USART1_IRQHandler                        0x0800420d   Thumb Code     6  stm32f4xx_it.o(i.USART1_IRQHandler)
    USART2_IRQHandler                        0x08004219   Thumb Code     6  stm32f4xx_it.o(i.USART2_IRQHandler)
    USART3_IRQHandler                        0x08004225   Thumb Code     6  stm32f4xx_it.o(i.USART3_IRQHandler)
    UsageFault_Handler                       0x08004231   Thumb Code     2  stm32f4xx_it.o(i.UsageFault_Handler)
    __ARM_fpclassify                         0x08004233   Thumb Code    48  fpclassify.o(i.__ARM_fpclassify)
    __hardfp_atan                            0x08004289   Thumb Code   622  atan.o(i.__hardfp_atan)
    __hardfp_atan2                           0x08004561   Thumb Code   432  atan2.o(i.__hardfp_atan2)
    __hardfp_cos                             0x08004751   Thumb Code   180  cos.o(i.__hardfp_cos)
    __hardfp_sin                             0x08004819   Thumb Code   180  sin.o(i.__hardfp_sin)
    __hardfp_sqrt                            0x080048e1   Thumb Code   122  sqrt.o(i.__hardfp_sqrt)
    __ieee754_rem_pio2                       0x08004961   Thumb Code   938  rred.o(i.__ieee754_rem_pio2)
    __kernel_cos                             0x08004d99   Thumb Code   322  cos_i.o(i.__kernel_cos)
    __kernel_poly                            0x08004f09   Thumb Code   248  poly.o(i.__kernel_poly)
    __kernel_sin                             0x08005001   Thumb Code   280  sin_i.o(i.__kernel_sin)
    __mathlib_dbl_infnan                     0x08005131   Thumb Code    20  dunder.o(i.__mathlib_dbl_infnan)
    __mathlib_dbl_infnan2                    0x08005145   Thumb Code    20  dunder.o(i.__mathlib_dbl_infnan2)
    __mathlib_dbl_invalid                    0x08005159   Thumb Code    24  dunder.o(i.__mathlib_dbl_invalid)
    __mathlib_dbl_underflow                  0x08005179   Thumb Code    24  dunder.o(i.__mathlib_dbl_underflow)
    atan                                     0x08005199   Thumb Code    16  atan.o(i.atan)
    fabs                                     0x080051a9   Thumb Code    24  fabs.o(i.fabs)
    main                                     0x080051c1   Thumb Code    46  main.o(i.main)
    __aeabi_dneg                             0x080051ef   Thumb Code     0  basic.o(x$fpl$basic)
    _dneg                                    0x080051ef   Thumb Code     6  basic.o(x$fpl$basic)
    __aeabi_fneg                             0x080051f5   Thumb Code     0  basic.o(x$fpl$basic)
    _fneg                                    0x080051f5   Thumb Code     6  basic.o(x$fpl$basic)
    _dabs                                    0x080051fb   Thumb Code     6  basic.o(x$fpl$basic)
    _fabs                                    0x08005201   Thumb Code     6  basic.o(x$fpl$basic)
    __aeabi_d2f                              0x08005209   Thumb Code     0  d2f.o(x$fpl$d2f)
    _d2f                                     0x08005209   Thumb Code    98  d2f.o(x$fpl$d2f)
    __aeabi_dadd                             0x0800526d   Thumb Code     0  daddsub_clz.o(x$fpl$dadd)
    _dadd                                    0x0800526d   Thumb Code   332  daddsub_clz.o(x$fpl$dadd)
    __fpl_dcmp_Inf                           0x080053bd   Thumb Code    24  dcmpi.o(x$fpl$dcmpinf)
    __aeabi_ddiv                             0x080053d5   Thumb Code     0  ddiv.o(x$fpl$ddiv)
    _ddiv                                    0x080053d5   Thumb Code   552  ddiv.o(x$fpl$ddiv)
    __aeabi_cdcmpeq                          0x08005685   Thumb Code     0  deqf.o(x$fpl$deqf)
    _dcmpeq                                  0x08005685   Thumb Code   120  deqf.o(x$fpl$deqf)
    __aeabi_d2iz                             0x080056fd   Thumb Code     0  dfix.o(x$fpl$dfix)
    _dfix                                    0x080056fd   Thumb Code    94  dfix.o(x$fpl$dfix)
    __aeabi_i2d                              0x0800575b   Thumb Code     0  dflt_clz.o(x$fpl$dflt)
    _dflt                                    0x0800575b   Thumb Code    46  dflt_clz.o(x$fpl$dflt)
    __aeabi_ui2d                             0x08005789   Thumb Code     0  dflt_clz.o(x$fpl$dfltu)
    _dfltu                                   0x08005789   Thumb Code    38  dflt_clz.o(x$fpl$dfltu)
    __aeabi_cdcmple                          0x080057b1   Thumb Code     0  dleqf.o(x$fpl$dleqf)
    _dcmple                                  0x080057b1   Thumb Code   120  dleqf.o(x$fpl$dleqf)
    __fpl_dcmple_InfNaN                      0x08005813   Thumb Code     0  dleqf.o(x$fpl$dleqf)
    __aeabi_dmul                             0x08005829   Thumb Code     0  dmul.o(x$fpl$dmul)
    _dmul                                    0x08005829   Thumb Code   332  dmul.o(x$fpl$dmul)
    __fpl_dnaninf                            0x0800597d   Thumb Code   156  dnaninf.o(x$fpl$dnaninf)
    __fpl_dretinf                            0x08005a19   Thumb Code    12  dretinf.o(x$fpl$dretinf)
    __aeabi_cdrcmple                         0x08005a25   Thumb Code     0  drleqf.o(x$fpl$drleqf)
    _drcmple                                 0x08005a25   Thumb Code   108  drleqf.o(x$fpl$drleqf)
    __aeabi_drsub                            0x08005a91   Thumb Code     0  daddsub_clz.o(x$fpl$drsb)
    _drsb                                    0x08005a91   Thumb Code    22  daddsub_clz.o(x$fpl$drsb)
    _dsqrt                                   0x08005aa9   Thumb Code   404  dsqrt_umaal.o(x$fpl$dsqrt)
    __aeabi_dsub                             0x08005c41   Thumb Code     0  daddsub_clz.o(x$fpl$dsub)
    _dsub                                    0x08005c41   Thumb Code   464  daddsub_clz.o(x$fpl$dsub)
    __aeabi_f2d                              0x08005e15   Thumb Code     0  f2d.o(x$fpl$f2d)
    _f2d                                     0x08005e15   Thumb Code    86  f2d.o(x$fpl$f2d)
    __fpl_fnaninf                            0x08005e6b   Thumb Code   140  fnaninf.o(x$fpl$fnaninf)
    _fp_init                                 0x08005ef7   Thumb Code    10  fpinit.o(x$fpl$fpinit)
    __fplib_config_fpu_vfp                   0x08005eff   Thumb Code     0  fpinit.o(x$fpl$fpinit)
    __fplib_config_pureend_doubles           0x08005eff   Thumb Code     0  fpinit.o(x$fpl$fpinit)
    __fpl_fretinf                            0x08005f01   Thumb Code    10  fretinf.o(x$fpl$fretinf)
    __I$use$fp                               0x08005f0a   Number         0  usenofp.o(x$fpl$usenofp)
    AHBPrescTable                            0x08005f12   Data          16  system_stm32f4xx.o(.constdata)
    APBPrescTable                            0x08005f22   Data           8  system_stm32f4xx.o(.constdata)
    __mathlib_zero                           0x08005ff8   Data           8  qnan.o(.constdata)
    Region$$Table$$Base                      0x080060f0   Number         0  anon$$obj.o(Region$$Table)
    Region$$Table$$Limit                     0x08006110   Number         0  anon$$obj.o(Region$$Table)
    uwTickFreq                               0x20000004   Data           1  stm32f4xx_hal.o(.data)
    uwTickPrio                               0x20000008   Data           4  stm32f4xx_hal.o(.data)
    uwTick                                   0x2000000c   Data           4  stm32f4xx_hal.o(.data)
    SystemCoreClock                          0x20000010   Data           4  system_stm32f4xx.o(.data)
    DJI_Remote                               0x20000018   Data          22  ifr_dji_remote.o(.data)
    State                                    0x2000002e   Data           1  ifr_state.o(.data)
    a                                        0x20000030   Data           4  chassis_behavior.o(.data)
    b                                        0x20000034   Data           4  chassis_behavior.o(.data)
    V_car                                    0x20000038   Data           8  chassis_behavior.o(.data)
    angle_car                                0x20000040   Data           8  chassis_behavior.o(.data)
    R_car                                    0x20000048   Data           8  chassis_behavior.o(.data)
    IMU_error_Yaw                            0x20000050   Data           1  imu_analyse.o(.data)
    Angle_add                                0x20000054   Data           4  imu_analyse.o(.data)
    hcan1                                    0x20000058   Data         100  can.o(.bss)
    hcan2                                    0x200000bc   Data         100  can.o(.bss)
    htim2                                    0x20000120   Data         180  tim.o(.bss)
    huart1                                   0x200001d4   Data         116  usart.o(.bss)
    huart2                                   0x20000248   Data         116  usart.o(.bss)
    huart3                                   0x200002bc   Data         116  usart.o(.bss)
    hdma_usart1_rx                           0x20000330   Data          96  usart.o(.bss)
    hdma_usart2_rx                           0x20000390   Data          96  usart.o(.bss)
    hdma_usart2_tx                           0x200003f0   Data          96  usart.o(.bss)
    hdma_usart3_rx                           0x20000450   Data          96  usart.o(.bss)
    hdma_usart3_tx                           0x200004b0   Data          96  usart.o(.bss)
    Chassis_control                          0x20000510   Data        1264  chassis_task.o(.bss)
    CAN_List                                 0x20000a00   Data         180  ifr_can.o(.bss)
    DJI_Motor                                0x20000ab4   Data         288  ifr_dji_motor.o(.bss)
    Keyboard_Data                            0x20000bd4   Data          96  ifr_dji_remote.o(.bss)
    TIM_List                                 0x20000c34   Data          60  ifr_tim.o(.bss)
    UART_List                                0x20000c70   Data         972  ifr_usart.o(.bss)
    angle                                    0x2000103c   Data          20  chassis_behavior.o(.bss)
    speed                                    0x20001050   Data          20  chassis_behavior.o(.bss)
    Motor_Tar                                0x20001064   Data          32  chassis_behavior.o(.bss)
    cir                                      0x20001084   Data          16  chassis_behavior.o(.bss)
    IMU                                      0x20001094   Data          28  imu_analyse.o(.bss)
    __libspace_start                         0x200010b0   Data          96  libspace.o(.bss)
    __temporary_stack_top$libspace           0x20001110   Data           0  libspace.o(.bss)



==============================================================================

Memory Map of the image

  Image Entry point : 0x08000189

  Load Region LR_IROM1 (Base: 0x08000000, Size: 0x00006168, Max: 0x00100000, ABSOLUTE)

    Execution Region ER_IROM1 (Exec base: 0x08000000, Load base: 0x08000000, Size: 0x00006110, Max: 0x00100000, ABSOLUTE)

    Exec Addr    Load Addr    Size         Type   Attr      Idx    E Section Name        Object

    0x08000000   0x08000000   0x00000188   Data   RO            3    RESET               startup_stm32f405xx.o
    0x08000188   0x08000188   0x00000008   Code   RO         3918  * !!!main             c_w.l(__main.o)
    0x08000190   0x08000190   0x00000034   Code   RO         4242    !!!scatter          c_w.l(__scatter.o)
    0x080001c4   0x080001c4   0x0000001a   Code   RO         4244    !!handler_copy      c_w.l(__scatter_copy.o)
    0x080001de   0x080001de   0x00000002   PAD
    0x080001e0   0x080001e0   0x0000001c   Code   RO         4246    !!handler_zi        c_w.l(__scatter_zi.o)
    0x080001fc   0x080001fc   0x00000002   Code   RO         4115    .ARM.Collect$$libinit$$00000000  c_w.l(libinit.o)
    0x080001fe   0x080001fe   0x00000004   Code   RO         4124    .ARM.Collect$$libinit$$00000001  c_w.l(libinit2.o)
    0x08000202   0x08000202   0x00000000   Code   RO         4127    .ARM.Collect$$libinit$$00000004  c_w.l(libinit2.o)
    0x08000202   0x08000202   0x00000000   Code   RO         4130    .ARM.Collect$$libinit$$0000000A  c_w.l(libinit2.o)
    0x08000202   0x08000202   0x00000000   Code   RO         4132    .ARM.Collect$$libinit$$0000000C  c_w.l(libinit2.o)
    0x08000202   0x08000202   0x00000000   Code   RO         4134    .ARM.Collect$$libinit$$0000000E  c_w.l(libinit2.o)
    0x08000202   0x08000202   0x00000000   Code   RO         4137    .ARM.Collect$$libinit$$00000011  c_w.l(libinit2.o)
    0x08000202   0x08000202   0x00000000   Code   RO         4139    .ARM.Collect$$libinit$$00000013  c_w.l(libinit2.o)
    0x08000202   0x08000202   0x00000000   Code   RO         4141    .ARM.Collect$$libinit$$00000015  c_w.l(libinit2.o)
    0x08000202   0x08000202   0x00000000   Code   RO         4143    .ARM.Collect$$libinit$$00000017  c_w.l(libinit2.o)
    0x08000202   0x08000202   0x00000000   Code   RO         4145    .ARM.Collect$$libinit$$00000019  c_w.l(libinit2.o)
    0x08000202   0x08000202   0x00000000   Code   RO         4147    .ARM.Collect$$libinit$$0000001B  c_w.l(libinit2.o)
    0x08000202   0x08000202   0x00000000   Code   RO         4149    .ARM.Collect$$libinit$$0000001D  c_w.l(libinit2.o)
    0x08000202   0x08000202   0x00000000   Code   RO         4151    .ARM.Collect$$libinit$$0000001F  c_w.l(libinit2.o)
    0x08000202   0x08000202   0x00000000   Code   RO         4153    .ARM.Collect$$libinit$$00000021  c_w.l(libinit2.o)
    0x08000202   0x08000202   0x00000000   Code   RO         4155    .ARM.Collect$$libinit$$00000023  c_w.l(libinit2.o)
    0x08000202   0x08000202   0x00000000   Code   RO         4157    .ARM.Collect$$libinit$$00000025  c_w.l(libinit2.o)
    0x08000202   0x08000202   0x00000000   Code   RO         4161    .ARM.Collect$$libinit$$0000002C  c_w.l(libinit2.o)
    0x08000202   0x08000202   0x00000000   Code   RO         4163    .ARM.Collect$$libinit$$0000002E  c_w.l(libinit2.o)
    0x08000202   0x08000202   0x00000000   Code   RO         4165    .ARM.Collect$$libinit$$00000030  c_w.l(libinit2.o)
    0x08000202   0x08000202   0x00000000   Code   RO         4167    .ARM.Collect$$libinit$$00000032  c_w.l(libinit2.o)
    0x08000202   0x08000202   0x00000002   Code   RO         4168    .ARM.Collect$$libinit$$00000033  c_w.l(libinit2.o)
    0x08000204   0x08000204   0x00000002   Code   RO         4199    .ARM.Collect$$libshutdown$$00000000  c_w.l(libshutdown.o)
    0x08000206   0x08000206   0x00000000   Code   RO         4225    .ARM.Collect$$libshutdown$$00000002  c_w.l(libshutdown2.o)
    0x08000206   0x08000206   0x00000000   Code   RO         4227    .ARM.Collect$$libshutdown$$00000004  c_w.l(libshutdown2.o)
    0x08000206   0x08000206   0x00000000   Code   RO         4230    .ARM.Collect$$libshutdown$$00000007  c_w.l(libshutdown2.o)
    0x08000206   0x08000206   0x00000000   Code   RO         4233    .ARM.Collect$$libshutdown$$0000000A  c_w.l(libshutdown2.o)
    0x08000206   0x08000206   0x00000000   Code   RO         4235    .ARM.Collect$$libshutdown$$0000000C  c_w.l(libshutdown2.o)
    0x08000206   0x08000206   0x00000000   Code   RO         4238    .ARM.Collect$$libshutdown$$0000000F  c_w.l(libshutdown2.o)
    0x08000206   0x08000206   0x00000002   Code   RO         4239    .ARM.Collect$$libshutdown$$00000010  c_w.l(libshutdown2.o)
    0x08000208   0x08000208   0x00000000   Code   RO         3998    .ARM.Collect$$rtentry$$00000000  c_w.l(__rtentry.o)
    0x08000208   0x08000208   0x00000000   Code   RO         4070    .ARM.Collect$$rtentry$$00000002  c_w.l(__rtentry2.o)
    0x08000208   0x08000208   0x00000006   Code   RO         4082    .ARM.Collect$$rtentry$$00000004  c_w.l(__rtentry4.o)
    0x0800020e   0x0800020e   0x00000000   Code   RO         4072    .ARM.Collect$$rtentry$$00000009  c_w.l(__rtentry2.o)
    0x0800020e   0x0800020e   0x00000004   Code   RO         4073    .ARM.Collect$$rtentry$$0000000A  c_w.l(__rtentry2.o)
    0x08000212   0x08000212   0x00000000   Code   RO         4075    .ARM.Collect$$rtentry$$0000000C  c_w.l(__rtentry2.o)
    0x08000212   0x08000212   0x00000008   Code   RO         4076    .ARM.Collect$$rtentry$$0000000D  c_w.l(__rtentry2.o)
    0x0800021a   0x0800021a   0x00000002   Code   RO         4116    .ARM.Collect$$rtexit$$00000000  c_w.l(rtexit.o)
    0x0800021c   0x0800021c   0x00000000   Code   RO         4172    .ARM.Collect$$rtexit$$00000002  c_w.l(rtexit2.o)
    0x0800021c   0x0800021c   0x00000004   Code   RO         4173    .ARM.Collect$$rtexit$$00000003  c_w.l(rtexit2.o)
    0x08000220   0x08000220   0x00000006   Code   RO         4174    .ARM.Collect$$rtexit$$00000004  c_w.l(rtexit2.o)
    0x08000226   0x08000226   0x00000002   PAD
    0x08000228   0x08000228   0x00000040   Code   RO            4    .text               startup_stm32f405xx.o
    0x08000268   0x08000268   0x000000ee   Code   RO         3906    .text               c_w.l(lludivv7m.o)
    0x08000356   0x08000356   0x0000004e   Code   RO         3914    .text               c_w.l(rt_memclr_w.o)
    0x080003a4   0x080003a4   0x00000006   Code   RO         3916    .text               c_w.l(heapauxi.o)
    0x080003aa   0x080003aa   0x00000016   Code   RO         4003    .text               c_w.l(_rserrno.o)
    0x080003c0   0x080003c0   0x00000008   Code   RO         4089    .text               c_w.l(rt_errno_addr_intlibspace.o)
    0x080003c8   0x080003c8   0x00000008   Code   RO         4099    .text               c_w.l(libspace.o)
    0x080003d0   0x080003d0   0x0000004a   Code   RO         4102    .text               c_w.l(sys_stackheap_outer.o)
    0x0800041a   0x0800041a   0x00000012   Code   RO         4104    .text               c_w.l(exit.o)
    0x0800042c   0x0800042c   0x0000000c   Code   RO         4169    .text               c_w.l(sys_exit.o)
    0x08000438   0x08000438   0x00000002   Code   RO         4188    .text               c_w.l(use_no_semi.o)
    0x0800043a   0x0800043a   0x00000000   Code   RO         4190    .text               c_w.l(indicate_semi.o)
    0x0800043a   0x0800043a   0x00000002   PAD
    0x0800043c   0x0800043c   0x00000068   Code   RO         3368    i.ALL_Init          chassis_task.o
    0x080004a4   0x080004a4   0x00000002   Code   RO          405    i.BusFault_Handler  stm32f4xx_it.o
    0x080004a6   0x080004a6   0x00000002   PAD
    0x080004a8   0x080004a8   0x0000000c   Code   RO          406    i.CAN1_RX0_IRQHandler  stm32f4xx_it.o
    0x080004b4   0x080004b4   0x0000000c   Code   RO          407    i.CAN2_RX0_IRQHandler  stm32f4xx_it.o
    0x080004c0   0x080004c0   0x0000001c   Code   RO         3369    i.ChassisMove_Control  chassis_task.o
    0x080004dc   0x080004dc   0x0000000c   Code   RO          408    i.DMA1_Stream1_IRQHandler  stm32f4xx_it.o
    0x080004e8   0x080004e8   0x0000000c   Code   RO          409    i.DMA1_Stream3_IRQHandler  stm32f4xx_it.o
    0x080004f4   0x080004f4   0x0000000c   Code   RO          410    i.DMA1_Stream5_IRQHandler  stm32f4xx_it.o
    0x08000500   0x08000500   0x0000000c   Code   RO          411    i.DMA1_Stream6_IRQHandler  stm32f4xx_it.o
    0x0800050c   0x0800050c   0x0000000c   Code   RO          412    i.DMA2_Stream2_IRQHandler  stm32f4xx_it.o
    0x08000518   0x08000518   0x00000028   Code   RO         1279    i.DMA_CalcBaseAndBitshift  stm32f4xx_hal_dma.o
    0x08000540   0x08000540   0x00000054   Code   RO         1280    i.DMA_CheckFifoParam  stm32f4xx_hal_dma.o
    0x08000594   0x08000594   0x0000001e   Code   RO         1238    i.DMA_MultiBufferSetConfig  stm32f4xx_hal_dma_ex.o
    0x080005b2   0x080005b2   0x00000002   Code   RO          413    i.DebugMon_Handler  stm32f4xx_it.o
    0x080005b4   0x080005b4   0x00000004   Code   RO           13    i.Error_Handler     main.o
    0x080005b8   0x080005b8   0x000007bc   Code   RO         3679    i.FourSteering_MoveIK  chassis_behavior.o
    0x08000d74   0x08000d74   0x00000024   Code   RO          575    i.HAL_CAN_ActivateNotification  stm32f4xx_hal_can.o
    0x08000d98   0x08000d98   0x000000c8   Code   RO          576    i.HAL_CAN_AddTxMessage  stm32f4xx_hal_can.o
    0x08000e60   0x08000e60   0x0000010c   Code   RO          577    i.HAL_CAN_ConfigFilter  stm32f4xx_hal_can.o
    0x08000f6c   0x08000f6c   0x00000002   Code   RO          580    i.HAL_CAN_ErrorCallback  stm32f4xx_hal_can.o
    0x08000f6e   0x08000f6e   0x000000e8   Code   RO          583    i.HAL_CAN_GetRxMessage  stm32f4xx_hal_can.o
    0x08001056   0x08001056   0x000001f4   Code   RO          587    i.HAL_CAN_IRQHandler  stm32f4xx_hal_can.o
    0x0800124a   0x0800124a   0x00000002   PAD
    0x0800124c   0x0800124c   0x00000190   Code   RO          588    i.HAL_CAN_Init      stm32f4xx_hal_can.o
    0x080013dc   0x080013dc   0x00000100   Code   RO          232    i.HAL_CAN_MspInit   can.o
    0x080014dc   0x080014dc   0x0000008c   Code   RO          593    i.HAL_CAN_RegisterCallback  stm32f4xx_hal_can.o
    0x08001568   0x08001568   0x00000002   Code   RO          596    i.HAL_CAN_RxFifo0FullCallback  stm32f4xx_hal_can.o
    0x0800156a   0x0800156a   0x00000002   Code   RO          597    i.HAL_CAN_RxFifo0MsgPendingCallback  stm32f4xx_hal_can.o
    0x0800156c   0x0800156c   0x00000002   Code   RO          598    i.HAL_CAN_RxFifo1FullCallback  stm32f4xx_hal_can.o
    0x0800156e   0x0800156e   0x00000002   Code   RO          599    i.HAL_CAN_RxFifo1MsgPendingCallback  stm32f4xx_hal_can.o
    0x08001570   0x08001570   0x00000002   Code   RO          600    i.HAL_CAN_SleepCallback  stm32f4xx_hal_can.o
    0x08001572   0x08001572   0x00000002   PAD
    0x08001574   0x08001574   0x00000058   Code   RO          601    i.HAL_CAN_Start     stm32f4xx_hal_can.o
    0x080015cc   0x080015cc   0x00000002   Code   RO          603    i.HAL_CAN_TxMailbox0AbortCallback  stm32f4xx_hal_can.o
    0x080015ce   0x080015ce   0x00000002   Code   RO          604    i.HAL_CAN_TxMailbox0CompleteCallback  stm32f4xx_hal_can.o
    0x080015d0   0x080015d0   0x00000002   Code   RO          605    i.HAL_CAN_TxMailbox1AbortCallback  stm32f4xx_hal_can.o
    0x080015d2   0x080015d2   0x00000002   Code   RO          606    i.HAL_CAN_TxMailbox1CompleteCallback  stm32f4xx_hal_can.o
    0x080015d4   0x080015d4   0x00000002   Code   RO          607    i.HAL_CAN_TxMailbox2AbortCallback  stm32f4xx_hal_can.o
    0x080015d6   0x080015d6   0x00000002   Code   RO          608    i.HAL_CAN_TxMailbox2CompleteCallback  stm32f4xx_hal_can.o
    0x080015d8   0x080015d8   0x00000002   Code   RO          611    i.HAL_CAN_WakeUpFromRxMsgCallback  stm32f4xx_hal_can.o
    0x080015da   0x080015da   0x00000064   Code   RO         1240    i.HAL_DMAEx_MultiBufferStart  stm32f4xx_hal_dma_ex.o
    0x0800163e   0x0800163e   0x00000092   Code   RO         1282    i.HAL_DMA_Abort     stm32f4xx_hal_dma.o
    0x080016d0   0x080016d0   0x00000024   Code   RO         1283    i.HAL_DMA_Abort_IT  stm32f4xx_hal_dma.o
    0x080016f4   0x080016f4   0x000001a0   Code   RO         1287    i.HAL_DMA_IRQHandler  stm32f4xx_hal_dma.o
    0x08001894   0x08001894   0x000000d4   Code   RO         1288    i.HAL_DMA_Init      stm32f4xx_hal_dma.o
    0x08001968   0x08001968   0x000001f0   Code   RO         1175    i.HAL_GPIO_Init     stm32f4xx_hal_gpio.o
    0x08001b58   0x08001b58   0x0000000c   Code   RO         1707    i.HAL_GetTick       stm32f4xx_hal.o
    0x08001b64   0x08001b64   0x00000010   Code   RO         1713    i.HAL_IncTick       stm32f4xx_hal.o
    0x08001b74   0x08001b74   0x00000034   Code   RO         1714    i.HAL_Init          stm32f4xx_hal.o
    0x08001ba8   0x08001ba8   0x00000040   Code   RO         1715    i.HAL_InitTick      stm32f4xx_hal.o
    0x08001be8   0x08001be8   0x00000030   Code   RO          550    i.HAL_MspInit       stm32f4xx_hal_msp.o
    0x08001c18   0x08001c18   0x0000001a   Code   RO         1564    i.HAL_NVIC_EnableIRQ  stm32f4xx_hal_cortex.o
    0x08001c32   0x08001c32   0x00000002   PAD
    0x08001c34   0x08001c34   0x00000040   Code   RO         1570    i.HAL_NVIC_SetPriority  stm32f4xx_hal_cortex.o
    0x08001c74   0x08001c74   0x00000024   Code   RO         1571    i.HAL_NVIC_SetPriorityGrouping  stm32f4xx_hal_cortex.o
    0x08001c98   0x08001c98   0x00000134   Code   RO          821    i.HAL_RCC_ClockConfig  stm32f4xx_hal_rcc.o
    0x08001dcc   0x08001dcc   0x00000020   Code   RO          828    i.HAL_RCC_GetPCLK1Freq  stm32f4xx_hal_rcc.o
    0x08001dec   0x08001dec   0x00000020   Code   RO          829    i.HAL_RCC_GetPCLK2Freq  stm32f4xx_hal_rcc.o
    0x08001e0c   0x08001e0c   0x00000060   Code   RO          830    i.HAL_RCC_GetSysClockFreq  stm32f4xx_hal_rcc.o
    0x08001e6c   0x08001e6c   0x0000036c   Code   RO          833    i.HAL_RCC_OscConfig  stm32f4xx_hal_rcc.o
    0x080021d8   0x080021d8   0x00000028   Code   RO         1575    i.HAL_SYSTICK_Config  stm32f4xx_hal_cortex.o
    0x08002200   0x08002200   0x00000002   Code   RO         2676    i.HAL_TIMEx_BreakCallback  stm32f4xx_hal_tim_ex.o
    0x08002202   0x08002202   0x00000002   Code   RO         2677    i.HAL_TIMEx_CommutCallback  stm32f4xx_hal_tim_ex.o
    0x08002204   0x08002204   0x00000002   Code   RO         2678    i.HAL_TIMEx_CommutHalfCpltCallback  stm32f4xx_hal_tim_ex.o
    0x08002206   0x08002206   0x00000002   PAD
    0x08002208   0x08002208   0x00000090   Code   RO         2695    i.HAL_TIMEx_MasterConfigSynchronization  stm32f4xx_hal_tim_ex.o
    0x08002298   0x08002298   0x0000006c   Code   RO         1954    i.HAL_TIM_Base_Init  stm32f4xx_hal_tim.o
    0x08002304   0x08002304   0x00000038   Code   RO          310    i.HAL_TIM_Base_MspInit  tim.o
    0x0800233c   0x0800233c   0x00000080   Code   RO         1959    i.HAL_TIM_Base_Start_IT  stm32f4xx_hal_tim.o
    0x080023bc   0x080023bc   0x000000dc   Code   RO         1963    i.HAL_TIM_ConfigClockSource  stm32f4xx_hal_tim.o
    0x08002498   0x08002498   0x00000002   Code   RO         1984    i.HAL_TIM_ErrorCallback  stm32f4xx_hal_tim.o
    0x0800249a   0x0800249a   0x00000002   Code   RO         1988    i.HAL_TIM_IC_CaptureCallback  stm32f4xx_hal_tim.o
    0x0800249c   0x0800249c   0x00000002   Code   RO         1989    i.HAL_TIM_IC_CaptureHalfCpltCallback  stm32f4xx_hal_tim.o
    0x0800249e   0x0800249e   0x0000017e   Code   RO         2002    i.HAL_TIM_IRQHandler  stm32f4xx_hal_tim.o
    0x0800261c   0x0800261c   0x00000002   Code   RO         2005    i.HAL_TIM_OC_DelayElapsedCallback  stm32f4xx_hal_tim.o
    0x0800261e   0x0800261e   0x00000002   Code   RO         2032    i.HAL_TIM_PWM_PulseFinishedCallback  stm32f4xx_hal_tim.o
    0x08002620   0x08002620   0x00000002   Code   RO         2033    i.HAL_TIM_PWM_PulseFinishedHalfCpltCallback  stm32f4xx_hal_tim.o
    0x08002622   0x08002622   0x00000002   Code   RO         2040    i.HAL_TIM_PeriodElapsedCallback  stm32f4xx_hal_tim.o
    0x08002624   0x08002624   0x00000002   Code   RO         2041    i.HAL_TIM_PeriodElapsedHalfCpltCallback  stm32f4xx_hal_tim.o
    0x08002626   0x08002626   0x000000fa   Code   RO         2043    i.HAL_TIM_RegisterCallback  stm32f4xx_hal_tim.o
    0x08002720   0x08002720   0x00000002   Code   RO         2046    i.HAL_TIM_TriggerCallback  stm32f4xx_hal_tim.o
    0x08002722   0x08002722   0x00000002   Code   RO         2047    i.HAL_TIM_TriggerHalfCpltCallback  stm32f4xx_hal_tim.o
    0x08002724   0x08002724   0x00000002   Code   RO         2954    i.HAL_UARTEx_RxEventCallback  stm32f4xx_hal_uart.o
    0x08002726   0x08002726   0x00000002   Code   RO         2956    i.HAL_UART_AbortCpltCallback  stm32f4xx_hal_uart.o
    0x08002728   0x08002728   0x00000002   Code   RO         2958    i.HAL_UART_AbortReceiveCpltCallback  stm32f4xx_hal_uart.o
    0x0800272a   0x0800272a   0x00000002   Code   RO         2961    i.HAL_UART_AbortTransmitCpltCallback  stm32f4xx_hal_uart.o
    0x0800272c   0x0800272c   0x00000002   Code   RO         2968    i.HAL_UART_ErrorCallback  stm32f4xx_hal_uart.o
    0x0800272e   0x0800272e   0x00000002   PAD
    0x08002730   0x08002730   0x00000268   Code   RO         2971    i.HAL_UART_IRQHandler  stm32f4xx_hal_uart.o
    0x08002998   0x08002998   0x00000074   Code   RO         2972    i.HAL_UART_Init     stm32f4xx_hal_uart.o
    0x08002a0c   0x08002a0c   0x0000025c   Code   RO          352    i.HAL_UART_MspInit  usart.o
    0x08002c68   0x08002c68   0x00000042   Code   RO         2979    i.HAL_UART_RegisterRxEventCallback  stm32f4xx_hal_uart.o
    0x08002caa   0x08002caa   0x00000002   Code   RO         2980    i.HAL_UART_RxCpltCallback  stm32f4xx_hal_uart.o
    0x08002cac   0x08002cac   0x00000002   Code   RO         2981    i.HAL_UART_RxHalfCpltCallback  stm32f4xx_hal_uart.o
    0x08002cae   0x08002cae   0x00000002   Code   RO         2985    i.HAL_UART_TxCpltCallback  stm32f4xx_hal_uart.o
    0x08002cb0   0x08002cb0   0x00000002   Code   RO         2986    i.HAL_UART_TxHalfCpltCallback  stm32f4xx_hal_uart.o
    0x08002cb2   0x08002cb2   0x00000002   Code   RO          414    i.HardFault_Handler  stm32f4xx_it.o
    0x08002cb4   0x08002cb4   0x0000004a   Code   RO         3450    i.IFR_Absolute_Angle_Analysis  ifr_dji_motor.o
    0x08002cfe   0x08002cfe   0x00000002   PAD
    0x08002d00   0x08002d00   0x00000094   Code   RO         3417    i.IFR_CAN_Init      ifr_can.o
    0x08002d94   0x08002d94   0x00000060   Code   RO         3418    i.IFR_CAN_Recevice_Callback  ifr_can.o
    0x08002df4   0x08002df4   0x00000044   Code   RO         3451    i.IFR_DJI_Motor_Analysis  ifr_dji_motor.o
    0x08002e38   0x08002e38   0x0000001c   Code   RO         3452    i.IFR_DJI_Motor_Init  ifr_dji_motor.o
    0x08002e54   0x08002e54   0x000000e4   Code   RO         3453    i.IFR_DJI_Motor_Transmit  ifr_dji_motor.o
    0x08002f38   0x08002f38   0x0000007c   Code   RO         3496    i.IFR_DJI_Remote_Analysis  ifr_dji_remote.o
    0x08002fb4   0x08002fb4   0x000000e4   Code   RO         3541    i.IFR_Incremental_PID  ifr_pid.o
    0x08003098   0x08003098   0x00000084   Code   RO         3497    i.IFR_Key_Analysis  ifr_dji_remote.o
    0x0800311c   0x0800311c   0x00000016   Code   RO         3542    i.IFR_PID_Param_Init  ifr_pid.o
    0x08003132   0x08003132   0x00000002   PAD
    0x08003134   0x08003134   0x00000114   Code   RO         3543    i.IFR_Positional_PID  ifr_pid.o
    0x08003248   0x08003248   0x000000ec   Code   RO         3613    i.IFR_TIM_Init      ifr_tim.o
    0x08003334   0x08003334   0x000000d8   Code   RO         3614    i.IFR_TIM_Overflow_Callback  ifr_tim.o
    0x0800340c   0x0800340c   0x000000c8   Code   RO         3646    i.IFR_UART_Double_Buffer_Recevice_Callback  ifr_usart.o
    0x080034d4   0x080034d4   0x000000b0   Code   RO         3647    i.IFR_UART_Init     ifr_usart.o
    0x08003584   0x08003584   0x00000058   Code   RO         3727    i.IMU_Analysis      imu_analyse.o
    0x080035dc   0x080035dc   0x00000044   Code   RO          233    i.MX_CAN1_Init      can.o
    0x08003620   0x08003620   0x00000044   Code   RO          234    i.MX_CAN2_Init      can.o
    0x08003664   0x08003664   0x0000007c   Code   RO          285    i.MX_DMA_Init       dma.o
    0x080036e0   0x080036e0   0x0000003c   Code   RO          206    i.MX_GPIO_Init      gpio.o
    0x0800371c   0x0800371c   0x00000064   Code   RO          311    i.MX_TIM2_Init      tim.o
    0x08003780   0x08003780   0x00000044   Code   RO          353    i.MX_USART1_UART_Init  usart.o
    0x080037c4   0x080037c4   0x00000038   Code   RO          354    i.MX_USART2_UART_Init  usart.o
    0x080037fc   0x080037fc   0x00000038   Code   RO          355    i.MX_USART3_UART_Init  usart.o
    0x08003834   0x08003834   0x00000002   Code   RO          415    i.MemManage_Handler  stm32f4xx_it.o
    0x08003836   0x08003836   0x00000002   PAD
    0x08003838   0x08003838   0x00000130   Code   RO         3680    i.MotorTarget_Set   chassis_behavior.o
    0x08003968   0x08003968   0x00000258   Code   RO         3370    i.Motor_ALL_Init    chassis_task.o
    0x08003bc0   0x08003bc0   0x000000b0   Code   RO         3681    i.Motor_Drive       chassis_behavior.o
    0x08003c70   0x08003c70   0x00000002   Code   RO          416    i.NMI_Handler       stm32f4xx_it.o
    0x08003c72   0x08003c72   0x00000002   Code   RO          417    i.PendSV_Handler    stm32f4xx_it.o
    0x08003c74   0x08003c74   0x00000002   Code   RO          418    i.SVC_Handler       stm32f4xx_it.o
    0x08003c76   0x08003c76   0x00000002   PAD
    0x08003c78   0x08003c78   0x0000003c   Code   RO         3577    i.State_Machine     ifr_state.o
    0x08003cb4   0x08003cb4   0x00000058   Code   RO         3578    i.State_Task        ifr_state.o
    0x08003d0c   0x08003d0c   0x00000004   Code   RO          419    i.SysTick_Handler   stm32f4xx_it.o
    0x08003d10   0x08003d10   0x00000094   Code   RO           14    i.SystemClock_Config  main.o
    0x08003da4   0x08003da4   0x00000010   Code   RO         3331    i.SystemInit        system_stm32f4xx.o
    0x08003db4   0x08003db4   0x0000000c   Code   RO          420    i.TIM2_IRQHandler   stm32f4xx_it.o
    0x08003dc0   0x08003dc0   0x000000c8   Code   RO         2049    i.TIM_Base_SetConfig  stm32f4xx_hal_tim.o
    0x08003e88   0x08003e88   0x00000014   Code   RO         2060    i.TIM_ETR_SetConfig  stm32f4xx_hal_tim.o
    0x08003e9c   0x08003e9c   0x00000010   Code   RO         2061    i.TIM_ITRx_SetConfig  stm32f4xx_hal_tim.o
    0x08003eac   0x08003eac   0x0000006c   Code   RO         2066    i.TIM_ResetCallback  stm32f4xx_hal_tim.o
    0x08003f18   0x08003f18   0x00000022   Code   RO         2068    i.TIM_TI1_ConfigInputStage  stm32f4xx_hal_tim.o
    0x08003f3a   0x08003f3a   0x00000024   Code   RO         2070    i.TIM_TI2_ConfigInputStage  stm32f4xx_hal_tim.o
    0x08003f5e   0x08003f5e   0x00000002   PAD
    0x08003f60   0x08003f60   0x00000038   Code   RO         3682    i.TarSpeed_Receive  chassis_behavior.o
    0x08003f98   0x08003f98   0x0000000c   Code   RO         2989    i.UART_DMAAbortOnError  stm32f4xx_hal_uart.o
    0x08003fa4   0x08003fa4   0x0000004e   Code   RO         2999    i.UART_EndRxTransfer  stm32f4xx_hal_uart.o
    0x08003ff2   0x08003ff2   0x00000002   PAD
    0x08003ff4   0x08003ff4   0x0000004c   Code   RO         3001    i.UART_InitCallbacksToDefault  stm32f4xx_hal_uart.o
    0x08004040   0x08004040   0x000000c0   Code   RO         3002    i.UART_Receive_IT   stm32f4xx_hal_uart.o
    0x08004100   0x08004100   0x0000010c   Code   RO         3003    i.UART_SetConfig    stm32f4xx_hal_uart.o
    0x0800420c   0x0800420c   0x0000000c   Code   RO          421    i.USART1_IRQHandler  stm32f4xx_it.o
    0x08004218   0x08004218   0x0000000c   Code   RO          422    i.USART2_IRQHandler  stm32f4xx_it.o
    0x08004224   0x08004224   0x0000000c   Code   RO          423    i.USART3_IRQHandler  stm32f4xx_it.o
    0x08004230   0x08004230   0x00000002   Code   RO          424    i.UsageFault_Handler  stm32f4xx_it.o
    0x08004232   0x08004232   0x00000030   Code   RO         4095    i.__ARM_fpclassify  m_wm.l(fpclassify.o)
    0x08004262   0x08004262   0x00000020   Code   RO         1577    i.__NVIC_SetPriority  stm32f4xx_hal_cortex.o
    0x08004282   0x08004282   0x00000006   PAD
    0x08004288   0x08004288   0x000002d8   Code   RO         4020    i.__hardfp_atan     m_wm.l(atan.o)
    0x08004560   0x08004560   0x000001f0   Code   RO         3950    i.__hardfp_atan2    m_wm.l(atan2.o)
    0x08004750   0x08004750   0x000000c8   Code   RO         3962    i.__hardfp_cos      m_wm.l(cos.o)
    0x08004818   0x08004818   0x000000c8   Code   RO         3974    i.__hardfp_sin      m_wm.l(sin.o)
    0x080048e0   0x080048e0   0x0000007a   Code   RO         3986    i.__hardfp_sqrt     m_wm.l(sqrt.o)
    0x0800495a   0x0800495a   0x00000006   PAD
    0x08004960   0x08004960   0x00000438   Code   RO         4058    i.__ieee754_rem_pio2  m_wm.l(rred.o)
    0x08004d98   0x08004d98   0x00000170   Code   RO         4034    i.__kernel_cos      m_wm.l(cos_i.o)
    0x08004f08   0x08004f08   0x000000f8   Code   RO         4097    i.__kernel_poly     m_wm.l(poly.o)
    0x08005000   0x08005000   0x00000130   Code   RO         4063    i.__kernel_sin      m_wm.l(sin_i.o)
    0x08005130   0x08005130   0x00000014   Code   RO         4038    i.__mathlib_dbl_infnan  m_wm.l(dunder.o)
    0x08005144   0x08005144   0x00000014   Code   RO         4039    i.__mathlib_dbl_infnan2  m_wm.l(dunder.o)
    0x08005158   0x08005158   0x00000020   Code   RO         4040    i.__mathlib_dbl_invalid  m_wm.l(dunder.o)
    0x08005178   0x08005178   0x00000020   Code   RO         4043    i.__mathlib_dbl_underflow  m_wm.l(dunder.o)
    0x08005198   0x08005198   0x00000010   Code   RO         4022    i.atan              m_wm.l(atan.o)
    0x080051a8   0x080051a8   0x00000018   Code   RO         4053    i.fabs              m_wm.l(fabs.o)
    0x080051c0   0x080051c0   0x0000002e   Code   RO           15    i.main              main.o
    0x080051ee   0x080051ee   0x00000018   Code   RO         3920    x$fpl$basic         fz_wm.l(basic.o)
    0x08005206   0x08005206   0x00000002   PAD
    0x08005208   0x08005208   0x00000062   Code   RO         3922    x$fpl$d2f           fz_wm.l(d2f.o)
    0x0800526a   0x0800526a   0x00000002   PAD
    0x0800526c   0x0800526c   0x00000150   Code   RO         3924    x$fpl$dadd          fz_wm.l(daddsub_clz.o)
    0x080053bc   0x080053bc   0x00000018   Code   RO         4007    x$fpl$dcmpinf       fz_wm.l(dcmpi.o)
    0x080053d4   0x080053d4   0x000002b0   Code   RO         3931    x$fpl$ddiv          fz_wm.l(ddiv.o)
    0x08005684   0x08005684   0x00000078   Code   RO         3934    x$fpl$deqf          fz_wm.l(deqf.o)
    0x080056fc   0x080056fc   0x0000005e   Code   RO         4091    x$fpl$dfix          fz_wm.l(dfix.o)
    0x0800575a   0x0800575a   0x0000002e   Code   RO         3937    x$fpl$dflt          fz_wm.l(dflt_clz.o)
    0x08005788   0x08005788   0x00000026   Code   RO         3936    x$fpl$dfltu         fz_wm.l(dflt_clz.o)
    0x080057ae   0x080057ae   0x00000002   PAD
    0x080057b0   0x080057b0   0x00000078   Code   RO         3942    x$fpl$dleqf         fz_wm.l(dleqf.o)
    0x08005828   0x08005828   0x00000154   Code   RO         3944    x$fpl$dmul          fz_wm.l(dmul.o)
    0x0800597c   0x0800597c   0x0000009c   Code   RO         4009    x$fpl$dnaninf       fz_wm.l(dnaninf.o)
    0x08005a18   0x08005a18   0x0000000c   Code   RO         4011    x$fpl$dretinf       fz_wm.l(dretinf.o)
    0x08005a24   0x08005a24   0x0000006c   Code   RO         3946    x$fpl$drleqf        fz_wm.l(drleqf.o)
    0x08005a90   0x08005a90   0x00000016   Code   RO         3925    x$fpl$drsb          fz_wm.l(daddsub_clz.o)
    0x08005aa6   0x08005aa6   0x00000002   PAD
    0x08005aa8   0x08005aa8   0x00000198   Code   RO         4013    x$fpl$dsqrt         fz_wm.l(dsqrt_umaal.o)
    0x08005c40   0x08005c40   0x000001d4   Code   RO         3926    x$fpl$dsub          fz_wm.l(daddsub_clz.o)
    0x08005e14   0x08005e14   0x00000056   Code   RO         3948    x$fpl$f2d           fz_wm.l(f2d.o)
    0x08005e6a   0x08005e6a   0x0000008c   Code   RO         4015    x$fpl$fnaninf       fz_wm.l(fnaninf.o)
    0x08005ef6   0x08005ef6   0x0000000a   Code   RO         4184    x$fpl$fpinit        fz_wm.l(fpinit.o)
    0x08005f00   0x08005f00   0x0000000a   Code   RO         4017    x$fpl$fretinf       fz_wm.l(fretinf.o)
    0x08005f0a   0x08005f0a   0x00000000   Code   RO         4019    x$fpl$usenofp       fz_wm.l(usenofp.o)
    0x08005f0a   0x08005f0a   0x00000008   Data   RO         1294    .constdata          stm32f4xx_hal_dma.o
    0x08005f12   0x08005f12   0x00000010   Data   RO         3332    .constdata          system_stm32f4xx.o
    0x08005f22   0x08005f22   0x00000008   Data   RO         3333    .constdata          system_stm32f4xx.o
    0x08005f2a   0x08005f2a   0x00000006   PAD
    0x08005f30   0x08005f30   0x00000098   Data   RO         4023    .constdata          m_wm.l(atan.o)
    0x08005fc8   0x08005fc8   0x00000030   Data   RO         4035    .constdata          m_wm.l(cos_i.o)
    0x08005ff8   0x08005ff8   0x00000008   Data   RO         4057    .constdata          m_wm.l(qnan.o)
    0x08006000   0x08006000   0x000000c8   Data   RO         4060    .constdata          m_wm.l(rred.o)
    0x080060c8   0x080060c8   0x00000028   Data   RO         4064    .constdata          m_wm.l(sin_i.o)
    0x080060f0   0x080060f0   0x00000020   Data   RO         4240    Region$$Table       anon$$obj.o


    Execution Region RW_IRAM2 (Exec base: 0x10000000, Load base: 0x08006168, Size: 0x00000000, Max: 0x00010000, ABSOLUTE)

    **** No section assigned to this execution region ****


    Execution Region RW_IRAM1 (Exec base: 0x20000000, Load base: 0x08006110, Size: 0x00001710, Max: 0x00020000, ABSOLUTE)

    Exec Addr    Load Addr    Size         Type   Attr      Idx    E Section Name        Object

    0x20000000   0x08006110   0x00000004   Data   RW          236    .data               can.o
    0x20000004   0x08006114   0x0000000c   Data   RW         1721    .data               stm32f4xx_hal.o
    0x20000010   0x08006120   0x00000004   Data   RW         3334    .data               system_stm32f4xx.o
    0x20000014   0x08006124   0x0000001a   Data   RW         3499    .data               ifr_dji_remote.o
    0x2000002e   0x0800613e   0x00000001   Data   RW         3579    .data               ifr_state.o
    0x2000002f   0x0800613f   0x00000001   PAD
    0x20000030   0x08006140   0x00000020   Data   RW         3685    .data               chassis_behavior.o
    0x20000050   0x08006160   0x00000008   Data   RW         3731    .data               imu_analyse.o
    0x20000058        -       0x000000c8   Zero   RW          235    .bss                can.o
    0x20000120        -       0x000000b4   Zero   RW          312    .bss                tim.o
    0x200001d4        -       0x0000033c   Zero   RW          356    .bss                usart.o
    0x20000510        -       0x000004f0   Zero   RW         3372    .bss                chassis_task.o
    0x20000a00        -       0x000000b4   Zero   RW         3419    .bss                ifr_can.o
    0x20000ab4        -       0x00000120   Zero   RW         3454    .bss                ifr_dji_motor.o
    0x20000bd4        -       0x00000060   Zero   RW         3498    .bss                ifr_dji_remote.o
    0x20000c34        -       0x0000003c   Zero   RW         3615    .bss                ifr_tim.o
    0x20000c70        -       0x000003cc   Zero   RW         3648    .bss                ifr_usart.o
    0x2000103c        -       0x00000058   Zero   RW         3683    .bss                chassis_behavior.o
    0x20001094        -       0x0000001c   Zero   RW         3730    .bss                imu_analyse.o
    0x200010b0        -       0x00000060   Zero   RW         4100    .bss                c_w.l(libspace.o)
    0x20001110        -       0x00000200   Zero   RW            2    HEAP                startup_stm32f405xx.o
    0x20001310        -       0x00000400   Zero   RW            1    STACK               startup_stm32f405xx.o


==============================================================================

Image component sizes


      Code (inc. data)   RO Data    RW Data    ZI Data      Debug   Object Name

       392         44          0          4        200       2538   can.o
      2516         98          0         32         88       4190   chassis_behavior.o
       732         94          0          0       1264       2554   chassis_task.o
       124          4          0          0          0        866   dma.o
        60          6          0          0          0        855   gpio.o
       244         30          0          0        180       2006   ifr_can.o
       398         22          0          0        288       3355   ifr_dji_motor.o
       256         14          0         26         96       2777   ifr_dji_remote.o
       526         12          0          0          0       2692   ifr_pid.o
       148         30          0          1          0       2226   ifr_state.o
       452        120          0          0         60       1898   ifr_tim.o
       376         62          0          0        972       2127   ifr_usart.o
        88         10          0          8         28       1296   imu_analyse.o
       198         10          0          0          0     663640   main.o
        64         26        392          0       1536        864   startup_stm32f405xx.o
       144         24          0         12          0       8913   stm32f4xx_hal.o
      1890         80          0          0          0      16350   stm32f4xx_hal_can.o
       198         14          0          0          0      34083   stm32f4xx_hal_cortex.o
       934         16          8          0          0       5771   stm32f4xx_hal_dma.o
       130          0          0          0          0       2217   stm32f4xx_hal_dma_ex.o
       496         46          0          0          0       1580   stm32f4xx_hal_gpio.o
        48          6          0          0          0        874   stm32f4xx_hal_msp.o
      1344         72          0          0          0       5372   stm32f4xx_hal_rcc.o
      1522        170          0          0          0      15755   stm32f4xx_hal_tim.o
       150         28          0          0          0       3132   stm32f4xx_hal_tim_ex.o
      1442         56          0          0          0      12859   stm32f4xx_hal_uart.o
       152         66          0          0          0       9646   stm32f4xx_it.o
        16          4         24          4          0       1167   system_stm32f4xx.o
       156         10          0          0        180       1746   tim.o
       784         72          0          0        828       3699   usart.o

    ----------------------------------------------------------------------
     16010       1246        462         88       5720     817048   Object Totals
         0          0         32          0          0          0   (incl. Generated)
        30          0          6          1          0          0   (incl. Padding)

    ----------------------------------------------------------------------

      Code (inc. data)   RO Data    RW Data    ZI Data      Debug   Library Member Name

         8          0          0          0          0         68   __main.o
         0          0          0          0          0          0   __rtentry.o
        12          0          0          0          0          0   __rtentry2.o
         6          0          0          0          0          0   __rtentry4.o
        52          8          0          0          0          0   __scatter.o
        26          0          0          0          0          0   __scatter_copy.o
        28          0          0          0          0          0   __scatter_zi.o
        22          0          0          0          0        100   _rserrno.o
        18          0          0          0          0         80   exit.o
         6          0          0          0          0        152   heapauxi.o
         0          0          0          0          0          0   indicate_semi.o
         2          0          0          0          0          0   libinit.o
         6          0          0          0          0          0   libinit2.o
         2          0          0          0          0          0   libshutdown.o
         2          0          0          0          0          0   libshutdown2.o
         8          4          0          0         96         68   libspace.o
       238          0          0          0          0        100   lludivv7m.o
         8          4          0          0          0         68   rt_errno_addr_intlibspace.o
        78          0          0          0          0         80   rt_memclr_w.o
         2          0          0          0          0          0   rtexit.o
        10          0          0          0          0          0   rtexit2.o
        12          4          0          0          0         68   sys_exit.o
        74          0          0          0          0         80   sys_stackheap_outer.o
         2          0          0          0          0         68   use_no_semi.o
        24          0          0          0          0        164   basic.o
        98          4          0          0          0        140   d2f.o
       826         16          0          0          0        492   daddsub_clz.o
        24          0          0          0          0        116   dcmpi.o
       688        140          0          0          0        256   ddiv.o
       120          4          0          0          0        140   deqf.o
        94          4          0          0          0        140   dfix.o
        84          0          0          0          0        232   dflt_clz.o
       120          4          0          0          0        140   dleqf.o
       340         12          0          0          0        152   dmul.o
       156          4          0          0          0        140   dnaninf.o
        12          0          0          0          0        116   dretinf.o
       108          0          0          0          0        128   drleqf.o
       408         56          0          0          0        168   dsqrt_umaal.o
        86          4          0          0          0        132   f2d.o
       140          4          0          0          0        132   fnaninf.o
        10          0          0          0          0        116   fpinit.o
        10          0          0          0          0        116   fretinf.o
         0          0          0          0          0          0   usenofp.o
       744        106        152          0          0        352   atan.o
       496         64          0          0          0        192   atan2.o
       200         20          0          0          0        164   cos.o
       368         46         48          0          0        200   cos_i.o
       104         16          0          0          0        496   dunder.o
        24          0          0          0          0        124   fabs.o
        48          0          0          0          0        124   fpclassify.o
       248          0          0          0          0        152   poly.o
         0          0          8          0          0          0   qnan.o
      1080        142        200          0          0        188   rred.o
       200         20          0          0          0        164   sin.o
       304         24         40          0          0        208   sin_i.o
       122          0          0          0          0        148   sqrt.o

    ----------------------------------------------------------------------
      7928        710        448          0         96       6464   Library Totals
        20          0          0          0          0          0   (incl. Padding)

    ----------------------------------------------------------------------

      Code (inc. data)   RO Data    RW Data    ZI Data      Debug   Library Name

       622         20          0          0         96        932   c_w.l
      3348        252          0          0          0       3020   fz_wm.l
      3938        438        448          0          0       2512   m_wm.l

    ----------------------------------------------------------------------
      7928        710        448          0         96       6464   Library Totals

    ----------------------------------------------------------------------

==============================================================================


      Code (inc. data)   RO Data    RW Data    ZI Data      Debug   

     23938       1956        910         88       5816     805948   Grand Totals
     23938       1956        910         88       5816     805948   ELF Image Totals
     23938       1956        910         88          0          0   ROM Totals

==============================================================================

    Total RO  Size (Code + RO Data)                24848 (  24.27kB)
    Total RW  Size (RW Data + ZI Data)              5904 (   5.77kB)
    Total ROM Size (Code + RO Data + RW Data)      24936 (  24.35kB)

==============================================================================

