:020000040800F2
:100000001017002029020008713C0008B32C0008DA
:1000100035380008A504000831420008000000003F
:10002000000000000000000000000000753C000817
:10003000B305000800000000733C00080D3D0008F7
:10004000430200084302000843020008430200087C
:10005000430200084302000843020008430200086C
:10006000430200084302000843020008430200085C
:10007000DD04000843020008E90400084302000808
:10008000F5040008010500084302000843020008C7
:10009000A9040008430200084302000843020008C4
:1000A000430200084302000843020008430200081C
:1000B000B53D00084302000843020008430200085F
:1000C00043020008430200084302000843020008FC
:1000D000430200080D4200081942000825420008AA
:1000E00043020008430200084302000843020008DC
:1000F00043020008430200084302000843020008CC
:1001000043020008430200084302000843020008BB
:1001100043020008430200084302000843020008AB
:1001200043020008430200080D05000843020008CE
:100130004302000800000000000000004302000825
:10014000B504000843020008430200084302000807
:10015000430200084302000843020008430200086B
:10016000430200084302000843020008430200085B
:1001700043020008430200080000000000000000E5
:10018000430200084302000800F002F800F03CF8C7
:100190000AA090E8000C82448344AAF10107DA45E2
:1001A00001D100F031F8AFF2090EBAE80F0013F0F8
:1001B000010F18BFFB1A43F001031847345F00001A
:1001C000545F0000103A24BF78C878C1FAD85207AB
:1001D00024BF30C830C144BF04680C6070470000C1
:1001E0000023002400250026103A28BF78C1FBD840
:1001F000520728BF30C148BF0B6070471FB505F0DC
:100200007AFE1FBD10B510BD00F0E2F81146FFF7F1
:10021000F5FF04F0D5FF00F000F903B4FFF7F2FF9B
:1002200003BC00F003F90000094880470948004773
:10023000FEE7FEE7FEE7FEE7FEE7FEE7FEE7FEE796
:10024000FEE7FEE704480549054A064B70470000F3
:10025000A53D00088901000810110020101700209A
:10026000101300201013002053EA020C00F06980E4
:100270002DE9F04B4FF00006002B1FBFB3FA83F5BA
:1002800003FA05F424FA05F65E4012BF1643B2FAEB
:1002900082F502FA05F4C5F120051EBF22FA05FC1D
:1002A00044EA0C04203556EA044C4FEA144418BFC3
:1002B000641C4FF000084FF00009904271EB030CF2
:1002C00039D3002919BFB1FA81F701FA07F6B0FA5C
:1002D00080F700FA07F6C7F120071EBF20FA07FCD7
:1002E00046EA0C062037B6FBF4FCA7EB0507103FE7
:1002F00007F01F0BCBF120060CFA0BFB2CFA06F6CD
:1003000044BFB3460026202FA4BF5E464FF0000B2B
:100310005BEA060C08BF4FF0010B19EB0B09ABFBB6
:10032000027C48EB0608C01B06FB02CC0BFB03CC8F
:1003300071EB0C01C1E70B46024641464846BDE859
:10034000F08B13B54FF000004FF00001AFF30080C9
:10035000BDE81C4070474FF0000200B513469446BC
:100360009646203922BFA0E80C50A0E80C50B1F10D
:100370002001BFF4F7AF090728BFA0E80C5048BF21
:100380000CC05DF804EB890028BF40F8042B08BFBF
:10039000704748BF20F8022B11F0804F18BF00F8BB
:1003A000012B704770477047704710B500F008F890
:1003B000006810BD10B5044600F002F8046010BDDE
:1003C00000487047B010002000487047B01000206F
:1003D0007546FFF7F9FFAE4605006946534620F023
:1003E0000700854618B020B5FFF72CFFBDE8204078
:1003F0004FF000064FF000074FF000084FF0000BE1
:1004000021F00701AC46ACE8C009ACE8C009ACE893
:10041000C009ACE8C0098D46704710B50446AFF37B
:1004200000802046BDE81040FFF7F7BE01491820C4
:10043000ABBEFEE7260002007047000010B50E4973
:100440000E4803F047F80E490E4803F043F803F056
:100450008BFA0D490D4802F053FC0B490C4802F091
:100460004FFC0C490C4802F0EFFEBDE810400B4970
:100470000B4803F02FB80000613F0008480200203D
:10048000392F0008D4010020F52D00085800002065
:10049000BC000020793C00082001002085350008C0
:1004A000BC020020FEE70000014800F0D4BD0000BF
:1004B00058000020014800F0CEBD0000BC00002024
:1004C00010B5054800F078F8034803F0B5F9BDE829
:1004D000104003F075BB000010050020014801F03A
:1004E00009B9000050040020014801F003B90000E0
:1004F000B0040020014801F0FDB800009003002086
:10050000014801F0F7B80000F0030020014801F0B5
:10051000F1B800003003002001681823CAB2103A75
:10052000B2FBF3F2054B6FF30901032A9B5CC36531
:1005300000D9091D81650846704700000A5F000860
:1005400010B5014600208B698A6A4FF0C07453B120
:10055000B3F5005F15D072B1012A0CD0022A0AD07F
:10056000032A09D104E01AB1012A06D0022A03D1D4
:10057000C96AC90100D5012010BDC96AA142FAD0DB
:1005800010BD002AF7D0012AF2D0022AF3D0032AA4
:10059000F3D010BD10B5046863608368402B036816
:1005A00003D099600068C26010BD9A600068C160A5
:1005B00010BD704772B6FEE72DE9F0412DED068BB8
:1005C0009FEDFC8A9FEDFC9B00F58064FD4F94ED50
:1005D000360BFB4D07F1140653EC102B51EC100BAE
:1005E00005F022F994ED380B41EC1A0B53EC102B6B
:1005F00051EC100B05F018F953EC1A2B04F036FEF1
:1006000041EC100B04F06CF985ED020B94ED361BF8
:1006100094ED380B03F0A4FF85ED040B94ED3A0B39
:1006200053EC192B51EC100B05F02CF829D194ED5B
:10063000360B53EC192B51EC100B05F023F80CD1B1
:1006400094ED380BB0EE491AF0EE691A53EC112B09
:1006500051EC100B05F016F813D095ED040B51EC8E
:10066000100B04F0D1FD38607860B860F86095ED4B
:10067000020B51EC100B04F0C7FD30607060B060ED
:1006800025E394ED3A0B53EC192B51EC100B04F0CD
:10069000F9FF70D094ED360B53EC192B51EC100B85
:1006A00004F0F0FF67D194ED380BB0EE491AF0EE8C
:1006B000691A53EC112B51EC100B04F0E3FF5AD1E3
:1006C0009FEDC10ADFEDC10A87EC020AC7ED020AFD
:1006D00087ED030A9FEDBE8BB0EE480AF0EE680A84
:1006E00004F0FEF894ED3A1B51EC100B53EC112B77
:1006F00005F09AF804F088FDB0EE480AF0EE680ABA
:10070000306004F0EDF894ED3A1B51EC100B53EC13
:10071000112B05F089F804F077FDB0EE480AF0EEF1
:10072000680A706004F0DCF8B0EE409AF0EE609A6F
:1007300094ED3A0B51EC100B04F059FD53EC192BCE
:1007400005F072F804F060FDB0EE480AF0EE680AB9
:10075000B06004F0C5F8B0EE408AF0EE608A94ED27
:100760003A0B51EC100B04F042FD41EC100B53EC32
:10077000182BA6E2FFE794ED3A0B53EC192B51EC42
:10078000100B04F07FFF7CD094ED360B53EC192B4B
:1007900051EC100B04F076FF08D194ED380B53ECBC
:1007A000192B51EC100B04F06DFFECD094ED3A0BCB
:1007B00053EC102B95ED020B51EC100B04F00AFEDC
:1007C00053EC192B05F02EF994ED3A0B53EC102B4A
:1007D00095ED020B51EC100B02D204F0FBFD03E08F
:1007E00004F0F8FD04F003FDC5E9060195ED040BE6
:1007F00004F012F895ED061B51EC100B53EC112B85
:1008000005F012F804F000FD686095ED040B03F0AC
:100810009FFF95ED061B51EC100B53EC112B05F0CF
:1008200003F804F0F1FC286094ED3A0B53EC192B1B
:1008300051EC100B04F0BCFF95ED000A30EE080AF5
:1008400010EE100A7ED205F0E5FA95ED010A41ECB2
:10085000190B30EE080A10EE100A05F0DBFA41EC35
:10086000100BB0EE491AF0EE691A03F079FE51EC64
:10087000100B04F0C9FCB86095ED000A30EE080AD0
:1008800000E026E210EE100A05F0C4FA95ED010A28
:1008900041EC190B30EE480A10EE100A05F0BAFAD6
:1008A00041EC100BB0EE491AF0EE691A03F058FE55
:1008B00051EC100B04F0A8FCF86095ED000A30EE46
:1008C000480A10EE100A05F0A5FA95ED010A41EC70
:1008D000190B30EE080A10EE100A05F09BFA41ECF5
:1008E000100BB0EE491AF0EE691A03F039FE51EC24
:1008F000100B04F089FC386095ED000A30EE480AD0
:1009000010EE100A05F086FA95ED010A41EC190B7C
:1009100030EE480A10EE100A05F07CFA41EC100B9C
:10092000B0EE491AF0EE691A03F01AFE51EC100B02
:1009300004F06AFC786095ED000A30EE080A20EEBB
:10094000000A00E0A2E0D5ED010A70EE880A00EE90
:10095000A00A10EE100A05F05DFA41EC100B03F04E
:10096000BFFF95ED061B51EC100B53EC112B04F05F
:1009700031FD95ED021B53EC112B04F055FF04F0F3
:1009800043FCB06095ED000AD5ED010A30EE080A8F
:1009900070EEC80A20EE000A00EEA00A10EE100A5F
:1009A00005F038FA41EC100B03F09AFF95ED061BA9
:1009B00012E000003333F33E0000000000000000AE
:1009C000300000203C100020D00F49BFD00F493F1D
:1009D000000000A047E1DC3F53EC112B51EC100B61
:1009E00004F0F8FC95ED021B53EC112B04F01CFFF6
:1009F00004F00AFCF06095ED000AD5ED010A30EE36
:100A0000480A70EE880A20EE000A00EEA00A10EEF6
:100A1000100A05F0FFF941EC100B03F061FF95EDB2
:100A2000061B51EC100B53EC112B04F0D3FC95ED8D
:100A3000021B53EC112B04F0F7FE04F0E5FB3060D1
:100A400095ED000AD5ED010A30EE480A70EEC80AAD
:100A500020EE000A00EEA00A10EE100A05F0DAF906
:100A600041EC100B03F03CFF95ED061B51EC100B15
:100A700053EC112B04F0AEFC95ED021B53EC112B43
:100A800004F0D2FE04F0C0FB70602CE105F0C2F966
:100A900095ED010A41EC190B30EE080A10EE100A30
:100AA00005F0B8F941EC100BB0EE491AF0EE691AF6
:100AB00003F056FD51EC100B04F0A6FB00EE100AFB
:100AC000B1EE400A87ED000A95ED000A30EE080A03
:100AD00010EE100A05F09EF995ED010A41EC190B94
:100AE00030EE480A10EE100A05F094F941EC100BB4
:100AF000B0EE491AF0EE691A03F032FD51EC100B1A
:100B000004F082FB00EE100AB1EE400A87ED010A04
:100B100095ED000A30EE480A10EE100A05F07AF959
:100B200095ED010A41EC190B30EE080A10EE100A9F
:100B300005F070F941EC100BB0EE491AF0EE691AAD
:100B400003F00EFD51EC100B04F05EFB00EE100AFA
:100B5000B1EE400A87ED020A95ED000A30EE480A30
:100B600010EE100A05F056F995ED010A41EC190B4B
:100B700030EE480A10EE100A05F04CF941EC100B6B
:100B8000B0EE491AF0EE691A03F0EAFC51EC100BD2
:100B900004F03AFB00EE100AB1EE400A87ED030ABA
:100BA00095ED000AD5ED010A30EE080A70EE880ACC
:100BB00020EE000A00EEA00A10EE100A05F02AF955
:100BC00041EC100B03F08CFE95ED061B51EC100B65
:100BD00053EC112B04F0FEFB95ED021B53EC112B93
:100BE00004F022FE04F010FB306095ED000AD5ED14
:100BF000010A30EE080A70EEC80A20EE000A00EE84
:100C0000A00A10EE100A05F005F941EC100B03F0F4
:100C100067FE95ED061B51EC100B53EC112B04F005
:100C2000D9FB95ED021B53EC112B04F0FDFD04F0F4
:100C3000EBFA706095ED000AD5ED010A30EE480A36
:100C400070EE880A20EE000A00EEA00A10EE100AEC
:100C500005F0E0F841EC100B03F042FE95ED061BA9
:100C600051EC100B53EC112B04F0B4FB95ED021B6F
:100C700053EC112B04F0D8FD04F0C6FAB06095EDEA
:100C8000000AD5ED010A30EE480A70EEC80A20EEDF
:100C9000000A00EEA00A10EE100A05F0BBF841ECC5
:100CA000100B03F01DFE95ED061B51EC100B53ECE1
:100CB000112B04F08FFB95ED021B41EC100B53EC54
:100CC000112B51EC100B04F0AFFD04F09DFAF06015
:100CD00009E09FED250A86ED000A86ED010A86ED02
:100CE000020A86ED030A214896ED000A00F1200170
:100CF00080ED000A96ED010A80ED010A96ED020AE8
:100D000080ED020A96ED030A80ED030A91ED000AD8
:100D1000D7ED000AB8EEC01A9FED150A41EE000AA1
:100D2000C0ED040A91ED011AD7ED010AB8EEC11A1F
:100D300041EE000AC0ED050A91ED021AD7ED020A54
:100D4000B8EEC11A41EE000AC0ED060A91ED031A91
:100D5000D7ED030AB8EEC11A41EE000AC0ED070A4A
:100D6000BDEC068BBDE8F08100000000641000209F
:100D7000D00FC94090F82020012A07D0022A05D0C0
:100D8000416A41F480214162012070470068426954
:100D90000A43426100207047F0B590F82050046883
:100DA000A468012D05D0022D03D0416A41F48021B1
:100DB00053E014F0406F01D1E5004BD5C4F301645A
:100DC000022C03D9416A41F4000146E00125A54007
:100DD0001D608D684FF4C0739DB1CE6835434E6879
:100DE00045EAC605066803EB0417F5514FF4C275D2
:100DF000076805EB04150E697E51097D012905D0B0
:100E000009E00E88CD6845EA4655EBE701684E5982
:100E100046F480764E511179D2F805504FF4C676DB
:100E200041EA0525016806EB04168D511178D2F8C8
:100E300001204FF4C47541EA0221026805EB041554
:100E40005151006803EB0411425842F00102425034
:100E50000020F0BD416A41F4001141620120F0BD63
:100E600010B590F82020012A07D0022A05D0416A47
:100E700041F480214162012010BD3B48D0F800229E
:100E800042F00102C0F80022D0F8002222F47C5285
:100E9000C0F80022D0F800224B6A42EA0322C0F8D0
:100EA00000220A7D02F01F0301229A40D0F81C3272
:100EB0009343C0F81C32CB69B3B9D0F80C329343DA
:100EC000C0F80C328C894B6864F31F434C6900EB0B
:100ED000C404C4F840320C890B6864F31F434C69A6
:100EE00000EBC404C4F84432CB69012B16D1D0F80E
:100EF0000C321343C0F80C320C884B6864F31F4368
:100F00004C6900EBC404C4F840320C89CB6864F32C
:100F10001F434C6900EBC404C4F844328B69002BB6
:100F2000D0F804320ED01343C0F804320B69002B02
:100F3000D0F8143208D01343C0F81432096A0129DA
:100F400004D008E09343EFE79343F5E7D0F81C1291
:100F50001143C0F81C12D0F8001221F00101C0F8B2
:100F60000012002010BD000000640040704730B542
:100F700090F82040012C05D0022C03D0416A41F4A6
:100F800080215DE00468002955D02469A40754D06D
:100F90004FF4D874056804EB01142D5915F00405BD
:100FA000956005682D594ED0ED08556005682C599F
:100FB00004F00204D4604FF4DA74056804EB011401
:100FC0002D5905F00F05156105682D59C5F3072545
:100FD000956105682C59240C54614FF4DC72046847
:100FE00002EB0112A4581C700468A458240A5C7017
:100FF0000468A458240C9C700468A258120EDA707D
:101000004FF4DE72046802EB0112A4581C710468EC
:10101000A458240A5C710468A458240C9C710468C8
:10102000A258120EDA71006881B1016941F0200105
:101030000161002030BDE468A8E7416A41F4001175
:101040004162012030BD6D0D1560AFE7C16841F010
:101050002001C160EDE72DE9F05F0546006800243E
:101060004669D0F804908768D0F80CA0D0F810B08A
:10107000D0F81880F10742D0F90712D00121816021
:10108000B80701D5A96A0AE0780702D54FF40064D1
:1010900007E0380702D54FF4805402E0696B284618
:1010A0008847F80514D529684FF480708860B80522
:1010B00001D5E96A0AE0780502D544F4005407E056
:1010C000380502D544F4804402E0A96B28468847DD
:1010D000F80314D529684FF480308860B80301D52F
:1010E000296B0AE0780302D544F4004407E0380392
:1010F00002D544F4803402E0E96B28468847300783
:101100004FF0100706D55FEACA6003D5286844F49B
:101110000074C760700708D55FEA0A7005D52968B2
:101120000820C860696C28468847B00706D528683B
:10113000C068800702D0296C28468847700606D50B
:101140005FEACB6003D5286844F480640761B00689
:1011500008D55FEA0B7005D5296808200861E96C9D
:1011600028468847F00606D528680069800702D01F
:10117000A96C28468847B00307D55FEAC96004D543
:1011800028684760296D28468847F00308D55FEA3C
:10119000097005D5296808204860696D2846884788
:1011A000300446D55FEA497040D5F00504D55FEAC2
:1011B000C87001D044F00104B00504D55FEA88701E
:1011C00001D544F00204700504D55FEA487001D5EA
:1011D00044F00404300529D518F0700F26D008F02B
:1011E0007000402815D006DC102809D020280AD02D
:1011F000302816D10AE050280ED0602811D10EE018
:1012000044F008040DE044F010040AE044F0200427
:1012100007E044F0400404E044F0800401E044F4BA
:1012200080742868816921F0700181612968042037
:101230004860002C07D0686A204368622846A96D80
:10124000BDE8F05F0847BDE8F09F000070B50400FE
:1012500003D094F8200010B122E0012070BD514865
:101260002064514860645148A0645148E06451488A
:10127000A0625148E0625148206351486063514880
:10128000A0635148E063514820655148606551486A
:10129000A065E06D08B95048E065014620468847E2
:1012A0002068016841F00101016000F055FC05462D
:1012B000052604E000F050FC401B0A2811D82068E5
:1012C0004068C007F6D02068016821F00201016083
:1012D00000F042FC05460BE000F03EFC401B0A28F3
:1012E00006D9606A40F40030606284F82060B4E798
:1012F000206840688007EFD4207E012820680168BC
:101300003DD021F080010160607E012820680168E5
:1013100038D021F040010160A07E012820680168DA
:1013200033D021F020010160E07E012820680168AF
:101330002ED041F010010160207F01282068016853
:1013400029D021F008010160607F01282068016830
:1013500024D021F004010160D4E902010843D4E95A
:101360000412114308436168491E08432168C8619B
:1013700000206062012084F82000002070BD41F050
:101380008001C0E741F04001C5E741F02001CAE714
:1013900021F01001CFE741F00801D4E741F004014A
:1013A000D9E700006B150008691500086F150008E3
:1013B0006D150008CF150008D3150008D7150008D3
:1013C000CD150008D1150008D515000871150008C5
:1013D000D91500086D0F0008DD130008F0B587B0BF
:1013E000044614216846FEF7B6FF374B3748DFF84E
:1013F000D4E01968D4F800C0344A0225032609272E
:1014000010300024491CF44524D11960012907D16A
:10141000016841F000710160006800F00070059003
:10142000106840F001001060106802AB00F001008D
:1014300005904FF4C050CDE9000583E8D00069461F
:10144000234800F091FA00220521142000F0F2FB5D
:10145000142033E0DFF87CE0F44531D1D0F800C04F
:101460004CF0806CC0F800C0D0F800C001290CF02E
:10147000806CCDF814C0196007D1016841F000718B
:101480000160006800F000700590106840F00200F4
:101490001060106802AB00F0020005904FF440505D
:1014A000CDE9000583E8D00069460B4800F05CFAFE
:1014B00000220521402000F0BDFB402000F0ACFBE5
:1014C00007B0F0BD0064004000000020303802404A
:1014D00000000240006800400004024010B50023F4
:1014E0003AB190F82040012C09D090F8204064B324
:1014F0002FE0416A41F480014162012010BD0F29B3
:1015000027D2DFE801F0080A0C0E10121416181A80
:101510001C1E202D2F00826220E0C2621EE00263AA
:101520001CE042631AE0826318E0C26316E00264C2
:1015300014E0426412E0826410E0C2640EE00265CE
:101540000CE042650AE0826508E00D2908D00E290A
:1015500008D0416A41F4800141620123184610BD60
:10156000C265FBE70266F9E770477047704770474E
:101570007047000070B5044690F82000012804D0A0
:10158000606A40F40020606218E0022084F82000C5
:101590002068016821F00101016000F0DDFA0546D4
:1015A0000EE000BF00F0D8FA401B0A2808D9606A94
:1015B00040F400306062052084F82000012070BDF6
:1015C00020684068C007EDD1606270BD7047704709
:1015D000704770477047704770472DE9F0410446E7
:1015E00080680025069E80280ED094F834000128DB
:1015F0000FD0012084F8340094F8350001280AD077
:1016000002252846BDE8F0814FF480706065012511
:10161000F7E70220F6E7022084F835002068076823
:1016200047F4802707602068036133462046FEF7B1
:10163000B1FF2068016841F001010160E1E72DE997
:10164000F0410446876D00F087FA064694F83500AD
:101650000025022806D08020606584F834500120DF
:10166000BDE8F0812068016821F016010160206862
:10167000416921F080014161206C08B9A06C20B162
:101680002068016821F0080101602068016821F0EC
:10169000010101600CE000F05FFA801B052807D90A
:1016A00020206065032084F8350084F83450D7E7A3
:1016B00020680068C007EED194F85C103F20884095
:1016C000B860012084F8350084F834500020C7E762
:1016D00090F83510022903D0802141650120704720
:1016E000052180F835100068016821F001010160D2
:1016F000002070472DE9F84304464FF00009CDF86B
:10170000009063484FF41651A56D0068B0FBF1F7E7
:101710002E6894F85C10082000FA01F131420FD0D5
:1017200021680A6852070BD50A6822F004020A6091
:1017300094F85C108840A860606D40F0010060651E
:1017400094F85C104FF0010808FA01F0304208D01C
:1017500021684969090604D5A860606D40F002005F
:10176000606594F85C1004208840304208D02168FD
:101770000968890704D5A860606D40F004006065C1
:1017800094F85C1010208840304218D02168096815
:10179000090714D5A86020680168490304D50068CA
:1017A000000308D5A16C07E00168C90503D40168EE
:1017B00021F008010160216C09B12046884794F8A6
:1017C0005C1020208840304231D021680968C90669
:1017D0002DD5A86094F8350005282068016806D04A
:1017E000490347D5006800031DD4616C1CE021F05B
:1017F000160101602068416921F080014161206C7F
:1018000008B9A06C20B12068016821F008010160CE
:1018100094F85C103F208840A86084F8358084F8F4
:101820003490216D1FE0E16B09B120468847606D5F
:1018300000282BD0606DC00714D0052084F8350037
:101840002068016821F0010101600098401C0090AF
:10185000B84203D820680068C007F6D184F8358004
:1018600084F83490E16C002910D001B02046BDE826
:10187000F04308470168C905D5D4016821F010017B
:10188000016084F8358084F83490CCE7BDE8F883B3
:10189000100000202DE9F041044600F05DF90646F5
:1018A0005CB1022084F83500002584F834502068AB
:1018B000016821F0010101600DE00120BDE8F08127
:1018C00000F04AF9801B052805D920206065032017
:1018D00084F83500F2E720680068C007F0D122687C
:1018E000116820480140D4E901031843D4E90336C4
:1018F0003343184363691843A3691843E3691843E2
:10190000236A18430843616A042903D1D4E90B13FD
:1019100019430843106020684069666A20F0070197
:1019200030460E43012704280CD1A06A0643E06A22
:1019300040B12046FEF704FE20B14020606584F8E7
:101940003570BAE7206846612046FEF7E5FD94F859
:101950005C203F2191408160656584F835700020EE
:10196000ACE700003F8010F02DE9F84FDFF8BCA194
:10197000002201250AF1040B03264FF00F090BF199
:10198000040E00BF0B6805FA02F42340A34270D195
:101990000F7907F00307012F01D0022F16D18768B6
:1019A0004FEA420806FA08FC27EA0C07D1F80CC0F7
:1019B0000CFA08FC4CEA070CC0F808C04768A743BB
:1019C0000C79C4F3001494403C4344600C79E44324
:1019D000A4070AD0C4684FEA420C06FA0CF7BC43CD
:1019E0008F6807FA0CF72743C7600C7904F00304EB
:1019F000022C12D1D40800EB840CDCF820405707ED
:101A0000FF0E09FA07F824EA0804D1F8108008FA52
:101A100007F848EA0408CCF8208004684FEA420C32
:101A200006FA0CF7BC430F7907F0030707FA0CF727
:101A3000274307604C6814F4403F70D03C4C276843
:101A400047F480472760246822F0030704F48044A9
:101A50000094384C07EB040CDCF8084897074FEA71
:101A6000177809FA08F7BC43334FB84202D1002770
:101A700024E054E0314FB84201D101271EE0304F3D
:101A8000B84201D1022719E02E4FB84201D10327F5
:101A900014E02D4FB84201D104270FE02B4FB8427C
:101AA00001D105270AE02A4FB84201D1062705E0F7
:101AB000284FB84201D1072700E0082707FA08F7A6
:101AC0002743CCF80878DAF800405746D1F804C02C
:101AD0009C435FEACC3C00D51C433C60DBF80040F3
:101AE0005F46D1F804C09C435FEA8C3C00D51C43A0
:101AF0003C60DEF800407746D1F804C09C435FEAC2
:101B0000CC2C00D51C433C60084F0C373C68D1F806
:101B100004C09C435FEA8C2C00D51C433C60521CE3
:101B2000102AFFF42FAFBDE8F88F0000003C014001
:101B300044380240003001400000024000040240EE
:101B400000080240000C0240001002400014024055
:101B500000180240001C02400148806870470000E5
:101B600004000020024881680278114481607047B7
:101B7000040000200B4810B5016841F400710160B9
:101B8000016841F480610160016841F48071016085
:101B9000032000F06FF80F2000F006F800F024F8A2
:101BA000002010BD003C024070B50D4D04464FF4BE
:101BB0007A712878B1FBF0F00A490968B1FBF0F0BE
:101BC00000F00AFB48B9102C07D200222146501E13
:101BD00000F030F800206C6070BD012070BD000086
:101BE00004000020100000200A4808B5016841F4F4
:101BF00080410160006800F4804000900548001FAB
:101C0000016841F080510160006800F08050009050
:101C100008BD000044380240002809DB00F01F0224
:101C2000012191404009800000F1E020C0F800113E
:101C300070470000F0B40E4B1B680C46C3F3022340
:101C4000C3F10705042D00D90425191D072901D268
:101C5000002300E0DB1E012606FA05F1491E2140A3
:101C600099409E40761E16403143F0BC02F0F9BA0E
:101C70000CED00E0064900F0070208684FF6FF038C
:101C8000184040EA0220034A1043086070470000F1
:101C90000CED00E00000FA052DE9F0470E460500C6
:101CA00065D0DFF81481D8F80000F7B200F0070023
:101CB000B04207D288F80070D8F8000000F00700A2
:101CC000B04254D128683D4C810712D5400703D556
:101CD000206840F4E05020602878000703D5206891
:101CE00040F4604020602068A96820F0F0000843BC
:101CF00020602878C0072DD030496868083901284D
:101D000012D0022813D0032811D0096889070029AE
:101D10002DDA216821F0030101432160FFF71CFF48
:101D2000814641F2883A0EE009688903EFE70968C5
:101D30008901ECE7FFF710FFA0EB0901514502D93B
:101D40000320BDE8F0872068696800F00C00B0EB64
:101D5000810FEFD1D8F80010404601F00701B142E1
:101D600007D90770006800F00700B04201D00120D9
:101D7000E7E72878400705D52068E96820F4E050B7
:101D8000084320602878000706D52068296920F4D8
:101D9000604040EAC100206000F038F82168084A3D
:101DA000C1F30311515CC840064908600648006849
:101DB000FFF7FAFE0020C4E7003C0240083802406A
:101DC000125F0008100000200800002004480549A8
:101DD00000680968044AC1F38221515CC840704719
:101DE0001000002008380240225F0008044805491E
:101DF00000680968044AC1F34231515CC840704729
:101E00001000002008380240225F0008154810B575
:101E1000006810F00C02144813D04110042A0FD0AF
:101E2000082A0ED10F4C241F2268236802F03F02BB
:101E30005B0207D52068C0F38810A0FB010106E013
:101E4000084610BD2168C1F38811A1FB00010023E1
:101E5000FEF70AFA2168C1F30141491C4900B0FBB1
:101E6000F1F010BD083802400024F4002DE9F84FCD
:101E700004006ED02078DFF84C93C007A9F1040568
:101E80004AD009F104000168C1F38101012908D099
:101E90000068C0F3810002280AD1D9F8000040028E
:101EA00006D52868800337D560680028E1D033E084
:101EB0006068B0F5803F10D0B0F5A02F286810D032
:101EC00020F480302860286820F480202860606832
:101ED000A8B1FFF741FE06460DE0286840F48030C7
:101EE000F4E740F480202860F7E700BFFFF734FEF6
:101EF000801B642873D828688003F7D50CE0FFF7AF
:101F00002BFE064605E000BFFFF726FE801B642877
:101F1000F0D828688003F7D42078DFF8AC828007F7
:101F20004FF0000A3ED5A748001D016811F00C0FC4
:101F300008D00068C0F3810002280BD1D9F8000056
:101F4000400207D42868800716D5E068012800D130
:101F500012E033E1E068B8B10120C8F80000FFF7F3
:101F6000FBFD064605E000BFFFF7F6FD801B0228DB
:101F7000C0D828688007F7D52868216920F0F800C4
:101F800040EAC10028600DE0C8F800A0FFF7E4FDBA
:101F9000064604E0FFF7E0FD801B02281FD82868F2
:101FA0008007F7D42078000722D5864F87486169DB
:101FB000703771B101210160FFF7CEFD064604E0E4
:101FC000FFF7CAFD801B022809D838688007F7D5BB
:101FD0000EE0C0F800A0FFF7BFFD064605E082E076
:101FE000FFF7BAFD801B02287DD838688007F7D438
:101FF0002078400768D5DFF8CCB100270BF13C0B07
:10200000DBF80000C0000BD4DBF8001041F0805179
:10201000CBF80010DBF80000012700F080500090A2
:102020006B4E3068C00510D4306840F4807030606A
:10203000FFF792FD009005E0FFF78EFD0099401A32
:10204000022850D83068C005F6D55E4EA0686C36C0
:1020500001280FD00528306810D020F00100306032
:10206000306820F004003060A068B8B1FFF774FD5C
:1020700000900FE0306840F00100F4E740F0040009
:102080003060F7E7FFF768FD0099411A41F28830A8
:10209000814266D830688007F4D50EE0FFF75CFD1A
:1020A000009007E0FFF758FD0099411A41F288308F
:1020B000814256D830688007F4D42FB1DBF8001085
:1020C00021F08051CBF80010A069C8B33D49091D2B
:1020D0000968C1F3810102294AD00228504607D07D
:1020E000C8F8600000E03CE0FFF736FD04463BE046
:1020F0004746C8F86000FFF72FFD064605E000BF21
:10210000FFF72AFD801B02282BD828688001F7D40E
:10211000D4E907010843A16A2E4A490802EB0141AC
:10212000626A41EA8211084394F82C1040EA016186
:10213000C9F8001001203866FFF70EFD044606E0DE
:102140003EE000BFFFF708FD001B022809D8286801
:102150008001F7D534E000BFFFF7FEFC001B02282A
:1021600002D90320BDE8F88F28688001F4D427E065
:102170000128F7D0D9F80000E26900F4800191420B
:102180001CD1226A00F03F01914217D147F6C0717D
:10219000626A0140B1EB821F10D1A26A4FF0FF3397
:1021A00000F4403103EB5202B1EB024F06D194F838
:1021B0002C1000F07060B0EB016F01D00120D1E76E
:1021C0000020CFE70438024000004742800E47421B
:1021D000007000400000FFFF10B5401EB0F1807F8E
:1021E00001D3012010BD4FF0E02460610F21601782
:1021F00002F037F80020A06107202061002010BD08
:10220000704770477047000070B590F83C20012A75
:1022100032D0012480F83C40022280F83D2003683F
:102220005A689D6822F070060A6832435A60134B60
:1022300002689A4214D0B2F1804F11D0104B9A42EA
:102240000ED0104B9A420BD00F4B9A4208D00F4B36
:102250009A4205D00E4B9A4202D00E4B9A4204D1BC
:10226000496825F080031943916080F83D400021C2
:1022700080F83C10084670BD022070BD000001408F
:102280000004004000080040000C00400004014031
:10229000004001400018004010B5040003D094F83D
:1022A0003D0010B10EE0012010BD002084F83C007C
:1022B000204601F0FBFDA06C08B91148A06401465E
:1022C00020468847022084F83D00211D206801F047
:1022D00077FD012084F8460084F83E0084F83F0032
:1022E00084F8400084F8410084F8420084F84300F8
:1022F00084F8440084F8450084F83D00002010BDB7
:102300000523000808B50068B0F1804F12D10A48D3
:10231000016841F0010101600068002200F0010045
:10232000009005211C20FFF785FCBDE808401C201B
:10233000FFF772BC08BD00004038024090F83D1025
:10234000012901D001207047022180F83D10016869
:10235000CA6842F00102CA6000681149884214D07C
:10236000B0F1804F11D00F4988420ED00E498842FB
:102370000BD00E49884208D00D49884205D00D493E
:10238000884202D00C49884204D1816801F00701DB
:10239000062903D0016841F0010101600020704767
:1023A000000001400004004000080040000C004014
:1023B00000040140004001400018004070B5044690
:1023C00090F83C000025012817D0012684F83C60D5
:1023D000022084F83D002068826822F0770222F40F
:1023E0007F4282600868502838D00DDC20284FD00A
:1023F00005DC90B3102811D14AE0022070BD3028CE
:1024000046D040280AD13BE060282FD070280DD05C
:10241000B0F5805F03D0B0F5005F12D0012584F8DD
:102420003D60002084F83C00284670BDCB68D1E9AF
:102430000121206801F028FD2068816841F07701C2
:1024400009E0CB68D1E90121206801F01DFD206879
:10245000816841F480418160E1E719E0CA68496818
:10246000206801F059FD5021206806E0CA684968DB
:10247000206801F062FD6021206801F00FFDCEE7C9
:10248000CA684968206801F047FD40212068F4E7E8
:10249000226801461046F0E770477047704770B5F4
:1024A0000446006801694FF00005C943890717D445
:1024B000C168C943890713D4E91E0161012020774F
:1024C00020688069800702D0D4F8901005E0D4F825
:1024D000981020468847D4F89C10204688472577D6
:1024E00020680169C943490719D4C168C94349072C
:1024F00015D46FF004010161022020772068806903
:1025000010F4407F02D0D4F8901005E0D4F8981071
:1025100020468847D4F89C102046884725772068B5
:102520000169C943090718D4C168C943090714D40C
:102530006FF008010161042020772068C0698007DE
:1025400002D0D4F8901005E0D4F8981020468847BF
:10255000D4F89C1020468847257720680169C94334
:10256000C90619D4C168C943C90615D46FF0100152
:102570000161082020772068C06910F4407F02D0F4
:10258000D4F8901005E0D4F8981020468847D4F885
:102590009C1020468847257720680169C943C907F0
:1025A00009D1C168C943C90705D1891E0161D4F8A1
:1025B00080102046884720680169C94309060AD46B
:1025C000C168C943090606D46FF080010161D4F8DF
:1025D000B0102046884720680169C94349060AD4DB
:1025E000C168C943490606D46FF040010161D4F8BF
:1025F00088102046884720680169C94389060CD4A1
:10260000C168C943890608D46FF0200101612046E2
:10261000D4F8A810BDE87040084770BD70477047F7
:1026200070477047704710B5002372B190F83C4076
:10263000012C0CD0012480F83C4090F83D40012C46
:1026400007D090F83D408CB364E0012010BD02201B
:1026500010BD1B295ED2DFE801F041434547494BDD
:102660004D4F51535557595B0E1114171A1D202306
:10267000262A2D303300C0F880204CE0C0F884209A
:1026800049E0C0F8882046E0C0F88C2043E0C0F85C
:10269000902040E0C0F894203DE0C0F898203AE057
:1026A000C0F89C2037E0C0F8A02034E00BE0C0F870
:1026B000A42030E0C0F8A8202DE0C0F8AC202AE02B
:1026C000C0F8B02027E00E2924D2DFE801F0070986
:1026D0000B0D0F11131517191B1D1F2182641AE012
:1026E000C26418E0026516E0426514E0826512E0FB
:1026F000C26510E002660EE042660CE082660AE007
:10270000C26608E0026706E0426704E0826702E012
:10271000C26700E00123002180F83C10184610BD7C
:1027200070477047704770477047704770470000A8
:10273000F8B5016804460868CA684B6910F00F0FC5
:102740004FF0000556D003F0010602F490773743AE
:1027500061D0C10705D0D10503D5216C41F001013D
:102760002164410705D5D90703D0216C41F002014E
:102770002164810705D5D90703D0216C41F00401FC
:102780002164010707D502F02001314303D0216CF9
:1027900041F008012164216C00293BD0800604D55A
:1027A000900602D5204601F04BFC20684069216C60
:1027B000C0F38010090700D440B3204601F0F2FBBB
:1027C0002068406940061ED52068143050E8001F7C
:1027D00021F0400140E80012002AF5D1A06B90B131
:1027E0006C490165A06BFEF773FF002812D0A06B47
:1027F000016DCBE083060ED593060CD52046BDE8CF
:10280000F84001F01DBC2046616DBFE0616D2046BF
:1028100088472564F8BD266B2023012E7BD1C60690
:1028200079D5D60677D5086848680090486940068B
:1028300040D5A16B086840680004000CEAD0A28D66
:102840008242E7D9E085C869B0F5807F2DD0206845
:102850000C3050E8001F21F4807140E80012002A7B
:10286000F5D12068143050E8001F21F0010140E844
:102870000012002AF5D12068143050E8001F21F022
:10288000400140E80012002AF5D184F83E3025636B
:1028900020680C3050E8001F21F0100140E80012C1
:1028A000002AF5D1A06BFEF7CAFEA08DE18D401A7B
:1028B00081B229E0A08DE18D401A81B2E08D00281F
:1028C000A8D00029A6D020680C3050E8002F22F4B0
:1028D000907240E80026002EF5D12068143050E8B0
:1028E000002F22F0010240E80026002EF5D184F8E6
:1028F0003E30256320680C3050E8002F22F0100293
:1029000040E80023002BF5D1A26E01B02046BDE8BF
:10291000F0401047FFE705062CD515062AD594F898
:102920003D0021287FF476AFA068B0F5805F01D12B
:102930002069B0B1206A411C21622168007848609A
:10294000E08C401E0004000CE084EBD12068C168DC
:1029500021F08001C1602068C16841F04001C16080
:10296000F8BD206A0088C0F308004860206A801C17
:102970002062E5E74006F3D55006F1D5CA68204647
:1029800022F04002CA6084F83D30A16C01B0BDE87D
:10299000F0400847993F000870B5040004D094F84F
:1029A0003D00002510B10DE0012070BD84F83C50C1
:1029B000204601F01FFBE06E08B91348E0660146AF
:1029C00020468847242084F83D002068C16821F40F
:1029D0000051C160204601F093FB2068016921F499
:1029E000904101612068416921F02A01416120681C
:1029F000C16841F40051C1602564202084F83D0085
:102A000084F83E00002070BD0D2A00082DE9F04F2B
:102A100087B0044614216846FDF79DFC8948884B21
:102A20000221D4F800C00322DFF81CB200258F0673
:102A300006154FF0070A4FF480799C453ED1814B33
:102A40001433D3F800C04CF0100CC3F800C01B685E
:102A500003F010030593036843F00103036000686B
:102A600000F00100059050028DE82300CDE9032A13
:102A700069465846FEF778FFDFF8D481734940462F
:102A8000C8F80010C0E90175C0E90356C8F8145031
:102A9000C0E90659C8F82050C8F82450FEF7FAFEDD
:102AA00008B1FDF787FDC4F83880002205212520F4
:102AB000C8F83840FFF7BEF8252060E0614BDFF82A
:102AC00094811033C4455FD1D3F800C0A8464CF4BC
:102AD000003CC3F800C01B6803F40033059303688F
:102AE00043F001030360006800F0010005900C2032
:102AF0008DE82300CDE9032A69465846FEF734FFE6
:102B0000DFF84CB154490BF1600B5846CBF800107C
:102B1000C0E90175C0E90356CBF81450C0E9065965
:102B2000BA46CBF820504F46CBF82450FEF7B2FE01
:102B300008B1FDF73FFD464D4748C4F838B0C035F1
:102B40001830CBF83840C5E9000A4020A860C5E934
:102B50000386C5F81480C5E90687C5F82080284695
:102B6000C5F82480FEF796FE08B1FDF723FD6563E6
:102B7000002205212620AC63FFF75CF82620FFF732
:102B80004BF807B0BDE8F08FDFF8D080C445F8D12E
:102B9000D3F800C04CF4802CC3F800C01B6803F4C9
:102BA00080230593036843F002030360006800F08C
:102BB000020005904FF440608DE82300CDE9032A20
:102BC00069462748FEF7D0FE2349DFF898A0603910
:102BD0005046CAF80010C0E90175C0E90356CAF8AA
:102BE0001450C0E90659CAF82050B846CAF8245013
:102BF000FEF750FE08B1FDF7DDFC1A4F1648C4F889
:102C000038A060373038CAF83840E7E8020840207A
:102C100061C7144847F814596030BD61FD613D62D9
:102C20007D62FEF737FE08B1FDF7C4FC6763002242
:102C300011462720BC63FEF7FDFF27209FE7000019
:102C40000010014030380240000002404064024061
:102C500030030020004400408860024000480040EB
:102C600000040240500400200022A1B190F83C3042
:102C7000012B16D0012380F83C3090F83D30202BFA
:102C800011D0016C41F0200101640122002180F883
:102C90003C1010467047016C41F020010164012096
:102CA0007047022070478166F0E7704770477047B1
:102CB0007047FEE710B5827981681AB98A88028068
:102CC00001228271B1F90430B0F900209C1A24B2BB
:102CD000B4F5805F05DBCC6823449A1AA2F5005254
:102CE00008E014F5805FCC682344A3EB020201DC0A
:102CF00002F50052CA6081688988018010BD000019
:102D000010B5044600681F4B8AB0984201D10120DB
:102D100005E01D4A904201D1022000E00020C0EBF6
:102D200000121A4800EB820292F8240002EB8000A5
:102D3000816212F8240F0021401C107022680E20BE
:102D40009A4201D1059100E005900491099001207B
:102D500001910291CDE90610039100910890694616
:102D60002046FEF77DF80A4A06212046FEF7B6FB0C
:102D700002212046FDF7FEFF2046FEF7FBFB0AB0CE
:102D800010BD00000064004000680040000A002000
:102D9000952D000870B5144A0168914201D10126B1
:102DA00005E0124A914201D1022600E000261049B6
:102DB000C6EB061201EB82031C4603F10802002158
:102DC000FEF7D5F800280ED1002508E004EB8500B9
:102DD000836A1BB121463046A26898476D1C94F85F
:102DE0002400A842F2DC70BD00640040006800408E
:102DF000000A0020A2F20122072A1AD800EB4003A1
:102E00000C48D2B200EB431002EB420200EB82000E
:102E10008268002A0DD00B885BBA93804A88836849
:102E200052BA1A808A8852BA428089798180FFF723
:102E300041BF7047B40A0020054B01EB410103EB91
:102E4000411102EB420201EB820141F8040C704790
:102E5000B40A002030B505460068344989B088427C
:102E600001D1012005E03249884201D1022000E071
:102E700000200021049105914FF400710291082176
:102E8000069100EB40012B4808AB00EB41146A4669
:102E9000A068018A080A8DF800008DF801106069A9
:102EA000018A090A8DF80210007C8DF80300206A5F
:102EB000018A090A8DF80410007C8DF80500E06A8B
:102EC000018A090A8DF80610007C8DF8070002A916
:102ED0002846FDF761FF40F2FF100290A06B08AB9F
:102EE0006A46008A010A8DF800108DF80100606CB6
:102EF000018A090A8DF80210007C8DF80300206D0C
:102F0000018A090A8DF80410007C8DF80500E06D37
:102F1000018A090A8DF80610007C8DF8070002A9C5
:102F20002846FDF739FF09B030BD000000640040BD
:102F300000680040B40A002010B5002836D001888F
:102F40001B4CC1F30A01A18041788278C90841EA8B
:102F50004211C1F30A01E1808178C278890941EA0E
:102F60008201027941EA8221C1F30A0121800179BB
:102F70004279490841EAC211C1F30A0161804179ED
:102F8000890921724179C1F301116172C18861819E
:102F90000189A1814189E181017B2174417B6174B7
:102FA000C089608200F078F80120207510BD000013
:102FB0001800002070EE600AC0ED030A90ED040ACC
:102FC000F4EEC00AF1EE10FA01DD80ED030AD0ED57
:102FD000030AB1EE400AF4EEC00AF1EE10FA02D391
:102FE000B0EE600A01E080ED030AB5EEC00AF1EE32
:102FF00010FA01DCB1EE400AD0ED080AB4EEE00AA6
:10300000F1EE10FA02D990ED030A03E09FED210AD8
:1030100080ED030AD0ED090AD0ED001AB0EE002AC7
:1030200030EE601A21EE211AD0ED011A01EE801A5D
:10303000F0EE401A40EEC21A90ED0A2A71EE821AA2
:1030400090ED022A02EE211AD0ED0B1A71EE211A30
:10305000C0ED0B1A90ED0C1AF4EEC11AF1EE10FA55
:1030600001DD80ED0B1AD0ED0B1AB1EE411AF4EE32
:10307000C11AF1EE10FA01D280ED0B1AC0ED0A0A66
:1030800080ED090A90ED0B0ABDEEC00A10EE100AA1
:1030900070470000000000001E48418A1E4801F0F1
:1030A00001028270C1F340020272C1F38002827396
:1030B000C1F3C0020275C1F300128276C1F340125F
:1030C00080F82020C1F3801280F82620C1F3C012BE
:1030D00080F82C20C1F3002280F83220C1F3402276
:1030E00080F83820C1F3802280F83E20C1F3C0224E
:1030F00080F84420C1F3003280F84A20C1F3403206
:1031000080F85020C1F3803280F85620C90B80F837
:103110005C10704718000020D40B0020C0ED0C1A82
:1031200080ED042AC0ED062A80ED083A80EC030AFF
:103130007047000070EE600AC0ED030A90ED040ACB
:10314000F4EEC00AF1EE10FA01DD80ED030AD0EDD5
:10315000030AB1EE400AF4EEC00AF1EE10FA02D30F
:10316000B0EE600A01E080ED030AB5EEC00AF1EEB0
:1031700010FA01DCB1EE400A90ED081ADFED310AD9
:10318000B4EEC10AF1EE10FA01D8C0ED030A90EDD9
:10319000051A90ED030A31EE001A80ED051A20EEB3
:1031A000011AB5EEC01AF1EE10FA01D2C0ED050A0F
:1031B00090ED051AD0ED060AB4EEE01AF1EE10FA21
:1031C00001DDC0ED050A90ED051AF1EE600AB4EEDE
:1031D000E01AF1EE10FA01D2C0ED050AD0ED090AAD
:1031E00030EE601A80ED071AD0ED000AD0ED011A1A
:1031F00090ED052A60EE800A41EE820AD0ED021AB7
:1032000041EE810AC0ED0B0A90ED0C1AF4EEC10AF2
:10321000F1EE10FA01DD80ED0B1AD0ED0B1AF1EE94
:10322000410AF4EEE01AF1EE10FA01D2C0ED0B0AF9
:1032300080ED090A90ED0B0ABDEEC00A10EE100AEF
:10324000704700000000000010B5044602682A48DC
:10325000824201D1012241E0B2F1804F04D02748DF
:10326000824203D1032239E0022237E0244882421D
:1032700001D1042232E02348824201D105222DE00F
:103280002148824201D1062228E02048824201D111
:10329000072223E01E48824201D108221EE01D4879
:1032A000824201D1092219E01B48824201D10A223F
:1032B00014E01A48824201D10B220FE018488242E2
:1032C00001D10C220AE01748824201D10D2205E00B
:1032D0001548824201D10E2200E00022134840F836
:1032E0002210134A0E212046FFF79DF92046BDE823
:1032F0001040FFF723B80000000001400004004028
:1033000000080040000C0040001000400014004085
:1033100000040140004001400044014000480140D9
:1033200000180040001C004000200040340C002029
:103330003533000800682749884201D1012041E067
:10334000B0F1804F04D02449884203D1032039E0F2
:10335000022037E02149884201D1042032E020498F
:10336000884201D105202DE01E49884201D1062066
:1033700028E01D49884201D1072023E01B498842EB
:1033800001D108201EE01A49884201D1092019E024
:103390001849884201D10A2014E01749884201D116
:1033A0000B200FE01549884201D10C200AE0144996
:1033B000884201D10D2005E01249884201D10E203A
:1033C00000E00020104951F82000002800D00047FC
:1033D0007047000000000140000400400008004069
:1033E000000C0040001000400014004000040140A8
:1033F00000400140004401400048014000180040E6
:10340000001C004000200040340C002030B42A4B47
:1034100002689A4201D1012319E0284B9A4201D156
:10342000022314E0264B9A4201D103230FE0254BDF
:103430009A4201D104230AE0234B9A4201D1052389
:1034400005E0224B9A4201D1062300E00023826B63
:103450001268146803EBC30303EB43051C4B44F3EE
:10346000C04403EB850393F86450691A1568C9B228
:1034700025F001051560826B12681568641C2D0328
:10348000156802D525F4002501E045F400251560F6
:10349000806B0068026842F0010202609A6E002AA6
:1034A00007D004EBC40000EB041030BC03EB400079
:1034B000104730BC7047000000100140004400403D
:1034C00000480040004C0040005000400014014003
:1034D000700C0020F8B505460068224A904201D1E0
:1034E000012019E0204A904201D1022014E01F4A35
:1034F000904201D103200FE01D4A904201D10420E7
:103500000AE01C4A904201D1052005E01A4A904287
:1035100001D1062000E0002000EBC00000EB4002DB
:103520001648322600EB82042846A4F86460A1669F
:103530001349FFF799FB2868C16841F01001C16089
:1035400001202863AE850096296804F132032246E3
:10355000091DA86BFEF741F82868416941F0400158
:103560004161F8BD001001400044004000480040A7
:10357000004C00400050004000140140700C00203E
:103580000D340008417FD02922D1B0F91E1000EE81
:10359000101A1149F8EEC00A9FED0E0A80EE801A4B
:1035A00081ED021AB0F9202000EE902AF8EEE00A30
:1035B00080EE801AF2EE040A81ED011AB0F92200C1
:1035C00000EE100AB8EEC00A80EE201A81ED001A53
:1035D000704700000000C842941000200F4810B54A
:1035E0000D4901600621416000214FF400328160E5
:1035F000C0E9031212014261017641768176C176FB
:1036000001774177FDF722FE002803D0BDE8104086
:10361000FCF7D0BF10BD000000640040580000203F
:103620000F4810B50D4901600621416000214FF49B
:1036300000328160C0E903121201426101764176D5
:103640008176C17601774177FDF700FE002803D02F
:10365000BDE81040FCF7AEBF10BD000000680040A0
:10366000BC0000201D4808B5016841F480010160DC
:10367000016801F480010091016841F400110160CA
:103680000068002200F40010009011460C20FEF7A4
:10369000D1FA0C20FEF7C0FA002211460E20FEF7E8
:1036A000C9FA0E20FEF7B8FA002211461020FEF7E4
:1036B000C1FA1020FEF7B0FA002211461120FEF7E1
:1036C000B9FA1120FEF7A8FA002211463A20FEF7B7
:1036D000B1FABDE808403A20FEF79EBA3038024001
:1036E0000D4808B5016841F080010160016801F0F2
:1036F00080010091016841F001010160016801F061
:1037000001010091016841F002010160006800F0D0
:103710000200009008BD00003038024010B586B0AD
:1037200000241648009401940294039404944FF0EA
:103730008041059401605321C0E9011440F2E73152
:10374000C0E903148461FEF7A7FD08B1FCF732FF5E
:103750004FF48050009069460848FEF72FFE08B1EC
:10376000FCF728FF049404A904480594FEF74CFDD7
:10377000002801D0FCF71EFF06B010BD200100207C
:103780000E4810B50C4901600D4941604FF480515D
:10379000816000214FF48062C0E903120C22C0E96D
:1037A0000521C161FFF7F8F8002803D0BDE81040FB
:1037B000FCF700BF10BD000000100140D401002044
:1037C000A08601000C4810B50A4901604FF4E131B0
:1037D0004160002181600C22C160C0E90412816156
:1037E000C161FFF7D9F8002803D0BDE81040FCF70D
:1037F000E1BE10BD00440040480200200C4810B556
:103800000A4901604FF4E1314160002181600C22DE
:10381000C160C0E904128161C161FFF7BDF80028F1
:1038200003D0BDE81040FCF7C5BE10BD0048004005
:10383000BC020020FEE70000F0B5444E444F0022D9
:103840009FED441ADFED440A444C00BFC2EB421125
:1038500000EB810504EB8203E96800EE101A0029F1
:10386000F8EEC01A93ED040A71EEC01A11EE90CA78
:103870003CDBB44509DC01EE901AF8EEE11A71EE7A
:10388000C01A11EE90CABC451CD901EE901ADFF89F
:10389000D0E0F8EEE11A71EEC01A11EE90CAF445CC
:1038A00041DD30EE010A3BE030EE200A02E000BFCD
:1038B00030EE600A83ED040A93ED000AB1EE400A8F
:1038C00083ED000A04EB8201521C91ED040A042AE4
:1038D000BDEEC00A85ED020A91ED000ABDEEC00AF8
:1038E00010EE101AA5F86E12B0DBF0BDB44509DC7D
:1038F00001EE901AF8EEE11A71EEC01A11EE90CABC
:10390000BC45DFD901EE901ADFF858E0F8EEE11A75
:1039100071EEC01A11EE90CAF44504D930EE410A96
:1039200083ED040ACEE701EE901AF8EEE11AF4EE08
:10393000C01AF1EE10FAB7DC01EE901AF8EEE11AB7
:10394000F4EEC01AF1EE10FAB2D3BBE7D00FC93FC4
:10395000D00FC9BFD00FC940D00F4940641000201C
:10396000DCCB9640DCCB96C010B501222DED068B4A
:1039700011468948FFF760FA8748022201217C300E
:10398000FFF75AFA844803220121F830FFF754FA6E
:10399000042201218148FFF74FFA012202218048C9
:1039A000FFF74AFA7E48022211467C30FFF744FABC
:1039B0007B4803220221F830FFF73EFA76480422C2
:1039C0000221F838FFF738FA9FED768AB0EE483AD0
:1039D0009FED759AF0EE492AB0EE492ADFED739A11
:1039E000F0EE691A9FED72AAB0EE4A1ADFED71AAE5
:1039F0006948B1EE040AF0EE6A0A1430FFF78EFB54
:103A0000B0EE483ADFED6C8A6348B0EE481AF0EE4B
:103A1000682AB0EE682AF0EE681AF0EE480AB0EEB6
:103A2000480A9030FFF77AFB5C48B0EE483AF0EE77
:103A3000682AB0EE682AF0EE681AB0EE481AF0EE86
:103A4000480AB0EE480A6838FFF768FB5348B0EE02
:103A5000483AF0EE682AB0EE682AF0EE681AB0EE46
:103A6000481AF0EE480AB0EE480A1430FFF756FB49
:103A70004B48B0EE483AF0EE492AB0EE492AF0EE53
:103A8000691AB0EE4A1AF0EE6A0AB1EE040A14306E
:103A9000FFF744FB4248B0EE483AF0EE682AB0EE39
:103AA000682AF0EE681AB0EE481AF0EE480AB0EE56
:103AB000480A9030FFF732FBB0EE483AF0EE682A41
:103AC000B0EE682AF0EE681AB0EE481AF0EE480A36
:103AD000B0EE480A3948FFF721FB3848B0EE483AC3
:103AE000F0EE682AB0EE682AF0EE681AB0EE481AD6
:103AF000F0EE480AB0EE480A7C30FFF70FFB28488A
:103B0000B0EE483AF0EE492AB0EE492AF0EE691AD2
:103B1000B0EE4A1AF0EE6A0AB1EE040A4830FFF736
:103B2000FDFA2648B0EE483AF0EE682AB0EE682A70
:103B3000F0EE681AB0EE481AF0EE480AB0EE480A05
:103B40004838FFF7EBFA1D48B0EE483AF0EE682A25
:103B5000B0EE682AF0EE681AB0EE481AF0EE480AA5
:103B6000B0EE480A3430FFF7D9FAB0EE483AF0EE3A
:103B7000682AB0EE682AF0EE681AB0EE481AF0EE45
:103B8000480AB0EE480ABDEC068B0348BDE8104079
:103B9000B038FFF7C3BA00007C070020F00800200F
:103BA000100500200000000000409C4500401C461D
:103BB0008FC2753DCDCC4C3D000048421C06002014
:103BC0002DE9F041264EDFF89C800025C5EB451716
:103BD00006EB8704D8ED000A94ED020AB8EEC00A9D
:103BE00030EE200ABDEEC00A84ED020AB4F96C0280
:103BF00000EE100AB4F96E02F8EEC00A00EE100AE8
:103C000004F52070B8EEC00AFFF7D4F9A4F87C02DE
:103C100094ED030A04F11400F8EEC00A94ED020AD0
:103C2000B8EEC00AFFF7C6F900B2608036F9271077
:103C300000EE101AF8EEC00A00EE100A04F1480077
:103C4000B8EEC00AFFF776FA6D1C2082042DBDDBAA
:103C50000548FFF7FFF8BDE8F0410448FFF7FAB860
:103C6000100500205400002058000020BC00002057
:103C7000FEE770477047000030B40C490C4A0B78DF
:103C8000107A527A022B0DD2DFE803F001070328E5
:103C900008D1032A06D1042003E0032802D1032A15
:103CA00000D1087030BC00F005B800002E000020E4
:103CB0001800002070B51248007805281FD2DFE8F0
:103CC00000F01E1E1E1E03000E4D2888A0F5806009
:103CD00001F043FD0C4CC4E902016888A0F5806046
:103CE00001F03BFDC4E90001A888A0F5806001F067
:103CF00034FDC4E90401BDE87040FCF7E1BB70BDD0
:103D00002E00002018000020E8090020FDF72ABF3F
:103D100030B593B030216846FCF71DFB14210CA888
:103D2000FCF719FB1D480025016841F08051016036
:103D3000006800F0805011901948016841F48041FA
:103D400001600068022400F480401190012000907E
:103D5000000401908001CDE9064008AA0420A821B2
:103D600082E813000B906846FEF780F808B172B63F
:103D7000FEE70CA90F2081E831004FF4A0500F900E
:103D80004FF48050109005210CA8FDF785FF002806
:103D900001D072B6FEE713B030BD000040380240DB
:103DA000007000400248016841F4700101607047F2
:103DB00088ED00E00148FEF772BB00002001002002
:103DC000F0B50268254C264D264E274F274B4FF065
:103DD000804CA04209D0604507D0A84205D0B0422F
:103DE00003D0B84201D0984204D122F0700E4A6844
:103DF00042EA0E02A0421BD0604519D0A84217D05B
:103E0000B04215D0B84213D0984211D0184DA842F4
:103E10000ED0184DA8420BD0174DA84208D0174D10
:103E2000A84205D0164DA84202D0164DA84203D193
:103E300022F44075CA682A434D6922F080022A4361
:103E400002608A68C2620A688262A04201D0984217
:103E500001D10969016301214161F0BD0000014008
:103E60000004004000080040000C00400004014035
:103E7000004001400044014000480140001800405B
:103E8000001C00400020004010B5846842EA032274
:103E900024F47F440A432243826010BD826822F0EA
:103EA00070020A4342F00701816070470D4940F8F3
:103EB000801F0D4941600D4981600D49C1600D4968
:103EC00001610D4941610D4981610D49C1610D4992
:103ED00001620D4941620D4981620D49C1620D497E
:103EE00001637047232600082526000821270008C3
:103EF000232700089B2400089D2400081D26000895
:103F00001F26000821260008992400080322000823
:103F1000052200080122000810B5036A046A24F093
:103F200001040462846924F0F00444EA021423F0DA
:103F30000A020A438461026210BD10B5036A23F0CD
:103F4000100303628369046A23F4704343EA023274
:103F500024F0A00343EA01118261016210BD000058
:103F600070B504460078C00713D134F8010F40BA89
:103F700001F00AFC074DC5E90001608840BA01F074
:103F800003FCC5E90201A08840BA01F0FDFBC5E9C8
:103F9000040170BDE8090020806B0021C185C18447
:103FA000416D084701680C3151E8002F22F49072EE
:103FB00041E80023002BF5D10168143151E8002FAE
:103FC00022F0010241E80023002BF5D1016B012909
:103FD00009D101680C3151E8002F22F0100241E8AC
:103FE0000023002BF5D1202180F83E100021016331
:103FF0007047000009494164094981640949C16465
:104000000949016509494165094981650949C16550
:10401000094901660949816670470000B12C000812
:10402000AF2C0008AD2C0008AB2C00082D27000891
:10403000272700082B270008292700082527000824
:1040400008B590F83E10222901D0022008BD8268F0
:104050004FF480539A4201D1016921B1816A9A4299
:104060001BD04AB10AE00268816A5268C2F30802B2
:104070000A80816A891C08E0026972B1026852688C
:1040800002F07F020A70816A491C8162C18D491E5B
:104090000904090CC18503D019E002685268F1E7F0
:1040A0000168CA6822F02002CA600168CA6822F466
:1040B0008072CA6001684A6922F001024A612021C7
:1040C00080F83E10016B012903D0016D8847002064
:1040D00008BD0021016301680C3151E8002F22F076
:1040E000100241E80023002BF5D101680A68D206CE
:1040F00002D50A6849680091826E818D9047E6E793
:1041000070B5044600680169E26821F4405111432A
:1041100001612169A068E2690843616911430843AC
:104120002168CA6849F20C639A430243CA60206856
:104130004169A26921F4407111434161314920680C
:10414000884202D03049884202D1FDF74FFE01E09B
:10415000FDF73CFEE2690023192164253226B2F501
:10416000004F626828D0A0FB0101930F9200FCF77A
:104170007BF80146B0FBF5F06FF01802504301EBFD
:10418000800006EB0010B0FBF5F000F0F002B1FB90
:10419000F5F002EB0012B1FBF5F06FF01803584395
:1041A00001EB800006EB0010B0FBF5F000F00F0013
:1041B00021681044886070BDA0FB010192185B412A
:1041C000FCF752F80146B0FBF5F00201B1FBF5F047
:1041D0006FF01803584301EB800006EBC000B0FB02
:1041E000F5F000F0F80002EB4002B1FBF5F05843A7
:1041F00001EB800006EBC000B0FBF5F000F007001B
:10420000D6E7000000100140001401400148FEF70D
:104210008FBA0000D40100200148FEF789BA0000DF
:10422000480200200148FEF783BA0000BC020020CB
:10423000FEE703B401984100009850EAC12018BF7E
:1042400004204A0D18BF40F0010040F2FF72B2EBAB
:10425000515F08BF40F00200012808BF052002B0EE
:1042600070470907090E002804DB00F1E02080F800
:104270000014704700F00F0000F1E02080F8141DDA
:10428000704700000000000070B59B482DED020B48
:104290002DED068B079D25F00044A04218DC9748C1
:1042A000844202DC0AD1069840B19DED060BBDECBC
:1042B000068B02B0BDE8704000F03ABF002DCCBFC5
:1042C0009FED8F0B9FED900BBDEC068B02B070BD88
:1042D0008F48A04215DD8F48A042D8BF4FF0FF3471
:1042E00058DD9DED060B51EC100BFFF7A2FF0428E3
:1042F00008BF00F041FF9DED060BBDEC068B02B040
:1043000070BD9DED060B51EC100B00F04DFFCDE99B
:10431000060181489FED828BA0423CDD8248A0428D
:104320001FDD00249FED82AB9DED060B53EC1A2B95
:1043300051EC100B00F09AFF9DED060B41EC190BB0
:1043400053EC1A2B51EC100B01F06EFA53EC182BB6
:1043500001F076FC53EC192B01F03CF8CDE9060195
:1043600049E09DED060B012453EC182B51EC100B8A
:1043700000F07CFF9DED060B41EC190B53EC182B64
:1043800051EC100B01F05CFC53EC192B01F022F8FE
:10439000CDE906012FE06848A0421FDD02249FED11
:1043A000689B9DED060B53EC192B51EC100B01F0A3
:1043B0003BFA53EC182B00F059FF9DED060B41EC36
:1043C000180B53EC192B51EC100B01F039FC53EC8A
:1043D000182B00F0FFFFCDE906010CE09DED060B68
:1043E000032453EC102B9FED580B51EC100B00F0F5
:1043F000F1FFCDE906019DED060B53EC102B51ECBE
:10440000100B01F011FA41EC180B53EC182B01F0D2
:104410000BFA41EC190B4E480621B0EE490AF0EEBA
:10442000690A784400F070FD53EC182B51EC100B26
:1044300001F0FAF941EC180B4648B0EE490AF0EEEB
:10444000690A0521784400F05FFD53EC192B51EC0B
:10445000100B01F0E9F941EC100B51EC180B53EC87
:10446000102B002C0EDA00F001FF9DED061B53EC23
:10447000112B01F0D9F99DED061B53EC112B01F026
:1044800007FB35E000F0F2FE9DED061B53EC112B0F
:1044900001F0CAF941EC100B2F48784400EBC4003E
:1044A00090ED001B51EC100B53EC112B01F0C8FBED
:1044B0009DED061B53EC112B01F0C2FB41EC100BE0
:1044C0002648784400EBC40090ED001B51EC100B23
:1044D00053EC112B01F0DCFA41EC100B002DA2BFC4
:1044E000BDEC068B02B070BD51EC100B00F07FFEEE
:1044F00041EC100B01E70000000010440000F07FC9
:10450000182D4454FB21F93F182D4454FB21F9BFC9
:104510000000DC3F0000203E0000F33F00000000F0
:10452000000000000000F03F0000E63F0000000037
:104530000000000000000040008003400000000078
:10454000000000000000F83F000000000000F0BF85
:10455000721B0000281B0000B21A00006A1A00003B
:1045600070B56B4E2DED040B2DED028B82B0DDF896
:104570001CC0DDE905235C422CF000411C4341EAEC
:10458000D474049D22F00040B44205D86C422C4300
:1045900040EAD474B4420BD99DED061B9DED040B8B
:1045A00002B0BDEC028B04B0BDE8704000F0CABDA3
:1045B000ACF14054A4F17F641C430BD0022404EA04
:1045C000AC7444EAD27405439FED538B9FED542B9A
:1045D00007D015E09DED040B51EC100B00F0DCFD55
:1045E00042E0002C11BF012C9DED040B02B0BDEC8C
:1045F000028B04BF04B070BD022C38D0032C3BD01A
:104600000B439FED491B9FED4A0B0AD0B14218D1D5
:10461000B04209D121F0804120F0804007910590FF
:104620000FE0002A15DA10E0434B7B44002C08BF52
:1046300093ED000B0DD0012C10D0022C17D0032CC1
:104640001AD0B0421DD1002A03DAB0EE410AF0EED2
:10465000610A02B0BDEC028B04B070BD93ED000B9B
:1046600051EC100B00F0C3FD41EC100BF1E7B0EE84
:10467000480AF0EE680AECE7B0EE420AF0EE620A91
:10468000E7E7401A00153C28C8BF8DED000B19DC88
:10469000BCF1000FBEBF10F13C0F9FED290B8DED5B
:1046A000000B0FDB9DED060B53EC102B9DED040B67
:1046B00051EC100B00F08EFE00F076FD00F06CFD6A
:1046C000CDE90001002C08BF9DED000BC1D0012CED
:1046D00010D0022C9FED1C0B53EC102B9DED000B0A
:1046E00051EC100B0DD001F0ABFA53EC182B01F08C
:1046F000A7FAB9E7019880F0004001909DED000B0A
:10470000A7E701F09DFA53EC182B01F0C1F9ABE7D4
:104710000000F07F00000000182D4454FB210940E8
:10472000182D4454FB2109C0182D4454FB21F9BF16
:10473000182D4454FB21F93FCA1900000000000065
:104740000000000000000000075C143326A6A13C16
:1047500010B52F499FED2C1B2DED020B84B0059851
:1047600020F000408842D8BF9DED040B2DDD294983
:10477000884209D1049840B94FF00100FBF71AFEB6
:1047800000F0EAFC06B010BD05DB9DED040B00F067
:10479000CFFC06B010BD68469DED040B00F0E0F8BC
:1047A00010F0030004BF9DED021B9DED000B0CD02B
:1047B00001280ED09DED021B9DED000B022817D0A5
:1047C000012000F01DFC06B010BD00F0E5FA06B0B7
:1047D00010BD9DED021B9DED000B012000F010FCB3
:1047E00051EC100B00F003FD06B041EC100B10BDB6
:1047F00000F0D2FA51EC100B00F0F9FC06B041ECDD
:10480000100B10BD000000000000000000000000C0
:10481000FB21E93F0000F07F10B52F499FED2C1BD5
:104820002DED020B84B0059820F000408842DCBFDB
:1048300000209DED040B32DD2849884209D10498FF
:1048400040B94FF00100FBF7B5FD00F085FC06B064
:1048500010BD05DB9DED040B00F06AFC06B010BD39
:1048600068469DED040B00F07BF810F0030011D0BA
:10487000012818D09DED021B9DED000B02281AD0D7
:1048800000F08AFA51EC100B00F0B1FC06B041ECDC
:10489000100B10BD9DED021B9DED000B012000F0E3
:1048A000AFFB06B010BD9DED021B9DED000B00F0AF
:1048B00073FA06B010BD012000F0A2FB51EC100B02
:1048C00000F095FC06B041EC100B10BD000000009C
:1048D0000000000000000000FB21E93F0000F07F25
:1048E00000B52DED048BB0EE409AF0EE609A83B0E7
:1048F00051EC190B01F0D8F841EC180B18EE100A26
:1049000018EE901A8DED008B002818BF0120084387
:1049100020F00040C0F17F6000F1E040C00F14D0F3
:1049200019EE101A19EE900A8DED009B002918BFA0
:104930000121084320F00040C0F17F6000F1E04019
:10494000C00F04BF0120FBF735FDB0EE480A03B0ED
:10495000F0EE680ABDEC048B00BD00000000000012
:104960002DE9F14F04462DED020B2DED088B8AB099
:104970009FEDE70B80ED020B139EE74826F0004504
:1049800085420ADC9DED120B002084ED000B0AB07D
:10499000BDEC088B03B0BDE8F08FE0489FEDE0ABC5
:1049A0009FEDE1BBA84247DDE14F9FEDE39B9FED0B
:1049B000E48B9DED120B53EC1A2B51EC100B002ED7
:1049C0001CDD01F03DF941EC100BBD4208D053EC69
:1049D0001B2B51EC100B01F033F9C4E900010BE083
:1049E00053EC192B51EC100B01F02AF953EC182B56
:1049F00001F026F9C4E900010120C8E700F036FC07
:104A000041EC100BBD4208D053EC1B2B51EC100BAA
:104A100000F02CFCC4E900010BE053EC192B51EC25
:104A2000100B00F023FC53EC182B00F01FFCC4E922
:104A300000014FF0FF30AAE7C348A84279DB9DEDA3
:104A4000120B51EC100B00F0AFFB41EC180B9FED7B
:104A5000C00B53EC102B00F0E7FE9FEDBF1B53EC97
:104A6000112B00F003FC00F049FE074600F075FE34
:104A700041EC190B53EC1A2B00F0D6FE53EC182B1B
:104A800001F006F841EC180B53EC1B2B51EC190B01
:104A900000F0CAFEDFF8C8A241EC100B4FEA15582F
:104AA0000125FA4453EC102B51EC180B01F0C8F817
:104AB000032DC4E900013DD0C1F30A5005EB4511B7
:104AC000A8EB00001139814234DA0AEB051BB0EE85
:104AD00048AA9BED000BF0EE68AA53EC102B51ECAA
:104AE000190B00F0A1FE41EC1B0B51EC1A0B53EC1F
:104AF0001B2B01F0A5F841EC180B51EC1A0B53ECF1
:104B0000182B01F09DF853EC1B2B01F099F89BED4D
:104B1000020B41EC1A0B53EC102B51EC190B00F06B
:104B200083FE53EC1A2B01F08BF841EC100B6D1C3B
:104B3000B8E70EE0002EA8BF3846BFF628AF94EDC8
:104B4000000B51EC100B00F052FBC4E9000178425D
:104B50001DE7C6F3130040F4801EC6F30A50A0F20E
:104B6000F530471100F01F05C5F12000DDF848B011
:104B700008900020069007900520EC467949002D0A
:104B800007EB0002794408BF51F8221009D051F810
:104B9000223001EB8201AB404A68089922FA01F108
:104BA0001943A1FB0E26A1FB0B131A449A4234BFF2
:104BB0000123002303EB06080CEB8003D3E901A6D5
:104BC0000E448E4234BF0121002192448A4411B127
:104BD000924502D903E0924501D2012100E0002173
:104BE000C3E901A641444CF82010011EA0F10100C8
:104BF000C4DC029800F10050850F0298DDE90367DC
:104C00008000DDF8148000F0A8FD41EC1A0B30465E
:104C100000F0BAFD9FED541B53EC112B00F004FE85
:104C200041EC1B0B384600F0AFFD9FED511B53ECE0
:104C3000112B00F0F9FD41EC180B404600F0A4FDEB
:104C40009FED4D1B53EC112B00F0EEFD41EC190BC9
:104C500051EC180B53EC192B00F008FB53EC1B2BF9
:104C600000F004FB53EC1A2B00F000FBCDE9080127
:104C7000002008909DED080B53EC1A2B51EC100B03
:104C800000F0DEFF53EC1B2B00F0DAFF53EC182B87
:104C900000F0D6FF53EC192B00F0FAFE9FED381B05
:104CA00053EC112B00F0C0FD9FED370B41EC180BBE
:104CB00053EC102B9DED080B51EC100B00F0B4FDE4
:104CC00053EC182B00F0D2FA9FED310B41EC180B8E
:104CD00053EC102B9DED080B51EC100B00F0A4FDD4
:104CE00053EC182B00F0C2FA41EC100B139810F0A3
:104CF000004F06D06D4251EC100B00F078FA41ECF9
:104D0000100B284684ED000B41E600000000000077
:104D10000000000000000000FB21E93F7CD90240B8
:104D200000004054FB21F93F3163621A61B4D03D69
:104D3000FB21F93F000000000000601A61B4D03D83
:104D40007370032E8A19A33BFB2139410000000038
:104D500083C8C96D305FE43F000000000000E03F01
:104D60005A150000A8140000000000000000103ECA
:104D7000000000000000103C000000000000103A9D
:104D8000182D4454FB21F93D3326A611460B113C46
:104D900000000054FB21F93D10B52DED040B2DED65
:104DA000088B82B0B0EE419AF0EE619A0B9820F039
:104DB00000449FED4BABB4F1795F11DA9DED0A0B26
:104DC00051EC100B00F09AFC002801BFB0EE4A0A2B
:104DD000F0EE6A0A02B0BDEC088B04BF04B010BD4F
:104DE0009DED0A0B53EC102B51EC100B00F01CFD49
:104DF00041EC180B3C480621B0EE480AF0EE680A78
:104E0000784400F081F853EC182B51EC100B00F0B3
:104E10000BFD9DED0A0B41EC1B0B53EC192B51ECD8
:104E2000100B00F001FD41EC190B53EC1B2B51EC66
:104E3000180B00F0F9FC53EC192B00F001FF9FED6B
:104E40002C0B41EC190B53EC102B51EC180B00F010
:104E5000EBFC41EC100B2848844210DA53EC192B80
:104E600051EC100B00F0ECFE53EC1A2B00F010FE8E
:104E700041EC100B02B0BDEC088B04B010BD1F4814
:104E8000A042BCBF9FED1E1B8DED001B06DBA4F5F1
:104E900000100190002000909DED001B51EC100BC4
:104EA00053EC112B00F0CCFE9DED000B41EC180BE8
:104EB00053EC102B51EC1A0B00F0C2FE41EC1A0B14
:104EC00053EC192B51EC180B00F0BAFE53EC1A2BD3
:104ED00000F0DEFD41EC100BCCE70000000000000C
:104EE000000000000000F03FC411000000000000BE
:104EF000000000000000E03F3333D33F0000E93FF3
:104F0000000000000000D23F70B504462DED028B7A
:104F10004D1E00EBC500B0EE408AF0EE608A90EDC9
:104F2000000B35F0060017D053EC182B51EC100B8A
:104F300000F07AFC41EC100B6D1E04EBC50090ED07
:104F4000001B51EC100B53EC112B00F08FF941ECCE
:104F5000100B35F00600E7D1022D36D0042D1CD001
:104F6000062D1CBFBDEC028B70BD53EC182B51EC11
:104F7000100B00F059FC94ED0A1B53EC112B00F0C0
:104F800075F953EC182B00F04FFC94ED081B53EC13
:104F9000112B00F06BF941EC100B53EC182B51EC7A
:104FA000100B00F041FC94ED061B53EC112B00F0AC
:104FB0005DF953EC182B00F037FC94ED040B53EC27
:104FC000102B00F053F941EC100B53EC182B51EC63
:104FD000100B00F029FC94ED021B53EC112B00F098
:104FE00045F953EC182B00F01FFC94ED001B53EC1B
:104FF000112B00F03BF9BDEC028B41EC100B70BDA6
:1050000031B504462DED040B2DED0A8BB0EE41BAFF
:10501000F0EE61BA0B989DED0A0B20F00040B0F164
:10502000795F0DDA51EC100BFFF703F9042808BF84
:1050300000F0A2F89DED0A0BBDEC0A8B05B030BD67
:1050400053EC102B51EC100B00F0EEFB41EC180B65
:105050009DED0A0B53EC182B51EC100B00F0E4FB08
:1050600041EC190B2C48B0EE480AF0EE680A052115
:105070007844FFF749FF9FED2ACBB0EE40AAF0EE4F
:1050800060AA9CB353EC1C2B51EC190B00F0CCFB29
:1050900041EC1C0B53EC1A2B51EC190B00F0C4FB28
:1050A0009FED210B41EC190B53EC102B51EC1B0B1A
:1050B00000F0BAFB53EC192B00F0C2FD53EC182B97
:1050C00000F0B2FB53EC1B2B00F0BAFD53EC1C2B91
:1050D00000F0B6FD9DED0A1B53EC112B00F0D8FC3F
:1050E000BDEC0A8B05B041EC100B30BDFFE753EC73
:1050F0001A2B51EC180B00F097FB53EC1C2B00F013
:10510000B5F853EC192B00F08FFB9DED0A1B53EC07
:10511000112B00F0ABF8E3E7541000000000000092
:10512000495555555555C5BF000000000000E03FEA
:1051300010B553EC102B51EC100B00F097F841EC2C
:10514000100B10BD10B553EC112B51EC100B00F0EF
:105150008DF841EC100B10BD9FED050B10B553EC15
:10516000102B51EC100B00F035F941EC100B10BD79
:1051700000000000000000009FED050B10B553EC8F
:10518000102B51EC100B00F04FFB41EC100B10BD3D
:10519000000000000000001010B541EC100BFFF7FC
:1051A00073F851EC100B10BD82B0CDE9000121F075
:1051B000004001909DED000B02B051EC100B7047C8
:1051C000FCF7D8FCFEF7A4FDFEF78AFAFEF74AFAD0
:1051D000FEF704FAFEF7D4FAFEF7A0FAFEF720FA7B
:1051E000FEF7F0FAFEF70AFBFBF728F9FEE781F07D
:1051F0000041704780F00040704721F00041704747
:1052000020F000407047000021F00042A2F16052FF
:10521000B2F5801F01F0004328BFD2F17F6C0BD99B
:105220005FEA001C43EAC20242EB507018BF7047AD
:1052300028BF20F001007047B2F5801FBCBF1846A0
:1052400070474FEA410C1CF5001F02D2084600F0DF
:1052500057BE70B500F092FB00000089FFF7F6BF63
:105260004FF00040A0F580007047000010B591EAB3
:10527000030F48BF83F0004300F1EA84841A71EB06
:10528000030C05D2121943EB0C03001B61EB0C015C
:10529000DFF824E14FEA1154A4EB135C1EEA430F3C
:1052A00018BF9EEA445F73D023EA0E03DCF1200EA0
:1052B00021EA045143F4801332D322FA0CFE10EB9E
:1052C0000E0023FA0CFE41EB0E01CCF1200E03FA86
:1052D0000EFE10EB0E0051F10001B1F5801FCCF174
:1052E000200E32D201EB045112FA0EF2BDE810404A
:1052F00058BF7047401C38BF5FEA420218BF704772
:10530000002814BF20F0010041F100014FEA4103E1
:1053100013F5001F38BF7047A1F1C04100F07CBBFE
:10532000012A43EB0302ACF1200CDCF11F0E32BF6B
:105330004FF0000E23FA0CF310EB030041EB045185
:10534000B4EB115FD0D0A1EB045101F580114908F5
:105350005FEA300001EB04510ED350F1000038BF7A
:1053600012FA0EFE08D1BDE81040C9E7401C38BF54
:105370005FEA4202CAD1C3E7BDE810404FEA4103E9
:1053800013F5001F38BF7047A1F1C04100F044BBC6
:105390009EEA445F08D011EA5E0FBDE8104004BFEA
:1053A00001F0004100207047BDE8104070B500F0EA
:1053B000E5FA00BF64FBBE3E0000E0FF491058BFA5
:1053C000C1F140415B1058BFC3F140438B42EFF342
:1053D000008070472DE9C04130B4DFF8A0C23CEA3C
:1053E000111418BF3CEA131400F0EC8081EA0305A5
:1053F0001CEA111444EAD57418BF1CEA131500F016
:10540000C780A4EB05044FF0004545EAC12145EAF9
:10541000C32341EA505143EA525304F17F74994245
:1054200004F500344FEAC0204FEAC22208BF904280
:1054300000F09C804FEA13650FF24016765D4FEA4C
:10544000134506FB05F7C7F1807706FB07F74FEA20
:10545000D737A7FB03687642C8F58038A7FB06CE8E
:1054600038BFA8F1010807FB08E64FF0000EA6FBC5
:10547000028CE6FB03CEDCF1000CCEF1004E38BF0F
:10548000AEF1010EA6FB0C584FF000074FF00005DF
:10549000E6FB0E87A1FB08C6A0FB07CE16EB0E06A7
:1054A00045F10005E1FB076515F1E04E7EBFA4F56F
:1054B00080345FEA46066D4116F1800745F100052C
:1054C0004FEA17274FEA066647EA0567A6F1DE4668
:1054D000B6F1805F4FEA15251FD9384624F0010C3C
:1054E00005EBC471BCF1FE6F01EB0C1102D8F0BCEE
:1054F000BDE8008124425CBF01F5801E9EEAC47FA6
:1055000002D4F0BCBDE80081244238D4F0BCA1F143
:10551000C041BDE8004100F07FBA4FEAD22242EA22
:1055200043524FEAD323A7FB02864FEAD02040EA3A
:10553000415007FB03661EEA0E0F4FEAD12105FB1F
:10554000026658BFA6EB0056B6EB00564FEA520E65
:105550004EEAC37E18EB0E0E56EB530EBDD518EB7C
:1055600002085E417F1C55F10005B6E74FF4801537
:105570004FF000074FF000064FF00008ADE7F0BC19
:105580004FF0000001F1C04101F00041BDE8008191
:1055900011EA0C1F0CEA131500D00CE013EA0C1FE3
:1055A00000F025804FF00000F0BC81EA030101F01B
:1055B0000041BDE80081F0BCBDE8004181EA030183
:1055C00000F02ABAF0BCBDE8004170B500F0D6F991
:1055D000097EFC3E00F007B881EA03014FF00000AD
:1055E00001F00041704781EA030100F015BAF0BCF8
:1055F000BDE800414FF0000021497047FFFDFBF975
:10560000F7F5F4F2F0EEEDEBE9E8E6E4E3E1E0DEF5
:10561000DDDBDAD8D7D5D4D3D1D0CFCDCCCBCAC867
:10562000C7C6C5C4C2C1C0BFBEBDBCBBBAB9B8B78E
:10563000B6B5B4B3B2B1B0AFAEADACABAAA9A8A881
:10564000A7A6A5A4A3A3A2A1A09F9F9E9D9C9C9B4F
:105650009A999998979796959594939392919190FA
:105660008F8F8E8E8D8C8C8B8B8A8989888887878B
:105670008685858484838382828181800000FF0700
:105680000000F87F51EA030C17D41CF5801F58BFA7
:10569000BCF5801F00F10680994218BF704708BF13
:1056A0009042704707D711F5801F58BF13F5801F30
:1056B00019D499427047894270471CF5801F08D55C
:1056C000BCF5801FF7D58B4218BF704708BF8242D8
:1056D00070474FF4001C1CEB410F38BF1CEB430F0D
:1056E00001D28B42704770B500F048F9922449000E
:1056F0004FF000514FF08053FFF760BE4FEA410377
:105700004FEA5353A3F58063D3F11E03C8BFD3F10F
:10571000210C0CDD4FF0004242EAC12242EA505215
:1057200032FA03FC8CEAE17CACEBE1707047102BA1
:10573000C4BF0020704703F5787CBCF1FF3F04D064
:105740006FF0004282EA2100704770B500F016F950
:105750004992248000207047F2E710F0004248BFD1
:105760004042B0FA80F310FA03F10AD0C3F11D03EE
:1057700003F580634FEA415002EB035202EBD12163
:1057800070474FF000007047B0FA80F310FA03F151
:105790000AD0C3F11D0303F580634FEA41504FEA7D
:1057A000035202EBD12170474FF000007047000018
:1057B00051EA030C17D41CF5801F58BFBCF5801F9D
:1057C00000F10680994218BF704708BF90427047A9
:1057D00007D711F5801F58BF13F5801F19D49942C0
:1057E0007047894270471CF5801F08D5BCF5801FA3
:1057F000F7D58B4218BF704708BF824270474FF4FD
:10580000001C1CEB410F38BF1CEB430F01D28B4235
:10581000704770B500F0B2F8922449004FF0005183
:105820004FF08053FFF7CABDDFF848C170B51CEADE
:10583000111E1EBF1CEA13159EEA0C0F95EA0C0FF1
:1058400000F06F8081EA030423EA4C134EEAD47E11
:1058500021EA4C1141F4801143F48013AE44A1FBC2
:10586000024CA0FB0365AEF17F7E361955EB0C05AB
:10587000A1FB034C4CF10003A0FB021C16EB0C0631
:10588000654153F10003094218BF46F0010613F4C5
:10589000007F0BD14FEA03314FEA0530340341EA70
:1058A000155140EA16506FF003020AE04FEAC32197
:1058B0004FEAC520F40241EA555140EA56506FF0D4
:1058C000020202EB2E4201EB025585EACE710AD0AC
:1058D0005FEA440C18BF24F0004450F1000041F18D
:1058E000000120EAD47040F2FE7C624500D270BD17
:1058F000A84214BF4FF080444FF04044002E08BF30
:105900000024BEF1806FA8BFA1F1C041BDE8704086
:1059100080F282804FF0000001F1C04101F00041AF
:1059200070479EEA0C0F0CEA131518BF95EA0C0F8E
:1059300006D04FF0000081EA030E0EF0004170BD6A
:1059400000F01CF88900013E00F007B800F009B82B
:105950004FEA430C5FEA5C5C08D081EA030100F087
:105960005BB84FEA410C5FEA5C5CF6D14FF0000097
:10597000014970470000FF070000F87F0EF1020E9A
:105980002EF0030E5EF8046B364205D4012A43EB79
:10599000030515F5001F12D8012841EB010C1CF579
:1059A000001F0CD80ED14FEAD17C15F5001F0CEB6F
:1059B0004C0C0CF1020C08BF4CEBD37C04E04FF014
:1059C000080C01E04FEAD37C0CEB4C0526FA05F6F7
:1059D00006F00706B6F1040C06D20EEB860CBDE805
:1059E00070404CF0010C6047DFE80CF0090B02023C
:1059F0004FF000414FF00000A1F5002170BD1946A5
:105A00001046012851EB010418BFD4F5001484BFDF
:105A1000002001F0004170BD0808A0F500114FEA18
:105A20003101704753EA010C17D41CF5801F58BF91
:105A3000BCF5801F00F106808B4218BF704708BF7D
:105A40008242704707D713F5801F58BF11F5801F9A
:105A500019D48B4270479B4270471CF5801F08D5B4
:105A6000BCF5801FF7D5994218BF704708BF904218
:105A700070474FF4001C1CEB430F38BF1CEB410F69
:105A800001D2994270470FB40CBC03BCFFF7C1BEF2
:105A900091EA030F10B581F000413FF5EFAB83F0C1
:105AA000004300F0D5B800002DE9F04101F5801C5D
:105AB000BCF5001FC0F2A9804FEA115C21EA0C512D
:105AC0000CF1FD0C41F480115FEA5C0C0CF5C07C1C
:105AD00001D34000494130A4890241EA9051870234
:105AE0008E0E0A0CA45D04FB04F602FB06F6C6F15A
:105AF0004046A4FB0662F60D46EA422606FB06F483
:105B0000A4FB01235242C3F1404338BF5B1EA6FBF6
:105B100002420024E6FB0324D20B42EA4446A6FBE1
:105B20000623A1FB02E2A3FB07E4E3FB614264421C
:105B3000C2F1404E38BFAEF1010EA6FB04234FF078
:105B40000002E6FB0E32A2FB03463400E2FB626475
:105B5000A1FB06E6A4FB07E8E4FB61687642C8F116
:105B6000405838BFA8F10108A2FB06E4A3FB08E5F2
:105B7000E2FB6854A1FB05E6A7FB04E8E1FB6486B1
:105B800018F1200556F10006A809A8F11B08B10973
:105B900008F03F08B8F10A0F40EA86601CD901EB13
:105BA0000C51BDE8F08100BFFCF5EEE8E2DDD8D392
:105BB000CFCBC7C3C0BDB9B6B4B1AEACA9A7A5A37E
:105BC000A19F9D9B9A9896959392908F8D8C8B898F
:105BD0008887868584838281A0FB006800FB01F2B0
:105BE00008EB4208B8EB872807D5341858EB0104B6
:105BF000D5D5401C51F10001D1E7341A78EB0104EE
:105C0000CDD4401E71F10001C9E75FEA4C0C5FEA98
:105C10009C5C0DD105D34FF0000001F00041BDE8C0
:105C2000F081BDE8F04170B5FFF7A8FE6DDBFFBE67
:105C3000BDE8F0414FF00000004970470000F87FD8
:105C400010B591EA030F48BF83F000433FF516AB50
:105C5000841A71EB030C07D212198CF0004C43EB41
:105C60000C03001B61EB0C01DFF8A4E14FEA1154B7
:105C7000A4EB135C1EEA430F18BF9EEA445F00F0DA
:105C8000B08023EA6E03524221EA0451C3EB6E0353
:105C900038BF5B1EDCF1200E25D322FA0CFE10EB80
:105CA0000E0043FA0CFE41EB0E01CCF1200E03FA7C
:105CB0000EFE10EB0E0051F10001CCF1200E29D4A4
:105CC00012FA0EF201EB0451BDE8104058BF7047C4
:105CD000401C1CBFB2F1004F704700280CBF491C8C
:105CE00020F00100704712EB020E43EB030218BFD5
:105CF0004FF0010E4EEA4202ACF1200CDCF11E0E18
:105D000054D943FA0CFE10EB0E0051F1FF31CCF1E7
:105D10001E0ED5D50EF1010E12FA0EFE404141EBDA
:105D2000010101EB445C5FEA5C5C10D910EBDE70B2
:105D300001EB045138BFBEF1004FBDE8104018BF61
:105D4000704700280CBF491C20F00100704730D27A
:105D50004FEAD42C11F5001124F400641BD0B1FAE1
:105D600081F20B3AA41AA41ED2F12003914030FA1A
:105D700003F31943904001EBCC71002C01EB04516B
:105D8000BDE81040A8BF704701F1C0414FF00000CE
:105D900001F000417047B0FA80F310FA03F100D12E
:105DA00010BDE41A173C4805C90AE4E701EB0451A9
:105DB00010BD491001EB0451BDE810404FEA30001E
:105DC00002E04FF0000170474A0008BF0042F8D0DF
:105DD000B2F5001F28BF704701F000414FF00000EE
:105DE00070479EEA445F07D011EA5E0FBDE810409D
:105DF00004BF002100207047BDE8104070B5FFF7D8
:105E0000BDFD00BF40DFF63E83F000411046704705
:105E10000000E0FF43004FEAD30C4FEA3C0C434044
:105E20001FBF40070CF1605113F0FE4F70471CF08C
:105E3000006F03D100200CF0004170470CF00043CC
:105E400043EA507010B540EACC0000F00EF800BFF5
:105E5000000000924FEA0001FFF7DEBD4FF0004165
:105E60004FF00000A1F5002170470EF1020E2EF058
:105E7000030E5EF8044B244204D44FEA4102B2F10F
:105E80007F4F11D84FEA4003B3F17F4F0CD80ED1AA
:105E90004FEAD07CB2F17F4F0CEB4C0C0CF1020CB2
:105EA00008BF4CEBD17C04E04FF0080C01E04FEA56
:105EB000D17C0CEB4C0324FA03F404F00704B4F196
:105EC000040C06D20EEB840CBDE810404CF0010C23
:105ED0006047DFE80CF0070802024FF00040A0F531
:105EE000800010BD0846420018BFD2F1807288BF02
:105EF00000F0004010BD4FF04070E1EE100A704716
:105F0000FF2141EAD050C005704700061016000678
:105F10001016000000000000000001020304060744
:105F20000809000000000102030400000000000056
:105F30004FBB610567ACDD3F182D4454FB21E93FA1
:105F40009BF681D20B73EF3F182D4454FB21F93F90
:105F5000E2652F227F2B7A3C075C143326A6813C16
:105F6000BDCBF07A8807703C075C143326A6913CC1
:105F7000C4EB98999999C9BF711623FEC671BCBF2D
:105F80006D9A74AFF2B0B3BF9AFDDE522DDEADBF95
:105F90002F6C6A2C44B4A2BF0D5555555555D53FAD
:105FA000FF8300922449C23F6E204CC5CD45B73FC8
:105FB000513DD0A0660DB13FEB0D76244B7BA93F40
:105FC00011DA22E33AAD903F4C5555555555A53F52
:105FD0007751C1166CC156BF9015CB19A001FA3E7E
:105FE000AD529C804F7E92BEC4B1B4BD9EEE213EA8
:105FF000D43888BEE9FAA8BD000000000000000007
:1060000000004054FB21F93F3163621A61B4D03D76
:106010000000601A61B4D03D7370032E8A19A33B4F
:106020000000002E8A19A33BC14920259A837B39A1
:1060300000000000000000006E83F9A22915444E04
:10604000D15727FCC0DD34F5999562DB4190433C84
:10605000AB6351FE61C5BBDE3A6E24B7E0D24D4260
:10606000EA2E49061C92D1091CEB1DFE3EA729B160
:10607000F53582E88444BB2E26709CE9417E5FB4EE
:1060800039D69139F43953838B5F849C3B28F9BD11
:10609000FF97F81F0F9805DE8B112FEF1F6D0A5A1F
:1060A000CF7E366DB709CB27663F464F2DEA5F9E00
:1060B000C7BA27757BF1E5EBF739073DEA92528ABB
:1060C000B15FFB6B085D8D1FA6F810111111813FA8
:1060D000D561C119A0012ABF7DFEB157E31DC73E9E
:1060E000EB9C2B8AE6E55ABE7CD5CF5A3AD9E53DE2
:1060F000106100080000002058000000C4010008E2
:106100006861000858000020B8160000E00100088F
:10611000000000000100000010000000000000006E
:106120000024F40000000000000400040004000447
:106130000303000000000000000000000000000059
:10614000000000000000000000000000000000004F
:10615000000000000000000000000000000000003F
:08616000000000000000000037
:040000050800018965
:00000001FF
