:020000040800F2
:10000000C814002029020008B1380008AB2B0008F2
:100010009935000895040008453E000800000000DE
:10002000000000000000000000000000B5380008DB
:100030008B05000800000000B338000831390008C3
:10004000430200084302000843020008430200087C
:10005000430200084302000843020008430200086C
:10006000430200084302000843020008430200085C
:10007000430200084302000843020008430200084C
:10008000CD040008D9040008430200084302000818
:1000900099040008430200084302000843020008D4
:1000A000430200084302000843020008430200081C
:1000B000D93900084302000843020008430200083F
:1000C00043020008430200084302000843020008FC
:1000D000430200082D3E0008393E00084302000894
:1000E00043020008430200084302000843020008DC
:1000F00043020008430200084302000843020008CC
:1001000043020008430200084302000843020008BB
:1001100043020008430200084302000843020008AB
:100120004302000843020008E504000843020008F7
:100130004302000800000000000000004302000825
:10014000A504000843020008430200084302000817
:10015000430200084302000843020008430200086B
:10016000430200084302000843020008430200085B
:1001700043020008430200080000000000000000E5
:10018000430200084302000800F002F800F03CF8C7
:100190000AA090E8000C82448344AAF10107DA45E2
:1001A00001D100F031F8AFF2090EBAE80F0013F0F8
:1001B000010F18BFFB1A43F0010318473C5B000016
:1001C0005C5B0000103A24BF78C878C1FAD85207A7
:1001D00024BF30C830C144BF04680C6070470000C1
:1001E0000023002400250026103A28BF78C1FBD840
:1001F000520728BF30C148BF0B6070471FB505F0DC
:1002000080FC1FBD10B510BD00F0E2F81146FFF7ED
:10021000F5FF04F0DDFD00F000F903B4FFF7F2FF95
:1002200003BC00F003F90000094880470948004773
:10023000FEE7FEE7FEE7FEE7FEE7FEE7FEE7FEE796
:10024000FEE7FEE704480549054A064B70470000F3
:10025000C939000889010008C80E0020C814002010
:10026000C8100020C810002053EA020C00F069807A
:100270002DE9F04B4FF00006002B1FBFB3FA83F5BA
:1002800003FA05F424FA05F65E4012BF1643B2FAEB
:1002900082F502FA05F4C5F120051EBF22FA05FC1D
:1002A00044EA0C04203556EA044C4FEA144418BFC3
:1002B000641C4FF000084FF00009904271EB030CF2
:1002C00039D3002919BFB1FA81F701FA07F6B0FA5C
:1002D00080F700FA07F6C7F120071EBF20FA07FCD7
:1002E00046EA0C062037B6FBF4FCA7EB0507103FE7
:1002F00007F01F0BCBF120060CFA0BFB2CFA06F6CD
:1003000044BFB3460026202FA4BF5E464FF0000B2B
:100310005BEA060C08BF4FF0010B19EB0B09ABFBB6
:10032000027C48EB0608C01B06FB02CC0BFB03CC8F
:1003300071EB0C01C1E70B46024641464846BDE859
:10034000F08B13B54FF000004FF00001AFF30080C9
:10035000BDE81C4070474FF0000200B513469446BC
:100360009646203922BFA0E80C50A0E80C50B1F10D
:100370002001BFF4F7AF090728BFA0E80C5048BF21
:100380000CC05DF804EB890028BF40F8042B08BFBF
:10039000704748BF20F8022B11F0804F18BF00F8BB
:1003A000012B704770477047704710B500F008F890
:1003B000006810BD10B5044600F002F8046010BDDE
:1003C00000487047640E002000487047640E00200B
:1003D0007546FFF7F9FFAE4605006946534620F023
:1003E0000700854618B020B5FFF72CFFBDE8204078
:1003F0004FF000064FF000074FF000084FF0000BE1
:1004000021F00701AC46ACE8C009ACE8C009ACE893
:10041000C009ACE8C0098D46704710B50446AFF37B
:1004200000802046BDE81040FFF7F7BE01491820C4
:10043000ABBEFEE7260002007047000010B503F0D7
:1004400045F90B490B4802F04FFF0B490B4802F0EE
:100450004BFF0B490B4802F0CFFB09490A4802F059
:10046000CBFBBDE810400949094802F0F7BD000088
:10047000853B000840020020312E0008CC010020FE
:10048000ED2C000850000020B4000020B93800080E
:1004900018010020FEE70000014800F0C6BD000082
:1004A00050000020014800F0C0BD0000B400002052
:1004B00010B5054800F06CF8034803F06FF8BDE88C
:1004C000104003F0B1B90000D8030020014801F04A
:1004D000FBB8000014030020014801F0F5B800004B
:1004E00074030020014801F0EFB80000B4020020BE
:1004F00001681823CAB2103AB2FBF3F2054B6FF34E
:100500000901032A9B5CC36500D9091D8165084662
:1005100070470000165B000810B5014600208B698B
:100520008A6A4FF0C07453B1B3F5005F15D072B151
:10053000012A0CD0022A0AD0032A09D104E01AB1F8
:10054000012A06D0022A03D1C96AC90100D50120B7
:1005500010BDC96AA142FAD010BD002AF7D0012A05
:10056000F2D0022AF3D0032AF3D010BD10B50468EC
:1005700063608368402B036803D099600068C260A1
:1005800010BD9A600068C16010BD704772B6FEE78A
:100590002DE9F04104462DED068B9FEDFD8A9FED80
:1005A000FD9BFE4DFE4F90EDF80B07F1140653EC4A
:1005B000102B51EC100B04F03DFF94EDFA0B41ECC5
:1005C0001A0B53EC102B51EC100B04F033FF53ECCF
:1005D0001A2B04F051FC41EC100B03F089FF85ED60
:1005E000020B94EDF81B94EDFA0B03F0C1FD85EDC1
:1005F000040B94EDFC0B53EC192B51EC100B04F095
:1006000047FE29D194EDF80B53EC192B51EC100B4C
:1006100004F03EFE0CD194EDFA0BB0EE491AF0EE68
:10062000691A53EC112B51EC100B04F031FE13D06E
:1006300095ED040B51EC100B04F0ECFB3860786086
:10064000B860F86095ED020B51EC100B04F0E2FB82
:1006500030607060B06024E394EDFC0B53EC192B18
:1006600051EC100B04F014FE74D094EDF80B53EC25
:10067000192B51EC100B04F00BFE6BD194EDFA0B1F
:10068000B0EE491AF0EE691A53EC112B51EC100B35
:1006900004F0FEFD5ED1DFEDC30AC7ED000A9FED59
:1006A000C20A87ED010A87ED020AC7ED030A9FED32
:1006B000BF8BB0EE480AF0EE680A03F019FF94ED24
:1006C000FC1B51EC100B53EC112B04F0B3FE04F0A7
:1006D000A1FBB0EE480AF0EE680A306003F008FFB4
:1006E000B0EE401AF0EE601A94EDFC0B51EC110BD9
:1006F00053EC102B04F09EFE04F08CFBB0EE480A85
:10070000F0EE680A706003F0F3FEB0EE409AF0EE8F
:10071000609A94EDFC0B51EC100B04F06EFB53EC63
:10072000192B04F087FE04F075FBB0EE480AF0EEDA
:10073000680AB06003F0DCFEB0EE408AF0EE608A3A
:1007400094EDFC0B51EC100B04F057FB53EC182B01
:10075000A3E2FFE794EDFC0B53EC192B51EC100BCB
:1007600004F096FD7ED094EDF80B53EC192B51EC70
:10077000100B04F08DFD08D194EDFA0B53EC192BFE
:1007800051EC100B04F084FDECD094EDFC0B53EC19
:10079000102B95ED020B51EC100B04F021FC53ECE7
:1007A000192B04F045FF94EDFC0B53EC102B95ED49
:1007B000020B51EC100B02D204F012FC03E004F027
:1007C0000FFC04F01AFBC5E9060195ED040B03F0DC
:1007D0002BFE95ED061B51EC100B53EC112B04F086
:1007E00029FE04F017FB686095ED040B03F0B8FDDB
:1007F00095ED061B51EC100B53EC112B04F01AFE77
:1008000004F008FB286094EDFC0B53EC192B51EC21
:10081000100B04F0D3FD95ED000A30EE080A10EE3F
:10082000100A7CD205F0FCF895ED010A41EC190B99
:1008300030EE080A10EE100A05F0F2F841EC100B49
:10084000B0EE491AF0EE691A03F092FC51EC100B6D
:1008500004F0E0FAB86095ED000A30EE080A10EEF8
:10086000100A00E01FE205F0DBF895ED010A41EC0B
:10087000190B30EE480A10EE100A05F0D1F841ECE1
:10088000100BB0EE491AF0EE691A03F071FC51EC4E
:10089000100B04F0BFFAF86095ED000A30EE480A3C
:1008A00010EE100A05F0BCF895ED010A41EC190BA9
:1008B00030EE080A10EE100A05F0B2F841EC100B09
:1008C000B0EE491AF0EE691A03F052FC51EC100B2D
:1008D00004F0A0FA386095ED000A30EE480A10EEF8
:1008E000100A05F09DF895ED010A41EC190B30EE68
:1008F000480A10EE100A05F093F841EC100BB0EE28
:10090000491AF0EE691A03F033FC51EC100B04F0B5
:1009100081FA786095ED000A30EE080A00E0A3E065
:10092000D5ED010A20EE000A70EE880A00EEA00A5A
:1009300010EE100A05F074F841EC100B03F0D8FD2E
:1009400095ED061B51EC100B53EC112B04F048FBFA
:1009500095ED021B53EC112B04F06CFD04F05AFAD8
:10096000B06095ED000AD5ED010A30EE080A70EE90
:10097000C80A20EE000A00EEA00A10EE100A05F0E8
:100980004FF841EC100B03F0B3FD95ED061B11E0A1
:100990003333F33E00000000000000003000002070
:1009A0000C0E0020D00F49BFD00F493F000000A01F
:1009B00047E1DC3F53EC112B51EC100B04F010FB22
:1009C00095ED021B53EC112B04F034FD04F022FAD8
:1009D000F06095ED000AD5ED010A30EE480A70EEA0
:1009E000880A20EE000A00EEA00A10EE100A05F0B8
:1009F00017F841EC100B03F07BFD95ED061B51EC55
:100A0000100B53EC112B04F0EBFA95ED021B53EC99
:100A1000112B04F00FFD04F0FDF9306095ED000A94
:100A2000D5ED010A30EE480A70EEC80A20EE000A41
:100A300000EEA00A10EE100A04F0F2FF41EC100BD9
:100A400003F056FD95ED061B51EC100B53EC112BEA
:100A500004F0C6FA95ED021B53EC112B04F0EAFCEE
:100A600004F0D8F9706028E104F0DAFF95ED010A8E
:100A700041EC190B30EE080A10EE100A04F0D0FF1A
:100A800041EC100BB0EE491AF0EE691A03F070FB5E
:100A900051EC100B04F0BEF900EE100AB1EE400A62
:100AA00087ED000A95ED000A30EE080A10EE100AF4
:100AB00004F0B6FF95ED010A41EC190B30EE480A3F
:100AC00010EE100A04F0ACFF41EC100BB0EE491A26
:100AD000F0EE691A03F04CFB51EC100B04F09AF99C
:100AE00000EE100AB1EE400A87ED010A95ED000A0A
:100AF00030EE480A10EE100A04F092FF95ED010A5C
:100B000041EC190B30EE080A10EE100A04F088FFD1
:100B100041EC100BB0EE491AF0EE691A03F028FB15
:100B200051EC100B04F076F900EE100AB1EE400A19
:100B300087ED020A95ED000A30EE480A10EE100A21
:100B400004F06EFF95ED010A41EC190B30EE480AF6
:100B500010EE100A04F064FF41EC100BB0EE491ADD
:100B6000F0EE691A03F004FB51EC100B04F052F99B
:100B700000EE100AB1EE400A87ED030A95ED000A77
:100B8000D5ED010A30EE080A70EE880A20EE000A60
:100B900000EEA00A10EE100A04F042FF41EC100B28
:100BA00003F0A6FC95ED061B51EC100B53EC112B3A
:100BB00004F016FA95ED021B53EC112B04F03AFCED
:100BC00004F028F9306095ED000AD5ED010A30EE09
:100BD000080A70EEC80A20EE000A00EEA00A10EE25
:100BE000100A04F01DFF41EC100B03F081FC95EDA1
:100BF000061B51EC100B53EC112B04F0F1F995EDA1
:100C0000021B53EC112B04F015FC04F003F9706087
:100C100095ED000AD5ED010A30EE480A70EE880A1B
:100C200020EE000A00EEA00A10EE100A04F0F8FE12
:100C300041EC100B03F05CFC95ED061B51EC100B26
:100C400053EC112B04F0CCF995ED021B53EC112B56
:100C500004F0F0FB04F0DEF8B06095ED000AD5ED8D
:100C6000010A30EE480A70EEC80A20EE000A00EED3
:100C7000A00A10EE100A04F0D3FE41EC100B03F0B2
:100C800037FC95ED061B51EC100B53EC112B04F0C7
:100C9000A7F995ED021B53EC112B04F0CBFB04F0EC
:100CA000B9F8F06009E09FED250A86ED000A86EDAF
:100CB000010A86ED020A86ED030A214896ED000A34
:100CC00000F1200180ED000A96ED010A80ED010A95
:100CD00096ED020A80ED020A96ED030A80ED030A02
:100CE00091ED000AD7ED000AB8EEC01A9FED150A83
:100CF00041EE000AC0ED040A91ED011AD7ED010A98
:100D0000B8EEC11A41EE000AC0ED050A91ED021AD3
:100D1000D7ED020AB8EEC11A41EE000AC0ED060A8C
:100D200091ED031AD7ED030AB8EEC11A41EE000A9D
:100D3000C0ED070ABDEC068BBDE8F08100000000A5
:100D4000340E0020D00FC94090F82020012A07D08F
:100D5000022A05D0416A41F4802141620120704796
:100D6000006842690A43426100207047F0B590F87C
:100D700020500468A468012D05D0022D03D0416ADB
:100D800041F4802153E014F0406F01D1E5004BD5D0
:100D9000C4F30164022C03D9416A41F4000146E026
:100DA0000125A5401D608D684FF4C0739DB1CE68CC
:100DB00035434E6845EAC605066803EB0417F5514E
:100DC0004FF4C275076805EB04150E697E51097D65
:100DD000012905D009E00E88CD6845EA4655EBE7C4
:100DE00001684E5946F480764E511179D2F805507B
:100DF0004FF4C67641EA0525016806EB04168D51CD
:100E00001178D2F801204FF4C47541EA022102683A
:100E100005EB04155151006803EB0411425842F0F0
:100E2000010242500020F0BD416A41F400114162CC
:100E30000120F0BD10B590F82020012A07D0022A29
:100E400005D0416A41F480214162012010BD3B4838
:100E5000D0F8002242F00102C0F80022D0F80022AF
:100E600022F47C52C0F80022D0F800224B6A42EAF9
:100E70000322C0F800220A7D02F01F0301229A40DB
:100E8000D0F81C329343C0F81C32CB69B3B9D0F808
:100E90000C329343C0F80C328C894B6864F31F43C7
:100EA0004C6900EBC404C4F840320C890B6864F34D
:100EB0001F434C6900EBC404C4F84432CB69012BD6
:100EC00016D1D0F80C321343C0F80C320C884B68A2
:100ED00064F31F434C6900EBC404C4F840320C892E
:100EE000CB6864F31F434C6900EBC404C4F844327C
:100EF0008B69002BD0F804320ED01343C0F80432B3
:100F00000B69002BD0F8143208D01343C0F8143208
:100F1000096A012904D008E09343EFE79343F5E71A
:100F2000D0F81C121143C0F81C12D0F8001221F0A6
:100F30000101C0F80012002010BD00000064004054
:100F4000704730B590F82040012C05D0022C03D01A
:100F5000416A41F480215DE00468002955D024698C
:100F6000A40754D04FF4D874056804EB01142D592C
:100F700015F00405956005682D594ED0ED085560B3
:100F800005682C5904F00204D4604FF4DA74056843
:100F900004EB01142D5905F00F05156105682D5955
:100FA000C5F30725956105682C59240C54614FF44D
:100FB000DC72046802EB0112A4581C700468A45887
:100FC000240A5C700468A458240C9C700468A2581D
:100FD000120EDA704FF4DE72046802EB0112A458AC
:100FE0001C710468A458240A5C710468A458240C79
:100FF0009C710468A258120EDA71006881B101690F
:1010000041F020010161002030BDE468A8E7416A99
:1010100041F400114162012030BD6D0D1560AFE754
:10102000C16841F02001C160EDE72DE9F05F0546A0
:10103000006800244669D0F804908768D0F80CA0B6
:10104000D0F810B0D0F81880F10742D0F90712D0CC
:1010500001218160B80701D5A96A0AE0780702D5A5
:101060004FF4006407E0380702D54FF4805402E0E3
:10107000696B28468847F80514D529684FF48070B5
:101080008860B80501D5E96A0AE0780502D544F41C
:10109000005407E0380502D544F4804402E0A96B0F
:1010A00028468847F80314D529684FF480308860B3
:1010B000B80301D5296B0AE0780302D544F4004453
:1010C00007E0380302D544F4803402E0E96B284697
:1010D000884730074FF0100706D55FEACA6003D58E
:1010E000286844F40074C760700708D55FEA0A7086
:1010F00005D529680820C860696C28468847B0076C
:1011000006D52868C068800702D0296C2846884721
:10111000700606D55FEACB6003D5286844F4806486
:101120000761B00608D55FEA0B7005D5296808206D
:101130000861E96C28468847F00606D528680069EA
:10114000800702D0A96C28468847B00307D55FEA1C
:10115000C96004D528684760296D28468847F00390
:1011600008D55FEA097005D5296808204860696DCF
:1011700028468847300446D55FEA497040D5F005D7
:1011800004D55FEAC87001D044F00104B00504D56D
:101190005FEA887001D544F00204700504D55FEA67
:1011A000487001D544F00404300529D518F0700FBB
:1011B00026D008F07000402815D006DC102809D091
:1011C00020280AD0302816D10AE050280ED06028F6
:1011D00011D10EE044F008040DE044F010040AE0E0
:1011E00044F0200407E044F0400404E044F08004AC
:1011F00001E044F480742868816921F07001816104
:10120000296804204860002C07D0686A204368627F
:101210002846A96DBDE8F05F0847BDE8F09F0000D3
:1012200070B5040003D094F8200010B122E0012032
:1012300070BD51482064514860645148A0645148D1
:10124000E0645148A0625148E0625148206351482F
:1012500060635148A0635148E0635148206551489C
:1012600060655148A065E06D08B95048E0650146E9
:10127000204688472068016841F00101016000F0C4
:1012800055FC0546052604E000F050FC401B0A28EA
:1012900011D820684068C007F6D02068016821F0A6
:1012A0000201016000F042FC05460BE000F03EFC4C
:1012B000401B0A2806D9606A40F40030606284F856
:1012C0002060B4E7206840688007EFD4207E0128C2
:1012D000206801683DD021F080010160607E012816
:1012E0002068016838D021F040010160A07E01280B
:1012F0002068016833D021F020010160E07E0128E0
:10130000206801682ED041F010010160207F012883
:101310002068016829D021F008010160607F012860
:101320002068016824D021F004010160D4E90201A1
:101330000843D4E90412114308436168491E084375
:101340002168C86100206062012084F8200000202C
:1013500070BD41F08001C0E741F04001C5E741F0B8
:101360002001CAE721F01001CFE741F00801D4E7DE
:1013700041F00401D9E700003F1500083D150008C1
:101380004315000841150008A3150008A71500081B
:10139000AB150008A1150008A5150008A91500083F
:1013A00045150008AD150008410F0008B1130008ED
:1013B000F0B587B0044614216846FEF7CCFF374BE2
:1013C0003748DFF8D4E01968D4F800C0344A022561
:1013D0000326092710300024491CF44524D1196044
:1013E000012907D1016841F000710160006800F037
:1013F00000700590106840F001001060106802ABAA
:1014000000F0010005904FF4C050CDE9000583E8DD
:10141000D0006946234800F091FA002205211420EB
:1014200000F0F2FB142033E0DFF87CE0F44531D12A
:10143000D0F800C04CF0806CC0F800C0D0F800C0FC
:1014400001290CF0806CCDF814C0196007D1016837
:1014500041F000710160006800F0007005901068B4
:1014600040F002001060106802AB00F0020005902E
:101470004FF44050CDE9000583E8D00069460B48A1
:1014800000F05CFA00220521402000F0BDFB402066
:1014900000F0ACFB07B0F0BD00640040000000208D
:1014A0003038024000000240006800400004024062
:1014B00010B500233AB190F82040012C09D090F8E3
:1014C000204064B32FE0416A41F480014162012071
:1014D00010BD0F2927D2DFE801F0080A0C0E101208
:1014E0001416181A1C1E202D2F00826220E0C262E2
:1014F0001EE002631CE042631AE0826318E0C263EC
:1015000016E0026414E0426412E0826410E0C264F7
:101510000EE002650CE042650AE0826508E00D29F4
:1015200008D00E2908D0416A41F4800141620123AC
:10153000184610BDC265FBE70266F9E770477047C1
:10154000704770477047000070B5044690F820005F
:10155000012804D0606A40F40020606218E0022094
:1015600084F820002068016821F00101016000F08A
:10157000DDFA05460EE000BF00F0D8FA401B0A284D
:1015800008D9606A40F400306062052084F82000C9
:10159000012070BD20684068C007EDD1606270BD59
:1015A00070477047704770477047704770472DE924
:1015B000F041044680680025069E80280ED094F8ED
:1015C000340001280FD0012084F8340094F835004D
:1015D00001280AD002252846BDE8F0814FF480702A
:1015E00060650125F7E70220F6E7022084F8350060
:1015F0002068076847F48027076020680361334646
:101600002046FEF7B3FF2068016841F00101016048
:10161000E1E72DE9F0410446876D00F087FA0646C0
:1016200094F835000025022806D08020606584F8F3
:1016300034500120BDE8F0812068016821F01601D6
:1016400001602068416921F080014161206C08B986
:10165000A06C20B12068016821F0080101602068B9
:10166000016821F0010101600CE000F05FFA801BCD
:10167000052807D920206065032084F8350084F808
:101680003450D7E720680068C007EED194F85C10AA
:101690003F208840B860012084F8350084F8345039
:1016A0000020C7E790F83510022903D0802141655A
:1016B00001207047052180F835100068016821F08D
:1016C00001010160002070472DE9F84304464FF006
:1016D0000009CDF8009063484FF41651A56D0068DD
:1016E000B0FBF1F72E6894F85C10082000FA01F1C5
:1016F00031420FD021680A6852070BD50A6822F0E0
:1017000004020A6094F85C108840A860606D40F0A4
:101710000100606594F85C104FF0010808FA01F0D0
:10172000304208D021684969090604D5A860606D77
:1017300040F00200606594F85C100420884030425C
:1017400008D021680968890704D5A860606D40F059
:101750000400606594F85C1010208840304218D076
:1017600021680968090714D5A86020680168490341
:1017700004D50068000308D5A16C07E00168C9051D
:1017800003D4016821F008010160216C09B12046F1
:10179000884794F85C1020208840304231D021687E
:1017A0000968C9062DD5A86094F835000528206879
:1017B000016806D0490347D5006800031DD4616C59
:1017C0001CE021F0160101602068416921F08001D0
:1017D0004161206C08B9A06C20B12068016821F03B
:1017E0000801016094F85C103F208840A86084F8EC
:1017F000358084F83490216D1FE0E16B09B12046FB
:101800008847606D00282BD0606DC00714D005207C
:1018100084F835002068016821F00101016000981A
:10182000401C0090B84203D820680068C007F6D179
:1018300084F8358084F83490E16C002910D001B030
:101840002046BDE8F04308470168C905D5D40168C2
:1018500021F01001016084F8358084F83490CCE7E1
:10186000BDE8F883100000202DE9F041044600F0A7
:101870005DF906465CB1022084F83500002584F845
:1018800034502068016821F0010101600DE0012061
:10189000BDE8F08100F04AF9801B052805D9202019
:1018A0006065032084F83500F2E720680068C0070F
:1018B000F0D12268116820480140D4E9010318439F
:1018C000D4E903363343184363691843A3691843C3
:1018D000E3691843236A18430843616A042903D162
:1018E000D4E90B1319430843106020684069666A05
:1018F00020F0070130460E43012704280CD1A06ACE
:101900000643E06A40B12046FEF706FE20B14020C3
:10191000606584F83570BAE7206846612046FEF7B6
:10192000E7FD94F85C203F2191408160656584F873
:1019300035700020ACE700003F8010F02DE9F84F33
:10194000DFF8BCA1002201250AF1040B03264FF0A9
:101950000F090BF1040E00BF0B6805FA02F42340D7
:10196000A34270D10F7907F00307012F01D0022F96
:1019700016D187684FEA420806FA08FC27EA0C07E6
:10198000D1F80CC00CFA08FC4CEA070CC0F808C0EF
:101990004768A7430C79C4F3001494403C43446067
:1019A0000C79E443A4070AD0C4684FEA420C06FA53
:1019B0000CF7BC438F6807FA0CF72743C7600C7914
:1019C00004F00304022C12D1D40800EB840CDCF8E0
:1019D00020405707FF0E09FA07F824EA0804D1F857
:1019E000108008FA07F848EA0408CCF82080046858
:1019F0004FEA420C06FA0CF7BC430F7907F00307D5
:101A000007FA0CF7274307604C6814F4403F70D086
:101A10003C4C276847F480472760246822F003077E
:101A200004F480440094384C07EB040CDCF80848BC
:101A300097074FEA177809FA08F7BC43334FB842C3
:101A400002D1002724E054E0314FB84201D10127F0
:101A50001EE0304FB84201D1022719E02E4FB842A4
:101A600001D1032714E02D4FB84201D104270FE024
:101A70002B4FB84201D105270AE02A4FB84201D1C5
:101A8000062705E0284FB84201D1072700E00827C4
:101A900007FA08F72743CCF80878DAF800405746E9
:101AA000D1F804C09C435FEACC3C00D51C433C60A9
:101AB000DBF800405F46D1F804C09C435FEA8C3CF1
:101AC00000D51C433C60DEF800407746D1F804C0E6
:101AD0009C435FEACC2C00D51C433C60084F0C377C
:101AE0003C68D1F804C09C435FEA8C2C00D51C43B1
:101AF0003C60521C102AFFF42FAFBDE8F88F0000A5
:101B0000003C0140443802400030014000000240E7
:101B10000004024000080240000C02400010024095
:101B20000014024000180240001C02400148806876
:101B300070470000040000200248816802781144C8
:101B400081607047040000200B4810B5016841F423
:101B500000710160016841F480610160016841F435
:101B600080710160032000F06FF80F2000F006F88C
:101B700000F024F8002010BD003C024070B50D4D6F
:101B800004464FF47A712878B1FBF0F00A490968ED
:101B9000B1FBF0F000F00AFB48B9102C07D200228C
:101BA0002146501E00F030F800206C6070BD01200E
:101BB00070BD000004000020100000200A4808B595
:101BC000016841F480410160006800F480400090A9
:101BD0000548001F016841F080510160006800F075
:101BE0008050009008BD000044380240002809DB06
:101BF00000F01F02012191404009800000F1E02027
:101C0000C0F8001170470000F0B40E4B1B680C4682
:101C1000C3F30223C3F10705042D00D90425191DC0
:101C2000072901D2002300E0DB1E012606FA05F198
:101C3000491E214099409E40761E16403143F0BC1B
:101C400002F019B90CED00E0064900F0070208683F
:101C50004FF6FF03184040EA0220034A1043086091
:101C6000704700000CED00E00000FA052DE9F04798
:101C70000E46050065D0DFF81481D8F80000F7B2F1
:101C800000F00700B04207D288F80070D8F80000D2
:101C900000F00700B04254D128683D4C810712D5AE
:101CA000400703D5206840F4E05020602878000702
:101CB00003D5206840F4604020602068A96820F0C7
:101CC000F000084320602878C0072DD030496868AC
:101CD0000839012812D0022813D0032811D009682E
:101CE000890700292DDA216821F0030101432160D1
:101CF000FFF71CFF814641F2883A0EE0096889032C
:101D0000EFE709688901ECE7FFF710FFA0EB090195
:101D1000514502D90320BDE8F0872068696800F0CA
:101D20000C00B0EB810FEFD1D8F80010404601F065
:101D30000701B14207D90770006800F00700B04200
:101D400001D00120E7E72878400705D52068E96839
:101D500020F4E050084320602878000706D520686A
:101D6000296920F4604040EAC100206000F038F8A2
:101D70002168084AC1F30311515CC8400649086054
:101D800006480068FFF7FAFE0020C4E7003C024066
:101D9000083802401E5B00081000002008000020E8
:101DA0000448054900680968044AC1F38221515C6E
:101DB000C840704710000020083802402E5B000821
:101DC0000448054900680968044AC1F34231515C7E
:101DD000C840704710000020083802402E5B000801
:101DE000154810B5006810F00C02144813D04110CB
:101DF000042A0FD0082A0ED10F4C241F2268236812
:101E000002F03F025B0207D52068C0F38810A0FBF8
:101E1000010106E0084610BD2168C1F38811A1FB4D
:101E200000010023FEF720FA2168C1F30141491C9B
:101E30004900B0FBF1F010BD083802400024F40066
:101E40002DE9F84F04006ED02078DFF84C93C007DE
:101E5000A9F104054AD009F104000168C1F3810128
:101E6000012908D00068C0F3810002280AD1D9F8FE
:101E70000000400206D52868800337D56068002836
:101E8000E1D033E06068B0F5803F10D0B0F5A02F0E
:101E9000286810D020F480302860286820F4802042
:101EA00028606068A8B1FFF741FE06460DE028688B
:101EB00040F48030F4E740F480202860F7E700BF6A
:101EC000FFF734FE801B642873D828688003F7D599
:101ED0000CE0FFF72BFE064605E000BFFFF726FEED
:101EE000801B6428F0D828688003F7D42078DFF8B6
:101EF000AC8280074FF0000A3ED5A748001D01685C
:101F000011F00C0F08D00068C0F3810002280BD13B
:101F1000D9F80000400207D42868800716D5E06889
:101F2000012800D112E033E1E068B8B10120C8F81F
:101F30000000FFF7FBFD064605E000BFFFF7F6FDDA
:101F4000801B0228C0D828688007F7D52868216937
:101F500020F0F80040EAC10028600DE0C8F800A0B9
:101F6000FFF7E4FD064604E0FFF7E0FD801B0228D2
:101F70001FD828688007F7D42078000722D5864F1D
:101F800087486169703771B101210160FFF7CEFDAB
:101F9000064604E0FFF7CAFD801B022809D838680E
:101FA0008007F7D50EE0C0F800A0FFF7BFFD06469A
:101FB00005E082E0FFF7BAFD801B02287DD8386873
:101FC0008007F7D42078400768D5DFF8CCB1002728
:101FD0000BF13C0BDBF80000C0000BD4DBF8001069
:101FE00041F08051CBF80010DBF80000012700F031
:101FF000805000906B4E3068C00510D4306840F4BB
:1020000080703060FFF792FD009005E0FFF78EFDD5
:102010000099401A022850D83068C005F6D55E4EA7
:10202000A0686C3601280FD00528306810D020F049
:1020300001003060306820F004003060A068B8B162
:10204000FFF774FD00900FE0306840F00100F4E706
:1020500040F004003060F7E7FFF768FD0099411A8F
:1020600041F28830814266D830688007F4D50EE0AE
:10207000FFF75CFD009007E0FFF758FD0099411A5B
:1020800041F28830814256D830688007F4D42FB1AD
:10209000DBF8001021F08051CBF80010A069C8B324
:1020A0003D49091D0968C1F3810102294AD002286E
:1020B000504607D0C8F8600000E03CE0FFF736FD6E
:1020C00004463BE04746C8F86000FFF72FFD064690
:1020D00005E000BFFFF72AFD801B02282BD82868E7
:1020E0008001F7D4D4E907010843A16A2E4A4908C0
:1020F00002EB0141626A41EA8211084394F82C1014
:1021000040EA0161C9F8001001203866FFF70EFDB2
:10211000044606E03EE000BFFFF708FD001B022872
:1021200009D828688001F7D534E000BFFFF7FEFC2E
:10213000001B022802D90320BDE8F88F286880011F
:10214000F4D427E00128F7D0D9F80000E26900F4C0
:10215000800191421CD1226A00F03F01914217D1C7
:1021600047F6C071626A0140B1EB821F10D1A26ACA
:102170004FF0FF3300F4403103EB5202B1EB024F5A
:1021800006D194F82C1000F07060B0EB016F01D014
:102190000120D1E70020CFE7043802400000474289
:1021A000800E4742007000400000FFFF10B5401E47
:1021B000B0F1807F01D3012010BD4FF0E0246061B9
:1021C0000F21601701F057FE0020A0610720206159
:1021D000002010BD704770477047000070B590F840
:1021E0003C20012A32D0012480F83C40022280F8B1
:1021F0003D2003685A689D6822F070060A683243E1
:102200005A60134B02689A4214D0B2F1804F11D039
:10221000104B9A420ED0104B9A420BD00F4B9A4261
:1022200008D00F4B9A4205D00E4B9A4202D00E4B6B
:102230009A4204D1496825F080031943916080F8DF
:102240003D40002180F83C10084670BD022070BD62
:10225000000001400004004000080040000C004065
:1022600000040140004001400018004010B5040087
:1022700003D094F83D0010B10EE0012010BD002005
:1022800084F83C00204601F023FCA06C08B91148FA
:10229000A064014620468847022084F83D00211DA5
:1022A000206801F09FFB012084F8460084F83E007E
:1022B00084F83F0084F8400084F8410084F842002C
:1022C00084F8430084F8440084F8450084F83D0015
:1022D000002010BDD922000808B50068B0F1804F79
:1022E00012D10A48016841F0010101600068002232
:1022F00000F00100009005211C20FFF785FCBDE8DF
:1023000008401C20FFF772BC08BD000040380240A6
:1023100090F83D10012901D001207047022180F87A
:102320003D100168CA6842F00102CA6000681149A4
:10233000884214D0B0F1804F11D00F4988420ED09E
:102340000E4988420BD00E49884208D00D49884278
:1023500005D00D49884202D00C49884204D18168D9
:1023600001F00701062903D0016841F00101016075
:1023700000207047000001400004004000080040B9
:10238000000C0040000401400040014000180040E3
:1023900070B5044690F83C000025012817D00126AE
:1023A00084F83C60022084F83D002068826822F0B6
:1023B000770222F47F4282600868502838D00DDC12
:1023C00020284FD005DC90B3102811D14AE002201C
:1023D00070BD302846D040280AD13BE060282FD07D
:1023E00070280DD0B0F5805F03D0B0F5005F12D03B
:1023F000012584F83D60002084F83C00284670BD2B
:10240000CB68D1E90121206801F050FB2068816888
:1024100041F0770109E0CB68D1E90121206801F0A2
:1024200045FB2068816841F480418160E1E719E063
:10243000CA684968206801F081FB5021206806E0E5
:10244000CA684968206801F08AFB6021206801F0B1
:1024500037FBCEE7CA684968206801F06FFB40216E
:102460002068F4E7226801461046F0E7704770479D
:10247000704770B50446006801694FF00005C94314
:10248000890717D4C168C943890713D4E91E0161BC
:102490000120207720688069800702D0D4F890104E
:1024A00005E0D4F8981020468847D4F89C102046C0
:1024B0008847257720680169C943490719D4C1684D
:1024C000C943490715D46FF0040101610220207748
:1024D0002068806910F4407F02D0D4F8901005E0A5
:1024E000D4F8981020468847D4F89C102046884796
:1024F000257720680169C943090718D4C168C94311
:10250000090714D46FF008010161042020772068C6
:10251000C069800702D0D4F8901005E0D4F8981074
:1025200020468847D4F89C102046884725772068A5
:102530000169C943C90619D4C168C943C90615D47C
:102540006FF010010161082020772068C06910F445
:10255000407F02D0D4F8901005E0D4F898102046BF
:102560008847D4F89C102046884725772068016961
:10257000C943C90709D1C168C943C90705D1891E23
:102580000161D4F880102046884720680169C9435A
:1025900009060AD4C168C943090606D46FF0800150
:1025A0000161D4F8B0102046884720680169C9430A
:1025B00049060AD4C168C943490606D46FF04001F0
:1025C0000161D4F888102046884720680169C94312
:1025D00089060CD4C168C943890608D46FF020016C
:1025E00001612046D4F8A810BDE87040084770BDCE
:1025F0007047704770470068B0F1804F01D101F01B
:102600005BB97047704710B5002372B190F83C4039
:10261000012C0CD0012480F83C4090F83D40012C66
:1026200007D090F83D408CB364E0012010BD02203B
:1026300010BD1B295ED2DFE801F041434547494BFD
:102640004D4F51535557595B0E1114171A1D202326
:10265000262A2D303300C0F880204CE0C0F88420BA
:1026600049E0C0F8882046E0C0F88C2043E0C0F87C
:10267000902040E0C0F894203DE0C0F898203AE077
:10268000C0F89C2037E0C0F8A02034E00BE0C0F890
:10269000A42030E0C0F8A8202DE0C0F8AC202AE04B
:1026A000C0F8B02027E00E2924D2DFE801F00709A6
:1026B0000B0D0F11131517191B1D1F2182641AE032
:1026C000C26418E0026516E0426514E0826512E01B
:1026D000C26510E002660EE042660CE082660AE027
:1026E000C26608E0026706E0426704E0826702E033
:1026F000C26700E00123002180F83C10184610BD9D
:1027000070477047704770477047704770470000C8
:10271000F8B5016804460868CA684B6910F00F0FE5
:102720004FF0000556D003F0010602F490773743CE
:1027300061D0C10705D0D10503D5216C41F001015D
:102740002164410705D5D90703D0216C41F002016E
:102750002164810705D5D90703D0216C41F004011C
:102760002164010707D502F02001314303D0216C19
:1027700041F008012164216C00293BD0800604D57A
:10278000900602D5204601F06BFA20684069216C62
:10279000C0F38010090700D440B3204601F012FABC
:1027A0002068406940061ED52068143050E8001F9C
:1027B00021F0400140E80012002AF5D1A06B90B151
:1027C0006C490165A06BFEF76DFF002812D0A06B6D
:1027D000016DCBE083060ED593060CD52046BDE8EF
:1027E000F84001F03DBA2046616DBFE0616D2046C2
:1027F00088472564F8BD266B2023012E7BD1C606B1
:1028000079D5D60677D508684868009048694006AB
:1028100040D5A16B086840680004000CEAD0A28D86
:102820008242E7D9E085C869B0F5807F2DD0206865
:102830000C3050E8001F21F4807140E80012002A9B
:10284000F5D12068143050E8001F21F0010140E864
:102850000012002AF5D12068143050E8001F21F042
:10286000400140E80012002AF5D184F83E3025638B
:1028700020680C3050E8001F21F0100140E80012E1
:10288000002AF5D1A06BFEF7C4FEA08DE18D401AA1
:1028900081B229E0A08DE18D401A81B2E08D00283F
:1028A000A8D00029A6D020680C3050E8002F22F4D0
:1028B000907240E80026002EF5D12068143050E8D0
:1028C000002F22F0010240E80026002EF5D184F806
:1028D0003E30256320680C3050E8002F22F01002B3
:1028E00040E80023002BF5D1A26E01B02046BDE8E0
:1028F000F0401047FFE705062CD515062AD594F8B9
:102900003D0021287FF476AFA068B0F5805F01D14B
:102910002069B0B1206A411C2162216800784860BA
:10292000E08C401E0004000CE084EBD12068C168FC
:1029300021F08001C1602068C16841F04001C160A0
:10294000F8BD206A0088C0F308004860206A801C37
:102950002062E5E74006F3D55006F1D5CA68204667
:1029600022F04002CA6084F83D30A16C01B0BDE89D
:10297000F0400847B93B000870B5040004D094F853
:102980003D00002510B10DE0012070BD84F83C50E1
:10299000204601F03FF9E06E08B91348E0660146B1
:1029A00020468847242084F83D002068C16821F42F
:1029B0000051C160204601F0B3F92068016921F49B
:1029C000904101612068416921F02A01416120683C
:1029D000C16841F40051C1602564202084F83D00A5
:1029E00084F83E00002070BDED2900082DE9F04F6D
:1029F00087B0064614216846FDF7ADFCDFF844C1F8
:102A000002223168504803230725DFF84081002463
:102A100097064FF4806A4FF4807B614537D14A496D
:102A20001431D1F800C04CF0100CC1F800C0096896
:102A300001F010010591016841F001010160006899
:102A4000694600F00100059058028DE81500CDE9B7
:102A500003354046FEF772FF3E4D3D482860C5E90C
:102A60000174C5E9034A6C61C5E9064B2C6228462E
:102A70006C62FEF7F9FE08B1FDF788FDB563002230
:102A800005212520AE63FFF7BFF8252055E0DFF8CC
:102A9000C8C0614553D12C491031D1F800C04CF465
:102AA000003CC1F800C0096801F4003105910168DB
:102AB00041F0010101600068694600F001000590E5
:102AC0000C208DE81500CDE903354046FEF736FFB2
:102AD000204D22486035B9462860C5E90174C5E932
:102AE000034A6C61C5E9064B2C625746D846284616
:102AF0006C62FEF7B9FE08B1FDF748FDB563AE6341
:102B0000144D1648C0351830E5E80209402091C53B
:102B1000104845F81449C030C5E906482C626C627B
:102B2000FEF7A2FE08B1FDF731FD75630022052115
:102B30002620AE63FFF768F82620FFF757F807B0A6
:102B4000BDE8F08F00100140303802400000024024
:102B500040640240B402002000440040886002400B
:102B60000022A1B190F83C30012B16D0012380F84F
:102B70003C3090F83D30202B11D0016C41F0200109
:102B800001640122002180F83C1010467047016C5E
:102B900041F02001016401207047022070478166E6
:102BA000F0E77047704770477047FEE710B58279CD
:102BB00081681AB98A88028001228271B1F90430D1
:102BC000B0F900209C1A24B2B4F5805F05DBCC6814
:102BD00023449A1AA2F5005208E014F5805FCC68ED
:102BE0002344A3EB020201DC02F50052CA608168B3
:102BF0008988018010BD000010B5044600681F4B95
:102C00008AB0984201D1012005E01D4A904201D1CD
:102C1000022000E00020C0EB00121A4800EB820204
:102C200092F8240002EB8000816212F8240F002148
:102C3000401C107022680E209A4201D1059100E0DC
:102C4000059004910990012001910291CDE90610AF
:102C500003910091089069462046FEF7EBF80A4A76
:102C600006212046FEF724FC02212046FEF76CF8E0
:102C70002046FEF769FC0AB010BD00000064004069
:102C800000680040D00700208D2C000870B5144A61
:102C90000168914201D1012605E0124A914201D119
:102CA000022600E000261049C6EB061201EB820363
:102CB0001C4603F108020021FEF743F900280ED15B
:102CC000002508E004EB8500836A1BB121463046ED
:102CD000A26898476D1C94F82400A842F2DC70BDED
:102CE0000064004000680040D0070020A2F20122EA
:102CF000072A1AD800EB40030C48D2B200EB43106D
:102D000002EB420200EB82008268002A0DD00B88A1
:102D10005BBA93804A88836852BA1A808A8852BA0A
:102D2000428089798180FFF741BF70478408002085
:102D3000054B01EB410103EB411102EB420201EBB8
:102D4000820141F8040C70478408002030B5054624
:102D50000068344989B0884201D1012005E0324938
:102D6000884201D1022000E0002000210491059159
:102D70004FF4007102910821069100EB40012B48AD
:102D800008AB00EB41146A46A068018A080A8DF876
:102D900000008DF801106069018A090A8DF802109F
:102DA000007C8DF80300206A018A090A8DF804105E
:102DB000007C8DF80500E06A018A090A8DF806108A
:102DC000007C8DF8070002A92846FDF7CFFF40F2EE
:102DD000FF100290A06B08AB6A46008A010A8DF8CA
:102DE00000108DF80100606C018A090A8DF802104C
:102DF000007C8DF80300206D018A090A8DF804100B
:102E0000007C8DF80500E06D018A090A8DF8061036
:102E1000007C8DF8070002A92846FDF7A7FF09B03E
:102E200030BD0000006400400068004084080020BD
:102E300010B5002836D001881B4CC1F30A01A180CF
:102E400041788278C90841EA4211C1F30A01E18060
:102E50008178C278890941EA8201027941EA8221B6
:102E6000C1F30A01218001794279490841EAC2117E
:102E7000C1F30A0161804179890921724179C1F365
:102E800001116172C18861810189A1814189E1815A
:102E9000017B2174417B6174C089608200F006F877
:102EA0000120207510BD0000180000201E48418A36
:102EB0001E4801F001028270C1F340020272C1F3A8
:102EC00080028273C1F3C0020275C1F300128276E0
:102ED000C1F3401280F82020C1F3801280F8262030
:102EE000C1F3C01280F82C20C1F3002280F83220F8
:102EF000C1F3402280F83820C1F3802280F83E20C0
:102F0000C1F3C02280F84420C1F3003280F84A2087
:102F1000C1F3403280F85020C1F3803280F856204F
:102F2000C90B80F85C10704718000020A40900202D
:102F3000C0ED0C1A80ED042AC0ED062A80ED083A97
:102F400080EC030A7047000070EE600AC0ED030ACF
:102F500090ED040AF4EEC00AF1EE10FA01DD80ED06
:102F6000030AD0ED030AB1EE400AF4EEC00AF1EE16
:102F700010FA02D3B0EE600A01E080ED030AB5EE6C
:102F8000C00AF1EE10FA01DCB1EE400A90ED081A29
:102F9000DFED310AB4EEC10AF1EE10FA01D8C0ED4E
:102FA000030A90ED051A90ED030A31EE001A80ED48
:102FB000051A20EE011AB5EEC01AF1EE10FA01D290
:102FC000C0ED050A90ED051AD0ED060AB4EEE01A40
:102FD000F1EE10FA01DDC0ED050A90ED051AF1EEF3
:102FE000600AB4EEE01AF1EE10FA01D2C0ED050A63
:102FF000D0ED090A30EE601A80ED071AD0ED000A14
:10300000D0ED011A90ED052A60EE800A41EE820AA9
:10301000D0ED021A41EE810AC0ED0B0A90ED0C1AB8
:10302000F4EEC10AF1EE10FA01DD80ED0B1AD0EDDD
:103030000B1AF1EE410AF4EEE01AF1EE10FA01D2A9
:10304000C0ED0B0A80ED090A90ED0B0ABDEEC00A37
:1030500010EE100A704700000000000010B5044692
:1030600002682A48824201D1012241E0B2F1804F38
:1030700004D02748824203D1032239E0022237E0FC
:103080002448824201D1042232E02348824201D105
:1030900005222DE02148824201D1062228E0204865
:1030A000824201D1072223E01E48824201D1082238
:1030B0001EE01D48824201D1092219E01B488242CC
:1030C00001D10A2214E01A48824201D10B220FE0FA
:1030D0001848824201D10C220AE01748824201D1ED
:1030E0000D2205E01548824201D10E2200E00022A7
:1030F000134840F82210134A0E212046FFF783FAA6
:103100002046BDE81040FFF703B900000000014071
:103110000004004000080040000C00400010004087
:103120000014004000040140004001400044014000
:103130000048014000180040001C004000200040F2
:10314000040A00204931000800682749884201D15B
:10315000012041E0B0F1804F04D02449884203D1DE
:10316000032039E0022037E02149884201D10420C0
:1031700032E02049884201D105202DE01E498842D5
:1031800001D1062028E01D49884201D1072023E013
:103190001B49884201D108201EE01A49884201D10A
:1031A000092019E01849884201D10A2014E0174982
:1031B000884201D10B200FE01549884201D10C2033
:1031C0000AE01449884201D10D2005E012498842E5
:1031D00001D10E2000E00020104951F82000002805
:1031E00000D000477047000000000140000400408C
:1031F00000080040000C0040001000400014004097
:1032000000040140004001400044014000480140EA
:1032100000180040001C004000200040040A00206C
:1032200030B42A4B02689A4201D1012319E0284B9D
:103230009A4201D1022314E0264B9A4201D1032382
:103240000FE0254B9A4201D104230AE0234B9A4216
:1032500001D1052305E0224B9A4201D1062300E06B
:103260000023826B1268146803EBC30303EB43056E
:103270001C4B44F3C04403EB850393F86450691A74
:103280001568C9B225F001051560826B12681568D2
:10329000641C2D03156802D525F4002501E045F4D2
:1032A00000251560806B0068026842F00102026030
:1032B0009A6E002A07D004EBC40000EB041030BC67
:1032C00003EB4000104730BC704700000010014085
:1032D0000044004000480040004C004000500040C6
:1032E00000140140400A0020F8B505460068224A53
:1032F000904201D1012019E0204A904201D10220E0
:1033000014E01F4A904201D103200FE01D4A904271
:1033100001D104200AE01C4A904201D1052005E0B9
:103320001A4A904201D1062000E0002000EBC000C4
:1033300000EB40021648322600EB82042846A4F82F
:103340006460A1661349FFF70BFC2868C16841F06F
:103350001001C16001202863AE850096296804F140
:1033600032032246091DA86BFEF721F9286841693E
:1033700041F040014161F8BD0010014000440040AF
:1033800000480040004C0040005000400014014044
:10339000400A0020213200080F4810B50D49016095
:1033A0000621416000214FF400328160C0E9031220
:1033B00012014261017641768176C17601774177CB
:1033C000FDF72EFF002803D0BDE81040FDF7DEB862
:1033D00010BD000000640040500000200F4810B5F0
:1033E0000D4901600621416000214FF400328160E7
:1033F000C0E9031212014261017641768176C176FD
:1034000001774177FDF70CFF002803D0BDE810409D
:10341000FDF7BCB810BD000000680040B4000020FB
:10342000154808B5016841F480010160016801F4A4
:1034300080010091016841F40011016000680022E0
:1034400000F40010009011461020FEF7DDFB102064
:10345000FEF7CCFB002211461120FEF7D5FB112010
:10346000FEF7C4FB002211463A20FEF7CDFBBDE873
:1034700008403A20FEF7BABB303802400D4808B584
:10348000016841F080010160016801F08001009154
:10349000016841F001010160016801F00101009142
:1034A000016841F002010160006800F00200009034
:1034B00008BD00003038024010B586B00024164820
:1034C000009401940294039404944FF08041059475
:1034D00001605321C0E9011440F2E731C0E903144F
:1034E0008461FEF7C3FE08B1FDF750F84FF4805039
:1034F000009069460848FEF74BFF08B1FDF746F813
:10350000049404A904480594FEF768FE002801D03D
:10351000FDF73CF806B010BD180100200E4810B5AC
:103520000C4901600D4941604FF4805181600021D8
:103530004FF48062C0E903120C22C0E90521C16189
:10354000FFF71AFA002803D0BDE81040FDF71EB8B7
:1035500010BD000000100140CC010020A086010039
:103560000C4810B50A4901604FF4E1314160002177
:1035700081600C22C160C0E904128161C161FFF762
:10358000FBF9002803D0BDE81040FCF7FFBF10BDD9
:103590000044004040020020FEE70000F0B5444E29
:1035A000444F00229FED441ADFED440A444C00BF13
:1035B000C2EB421100EB810504EB8203E96800EEE7
:1035C000101A0029F8EEC01A93ED040A71EEC01A21
:1035D00011EE90CA3CDBB44509DC01EE901AF8EE1E
:1035E000E11A71EEC01A11EE90CABC451CD901EE69
:1035F000901ADFF8D0E0F8EEE11A71EEC01A11EE81
:1036000090CAF44541DD30EE010A3BE030EE200A7D
:1036100002E000BF30EE600A83ED040A93ED000A79
:10362000B1EE400A83ED000A04EB8201521C91EDD9
:10363000040A042ABDEEC00A85ED020A91ED000AD3
:10364000BDEEC00A10EE101AA5F8F211B0DBF0BD05
:10365000B44509DC01EE901AF8EEE11A71EEC01AD9
:1036600011EE90CABC45DFD901EE901ADFF858E0A0
:10367000F8EEE11A71EEC01A11EE90CAF44504D9C1
:1036800030EE410A83ED040ACEE701EE901AF8EE1F
:10369000E11AF4EEC01AF1EE10FAB7DC01EE901A5E
:1036A000F8EEE11AF4EEC01AF1EE10FAB2D3BBE76D
:1036B000D00FC93FD00FC9BFD00FC940D00F49406C
:1036C000340E0020DCCB9640DCCB96C010B55148C0
:1036D00001222DED028B11460446FFF729FB012242
:1036E00002212046FFF724FB9FED4B8AB0EE483ABB
:1036F000DFED4A8A4748B0EE481AF0EE682AB0EE8D
:10370000682AF0EE681AF0EE480AB0EE480A143063
:10371000FFF70EFC3F48B0EE483AF0EE682AB0EEF4
:10372000682AF0EE681AB0EE481AF0EE480AB0EED9
:10373000480A9030FFF7FCFBB0EE483AF0EE682AFA
:10374000B0EE682AF0EE681AB0EE481AF0EE480AB9
:10375000B0EE480A3248FFF7EBFB3148B0EE483A8A
:10376000F0EE682AB0EE682AF0EE681AB0EE481A59
:10377000F0EE480AB0EE480A7C30FFF7D9FBB0EE15
:10378000483AF0EE682AB0EE682AF0EE681AB0EE19
:10379000481AF0EE480AB0EE480A2248FFF7C8FB84
:1037A0002048B0EE483AF0EE682AB0EE682AF0EE13
:1037B000681AB0EE481AF0EE480AB0EE480A7C30BB
:1037C000FFF7B6FB1348B0EE483AF0EE682AB0EEC9
:1037D000682AF0EE681AB0EE481AF0EE480AB0EE29
:1037E000480AE438FFF7A4FBB0EE483AF0EE682A46
:1037F000B0EE682AF0EE681AB0EE481AF0EE480A09
:10380000B0EE480ABDEC028B0248BDE810406838B3
:10381000FFF78EBBC80500200000000000004842F2
:10382000D4060020EC0300202DE9F0411E4E0025B7
:10383000C5EB451706EB8704B4F9F00100EE100A5A
:10384000B4F9F201F8EEC00A00EE100A04F50170B6
:10385000B8EEC00AFFF778FBA4F8000294ED030A63
:1038600004F11400F8EEC00A94ED020AB8EEC00AA2
:10387000FFF76AFB00B2608036F9271000EE101ADD
:10388000F8EEC00A00EE100A04F14800B8EEC00AD3
:10389000FFF75AFB6D1C2082042DC9DBBDE8F04107
:1038A0000248FFF753BA0000D8030020B4000020FC
:1038B000FEE770477047000070B51B4C19480323A2
:1038C000227A0578617A0DB1012D04D1032A02D143
:1038D000032900D103700078002821D001281FD0CF
:1038E00002281DD003281BD12088A0F5806001F09C
:1038F0003AFD0E4DC5E9FA01608805F57875A0F529
:10390000806001F030FDC5E90001A088A0F580606D
:1039100001F029FDC5E90401BDE87040FCF7C8BD10
:1039200070BD00002E00002018000020D8030020E9
:10393000FEF702B930B593B030216846FCF70BFDB5
:1039400014210CA8FCF707FD1D480025016841F073
:1039500080510160006800F08050119019480168A2
:1039600041F4804101600068022400F4804011901D
:1039700001200090000401908001CDE9064008AAD2
:103980000420A82182E813000B906846FEF758FA3D
:1039900008B172B6FEE70CA90F2081E831004FF4A0
:1039A000A0500F904FF48050109005210CA8FEF706
:1039B0005DF9002801D072B6FEE713B030BD0000FB
:1039C00040380240007000400248016841F4700134
:1039D0000160704788ED00E00148FEF74ABD000035
:1039E00018010020F0B50268254C264D264E274FC1
:1039F000274B4FF0804CA04209D0604507D0A84229
:103A000005D0B04203D0B84201D0984204D122F090
:103A1000700E4A6842EA0E02A0421BD0604519D0DF
:103A2000A84217D0B04215D0B84213D0984211D056
:103A3000184DA8420ED0184DA8420BD0174DA842E1
:103A400008D0174DA84205D0164DA84202D0164DF9
:103A5000A84203D122F44075CA682A434D6922F076
:103A600080022A4302608A68C2620A688262A042B7
:103A700001D0984201D10969016301214161F0BD82
:103A8000000001400004004000080040000C00401D
:103A90000004014000400140004401400048014052
:103AA00000180040001C00400020004010B5846851
:103AB00042EA032224F47F440A432243826010BD79
:103AC000826822F070020A4342F007018160704769
:103AD0000D4940F8801F0D4941600D4981600D4935
:103AE000C1600D4901610D4941610D4981610D4977
:103AF000C1610D4901620D4941620D4981620D4963
:103B0000C1620D4901637047F725000805260008CA
:103B100001270008032700086F240008712400080B
:103B2000F1250008F3250008F52500086D2400089C
:103B3000D7210008D9210008D521000810B5036A53
:103B4000046A24F001040462846924F0F00444EA65
:103B5000021423F00A020A438461026210BD10B508
:103B6000036A23F0100303628369046A23F4704339
:103B700043EA023224F0A00343EA011182610162A8
:103B800010BD000070B5044634F8010F40BA01F0D2
:103B900001FC084DE5E9F801608840BA01F0FAFB44
:103BA000C5E90201A08840BA01F0F4FBC5E90401AF
:103BB00070BD0000D8030020806B0021C185C18446
:103BC000416D084701680C3151E8002F22F49072D2
:103BD00041E80023002BF5D10168143151E8002F92
:103BE00022F0010241E80023002BF5D1016B0129ED
:103BF00009D101680C3151E8002F22F0100241E890
:103C00000023002BF5D1202180F83E100021016314
:103C10007047000009494164094981640949C16448
:103C20000949016509494165094981650949C16534
:103C3000094901660949816670470000A92B0008FF
:103C4000A72B0008A52B0008A32B00080D270008B0
:103C5000072700080B270008092700080527000888
:103C600008B590F83E10222901D0022008BD8268D4
:103C70004FF480539A4201D1016921B1816A9A427D
:103C80001BD04AB10AE00268816A5268C2F3080296
:103C90000A80816A891C08E0026972B10268526870
:103CA00002F07F020A70816A491C8162C18D491E3F
:103CB0000904090CC18503D019E002685268F1E7D4
:103CC0000168CA6822F02002CA600168CA6822F44A
:103CD0008072CA6001684A6922F001024A612021AB
:103CE00080F83E10016B012903D0016D8847002048
:103CF00008BD0021016301680C3151E8002F22F05A
:103D0000100241E80023002BF5D101680A68D206B1
:103D100002D50A6849680091826E818D9047E6E776
:103D200070B5044600680169E26821F4405111430E
:103D300001612169A068E269084361691143084390
:103D40002168CA6849F20C639A430243CA6020683A
:103D50004169A26921F440711143416131492068F0
:103D6000884202D03049884202D1FEF729F801E0AA
:103D7000FEF716F8E2690023192164253226B2F510
:103D8000004F626828D0A0FB0101930F9200FCF75E
:103D90006BFA0146B0FBF5F06FF01802504301EBEF
:103DA000800006EB0010B0FBF5F000F0F002B1FB74
:103DB000F5F002EB0012B1FBF5F06FF01803584379
:103DC00001EB800006EB0010B0FBF5F000F00F00F7
:103DD00021681044886070BDA0FB010192185B410E
:103DE000FCF742FA0146B0FBF5F00201B1FBF5F039
:103DF0006FF01803584301EB800006EBC000B0FBE6
:103E0000F5F000F0F80002EB4002B1FBF5F058438A
:103E100001EB800006EBC000B0FBF5F000F00700FE
:103E2000D6E7000000100140001401400148FEF7F1
:103E30006FBC0000CC0100200148FEF769BC000007
:103E400040020020FEE703B401984100009850EAC8
:103E5000C12018BF04204A0D18BF40F0010040F2F5
:103E6000FF72B2EB515F08BF40F00200012808BFAB
:103E7000052002B070470907090E002804DB00F195
:103E8000E02080F80014704700F00F0000F1E020FF
:103E900080F8141D7047000070B59B482DED020B93
:103EA0002DED068B079D25F00044A04218DC9748B5
:103EB000844202DC0AD1069840B19DED060BBDECB0
:103EC000068B02B0BDE8704000F03ABF002DCCBFB9
:103ED0009FED8F0B9FED900BBDEC068B02B070BD7C
:103EE0008F48A04215DD8F48A042D8BF4FF0FF3465
:103EF00058DD9DED060B51EC100BFFF7A4FF0428D5
:103F000008BF00F041FF9DED060BBDEC068B02B033
:103F100070BD9DED060B51EC100B00F04DFFCDE98F
:103F2000060181489FED828BA0423CDD8248A04281
:103F30001FDD00249FED82AB9DED060B53EC1A2B89
:103F400051EC100B00F098FF9DED060B41EC190BA6
:103F500053EC1A2B51EC100B01F06CFA53EC182BAC
:103F600001F074FC53EC192B01F03AF8CDE906018D
:103F700049E09DED060B012453EC182B51EC100B7E
:103F800000F07AFF9DED060B41EC190B53EC182B5A
:103F900051EC100B01F05AFC53EC192B01F020F8F6
:103FA000CDE906012FE06848A0421FDD02249FED05
:103FB000689B9DED060B53EC192B51EC100B01F097
:103FC00039FA53EC182B00F057FF9DED060B41EC2E
:103FD000180B53EC192B51EC100B01F037FC53EC80
:103FE000182B00F0FDFFCDE906010CE09DED060B5E
:103FF000032453EC102B9FED580B51EC100B00F0E9
:10400000EFFFCDE906019DED060B53EC102B51ECB3
:10401000100B01F00FFA41EC180B53EC182B01F0C8
:1040200009FA41EC190B4E480621B0EE490AF0EEB0
:10403000690A784400F070FD53EC182B51EC100B1A
:1040400001F0F8F941EC180B4648B0EE490AF0EEE1
:10405000690A0521784400F05FFD53EC192B51ECFF
:10406000100B01F0E7F941EC100B51EC180B53EC7D
:10407000102B002C0EDA00F0FFFE9DED061B53EC1A
:10408000112B01F0D7F99DED061B53EC112B01F01C
:1040900005FB35E000F0F0FE9DED061B53EC112B07
:1040A00001F0C8F941EC100B2F48784400EBC40034
:1040B00090ED001B51EC100B53EC112B01F0C6FBE3
:1040C0009DED061B53EC112B01F0C0FB41EC100BD6
:1040D0002648784400EBC40090ED001B51EC100B17
:1040E00053EC112B01F0DAFA41EC100B002DA2BFBA
:1040F000BDEC068B02B070BD51EC100B00F07DFEE4
:1041000041EC100B01E70000000010440000F07FBC
:10411000182D4454FB21F93F182D4454FB21F9BFBD
:104120000000DC3F0000203E0000F33F00000000E4
:10413000000000000000F03F0000E63F000000002B
:10414000000000000000004000800340000000006C
:10415000000000000000F83F000000000000F0BF79
:104160006A1B0000201B0000AA1A0000621A00004F
:1041700070B56B4E2DED040B2DED028B82B0DDF88A
:104180001CC0DDE905235C422CF000411C4341EAE0
:10419000D474049D22F00040B44205D86C422C43F4
:1041A00040EAD474B4420BD99DED061B9DED040B7F
:1041B00002B0BDEC028B04B0BDE8704000F0CABD97
:1041C000ACF14054A4F17F641C430BD0022404EAF8
:1041D000AC7444EAD27405439FED538B9FED542B8E
:1041E00007D015E09DED040B51EC100B00F0DCFD49
:1041F00042E0002C11BF012C9DED040B02B0BDEC80
:10420000028B04BF04B070BD022C38D0032C3BD00D
:104210000B439FED491B9FED4A0B0AD0B14218D1C9
:10422000B04209D121F0804120F0804007910590F3
:104230000FE0002A15DA10E0434B7B44002C08BF46
:1042400093ED000B0DD0012C10D0022C17D0032CB5
:104250001AD0B0421DD1002A03DAB0EE410AF0EEC6
:10426000610A02B0BDEC028B04B070BD93ED000B8F
:1042700051EC100B00F0C1FD41EC100BF1E7B0EE7A
:10428000480AF0EE680AECE7B0EE420AF0EE620A85
:10429000E7E7401A00153C28C8BF8DED000B19DC7C
:1042A000BCF1000FBEBF10F13C0F9FED290B8DED4F
:1042B000000B0FDB9DED060B53EC102B9DED040B5B
:1042C00051EC100B00F08CFE00F076FD00F06CFD60
:1042D000CDE90001002C08BF9DED000BC1D0012CE1
:1042E00010D0022C9FED1C0B53EC102B9DED000BFE
:1042F00051EC100B0DD001F0A9FA53EC182B01F082
:10430000A5FAB9E7019880F0004001909DED000BFF
:10431000A7E701F09BFA53EC182B01F0BFF9ABE7CC
:104320000000F07F00000000182D4454FB210940DC
:10433000182D4454FB2109C0182D4454FB21F9BF0A
:10434000182D4454FB21F93FC21900000000000061
:104350000000000000000000075C143326A6A13C0A
:1043600010B52F499FED2C1B2DED020B84B0059845
:1043700020F000408842D8BF9DED040B2DDD294977
:10438000884209D1049840B94FF00100FCF712F8B7
:1043900000F0EAFC06B010BD05DB9DED040B00F05B
:1043A000CFFC06B010BD68469DED040B00F0E0F8B0
:1043B00010F0030004BF9DED021B9DED000B0CD01F
:1043C00001280ED09DED021B9DED000B022817D099
:1043D000012000F01DFC06B010BD00F0E5FA06B0AB
:1043E00010BD9DED021B9DED000B012000F010FCA7
:1043F00051EC100B00F001FD06B041EC100B10BDAC
:1044000000F0D2FA51EC100B00F0F7FC06B041ECD2
:10441000100B10BD000000000000000000000000B4
:10442000FB21E93F0000F07F10B52F499FED2C1BC9
:104430002DED020B84B0059820F000408842DCBFCF
:1044400000209DED040B32DD2849884209D10498F3
:1044500040B94FF00100FBF7ADFF00F085FC06B05E
:1044600010BD05DB9DED040B00F06AFC06B010BD2D
:1044700068469DED040B00F07BF810F0030011D0AE
:10448000012818D09DED021B9DED000B02281AD0CB
:1044900000F08AFA51EC100B00F0AFFC06B041ECD2
:1044A000100B10BD9DED021B9DED000B012000F0D7
:1044B000AFFB06B010BD9DED021B9DED000B00F0A3
:1044C00073FA06B010BD012000F0A2FB51EC100BF6
:1044D00000F093FC06B041EC100B10BD0000000092
:1044E0000000000000000000FB21E93F0000F07F19
:1044F00000B52DED048BB0EE409AF0EE609A83B0DB
:1045000051EC190B01F0D6F841EC180B18EE100A1B
:1045100018EE901A8DED008B002818BF012008437B
:1045200020F00040C0F17F6000F1E040C00F14D0E7
:1045300019EE101A19EE900A8DED009B002918BF94
:104540000121084320F00040C0F17F6000F1E0400D
:10455000C00F04BF0120FBF72DFFB0EE480A03B0E7
:10456000F0EE680ABDEC048B00BD00000000000006
:104570002DE9F14F04462DED020B2DED088B8AB08D
:104580009FEDE70B80ED020B139EE74826F00045F8
:1045900085420ADC9DED120B002084ED000B0AB071
:1045A000BDEC088B03B0BDE8F08FE0489FEDE0ABB9
:1045B0009FEDE1BBA84247DDE14F9FEDE39B9FEDFF
:1045C000E48B9DED120B53EC1A2B51EC100B002ECB
:1045D0001CDD01F03BF941EC100BBD4208D053EC5F
:1045E0001B2B51EC100B01F031F9C4E900010BE079
:1045F00053EC192B51EC100B01F028F953EC182B4C
:1046000001F024F9C4E900010120C8E700F034FCFE
:1046100041EC100BBD4208D053EC1B2B51EC100B9E
:1046200000F02AFCC4E900010BE053EC192B51EC1B
:10463000100B00F021FC53EC182B00F01DFCC4E91A
:1046400000014FF0FF30AAE7C348A84279DB9DED97
:10465000120B51EC100B00F0AFFB41EC180B9FED6F
:10466000C00B53EC102B00F0E5FE9FEDBF1B53EC8D
:10467000112B00F001FC00F047FE074600F073FE2E
:1046800041EC190B53EC1A2B00F0D4FE53EC182B11
:1046900001F004F841EC180B53EC1B2B51EC190BF7
:1046A00000F0C8FEDFF8C8A241EC100B4FEA155825
:1046B0000125FA4453EC102B51EC180B01F0C6F80D
:1046C000032DC4E900013DD0C1F30A5005EB4511AB
:1046D000A8EB00001139814234DA0AEB051BB0EE79
:1046E00048AA9BED000BF0EE68AA53EC102B51EC9E
:1046F000190B00F09FFE41EC1B0B51EC1A0B53EC15
:104700001B2B01F0A3F841EC180B51EC1A0B53ECE6
:10471000182B01F09BF853EC1B2B01F097F89BED45
:10472000020B41EC1A0B53EC102B51EC190B00F05F
:1047300081FE53EC1A2B01F089F841EC100B6D1C33
:10474000B8E70EE0002EA8BF3846BFF628AF94EDBC
:10475000000B51EC100B00F050FBC4E90001784253
:104760001DE7C6F3130040F4801EC6F30A50A0F202
:10477000F530471100F01F05C5F12000DDF848B005
:1047800008900020069007900520EC467949002DFE
:1047900007EB0002794408BF51F8221009D051F804
:1047A000223001EB8201AB404A68089922FA01F1FC
:1047B0001943A1FB0E26A1FB0B131A449A4234BFE6
:1047C0000123002303EB06080CEB8003D3E901A6C9
:1047D0000E448E4234BF0121002192448A4411B11B
:1047E000924502D903E0924501D2012100E0002167
:1047F000C3E901A641444CF82010011EA0F10100BC
:10480000C4DC029800F10050850F0298DDE90367CF
:104810008000DDF8148000F0A6FD41EC1A0B304654
:1048200000F0B8FD9FED541B53EC112B00F002FE7D
:1048300041EC1B0B384600F0ADFD9FED511B53ECD6
:10484000112B00F0F7FD41EC180B404600F0A2FDE3
:104850009FED4D1B53EC112B00F0ECFD41EC190BBF
:1048600051EC180B53EC192B00F006FB53EC1B2BEF
:1048700000F002FB53EC1A2B00F0FEFACDE9080120
:10488000002008909DED080B53EC1A2B51EC100BF7
:1048900000F0DCFF53EC1B2B00F0D8FF53EC182B7F
:1048A00000F0D4FF53EC192B00F0F8FE9FED381BFD
:1048B00053EC112B00F0BEFD9FED370B41EC180BB4
:1048C00053EC102B9DED080B51EC100B00F0B2FDDA
:1048D00053EC182B00F0D0FA9FED310B41EC180B84
:1048E00053EC102B9DED080B51EC100B00F0A2FDCA
:1048F00053EC182B00F0C0FA41EC100B139810F099
:10490000004F06D06D4251EC100B00F076FA41ECEE
:10491000100B284684ED000B41E60000000000006B
:104920000000000000000000FB21E93F7CD90240AC
:1049300000004054FB21F93F3163621A61B4D03D5D
:10494000FB21F93F000000000000601A61B4D03D77
:104950007370032E8A19A33BFB213941000000002C
:1049600083C8C96D305FE43F000000000000E03FF5
:1049700052150000A0140000000000000000103ECE
:10498000000000000000103C000000000000103A91
:10499000182D4454FB21F93D3326A611460B113C3A
:1049A00000000054FB21F93D10B52DED040B2DED59
:1049B000088B82B0B0EE419AF0EE619A0B9820F02D
:1049C00000449FED4BABB4F1795F11DA9DED0A0B1A
:1049D00051EC100B00F098FC002801BFB0EE4A0A21
:1049E000F0EE6A0A02B0BDEC088B04BF04B010BD43
:1049F0009DED0A0B53EC102B51EC100B00F01AFD3F
:104A000041EC180B3C480621B0EE480AF0EE680A6B
:104A1000784400F081F853EC182B51EC100B00F0A7
:104A200009FD9DED0A0B41EC1B0B53EC192B51ECCE
:104A3000100B00F0FFFC41EC190B53EC1B2B51EC5D
:104A4000180B00F0F7FC53EC192B00F0FFFE9FED64
:104A50002C0B41EC190B53EC102B51EC180B00F004
:104A6000E9FC41EC100B2848844210DA53EC192B76
:104A700051EC100B00F0EAFE53EC1A2B00F00EFE86
:104A800041EC100B02B0BDEC088B04B010BD1F4808
:104A9000A042BCBF9FED1E1B8DED001B06DBA4F5E5
:104AA00000100190002000909DED001B51EC100BB8
:104AB00053EC112B00F0CAFE9DED000B41EC180BDE
:104AC00053EC102B51EC1A0B00F0C0FE41EC1A0B0A
:104AD00053EC192B51EC180B00F0B8FE53EC1A2BC9
:104AE00000F0DCFD41EC100BCCE700000000000002
:104AF000000000000000F03FBC11000000000000BA
:104B0000000000000000E03F3333D33F0000E93FE6
:104B1000000000000000D23F70B504462DED028B6E
:104B20004D1E00EBC500B0EE408AF0EE608A90EDBD
:104B3000000B35F0060017D053EC182B51EC100B7E
:104B400000F078FC41EC100B6D1E04EBC50090EDFD
:104B5000001B51EC100B53EC112B00F08DF941ECC4
:104B6000100B35F00600E7D1022D36D0042D1CD0F5
:104B7000062D1CBFBDEC028B70BD53EC182B51EC05
:104B8000100B00F057FC94ED0A1B53EC112B00F0B6
:104B900073F953EC182B00F04DFC94ED081B53EC0B
:104BA000112B00F069F941EC100B53EC182B51EC70
:104BB000100B00F03FFC94ED061B53EC112B00F0A2
:104BC0005BF953EC182B00F035FC94ED040B53EC1F
:104BD000102B00F051F941EC100B53EC182B51EC59
:104BE000100B00F027FC94ED021B53EC112B00F08E
:104BF00043F953EC182B00F01DFC94ED001B53EC13
:104C0000112B00F039F9BDEC028B41EC100B70BD9B
:104C100031B504462DED040B2DED0A8BB0EE41BAF3
:104C2000F0EE61BA0B989DED0A0B20F00040B0F158
:104C3000795F0DDA51EC100BFFF705F9042808BF76
:104C400000F0A2F89DED0A0BBDEC0A8B05B030BD5B
:104C500053EC102B51EC100B00F0ECFB41EC180B5B
:104C60009DED0A0B53EC182B51EC100B00F0E2FBFE
:104C700041EC190B2C48B0EE480AF0EE680A052109
:104C80007844FFF749FF9FED2ACBB0EE40AAF0EE43
:104C900060AA9CB353EC1C2B51EC190B00F0CAFB1F
:104CA00041EC1C0B53EC1A2B51EC190B00F0C2FB1E
:104CB0009FED210B41EC190B53EC102B51EC1B0B0E
:104CC00000F0B8FB53EC192B00F0C0FD53EC182B8F
:104CD00000F0B0FB53EC1B2B00F0B8FD53EC1C2B89
:104CE00000F0B4FD9DED0A1B53EC112B00F0D6FC37
:104CF000BDEC0A8B05B041EC100B30BDFFE753EC67
:104D00001A2B51EC180B00F095FB53EC1C2B00F008
:104D1000B3F853EC192B00F08DFB9DED0A1B53ECFF
:104D2000112B00F0A9F8E3E74C1000000000000090
:104D3000495555555555C5BF000000000000E03FDE
:104D400010B553EC102B51EC100B00F095F841EC22
:104D5000100B10BD10B553EC112B51EC100B00F0E3
:104D60008BF841EC100B10BD9FED050B10B553EC0B
:104D7000102B51EC100B00F033F941EC100B10BD6F
:104D800000000000000000009FED050B10B553EC83
:104D9000102B51EC100B00F04DFB41EC100B10BD33
:104DA000000000000000001010B541EC100BFFF7F0
:104DB00073F851EC100B10BD82B0CDE9000121F069
:104DC000004001909DED000B02B051EC100B7047BC
:104DD000FCF7BAFEFEF7AEFDFEF750FBFEF720FB38
:104DE000FEF7DAFAFEF79AFBFEF766FBFEF7F6FA35
:104DF000FEF7B6FBFBF722FBFEE781F000417047B0
:104E000080F00040704721F00041704720F00040E2
:104E10007047000021F00042A2F16052B2F5801FFD
:104E200001F0004328BFD2F17F6C0BD95FEA001C70
:104E300043EAC20242EB507018BF704728BF20F00F
:104E400001007047B2F5801FBCBF184670474FEA9B
:104E5000410C1CF5001F02D2084600F057BE70B589
:104E600000F092FB00000089FFF7F6BF4FF0004012
:104E7000A0F580007047000010B591EA030F48BF0D
:104E800083F0004300F1EA84841A71EB030C05D22D
:104E9000121943EB0C03001B61EB0C01DFF824E15A
:104EA0004FEA1154A4EB135C1EEA430F18BF9EEAAD
:104EB000445F73D023EA0E03DCF1200E21EA045193
:104EC00043F4801332D322FA0CFE10EB0E0023FAC7
:104ED0000CFE41EB0E01CCF1200E03FA0EFE10EB9E
:104EE0000E0051F10001B1F5801FCCF1200E32D23D
:104EF00001EB045112FA0EF2BDE8104058BF7047A2
:104F0000401C38BF5FEA420218BF7047002814BF38
:104F100020F0010041F100014FEA410313F5001FA9
:104F200038BF7047A1F1C04100F07CBB012A43EBC0
:104F30000302ACF1200CDCF11F0E32BF4FF0000E6B
:104F400023FA0CF310EB030041EB0451B4EB115FB7
:104F5000D0D0A1EB045101F5801149085FEA30007F
:104F600001EB04510ED350F1000038BF12FA0EFECF
:104F700008D1BDE81040C9E7401C38BF5FEA4202D3
:104F8000CAD1C3E7BDE810404FEA410313F5001F43
:104F900038BF7047A1F1C04100F044BB9EEA445FB6
:104FA00008D011EA5E0FBDE8104004BF01F00041D7
:104FB00000207047BDE8104070B500F0E5FA00BF72
:104FC00064FBBE3E0000E0FF491058BFC1F1404104
:104FD0005B1058BFC3F140438B42EFF30080704732
:104FE0002DE9C04130B4DFF8A0C23CEA111418BF6B
:104FF0003CEA131400F0EC8081EA03051CEA11146A
:1050000044EAD57418BF1CEA131500F0C780A4EB5E
:1050100005044FF0004545EAC12145EAC32341EAB2
:10502000505143EA525304F17F74994204F500341D
:105030004FEAC0204FEAC22208BF904200F09C8095
:105040004FEA13650FF24016765D4FEA134506FBF3
:1050500005F7C7F1807706FB07F74FEAD737A7FBBD
:1050600003687642C8F58038A7FB06CE38BFA8F1A2
:10507000010807FB08E64FF0000EA6FB028CE6FBDA
:1050800003CEDCF1000CCEF1004E38BFAEF1010EC4
:10509000A6FB0C584FF000074FF00005E6FB0E870B
:1050A000A1FB08C6A0FB07CE16EB0E0645F10005D6
:1050B000E1FB076515F1E04E7EBFA4F580345FEAA1
:1050C00046066D4116F1800745F100054FEA1727A6
:1050D0004FEA066647EA0567A6F1DE46B6F1805F4D
:1050E0004FEA15251FD9384624F0010C05EBC47191
:1050F000BCF1FE6F01EB0C1102D8F0BCBDE80081E1
:1051000024425CBF01F5801E9EEAC47F02D4F0BC3D
:10511000BDE80081244238D4F0BCA1F1C041BDE813
:10512000004100F07FBA4FEAD22242EA43524FEAEE
:10513000D323A7FB02864FEAD02040EA415007FB69
:1051400003661EEA0E0F4FEAD12105FB026658BF27
:10515000A6EB0056B6EB00564FEA520E4EEAC37E5F
:1051600018EB0E0E56EB530EBDD518EB02085E4140
:105170007F1C55F10005B6E74FF480154FF000078E
:105180004FF000064FF00008ADE7F0BC4FF0000014
:1051900001F1C04101F00041BDE8008111EA0C1F9E
:1051A0000CEA131500D00CE013EA0C1F00F0258068
:1051B0004FF00000F0BC81EA030101F00041BDE8BE
:1051C0000081F0BCBDE8004181EA030100F02ABA89
:1051D000F0BCBDE8004170B500F0D6F9097EFC3E98
:1051E00000F007B881EA03014FF0000001F0004130
:1051F000704781EA030100F015BAF0BCBDE8004138
:105200004FF0000021497047FFFDFBF9F7F5F4F27C
:10521000F0EEEDEBE9E8E6E4E3E1E0DEDDDBDAD851
:10522000D7D5D4D3D1D0CFCDCCCBCAC8C7C6C5C4AF
:10523000C2C1C0BFBEBDBCBBBAB9B8B7B6B5B4B3C6
:10524000B2B1B0AFAEADACABAAA9A8A8A7A6A5A4B1
:10525000A3A3A2A1A09F9F9E9D9C9C9B9A99999875
:105260009797969595949393929191908F8F8E8E18
:105270008D8C8C8B8B8A89898888878786858584A5
:1052800084838382828181800000FF070000F87F91
:1052900051EA030C17D41CF5801F58BFBCF5801FC2
:1052A00000F10680994218BF704708BF90427047CE
:1052B00007D711F5801F58BF13F5801F19D49942E5
:1052C0007047894270471CF5801F08D5BCF5801FC8
:1052D000F7D58B4218BF704708BF824270474FF422
:1052E000001C1CEB410F38BF1CEB430F01D28B425B
:1052F000704770B500F048F9922449004FF0005112
:105300004FF08053FFF760BE4FEA41034FEA53531B
:10531000A3F58063D3F11E03C8BFD3F1210C0CDDCC
:105320004FF0004242EAC12242EA505232FA03FCF4
:105330008CEAE17CACEBE1707047102BC4BF00201D
:10534000704703F5787CBCF1FF3F04D06FF000425A
:1053500082EA2100704770B500F016F94992248066
:1053600000207047F2E710F0004248BF4042B0FA18
:1053700080F310FA03F10AD0C3F11D0303F5806333
:105380004FEA415002EB035202EBD12170474FF03C
:1053900000007047B0FA80F310FA03F10AD0C3F1AD
:1053A0001D0303F580634FEA41504FEA035202EBBD
:1053B000D12170474FF000007047000051EA030C04
:1053C00017D41CF5801F58BFBCF5801F00F1068064
:1053D000994218BF704708BF9042704707D711F530
:1053E000801F58BF13F5801F19D499427047894216
:1053F00070471CF5801F08D5BCF5801FF7D58B4280
:1054000018BF704708BF824270474FF4001C1CEB66
:10541000410F38BF1CEB430F01D28B42704770B570
:1054200000F0B2F8922449004FF000514FF0805341
:10543000FFF7CABDDFF848C170B51CEA111E1EBFD8
:105440001CEA13159EEA0C0F95EA0C0F00F06F8012
:1054500081EA030423EA4C134EEAD47E21EA4C117C
:1054600041F4801143F48013AE44A1FB024CA0FB35
:105470000365AEF17F7E361955EB0C05A1FB034C9D
:105480004CF10003A0FB021C16EB0C06654153F126
:105490000003094218BF46F0010613F4007F0BD148
:1054A0004FEA03314FEA0530340341EA155140EA2F
:1054B00016506FF003020AE04FEAC3214FEAC520FD
:1054C000F40241EA555140EA56506FF0020202EBF5
:1054D0002E4201EB025585EACE710AD05FEA440CF8
:1054E00018BF24F0004450F1000041F1000120EA0F
:1054F000D47040F2FE7C624500D270BDA84214BF59
:105500004FF080444FF04044002E08BF0024BEF10D
:10551000806FA8BFA1F1C041BDE8704080F28280D9
:105520004FF0000001F1C04101F0004170479EEAD8
:105530000C0F0CEA131518BF95EA0C0F06D04FF0AC
:10554000000081EA030E0EF0004170BD00F01CF86F
:105550008900013E00F007B800F009B84FEA430C9B
:105560005FEA5C5C08D081EA030100F05BB84FEAB7
:10557000410C5FEA5C5CF6D14FF0000001497047D6
:105580000000FF070000F87F0EF1020E2EF0030E60
:105590005EF8046B364205D4012A43EB030515F58A
:1055A000001F12D8012841EB010C1CF5001F0CD87C
:1055B0000ED14FEAD17C15F5001F0CEB4C0C0CF111
:1055C000020C08BF4CEBD37C04E04FF0080C01E068
:1055D0004FEAD37C0CEB4C0526FA05F606F00706DD
:1055E000B6F1040C06D20EEB860CBDE870404CF010
:1055F000010C6047DFE80CF0090B02024FF000419C
:105600004FF00000A1F5002170BD19461046012899
:1056100051EB010418BFD4F5001484BF002001F041
:10562000004170BD0808A0F500114FEA3101704734
:1056300053EA010C17D41CF5801F58BFBCF5801F1E
:1056400000F106808B4218BF704708BF8242704746
:1056500007D713F5801F58BF11F5801F19D48B424F
:1056600070479B4270471CF5801F08D5BCF5801F12
:10567000F7D5994218BF704708BF904270474FF462
:10568000001C1CEB430F38BF1CEB410F01D29942A9
:1056900070470FB40CBC03BCFFF7C1BE91EA030F07
:1056A00010B581F000413FF5EFAB83F0004300F00F
:1056B000D5B800002DE9F04101F5801CBCF5001FB4
:1056C000C0F2A9804FEA115C21EA0C510CF1FD0CEB
:1056D00041F480115FEA5C0C0CF5C07C01D3400002
:1056E000494130A4890241EA905187028E0E0A0C8A
:1056F000A45D04FB04F602FB06F6C6F14046A4FBDB
:105700000662F60D46EA422606FB06F4A4FB0123D8
:105710005242C3F1404338BF5B1EA6FB0242002445
:10572000E6FB0324D20B42EA4446A6FB0623A1FB78
:1057300002E2A3FB07E4E3FB61426442C2F1404E94
:1057400038BFAEF1010EA6FB04234FF00002E6FBCA
:105750000E32A2FB03463400E2FB6264A1FB06E6C4
:10576000A4FB07E8E4FB61687642C8F1405838BF03
:10577000A8F10108A2FB06E4A3FB08E5E2FB6854DC
:10578000A1FB05E6A7FB04E8E1FB648618F1200510
:1057900056F10006A809A8F11B08B10908F03F0856
:1057A000B8F10A0F40EA86601CD901EB0C51BDE844
:1057B000F08100BFFCF5EEE8E2DDD8D3CFCBC7C364
:1057C000C0BDB9B6B4B1AEACA9A7A5A3A19F9D9B1E
:1057D0009A9896959392908F8D8C8B8988878685E1
:1057E00084838281A0FB006800FB01F208EB420881
:1057F000B8EB872807D5341858EB0104D5D5401CE1
:1058000051F10001D1E7341A78EB0104CDD4401EE8
:1058100071F10001C9E75FEA4C0C5FEA9C5C0DD1B5
:1058200005D34FF0000001F00041BDE8F081BDE874
:10583000F04170B5FFF7A8FE6DDBFFBEBDE8F0419B
:105840004FF00000004970470000F87F10B591EA62
:10585000030F48BF83F000433FF516AB841A71EB8A
:10586000030C07D212198CF0004C43EB0C03001B05
:1058700061EB0C01DFF8A4E14FEA1154A4EB135CD7
:105880001EEA430F18BF9EEA445F00F0B08023EA8F
:105890006E03524221EA0451C3EB6E0338BF5B1E14
:1058A000DCF1200E25D322FA0CFE10EB0E0043FA99
:1058B0000CFE41EB0E01CCF1200E03FA0EFE10EBB4
:1058C0000E0051F10001CCF1200E29D412FA0EF293
:1058D00001EB0451BDE8104058BF7047401C1CBF8D
:1058E000B2F1004F704700280CBF491C20F00100A6
:1058F000704712EB020E43EB030218BF4FF0010E8C
:105900004EEA4202ACF1200CDCF11E0E54D943FAEF
:105910000CFE10EB0E0051F1FF31CCF11E0ED5D56F
:105920000EF1010E12FA0EFE404141EB010101EBB6
:10593000445C5FEA5C5C10D910EBDE7001EB045153
:1059400038BFBEF1004FBDE8104018BF70470028B7
:105950000CBF491C20F00100704730D24FEAD42C14
:1059600011F5001124F400641BD0B1FA81F20B3A56
:10597000A41AA41ED2F12003914030FA03F3194374
:10598000904001EBCC71002C01EB0451BDE81040BC
:10599000A8BF704701F1C0414FF0000001F0004185
:1059A0007047B0FA80F310FA03F100D110BDE41A89
:1059B000173C4805C90AE4E701EB045110BD491042
:1059C00001EB0451BDE810404FEA300002E04FF017
:1059D000000170474A0008BF0042F8D0B2F5001F2E
:1059E00028BF704701F000414FF0000070479EEA69
:1059F000445F07D011EA5E0FBDE8104004BF0021EC
:105A000000207047BDE8104070B5FFF7BDFD00BF36
:105A100040DFF63E83F00041104670470000E0FF93
:105A200043004FEAD30C4FEA3C0C43401FBF4007F2
:105A30000CF1605113F0FE4F70471CF0006F03D162
:105A400000200CF0004170470CF0004343EA507016
:105A500010B540EACC0000F00EF800BF0000009244
:105A60004FEA0001FFF7DEBD4FF000414FF00000AC
:105A7000A1F5002170470EF1020E2EF0030E5EF824
:105A8000044B244204D44FEA4102B2F17F4F11D8B3
:105A90004FEA4003B3F17F4F0CD80ED14FEAD07CD0
:105AA000B2F17F4F0CEB4C0C0CF1020C08BF4CEB2D
:105AB000D17C04E04FF0080C01E04FEAD17C0CEB04
:105AC0004C0324FA03F404F00704B4F1040C06D2E6
:105AD0000EEB840CBDE810404CF0010C6047DFE891
:105AE0000CF0070802024FF00040A0F5800010BD46
:105AF0000846420018BFD2F1807288BF00F0004013
:105B000010BD4FF04070E1EE100A7047FF2141EAEE
:105B1000D050C00570470006101600061016000091
:105B2000000000000000010203040607080900004D
:105B300000000102030400004FBB610567ACDD3FBC
:105B4000182D4454FB21E93F9BF681D20B73EF3FA4
:105B5000182D4454FB21F93FE2652F227F2B7A3C1C
:105B6000075C143326A6813CBDCBF07A8807703CD5
:105B7000075C143326A6913CC4EB98999999C9BF48
:105B8000711623FEC671BCBF6D9A74AFF2B0B3BF7D
:105B90009AFDDE522DDEADBF2F6C6A2C44B4A2BF3D
:105BA0000D5555555555D53FFF8300922449C23FA9
:105BB0006E204CC5CD45B73F513DD0A0660DB13FDD
:105BC000EB0D76244B7BA93F11DA22E33AAD903FEF
:105BD0004C5555555555A53F7751C1166CC156BF0B
:105BE0009015CB19A001FA3EAD529C804F7E92BE1B
:105BF000C4B1B4BD9EEE213ED43888BEE9FAA8BD3A
:105C0000000000000000000000004054FB21F93FAC
:105C10003163621A61B4D03D0000601A61B4D03DB6
:105C20007370032E8A19A33B0000002E8A19A33B30
:105C3000C14920259A837B39000000000000000044
:105C40006E83F9A22915444ED15727FCC0DD34F5E7
:105C5000999562DB4190433CAB6351FE61C5BBDE6D
:105C60003A6E24B7E0D24D42EA2E49061C92D10981
:105C70001CEB1DFE3EA729B1F53582E88444BB2EFE
:105C800026709CE9417E5FB439D69139F43953834B
:105C90008B5F849C3B28F9BDFF97F81F0F9805DEAA
:105CA0008B112FEF1F6D0A5ACF7E366DB709CB27A8
:105CB000663F464F2DEA5F9EC7BA27757BF1E5EB3D
:105CC000F739073DEA92528AB15FFB6B085D8D1F81
:105CD000A6F810111111813FD561C119A0012ABF89
:105CE0007DFEB157E31DC73EEB9C2B8AE6E55ABE0D
:105CF0007CD5CF5A3AD9E53D185D00080000002058
:105D000050000000C4010008685D00085000002039
:105D100078140000E001000800000000010000000D
:105D200010000000000000000024F400000000004B
:105D3000000400040004000403030000000000004D
:105D40000000000000000000000000000000000053
:105D50000000000000000000000000000000000043
:085D600000000000000000003B
:040000050800018965
:00000001FF
