:020000040800F2
:10000000900E002029020008C529000825210008BB
:10001000B12200083D0400088937000800000000F4
:10002000000000000000000000000000D1300008C7
:100030005105000800000000152F00085F3100087E
:10004000430200084302000843020008430200087C
:10005000430200084302000843020008430200086C
:10006000430200084302000843020008430200085C
:10007000430200084302000843020008430200084C
:10008000430200084302000843020008430200083C
:10009000410400084302000843020008430200082C
:1000A000430200084302000843020008430200081C
:1000B0000932000843020008430200084302000816
:1000C00043020008430200084302000843020008FC
:1000D0004302000865370008430200084302000895
:1000E00043020008430200084302000843020008DC
:1000F00043020008430200084302000843020008CC
:1001000043020008430200084302000843020008BB
:1001100043020008430200084302000843020008AB
:100120004302000843020008A1040008430200083B
:100130004302000800000000000000004302000825
:100140004D0400084302000843020008430200086F
:10015000430200084302000843020008430200086B
:10016000430200084302000843020008430200085B
:1001700043020008430200080000000000000000E5
:10018000430200084302000800F002F800F03CF8C7
:100190000AA090E8000C82448344AAF10107DA45E2
:1001A00001D100F031F8AFF2090EBAE80F0013F0F8
:1001B000010F18BFFB1A43F001031847BC470000AA
:1001C000DC470000103A24BF78C878C1FAD852073B
:1001D00024BF30C830C144BF04680C6070470000C1
:1001E0000023002400250026103A28BF78C1FBD840
:1001F000520728BF30C148BF0B6070471FB504F0DD
:1002000076FB1FBD10B510BD00F0E3F81146FFF7F7
:10021000F5FF03F011FD00F001F903B4FFF7F2FF61
:1002200003BC00F005F90000094880470948004771
:10023000FEE7FEE7FEE7FEE7FEE7FEE7FEE7FEE796
:10024000FEE7FEE704480549054A064B70470000F3
:10025000F93100088901000890080020900E002064
:10026000900A0020900A002053EA020C00F06980F6
:100270002DE9F04B4FF00006002B1FBFB3FA83F5BA
:1002800003FA05F424FA05F65E4012BF1643B2FAEB
:1002900082F502FA05F4C5F120051EBF22FA05FC1D
:1002A00044EA0C04203556EA044C4FEA144418BFC3
:1002B000641C4FF000084FF00009904271EB030CF2
:1002C00039D3002919BFB1FA81F701FA07F6B0FA5C
:1002D00080F700FA07F6C7F120071EBF20FA07FCD7
:1002E00046EA0C062037B6FBF4FCA7EB0507103FE7
:1002F00007F01F0BCBF120060CFA0BFB2CFA06F6CD
:1003000044BFB3460026202FA4BF5E464FF0000B2B
:100310005BEA060C08BF4FF0010B19EB0B09ABFBB6
:10032000027C48EB0608C01B06FB02CC0BFB03CC8F
:1003300071EB0C01C1E70B46024641464846BDE859
:10034000F08B13B54FF000004FF00001AFF30080C9
:10035000BDE81C4070474FF0000200B513469446BC
:100360009646203922BFA0E80C50A0E80C50B1F10D
:100370002001BFF4F7AF090728BFA0E80C5048BF21
:100380000CC05DF804EB890028BF40F8042B08BFBF
:10039000704748BF20F8022B11F0804F18BF00F8BB
:1003A000012B704770477047704710B500F00CF88C
:1003B000006810BD10B5044600F006F8046010BDDA
:1003C000004870473008002000487047300800207F
:1003D00070477546FFF7F4FFAE4605006946534681
:1003E00020F00700854618B020B5FFF72BFFBDE8C9
:1003F00020404FF000064FF000074FF000084FF08C
:10040000000B21F00701AC46ACE8C009ACE8C0091C
:10041000ACE8C009ACE8C0098D46704710B5044689
:10042000AFF300802046BDE81040FFF7F6BE0000A5
:1004300001491820ABBEFEE726000200FEE70000DF
:10044000014800F0FAB900008C000020014800F0DB
:10045000F4B90000B400002010B504460F480E2285
:1004600000218AB0844201D1059100E0059201206B
:10047000039101910291CDE90802CDE906100091A6
:1004800004916946204600F0DDF8204600F014FC97
:100490000221204600F05FF80AB010BD8C00002059
:1004A000014800F097BC0000680100200168182393
:1004B000CAB2103AB2FBF3F2054B6FF30901032AFB
:1004C0009B5CC36500D9091D816508467047000023
:1004D0000249000810B5014600208B698A6A4FF076
:1004E000C07453B1B3F5005F15D072B1012A0CD0BE
:1004F000022A0AD0032A09D104E01AB1012A06D03F
:10050000022A03D1C96AC90100D5012010BDC96AF8
:10051000A142FAD010BD002AF7D0012AF2D0022A57
:10052000F3D0032AF3D010BD30B50468256825F454
:1005300080252560046863608368402B036803D0CE
:1005400099600068C26030BD9A600068C16030BDCB
:10055000704772B6FEE790F82020012A07D0022AE1
:1005600005D0416A41F48021416201207047006852
:1005700042690A43426100207047F0B590F820506C
:100580000468A468012D05D0022D03D0416A41F40E
:10059000802153E014F0406F01D1E5004BD5C4F346
:1005A0000164022C03D9416A41F4000146E00125AF
:1005B000A5401D608D684FF4C0739DB1CE68354372
:1005C0004E6845EAC605066803EB0417F5514FF47B
:1005D000C275076805EB04150E697E51097D012976
:1005E00005D009E00E88CD6845EA4655EBE701687D
:1005F0004E5946F480764E511179D2F805504FF499
:10060000C67641EA0525016806EB04168D5111787E
:10061000D2F801204FF4C47541EA0221026805EBCB
:1006200004155151006803EB0411425842F00102D5
:1006300042500020F0BD416A41F4001141620120A6
:10064000F0BD000010B590F82020012A07D0022A42
:1006500005D0416A41F480214162012010BD3B4830
:10066000D0F8002242F00102C0F80022D0F80022A7
:1006700022F47C52C0F80022D0F800224B6A42EAF1
:100680000322C0F800220A7D02F01F0301229A40D3
:10069000D0F81C329343C0F81C32CB69B3B9D0F800
:1006A0000C329343C0F80C328C894B6864F31F43BF
:1006B0004C6900EBC404C4F840320C890B6864F345
:1006C0001F434C6900EBC404C4F84432CB69012BCE
:1006D00016D1D0F80C321343C0F80C320C884B689A
:1006E00064F31F434C6900EBC404C4F840320C8926
:1006F000CB6864F31F434C6900EBC404C4F8443274
:100700008B69002BD0F804320ED01343C0F80432AA
:100710000B69002BD0F8143208D01343C0F8143200
:10072000096A012904D008E09343EFE79343F5E712
:10073000D0F81C121143C0F81C12D0F8001221F09E
:100740000101C0F80012002010BD0000006400404C
:10075000704730B590F82040012C05D0022C03D012
:10076000416A41F480215DE00468002955D0246984
:10077000A40754D04FF4D874056804EB01142D5924
:1007800015F00405956005682D594ED0ED085560AB
:1007900005682C5904F00204D4604FF4DA7405683B
:1007A00004EB01142D5905F00F05156105682D594D
:1007B000C5F30725956105682C59240C54614FF445
:1007C000DC72046802EB0112A4581C700468A4587F
:1007D000240A5C700468A458240C9C700468A25815
:1007E000120EDA704FF4DE72046802EB0112A458A4
:1007F0001C710468A458240A5C710468A458240C71
:100800009C710468A258120EDA71006881B1016906
:1008100041F020010161002030BDE468A8E7416A91
:1008200041F400114162012030BD6D0D1560AFE74C
:10083000C16841F02001C160EDE72DE9F05F054698
:10084000006800244669D0F804908768D0F80CB09E
:10085000D0F810A0D0F81880F10748D0F90714D0CC
:1008600001218160B80703D5284600F052FA0CE058
:10087000780702D54FF4006407E0380702D54FF43B
:10088000805402E0284600F043FAF80516D529689E
:100890004FF480708860B80503D5284600F03BFA15
:1008A0000CE0780502D544F4005407E0380502D581
:1008B00044F4804402E0284600F02CFAF80316D5F0
:1008C00029684FF480308860B80303D5284600F0CB
:1008D00024FA0CE0780302D544F4004407E038031E
:1008E00002D544F4803402E0284600F015FA3007BF
:1008F00007D55FEACB6004D52968102044F4007462
:10090000C86070074FF0080707D55FEA0B7004D581
:100910002868C760284600F09BF9B00706D528680C
:10092000C068800702D0284600F094F9700607D509
:100930005FEACA6004D52968102044F48064086125
:10094000B00607D55FEA0A7004D528680761284613
:1009500000F0AEF9F00606D528680069800702D0DD
:10096000284600F0A6F9B00308D55FEAC96005D5AE
:10097000296810204860284600F09CF9F00307D54C
:100980005FEA097004D528684760284600F0C6F978
:10099000300446D55FEA497040D5F00504D55FEADA
:1009A000C87001D044F00104B00504D55FEA887036
:1009B00001D544F00204700504D55FEA487001D502
:1009C00044F00404300529D518F0700F26D008F043
:1009D0007000402815D006DC102809D020280AD045
:1009E000302816D10AE050280ED0602811D10EE030
:1009F00044F008040DE044F010040AE044F0200440
:100A000007E044F0400404E044F0800401E044F4D2
:100A100080742868816921F070018161296804204F
:100A20004860002C05D0686A204368622846FFF7BA
:100A30008FFEBDE8F09F70B5040003D094F820004D
:100A400010B104E0012070BD204600F081F820685C
:100A5000016841F00101016000F02EFC0546052609
:100A600004E000F029FC401B0A2811D820684068E7
:100A7000C007F6D02068016821F00201016000F093
:100A80001BFC05460BE000F017FC401B0A2806D9AA
:100A9000606A40F40030606284F82060D2E7206829
:100AA00040688007EFD4207E0128206801683DD08F
:100AB00021F080010160607E01282068016838D043
:100AC00021F040010160A07E01282068016833D038
:100AD00021F020010160E07E0128206801682ED00D
:100AE00041F010010160207F01282068016829D0B1
:100AF00021F008010160607F01282068016824D08E
:100B000021F004010160D4E902010843D4E9041290
:100B1000114308436168491E08432168C8610020E9
:100B20006062012084F82000002070BD41F0800147
:100B3000C0E741F04001C5E741F02001CAE721F0DC
:100B40001001CFE741F00801D4E741F00401D9E7F3
:100B5000F0B587B0044614216846FFF7FCFB374B1D
:100B60003748DFF8D4E01968D4F800C0344A0225C9
:100B70000326092710300024491CF44524D11960AC
:100B8000012907D1016841F000710160006800F09F
:100B900000700590106840F001001060106802AB12
:100BA00000F0010005904FF4C050CDE9000583E846
:100BB000D0006946234800F07FFA00221146142035
:100BC00000F0E8FB142033E0DFF87CE0F44531D19D
:100BD000D0F800C04CF0806CC0F800C0D0F800C065
:100BE00001290CF0806CCDF814C0196007D10168A0
:100BF00041F000710160006800F00070059010681D
:100C000040F002001060106802AB00F00200059096
:100C10004FF44050CDE9000583E8D00069460B4809
:100C200000F04AFA00221146402000F0B3FB4020B9
:100C300000F0A2FB07B0F0BD0064004000000020FF
:100C400030380240000002400068004000040240CA
:100C50007047000070B504460F48104D104E844296
:100C600009D1288830800F4B2A4600210A48FFF717
:100C700070FD02F0EFF90C4884420BD128883080D7
:100C80000A4B064A00210848FFF763FDBDE87040A3
:100C900002F0E0B970BD00008C00002014080020B4
:100CA0001C0000202E000020B40000203600002090
:100CB000704770477047000070B5044690F82000F8
:100CC000012804D0606A40F40020606218E002202D
:100CD00084F820002068016821F00101016000F023
:100CE000EBFA05460EE000BF00F0E6FA401B0A28CA
:100CF00008D9606A40F400306062052084F8200062
:100D0000012070BD20684068C007EDD1606270BDF1
:100D100070477047704770477047704770472DE9BC
:100D2000F0410446876D00F0C7FA064694F8350096
:100D30000025022806D08020606584F83450012008
:100D4000BDE8F0812068016821F01601016020688B
:100D5000416921F080014161206C08B9A06C20B18B
:100D60002068016821F0080101602068016821F015
:100D7000010101600CE000F09FFA801B052807D9F3
:100D800020206065032084F8350084F83450D7E7CC
:100D900020680068C007EED194F85C103F208840BE
:100DA000B860012084F8350084F834500020C7E78B
:100DB00090F83510022903D0802141650120704749
:100DC000052180F835100068016821F001010160FB
:100DD000002070472DE9F84304464FF00009CDF894
:100DE000009063484FF41651A56D0068B0FBF1F711
:100DF0002E6894F85C10082000FA01F131420FD0FF
:100E000021680A6852070BD50A6822F004020A60BA
:100E100094F85C108840A860606D40F00100606547
:100E200094F85C104FF0010808FA01F0304208D045
:100E300021684969090604D5A860606D40F0020088
:100E4000606594F85C1004208840304208D0216826
:100E50000968890704D5A860606D40F004006065EA
:100E600094F85C1010208840304218D0216809683E
:100E7000090714D5A86020680168490304D50068F3
:100E8000000308D5A16C07E00168C90503D4016817
:100E900021F008010160216C09B12046884794F8CF
:100EA0005C1020208840304231D021680968C90692
:100EB0002DD5A86094F8350005282068016806D073
:100EC000490347D5006800031DD4616C1CE021F084
:100ED000160101602068416921F080014161206CA8
:100EE00008B9A06C20B12068016821F008010160F8
:100EF00094F85C103F208840A86084F8358084F81E
:100F00003490216D1FE0E16B09B120468847606D88
:100F100000282BD0606DC00714D0052084F8350060
:100F20002068016821F0010101600098401C0090D8
:100F3000B84203D820680068C007F6D184F835802D
:100F400084F83490E16C002910D001B02046BDE84F
:100F5000F04308470168C905D5D4016821F01001A4
:100F6000016084F8358084F83490CCE7BDE8F883DC
:100F7000180000202DE9F041044600F09DF90646D6
:100F80005CB1022084F83500002584F834502068D4
:100F9000016821F0010101600DE00120BDE8F08150
:100FA00000F08AF9801B052805D920206065032000
:100FB00084F83500F2E720680068C007F0D12268A5
:100FC000116820480140D4E901031843D4E90336ED
:100FD0003343184363691843A3691843E36918430B
:100FE000236A18430843616A042903D1D4E90B1327
:100FF00019430843106020684069666A20F00701C1
:1010000030460E43012704280CD1A06A0643E06A4B
:1010100040B12046FFF75EFA20B14020606584F8B9
:101020003570BAE7206846612046FFF73FFA94F82A
:101030005C203F2191408160656584F83570002017
:10104000ACE700003F8010F02DE9F0410446866DCA
:1010500090F83400002501280DD0012084F83400D8
:1010600094F835700020012F07D084F83400022551
:101070002846BDE8F0810220FBE7022784F835709E
:1010800060652046FFF750FA94F85C103F208840D6
:10109000B0602068016841F016010160206C20B149
:1010A0002068016841F0080101602068016841F092
:1010B00001010160DCE700002DE9F84FDFF8BCA179
:1010C000002201250AF1040B03264FF00F090BF152
:1010D000040E00BF0B6805FA02F42340A34270D14E
:1010E0000F7907F00307012F01D0022F16D187686F
:1010F0004FEA420806FA08FC27EA0C07D1F80CC0B0
:101100000CFA08FC4CEA070CC0F808C04768A74373
:101110000C79C4F3001494403C4344600C79E443DC
:10112000A4070AD0C4684FEA420C06FA0CF7BC4385
:101130008F6807FA0CF72743C7600C7904F00304A3
:10114000022C12D1D40800EB840CDCF820405707A5
:10115000FF0E09FA07F824EA0804D1F8108008FA0B
:1011600007F848EA0408CCF8208004684FEA420CEB
:1011700006FA0CF7BC430F7907F0030707FA0CF7E0
:10118000274307604C6814F4403F70D03C4C2768FC
:1011900047F480472760246822F0030704F4804462
:1011A0000094384C07EB040CDCF8084897074FEA2A
:1011B000177809FA08F7BC43334FB84202D1002729
:1011C00024E054E0314FB84201D101271EE0304FF6
:1011D000B84201D1022719E02E4FB84201D10327AE
:1011E00014E02D4FB84201D104270FE02B4FB84235
:1011F00001D105270AE02A4FB84201D1062705E0B0
:10120000284FB84201D1072700E0082707FA08F75E
:101210002743CCF80878DAF800405746D1F804C0E4
:101220009C435FEACC3C00D51C433C60DBF80040AB
:101230005F46D1F804C09C435FEA8C3C00D51C4358
:101240003C60DEF800407746D1F804C09C435FEA7A
:10125000CC2C00D51C433C60084F0C373C68D1F8BF
:1012600004C09C435FEA8C2C00D51C433C60521C9C
:10127000102AFFF42FAFBDE8F88F0000003C0140BA
:1012800044380240003001400000024000040240A7
:1012900000080240000C024000100240001402400E
:1012A00000180240001C0240426921EA02030A4081
:1012B00043EA02418161704701488068704700003D
:1012C0000C00002002488168027811448160704758
:1012D0000C0000200B4810B5016841F4007101605A
:1012E000016841F480610160016841F4807101602E
:1012F000032000F06FF80F2000F006F800F024F84B
:10130000002010BD003C024070B50D4D04464FF466
:101310007A712878B1FBF0F00A490968B1FBF0F066
:1013200000F00AFB48B9102C07D200222146501EBB
:1013300000F030F800206C6070BD012070BD00002E
:101340000C000020180000200A4808B5016841F48C
:1013500080410160006800F4804000900548001F53
:10136000016841F080510160006800F080500090F9
:1013700008BD000044380240002809DB00F01F02CD
:10138000012191404009800000F1E020C0F80011E7
:1013900070470000F0B40E4B1B680C46C3F30223E9
:1013A000C3F10705042D00D90425191D072901D211
:1013B000002300E0DB1E012606FA05F1491E21404C
:1013C00099409E40761E16403143F0BC02F0DDB9D4
:1013D0000CED00E0064900F0070208684FF6FF0335
:1013E000184040EA0220034A10430860704700009A
:1013F0000CED00E00000FA052DE9F0470E4605006F
:1014000065D0DFF81481D8F80000F7B200F00700CB
:10141000B04207D288F80070D8F8000000F007004A
:10142000B04254D128683D4C810712D5400703D5FE
:10143000206840F4E05020602878000703D5206839
:1014400040F4604020602068A96820F0F000084364
:1014500020602878C0072DD03049686808390128F5
:1014600012D0022813D0032811D009688907002957
:101470002DDA216821F0030101432160FFF71CFFF1
:10148000814641F2883A0EE009688903EFE709686E
:101490008901ECE7FFF710FFA0EB0901514502D9E4
:1014A0000320BDE8F0872068696800F00C00B0EB0D
:1014B000810FEFD1D8F80010404601F00701B1428A
:1014C00007D90770006800F00700B04201D0012082
:1014D000E7E72878400705D52068E96820F4E05060
:1014E000084320602878000706D52068296920F481
:1014F000604040EAC100206000F038F82168084AE6
:10150000C1F30311515CC8400649086006480068F1
:10151000FFF7FAFE0020C4E7003C02400838024012
:101520000A4900081800002010000020044805495E
:1015300000680968044AC1F38221515CC8407047C1
:1015400018000020083802401A49000804480549DC
:1015500000680968044AC1F34231515CC8407047D1
:1015600018000020083802401A490008154810B534
:10157000006810F00C02144813D04110042A0FD058
:10158000082A0ED10F4C241F2268236802F03F0264
:101590005B0207D52068C0F38810A0FB010106E0BC
:1015A000084610BD2168C1F38811A1FB000100238A
:1015B000FEF75AFE2168C1F30141491C4900B0FB06
:1015C000F1F010BD083802400024F4002DE9F84F76
:1015D00004006ED02078DFF84C93C007A9F1040511
:1015E0004AD009F104000168C1F38101012908D042
:1015F0000068C0F3810002280AD1D9F80000400237
:1016000006D52868800337D560680028E1D033E02C
:101610006068B0F5803F10D0B0F5A02F286810D0DA
:1016200020F480302860286820F4802028606068DA
:10163000A8B1FFF741FE06460DE0286840F480306F
:10164000F4E740F480202860F7E700BFFFF734FE9E
:10165000801B642873D828688003F7D50CE0FFF757
:101660002BFE064605E000BFFFF726FE801B642820
:10167000F0D828688003F7D42078DFF8AC828007A0
:101680004FF0000A3ED5A748001D016811F00C0F6D
:1016900008D00068C0F3810002280BD1D9F80000FF
:1016A000400207D42868800716D5E068012800D1D9
:1016B00012E033E1E068B8B10120C8F80000FFF79C
:1016C000FBFD064605E000BFFFF7F6FD801B022884
:1016D000C0D828688007F7D52868216920F0F8006D
:1016E00040EAC10028600DE0C8F800A0FFF7E4FD63
:1016F000064604E0FFF7E0FD801B02281FD828689B
:101700008007F7D42078000722D5864F8748616983
:10171000703771B101210160FFF7CEFD064604E08C
:10172000FFF7CAFD801B022809D838688007F7D563
:101730000EE0C0F800A0FFF7BFFD064605E082E01E
:10174000FFF7BAFD801B02287DD838688007F7D4E0
:101750002078400768D5DFF8CCB100270BF13C0BAF
:10176000DBF80000C0000BD4DBF8001041F0805122
:10177000CBF80010DBF80000012700F0805000904B
:101780006B4E3068C00510D4306840F48070306013
:10179000FFF792FD009005E0FFF78EFD0099401ADB
:1017A000022850D83068C005F6D55E4EA0686C3669
:1017B00001280FD00528306810D020F001003060DB
:1017C000306820F004003060A068B8B1FFF774FD05
:1017D00000900FE0306840F00100F4E740F00400B2
:1017E0003060F7E7FFF768FD0099411A41F2883051
:1017F000814266D830688007F4D50EE0FFF75CFDC3
:10180000009007E0FFF758FD0099411A41F2883037
:10181000814256D830688007F4D42FB1DBF800102D
:1018200021F08051CBF80010A069C8B33D49091DD3
:101830000968C1F3810102294AD00228504607D025
:10184000C8F8600000E03CE0FFF736FD04463BE0EE
:101850004746C8F86000FFF72FFD064605E000BFC9
:10186000FFF72AFD801B02282BD828688001F7D4B7
:10187000D4E907010843A16A2E4A490802EB014155
:10188000626A41EA8211084394F82C1040EA01612F
:10189000C9F8001001203866FFF70EFD044606E087
:1018A0003EE000BFFFF708FD001B022809D82868AA
:1018B0008001F7D534E000BFFFF7FEFC001B0228D3
:1018C00002D90320BDE8F88F28688001F4D427E00E
:1018D0000128F7D0D9F80000E26900F480019142B4
:1018E0001CD1226A00F03F01914217D147F6C07126
:1018F000626A0140B1EB821F10D1A26A4FF0FF3340
:1019000000F4403103EB5202B1EB024F06D194F8E0
:101910002C1000F07060B0EB016F01D00120D1E716
:101920000020CFE70438024000004742800E4742C3
:10193000007000400000FFFF10B5401EB0F1807F36
:1019400001D3012010BD4FF0E02460610F2160172A
:1019500001F01BFF0020A06107202061002010BDC6
:101960007047704770B590F83C20012A32D00124AE
:1019700080F83C40022280F83D2003685A689D6848
:1019800022F070060A6832435A60134B02689A428A
:1019900014D0B2F1804F11D0104B9A420ED0104BA0
:1019A0009A420BD00F4B9A4208D00F4B9A4205D067
:1019B0000E4B9A4202D00E4B9A4204D1496825F050
:1019C00080031943916080F83D40002180F83C106D
:1019D000084670BD022070BD0000014000040040B8
:1019E00000080040000C004000040140004001409D
:1019F0000018004010B5040003D094F83D0010B169
:101A000007E0012010BD002084F83C00204600F0D3
:101A10001FF8022084F83D00211D206801F0FAFB28
:101A2000012084F8460084F83E0084F83F0084F8E2
:101A3000400084F8410084F8420084F8430084F8B0
:101A4000440084F8450084F83D00002010BD0000EB
:101A500008B50068B0F1804F12D10A48016841F022
:101A6000010101600068002200F0010000901146B1
:101A70001C20FFF78FFCBDE808401C20FFF77CBC52
:101A800008BD00004038024090F83D10012901D007
:101A900001207047022180F83D100168CA6842F0B9
:101AA0000102CA6000681149884214D0B0F1804F29
:101AB00011D00F4988420ED00E4988420BD00E49F2
:101AC000884208D00D49884205D00D49884202D08D
:101AD0000C49884204D1816801F00701062903D02E
:101AE000016841F0010101600020704700000140E1
:101AF0000004004000080040000C004000040140C9
:101B0000004001400018004070B5044690F83C00C9
:101B10000025012817D0012684F83C60022084F8B3
:101B20003D002068826822F0770222F47F428260C2
:101B30000868502838D00DDC20284FD005DC90B341
:101B4000102811D14AE0022070BD302846D040282C
:101B50000AD13BE060282FD070280DD0B0F5805F0F
:101B600003D0B0F5005F12D0012584F83D6000205D
:101B700084F83C00284670BDCB68D1E9012120687B
:101B800001F0ACFB2068816841F0770109E0CB6887
:101B9000D1E90121206801F0A1FB2068816841F4AE
:101BA00080418160E1E719E0CA684968206801F076
:101BB000A7FB5021206806E0CA684968206801F048
:101BC000B0FB6021206801F093FBCEE7CA6849684A
:101BD000206801F095FB40212068F4E72268014667
:101BE0001046F0E7704770B50446006801694FF091
:101BF0000005C943890715D4C168C943890711D4B1
:101C0000E91E016101202077206880698007204655
:101C100002D0FFF7E7FF04E000F098F8204600F05C
:101C200096F8257720680169C943490717D4C16828
:101C3000C943490713D46FF00401016102202077E2
:101C40002068806910F4407F204602D0FFF7CAFF69
:101C500004E000F07BF8204600F079F82577206852
:101C60000169C943090716D4C168C943090712D4D9
:101C70006FF008010161042020772068C0698007A7
:101C8000204602D0FFF7AEFF04E000F05FF82046E8
:101C900000F05DF8257720680169C943C90617D4AB
:101CA000C168C943C90613D46FF01001016108204F
:101CB00020772068C06910F4407F204602D0FFF7EB
:101CC00091FF04E000F042F8204600F040F825774C
:101CD00020680169C943C90708D1C168C943C90758
:101CE00004D1891E0161204600F032F820680169A4
:101CF000C943090609D4C168C943090605D46FF070
:101D0000800101612046FFF72BFE20680169C9436D
:101D1000490609D4C168C943490605D46FF040019A
:101D20000161204600F024F820680169C943890652
:101D30000BD4C168C943890607D46FF02001016143
:101D40002046BDE87040FFF70CBE70BD704770477D
:101D50000449884205D1044804490088088001F0FC
:101D6000F3BA7047DC000020140800201C0000209B
:101D70007047704770470000F8B50168044608686E
:101D8000CA684B6910F00F0F4FF0000559D003F0EF
:101D9000010602F49077374365D0C10705D0D1051D
:101DA00003D5216C41F001012164410705D5D90714
:101DB00003D0216C41F002012164810705D5D907C8
:101DC00003D0216C41F004012164010707D502F022
:101DD0002001314303D0216C41F008012164216CC2
:101DE00000293AD0800604D5900602D5204601F09D
:101DF0008BFB20684069216CC0F38010090700D478
:101E000060B3204601F04BFB20684069400621D5B5
:101E10002068143050E8001F21F0400140E8001213
:101E2000002AF5D1A06BA8B16C490165A06BFEF743
:101E3000BFFF002811D0A06B016D01B0BDE8F040DC
:101E4000084783060FD593060DD52046BDE8F84018
:101E500001F05ABB2046FFF78DFFF8BD2046FFF783
:101E600089FF2564F8BD266B2023012E79D1C60693
:101E700077D5D60675D50868486800904869400649
:101E800040D5A16B086840680004000CEAD0A28D20
:101E90008242E7D9E085C869B0F5807F2DD02068FF
:101EA0000C3050E8001F21F4807140E80012002A35
:101EB000F5D12068143050E8001F21F0010140E8FE
:101EC0000012002AF5D12068143050E8001F21F0DC
:101ED000400140E80012002AF5D184F83E30256325
:101EE00020680C3050E8001F21F0100140E800127B
:101EF000002AF5D1A06BFEF712FFA08DE18D401AEC
:101F000081B229E0A08DE18D401A81B2E08D0028D8
:101F1000A8D00029A6D020680C3050E8002F22F469
:101F2000907240E80026002EF5D12068143050E869
:101F3000002F22F0010240E80026002EF5D184F89F
:101F40003E30256320680C3050E8002F22F010024C
:101F500040E80023002BF5D12046FFF70AFFF8BD2B
:101F6000FFE705062BD5150629D594F83D00212855
:101F7000F5D1A068B0F5805F01D12069B0B1206AC9
:101F8000411C2162216800784860E08C401E0004FA
:101F9000000CE084E3D12068C16821F08001C160B9
:101FA0002068C16841F04001C160D8E7206A00881C
:101FB000C0F308004860206A801C2062E5E7400604
:101FC000CDD55006CBD5CA68204622F04002CA6063
:101FD00084F83D3000F0A5F8C1E70000A9330008FF
:101FE00070B5040004D094F83D00002510B106E05F
:101FF000012070BD84F83C50204600F023F82420D6
:1020000084F83D002068C16821F40051C160204679
:1020100001F0DAFA2068016921F490410161206839
:10202000416921F02A0141612068C16841F40051F1
:10203000C1602564202084F83D0084F83E00002023
:1020400070BD000070B586B0064614216846FEF7E4
:1020500082F923493068884240D12248002501682E
:1020600041F010010160006800F0100005901D486B
:102070001438016841F0010101600068694600F010
:10208000010005904FF4C06000900220CDE90105E9
:1020900003200390072004901348FFF70DF8144C19
:1020A000124820604FF00060C4E901054014C4E903
:1020B00003506561A561E561256220466562FEF712
:1020C00059FF08B1FEF745FAB463002211462520F6
:1020D000A663FFF75FF92520FFF74EF906B070BD44
:1020E00000100140443802400000024040640240B9
:1020F0006801002090F83E30202B0ED159B152B12A
:1021000090F83C30012B08D0012380F83C300023AC
:10211000036301F0DFBA0120704702207047704767
:1021200070477047FEE700000D4810B50B4901608D
:102130001021416000218160C1600161416101762F
:1021400041768176C17601774177FEF774FC0028ED
:1021500003D0BDE81040FEF7FCB910BD006400409C
:102160008C0000200D4810B50B4901601021416022
:1021700000218160C1600161416101764176817613
:10218000C17601774177FEF756FC002803D0BDE801
:102190001040FEF7DEB910BD00680040B40000201A
:1021A000094808B5016841F4800101600068002217
:1021B00000F48000009011463A20FFF7EBF8BDE8EC
:1021C00008403A20FFF7D8B8303802400D4808B52B
:1021D000016841F080010160016801F08001009117
:1021E000016841F002010160016801F00201009103
:1021F000016841F001010160006800F001000090F9
:1022000008BD00003038024010B586B000241648E2
:10221000009401940294039404944FF08041059437
:1022200001605321C0E9011440F2E731C0E9031411
:102230008461FFF7DFFB08B1FEF78BF94FF48050A4
:10224000009069460848FFF75FFC08B1FEF781F986
:10225000049404A904480594FFF784FB002801D0E6
:10226000FEF777F906B010BDDC0000200E4810B56F
:102270000C4901600D4941604FF48051816000219B
:102280004FF48062C0E903120C22C0E90521C1614C
:10229000FFF7A6FE002803D0BDE81040FEF759B9AD
:1022A00010BD00000010014024010020A0860100A4
:1022B000FEE700002DE9F04100262DED108B9FED8B
:1022C000FA9B9FEDFBBB9FEDFCCBFD4F9FEDFDAB64
:1022D0009FEDFE8B06EB061000EB461007EB80042B
:1022E000206B00287EDDB0EE4A0AF0EE6A0A01F0AB
:1022F0005FFA53EC182B51EC100B01F091FF53ECEB
:10230000192B01F08DFF94ED0C0A07EB860541ECCB
:102310001D0BB8EEC00AD5ED070A30EE600A10EECC
:10232000100A02F073FA53EC1D2B01F03DFF77D336
:10233000B0EE4ADAF0EE6ADAB0EE4D0AF0EE6D0A6F
:1023400001F036FA53EC1B2B51EC100B01F068FF37
:10235000B0EE491AF0EE691A53EC112B01F060FF50
:1023600094ED0C0AD5ED070A41EC1E0BB8EEC00A3D
:1023700030EE600A10EE100A02F048FA53EC1E2B01
:1023800002F04CF8D3D3B0EE4DEAF0EE6DEAB0EEC9
:102390004E0AF0EE6E0A01F00BFAB0EE48DAF0EEFB
:1023A00068DA53EC1D2B51EC100B01F039FF53ECA4
:1023B0001C2B01F035FF9FEDC71B53EC112B01F0D7
:1023C0002FFF94ED0C0AD5ED070A41EC1F0BB8EE78
:1023D000C00A30EE600A10EE100A02F017FA53EC51
:1023E0001F2B00E077E002F019F826D2B0EE4E0A7B
:1023F000F0EE6E0A01F0DCF953EC1D2B51EC100BE2
:1024000001F00EFF53EC1D2B01F00AFF41EC1D0BF8
:10241000E86902F0FBF953EC1D2B01F0A1FCF9E097
:10242000AAE000BF94ED0C0AB8EEC01AB8EEC00ADC
:1024300070EEC10A30EE800A6FE194ED0C0AD5ED22
:10244000070AB8EEC01AF4EEC10AF1EE10FA15D27E
:10245000B0EE4E0AF0EE6E0A01F0AAF953EC1D2B15
:1024600051EC100B01F0DCFE41EC1D0BE86902F0B1
:10247000CDF953EC1D2B01F073FC1BE0B8EEC00A44
:10248000F4EEC00AF1EE10FA79DDB0EE4E0AF0EE8D
:102490006E0A01F08DF953EC1D2B51EC100B01F07D
:1024A000BFFE41EC1D0BE86902F0B0F953EC1D2BA7
:1024B00002F0C2F801F022FC00EE900AC5ED070A16
:1024C00094ED0C0AB8EEC01AB8EEC00A70EEC10A5C
:1024D00030EE600A21E152DAB0EE4A0AF0EE6A0A02
:1024E00001F066F953EC182B51EC100B01F098FE3B
:1024F00053EC192B01F094FE94ED0C0A07EB8605C2
:1025000041EC1D0BB8EEC00AD5ED070A30EE600AAB
:1025100010EE100A02F07AF953EC1D2B01F044FE84
:102520002AD3B0EE4ADAF0EE6ADAB0EE4D0AF0EEF7
:102530006D0A01F03DF953EC1B2B51EC100B01F02F
:102540006FFEB0EE490AF0EE690A53EC102B01F071
:1025500067FE94ED0C0A41EC1E0BF8EEC00A95EDF7
:10256000070A30EEC00A10EE100A02F04FF953ECE1
:102570001E2B01F053FF03D2D5ED070A52E7CEE040
:10258000B0EE4DEAF0EE6DEAB0EE4E0AF0EE6E0AF5
:1025900001F00EF9B0EE48DAF0EE68DA53EC1D2BDC
:1025A00051EC100B01F03CFE53EC1C2B01F038FEFB
:1025B0009FED4A1B53EC112B01F032FE94ED0C0AF7
:1025C000D5ED070A41EC1F0BB8EEC00A30EE600AE9
:1025D00010EE100A02F01AF953EC1F2B01F0E4FD83
:1025E0001FD2B0EE4E0AF0EE6E0A01F0E1F853ECA5
:1025F0001D2B51EC100B01F013FE53EC1D2B01F0C1
:102600000FFE41EC1D0BE86902F000F953EC1D2BA5
:1026100002F012F801F072FB00EE900AC5ED070A15
:1026200000E794ED0C0AD5ED070AB8EEC01AF4EEF7
:10263000C10AF1EE10FA25D2B0EE4E0AF0EE6E0AA3
:1026400001F0B6F853EC1D2B51EC100B01F0E8FD36
:1026500041EC1D0BE86902F0D9F853EC1D2B01F099
:102660007FFB01F04BFB00EE100A85ED070AD4ED6D
:102670000C0AB8EEE01AF8EEE00A30EE410A30EE4D
:10268000200A4AE0B8EEC00AF4EEC00AF1EE10FAF1
:1026900045DDB0EE4E0AF0EE6E0A01F089F853EC1B
:1026A0001D2B51EC100B1DE0000000000000E03F6E
:1026B00000000000000000C0000000000000084012
:1026C000C801002000000000000000000000000021
:1026D00000000040000000000000D03F00000000AB
:1026E0000000D0BF01F09CFD41EC1D0BE86902F039
:1026F0008DF853EC1D2B01F09FFF01F0FFFA00EE67
:10270000100A85ED070AD4ED0C0AB8EEE01AF8EECF
:10271000E00A30EE410A30EEC00A84ED280A761C49
:10272000042EFFF6D7ADBDEC108BBDE8F0810000A4
:102730002DE9F04100262DED0E8B9FED938B9FED43
:1027400094CB9FED95AB9FED969B9FED97DB984DBE
:1027500006EB061000EB461005EB8004206B00280A
:102760007DDDB0EE4A0AF0EE6A0A01F021F853EC82
:10277000192B51EC100B01F053FD53EC182B01F009
:102780004FFD94ED0C0A05EB860741EC1B0BB8EEF0
:10279000C00AD7ED070A30EE600A10EE100A02F008
:1027A00035F853EC1B2B01F0FFFC57D3B0EE4ABABF
:1027B000F0EE6ABAB0EE4B0AF0EE6B0A00F0F8FFEA
:1027C00053EC1C2B51EC100B01F02AFDB0EE481A13
:1027D000F0EE681A53EC112B01F022FD94EDD00AB3
:1027E000D7ED070A41EC1E0BB8EEC00A30EE600AC6
:1027F00010EE100A02F00AF853EC1E2B01F00EFE48
:102800002CD3B0EE4B0AF0EE6B0A00F0D1FFB0EE25
:10281000491AF0EE691A53EC112B51EC100B01F030
:10282000FFFC53EC1D2B01F0FBFC9FED621B53ECF6
:10283000112B01F0F5FC94ED0C0AD7ED070A41ECE1
:102840001B0BB8EEC00A30EE600A10EE100A01F061
:10285000DDFF53EC1B2B01F0E1FD04D200E012E0A0
:1028600097ED030A05E097ED030AB1EE400A87ED04
:10287000030A84EDFD0A761C042EFFF669AFBDEC59
:102880000E8BBDE8F081F6DAB0EE4A0AF0EE6A0A85
:1028900000F08EFF53EC192B51EC100B01F0C0FC33
:1028A00053EC182B01F0BCFC94EDD00A05EB860725
:1028B00041EC1B0BB8EEC00AD7ED070A30EE600AF8
:1028C00010EE100A01F0A2FF53EC1B2B01F06CFC80
:1028D000C4D3B0EE4ABAF0EE6ABAB0EE4B0AF0EEEC
:1028E0006B0A00F065FF53EC1C2B51EC100B01F050
:1028F00097FCB0EE481AF0EE681A53EC112B01F079
:102900008FFC94EDD00AD7ED070A41EC1E0BB8EE10
:10291000C00A30EE600A10EE100A01F077FF53ECA7
:102920001E2B01F07BFD99D3B0EE4B0AF0EE6B0A43
:1029300000F03EFFB0EE491AF0EE691A53EC112B8D
:1029400051EC100B01F06CFC53EC1D2B01F068FCFA
:102950009FED1A1B53EC112B01F062FC94ED0C0A55
:10296000D7ED070A41EC1B0BB8EEC00A30EE600A47
:1029700010EE100A01F04AFF53EC1B2B01F014FC7F
:10298000BFF471AF6AE70000000000000000E03F04
:1029900000000000000000C0000000000000000077
:1029A000000000000000004000000000000008409F
:1029B000C8010020000000000000D03F000000001F
:1029C0000000D0BFFEE70000C0ED051A80ED0B3A15
:1029D00080ED062AC0ED082A80EC030A9FED060A66
:1029E00080ED030A80ED040A80ED070A80ED090AF4
:1029F00080ED0A0A704700000000000010B52DEDC0
:102A0000028B9FED548AB0EE483AF0EE482ADFED93
:102A1000528AF0EE481AB1EE040AB0EE682AB0EE1F
:102A2000681AF0EE680A4D48FFF7CEFF4B48B0EE4B
:102A3000483AF0EE482AB0EE682AF0EE481AB0EEB6
:102A4000681AF0EE680AB1EE040AC430FFF7BCFF62
:102A5000B0EE483AF0EE482AB0EE682AF0EE481A96
:102A6000B0EE681AF0EE680AB1EE040A3C48FFF7CF
:102A7000ABFF3B48B0EE483AF0EE482AB0EE682A89
:102A8000F0EE481AB0EE681AF0EE680AB1EE040AE9
:102A9000C430FFF799FFB0EE483AF0EE482AB0EEA6
:102AA000682AF0EE481AB0EE681AF0EE680AB1EE45
:102AB000040A2C48FFF788FF2A48B0EE483AF0EEA7
:102AC000482AB0EE682AF0EE481AB0EE681AF0EE26
:102AD000680AB1EE040AC430FFF776FFB0EE483A58
:102AE000F0EE482AB0EE682AF0EE481AB0EE681A06
:102AF000F0EE680AB1EE040A1B48FFF765FF1A48BA
:102B0000B0EE483AF0EE482AB0EE682AF0EE481AE5
:102B1000B0EE681AF0EE680AB1EE040AC430FFF7AE
:102B200053FF104800214038012280F8F813022397
:102B300080F8BC2480F88035032480F8444680F86F
:102B4000A41080F8682180F82C3280F8F042BDECA7
:102B5000028B10BD00409C45000000008C05002049
:102B600014070020080200209003002090F87A202B
:102B7000002A7DD190ED010AD0ED1D0AB8EEC00A01
:102B800070EEC00AC0ED080A90ED0A0AF4EEC00A21
:102B9000F1EE10FA01DD80ED080AD0ED080AB1EE81
:102BA000400AF4EEC00AF1EE10FA01D280ED080AF4
:102BB000D0ED080A9FED840AF5EEC00AF1EE10FA96
:102BC00008DD90ED0B1AF4EEC10AF1EE10FA01D215
:102BD00080ED080AD0ED080AF5EEC00AF1EE10FA11
:102BE00008D290ED0B1AF4EEC10AF1EE10FA01DDF5
:102BF00080ED080A90ED0C1AD0ED080A71EE201A4B
:102C0000C0ED0C1A90ED0D1AF4EEC11AF1EE10FAA7
:102C100001DD80ED0C1AD0ED0C1AB1EE411AF4EE84
:102C2000C11AF1EE10FA01D280ED0C1A90ED091ADA
:102C300030EEC11A80ED0E1AC0ED090AD0ED051A6A
:102C400090ED0C2A61EEA00AD0ED061A41EE820A40
:102C5000D0ED071A41EE810AC0ED0F0A90ED101A6F
:102C6000F4EEC10AF1EE10FA01DD80ED0F1A00E07A
:102C7000A9E0D0ED0F1AF1EE410AF4EEE01AF1EE00
:102C800010FA01D2C0ED0F0AB0F9002090ED0F1A32
:102C900000EE902AF8EEE00A31EE601A80ED141A88
:102CA000D0ED160AB4EEE01AF1EE10FA01DDC0ED37
:102CB000140A90ED141AF1EE600AB4EEE01AF1EE87
:102CC00010FA02D3F0EE410A01E0C0ED140AF5EE6D
:102CD000C00AF1EE10FA08DD90ED171AF4EEC10A01
:102CE000F1EE10FA01D280ED140AD0ED140AF5EEDF
:102CF000C00AF1EE10FA08D290ED171AF4EEC10AEC
:102D0000F1EE10FA01DD80ED140AD0ED180A90ED15
:102D1000140A30EE801A80ED181AD0ED190AB4EEBC
:102D2000E01AF1EE10FA01DDC0ED180A90ED181A64
:102D3000F1EE600AB4EEE01AF1EE10FA01D2C0ED45
:102D4000180AD0ED150A70EE600AC0ED1A0A80ED7F
:102D5000150A90ED111AD0ED181A21EE000A90ED27
:102D6000121A01EE210A90ED131A01EE200A80EDED
:102D70001B0AD0ED1C0AB4EEE00AF1EE10FA01DDF8
:102D8000C0ED1B0A90ED1B1AB1EE600AB4EEC01A3A
:102D9000F1EE10FA02D3B0EE410A01E080ED1B0A19
:102DA000BDEEC00A10F8783F10EE102A121201F89A
:102DB000132010ED030A0078BDEEC00A01EB4000BD
:102DC00010EE102A4270704700000000B0F9002099
:102DD000D0ED0E0A00EE102AB8EEC00A70EEC00A5E
:102DE000C0ED050A90ED070AF4EEC00AF1EE10FA04
:102DF00001DD80ED050AD0ED050AB1EE400AF4EEE2
:102E0000C00AF1EE10FA01D280ED050AD0ED050AF4
:102E10009FED3F0AF5EEC00AF1EE10FA08DD90EDE5
:102E2000081AF4EEC10AF1EE10FA01D280ED050A9B
:102E3000D0ED050AF5EEC00AF1EE10FA08D290EDD9
:102E4000081AF4EEC10AF1EE10FA01DD80ED050A70
:102E5000D0ED090A90ED050A30EE801A80ED091ACE
:102E6000D0ED0A0AB4EEE01AF1EE10FA01DDC0ED81
:102E7000090A90ED091AF1EE600AB4EEE01AF1EEDB
:102E800010FA01D2C0ED090AD0ED060A70EE600A10
:102E9000C0ED0B0A80ED060A90ED021AD0ED091A7A
:102EA00021EE000A90ED031A01EE210A90ED041ABA
:102EB00001EE200A80ED0C0AD0ED0D0AB4EEE00A16
:102EC000F1EE10FA01DDC0ED0C0A90ED0C1AB1EE36
:102ED000600AB4EEC01AF1EE10FA02D3B0EE410A65
:102EE00001E080ED0C0ABDEEC00A10F83C3F10EE88
:102EF000102A121201F8132010ED030A0078BDEE1B
:102F0000C00A01EB400010EE102A4270704700002A
:102F1000000000007047000010B504462DED048B42
:102F2000088842BA6280488840BA00B220808B8804
:102F30005BBAE3818979217388B1208A101A01B2C2
:102F4000606811F5805F0844606002DA00F50050A7
:102F500004E0B1F5805F02DDA0F5005060602282E0
:102F600060689FED188B9FED199B4FF4902100280E
:102F70000EDB90FBF1F201FB120001F0FDF853ECC7
:102F8000182B01F04DF953EC192B00F09DFF12E0C6
:102F9000404290FBF1F201FB120001F0EDF853EC1E
:102FA000182B01F03DF953EC192B00F08DFF53EC79
:102FB000182B01F069FA00F0A1FEA060BDEC048BB3
:102FC00010BD0000000000000080764000000000FE
:102FD0000000124100283AD00188C1F30A021C49BE
:102FE0000A8042788378D20842EA4312C2F30A0286
:102FF0004A808278C378920942EA8302037942EADE
:103000008322C2F30A028A8002794379520842EA93
:10301000C312C2F30A02CA80427992090A72427943
:10302000C2F301124A72C2884A8102898A814289A6
:10303000CA81027B0A74427B4A74827BCA82C27B49
:103040000A83008AA1F84A00012081F84C007047E9
:103050003E00002019480088A0F2012008282BD249
:10306000DFE800F004080D11171B20241349144851
:1030700012310CE0114912481231C43007E00F49F7
:103080001048123103E00D490E481231C43000F0EF
:103090005DB80A490C481A310CE008490A481A314F
:1030A000C43007E0054909481A3103E003490748DD
:1030B0001A31C430FFF730BF704700001C000020F9
:1030C000840500200C070020F40100207C03002070
:1030D0007047000000B587B04FF4007200920023E3
:1030E00008220492039302938DF814300A4606AB2B
:1030F0006946FDF742FA18B1FDF72BFA07B000BD9B
:1031000002210248FEF7D0F8F8E70000000802406C
:1031100000B587B040F2FF1200920023082204920B
:10312000039302938DF814300A4606AB6946FDF707
:1031300024FA18B1FDF70DFA07B000BD02210248CC
:10314000FEF7B2F8F8E70000000802404A8852BAD9
:1031500002808A8852BA8280897981707047FEF72E
:10316000B1B8000030B593B030216846FDF7F3F8F0
:1031700014210CA8FDF7EFF81D480025016841F067
:1031800080510160006800F080501190194801687A
:1031900041F4804101600068022400F480401190F5
:1031A00001200090000401908001CDE9064008AAAA
:1031B0000420A82182E813000B906846FEF706FA67
:1031C00008B172B6FEE70CA90F2081E831004FF478
:1031D000A0500F904FF48050109005210CA8FEF7DE
:1031E0000BF9002801D072B6FEE713B030BD000025
:1031F00040380240007000400248016841F470010C
:103200000160704788ED00E00148FEF7ECBC00006B
:10321000DC000020F0B50268254C264D264E274FD5
:10322000274B4FF0804CA04209D0604507D0A84200
:1032300005D0B04203D0B84201D0984204D122F068
:10324000700E4A6842EA0E02A0421BD0604519D0B7
:10325000A84217D0B04215D0B84213D0984211D02E
:10326000184DA8420ED0184DA8420BD0174DA842B9
:1032700008D0174DA84205D0164DA84202D0164DD1
:10328000A84203D122F44075CA682A434D6922F04E
:1032900080022A4302608A68C2620A688262A0428F
:1032A00001D0984201D10969016301214161F0BD5A
:1032B000000001400004004000080040000C0040F5
:1032C000000401400040014000440140004801402A
:1032D00000180040001C00400020004010B5846829
:1032E00042EA032224F47F440A432243826010BD51
:1032F000826822F070020A4342F007018160704741
:1033000010B5036A046A24F001040462846924F09D
:10331000F00444EA021423F00A020A4384610262C0
:1033200010BD10B5036A23F0100303628369046AB9
:1033300023F4704343EA023224F0A00343EA01116C
:103340008261016210BD000070B5FEF7B3FFFFF7A8
:10335000EFF9114E002400BF04EB041000EB441001
:1033600006EB800505F56F700C49FFF72FFD0B4943
:1033700005F12C000831FFF7F9FB641C042CEBDB92
:1033800006490748FFF7A6FEBDE870400349054817
:103390000831FFF7BDBE0000C80100201E0000205C
:1033A0008C000020B400002010B5806B0021C18586
:1033B000C184FEF7DFFC10BD70B5846B20684069E6
:1033C00094F83D10C0F3C0100025212904D118B194
:1033D000E584204600F08AF82068406994F83E10A1
:1033E000C0F38010222904D118B1E585204600F0F1
:1033F00056F8206C40F0100020642046FEF7BAFC1E
:1034000070BD10B50146806B09680968C9052FD4E5
:103410000021C18501680C3151E8002F22F480722F
:1034200041E80023002BF5D10168143151E8002F49
:1034300022F0010241E80023002BF5D1016814318C
:1034400051E8002F22F0400241E80023002BF5D183
:10345000202180F83E10016B012909D101680C314F
:1034600051E8002F22F0100241E80023002BF5D193
:10347000016B012902D0FEF752FE10BD818DFEF7CF
:1034800078FC10BD10B5806B016B012902D0FEF7EE
:1034900047FE10BD818D4908FEF76BFC10BD016829
:1034A0000C3151E8002F22F4907241E80023002BE8
:1034B000F5D10168143151E8002F22F0010241E8F2
:1034C0000023002BF5D1016B012909D101680C31D2
:1034D00051E8002F22F0100241E80023002BF5D123
:1034E000202180F83E1000210163704701680C31F3
:1034F00051E8002F22F0C00241E80023002BF5D153
:10350000202180F83D10704708B590F83E10222920
:1035100001D0022008BD82684FF480539A4201D145
:10352000016921B1816A9A421BD04AB10AE002685E
:10353000816A5268C2F308020A80816A891C08E025
:10354000026972B10268526802F07F020A70816AF1
:10355000491C8162C18D491E0904090CC18503D033
:1035600019E002685268F1E70168CA6822F0200297
:10357000CA600168CA6822F48072CA6001684A6938
:1035800022F001024A61202180F83E10016B0129DE
:1035900003D0FEF7C4FD002008BD002101630168CF
:1035A0000C3151E8002F22F0100241E80023002BDB
:1035B000F5D101680A68D20602D50A684968009107
:1035C000818DFEF7D6FBE6E770B504460068016919
:1035D000E26821F44051114301612169A068E26968
:1035E00008436169114308432168CA6849F20C63C2
:1035F0009A430243CA6020684169A26921F440717C
:103600001143416131492068884202D030498842E3
:1036100002D1FDF79BFF01E0FDF788FFE26900237F
:10362000192164253226B2F5004F626828D0A0FB2C
:103630000101930F9200FCF717FE0146B0FBF5F075
:103640006FF01802504301EB800006EB0010B0FB56
:10365000F5F000F0F002B1FBF5F002EB0012B1FB67
:10366000F5F06FF01803584301EB800006EB0010F3
:10367000B0FBF5F000F00F0021681044886070BDC9
:10368000A0FB010192185B41FCF7EEFD0146B0FB87
:10369000F5F00201B1FBF5F06FF01803584301EBB0
:1036A000800006EBC000B0FBF5F000F0F80002EB84
:1036B0004002B1FBF5F0584301EB800006EBC0007F
:1036C000B0FBF5F000F00700D6E700000010014065
:1036D0000014014038B581628285002513460446F6
:1036E0000564222084F83E00A26B1B48D063A26BC5
:1036F0001A481064A26B1A48D064A06B0A4605658C
:103700002168A06B091DFDF79FFC206801684068D7
:10371000009084F83C5020680C3050E8001F41F4C1
:10372000807140E80012002AF5D12068143050E87A
:10373000001F41F0010140E80012002AF5D1206885
:10374000143050E8001F41F0400140E80012002A08
:10375000F5D1002038BD000003340008853400088E
:10376000B933000810B50648FEF706FB12220549DA
:103770000348FEF7BFFCBDE810400248FFF72ABC33
:103780002401002004000020FEE70907090E00289C
:1037900004DB00F1E02080F80014704700F00F0017
:1037A00000F1E02080F8141D7047000000000000C8
:1037B00010B5B94A2DED020B2DED0C8B82B00F998F
:1037C00021F000409FEDB6CB90422CDBA0F140539E
:1037D0000E9AA3F17F631A430FD0B349884202DCEB
:1037E00016D10E98A0B19DED0E0B02B0BDEC0C8B66
:1037F00002B0BDE8104000F003BA0029C1BF9FED40
:10380000AC0B02B0BDEC0C8B02B0C8BF10BD16E013
:103810000120FCF7CFFD02B0BDEC0C8B02B0BDE87F
:10382000104000F0F9B9A44A9FEDA59B9FEDA6AB0F
:1038300090425EDAA6499FEDA8CB814208DBB0EE4C
:103840004C0AF0EE6C0A02B0BDEC0C8B02B010BD5D
:103850009DED0E0B53EC102B51EC100B00F0E0FC27
:1038600041EC180B9E480621B0EE480AF0EE680ABB
:10387000784400F049F953EC182B51EC100B00F090
:10388000CFFC41EC1B0B9748B0EE480AF0EE680AFB
:103890000421784400F038F953EC182B51EC100B4C
:1038A00000F0BEFC53EC192B00F05AFA41EC100B5F
:1038B00051EC1B0B53EC102B00F006FB41EC100BF2
:1038C00053EC102B9DED0E0B51EC100B00F0A8FCEF
:1038D00053EC1A2B00F0D8FD9DED0E1B53EC112B71
:1038E00000F0D2FD53EC1C2B00F0CEFD41EC100B90
:1038F000A9E79FED7D8B9FED7EBB9DED0E0B002913
:1039000053EC192B51EC100B52DA00F029FA53EC5E
:10391000182B00F085FC41EC180B77480621B0EE1F
:10392000480AF0EE680A784400F0EEF853EC182BE1
:1039300051EC100B00F074FC41EC1D0B6F48B0EE25
:10394000480AF0EE680A0421784400F0DDF853ECF0
:10395000182B51EC100B00F063FC53EC192B00F00A
:10396000FFF941EC190B51EC180B00F08FF941EC09
:10397000180B53EC192B51EC1D0B00F0A5FA53EC6E
:10398000182B00F04DFC53EC1A2B00F055FE41ECC7
:10399000100B51EC180B53EC102B00F0E1F953EC29
:1039A0001B2B00F03DFC53EC1C2B00F06DFD6DE07B
:1039B00000F06AFD53EC182B00F032FC41EC180BC0
:1039C00000F064F941EC1A0B00208DED00AB009083
:1039D0009DED000B51EC1A0B53EC102B00F0C0F9CD
:1039E0009DED000B41EC1C0B53EC102B51EC100B1C
:1039F00000F016FC53EC182B00F046FD53EC1C2B8A
:103A000000F062FA41EC1C0B3D48B0EE480AF0EEC3
:103A1000680A0621784400F077F853EC182B51EC33
:103A2000100B00F0FDFB41EC1D0B3648B0EE480AD0
:103A3000F0EE680A0421784400F066F853EC182B85
:103A400051EC100B00F0ECFB53EC192B00F088F953
:103A500041EC100B51EC1D0B53EC102B00F034FA21
:103A600053EC1A2B00F0DCFB53EC1C2B00F078F924
:103A700041EC100B53EC102B9DED000B51EC100B97
:103A800000F06EF953EC1B2B00F0CAFB41EC100B5D
:103A9000D9E60000000000000000F03F0000000038
:103AA000182D4454FB2109400000F07F0000000065
:103AB00000000000000000000000E03F00000000E7
:103AC000000000000000F03F075C143326A6913C84
:103AD0000000603C00000000182D4454FB21F93F19
:103AE000B4100000C2100000000000000000E03F21
:103AF0000000000000000040FE0F00000C1000005D
:103B0000100F00001E0F000070B504462DED028B53
:103B10004D1E00EBC500B0EE408AF0EE608A90EDDD
:103B2000000B35F0060017D053EC182B51EC100B9E
:103B300000F076FB41EC100B6D1E04EBC50090ED20
:103B4000001B51EC100B53EC112B00F009F941EC68
:103B5000100B35F00600E7D1022D36D0042D1CD015
:103B6000062D1CBFBDEC028B70BD53EC182B51EC25
:103B7000100B00F055FB94ED0A1B53EC112B00F0D9
:103B8000EFF853EC182B00F04BFB94ED081B53ECB3
:103B9000112B00F0E5F841EC100B53EC182B51EC15
:103BA000100B00F03DFB94ED061B53EC112B00F0C5
:103BB000D7F853EC182B00F033FB94ED040B53ECC7
:103BC000102B00F0CDF841EC100B53EC182B51ECFE
:103BD000100B00F025FB94ED021B53EC112B00F0B1
:103BE000BFF853EC182B00F01BFB94ED001B53ECBB
:103BF000112B00F0B5F8BDEC028B41EC100B70BD41
:103C000010B553EC102B51EC100B00F0A9F841EC5F
:103C1000100B10BD000000009FED050B10B553EC1C
:103C2000102B51EC100B00F04FF941EC100B10BDB4
:103C30000000000000000000FDF74CFBFFF792FAC7
:103C4000FEF7C4FAFEF7ACFAFEF76EFAFEF70EFBCB
:103C5000FEF7DAFAFEF786FA0848FCF7FDFB08489B
:103C6000FCF7FAFB0748FDF70FFF07480068C1683B
:103C700041F01001C160FEF7C1FEFEE78C0000209C
:103C8000B4000020DC0000202401002000B52DED50
:103C9000048B83B041EC190B00F002FC41EC180BD3
:103CA00018EE100A18EE901A8DED008B002818BF40
:103CB0000120084320F00040C0F17F6000F1E040A7
:103CC000C00F14D019EE101A19EE900A8DED009B5A
:103CD000002918BF0121084320F00040C0F17F6097
:103CE00000F1E040C00F04BF0120FCF763FB51EC82
:103CF000180B03B0BDEC048B00BD000021F00042A6
:103D0000A2F16052B2F5801F01F0004328BFD2F14A
:103D10007F6C0BD95FEA001C43EAC20242EB507091
:103D200018BF704728BF20F001007047B2F5801F10
:103D3000BCBF184670474FEA410C1CF5001F02D269
:103D4000084600F0D9BD70B500F014FB00000089F2
:103D5000FFF7F6BF4FF00040A0F58000704700006D
:103D600010B591EA030F48BF83F0004300F16C8463
:103D7000841A71EB030C05D2121943EB0C03001BE0
:103D800061EB0C01DFF824E14FEA1154A4EB135C62
:103D90001EEA430F18BF9EEA445F73D023EA0E0366
:103DA000DCF1200E21EA045143F4801332D322FACD
:103DB0000CFE10EB0E0023FA0CFE41EB0E01CCF1D1
:103DC000200E03FA0EFE10EB0E0051F10001B1F5CA
:103DD000801FCCF1200E32D201EB045112FA0EF208
:103DE000BDE8104058BF7047401C38BF5FEA420230
:103DF00018BF7047002814BF20F0010041F10001F6
:103E00004FEA410313F5001F38BF7047A1F1C041CD
:103E100000F0FEBA012A43EB0302ACF1200CDCF106
:103E20001F0E32BF4FF0000E23FA0CF310EB03000D
:103E300041EB0451B4EB115FD0D0A1EB045101F57B
:103E4000801149085FEA300001EB04510ED350F1B4
:103E5000000038BF12FA0EFE08D1BDE81040C9E7D5
:103E6000401C38BF5FEA4202CAD1C3E7BDE8104038
:103E70004FEA410313F5001F38BF7047A1F1C0415D
:103E800000F0C6BA9EEA445F08D011EA5E0FBDE8B2
:103E9000104004BF01F0004100207047BDE8104011
:103EA00070B500F067FA00BF64FBBE3E0000E0FFA3
:103EB000491058BFC1F140415B1058BFC3F14043A6
:103EC0008B42EFF3008070472DE9C04130B4DFF83A
:103ED000A0C23CEA111418BF3CEA131400F0EC80B5
:103EE00081EA03051CEA111444EAD57418BF1CEAE0
:103EF000131500F0C780A4EB05044FF0004545EA18
:103F0000C12145EAC32341EA505143EA525304F127
:103F10007F74994204F500344FEAC0204FEAC22270
:103F200008BF904200F09C804FEA13650FF24016E4
:103F3000765D4FEA134506FB05F7C7F1807706FB70
:103F400007F74FEAD737A7FB03687642C8F58038F2
:103F5000A7FB06CE38BFA8F1010807FB08E64FF023
:103F6000000EA6FB028CE6FB03CEDCF1000CCEF1CA
:103F7000004E38BFAEF1010EA6FB0C584FF0000703
:103F80004FF00005E6FB0E87A1FB08C6A0FB07CE9D
:103F900016EB0E0645F10005E1FB076515F1E04E55
:103FA0007EBFA4F580345FEA46066D4116F18007B6
:103FB00045F100054FEA17274FEA066647EA05670D
:103FC000A6F1DE46B6F1805F4FEA15251FD93846C7
:103FD00024F0010C05EBC471BCF1FE6F01EB0C1178
:103FE00002D8F0BCBDE8008124425CBF01F5801E10
:103FF0009EEAC47F02D4F0BCBDE80081244238D4DC
:10400000F0BCA1F1C041BDE8004100F001BA4FEAA7
:10401000D22242EA43524FEAD323A7FB02864FEA59
:10402000D02040EA415007FB03661EEA0E0F4FEA1C
:10403000D12105FB026658BFA6EB0056B6EB005631
:104040004FEA520E4EEAC37E18EB0E0E56EB530E9D
:10405000BDD518EB02085E417F1C55F10005B6E79F
:104060004FF480154FF000074FF000064FF00008A6
:10407000ADE7F0BC4FF0000001F1C04101F000419C
:10408000BDE8008111EA0C1F0CEA131500D00CE00A
:1040900013EA0C1F00F025804FF00000F0BC81EA0D
:1040A000030101F00041BDE80081F0BCBDE8004122
:1040B00081EA030100F0ACB9F0BCBDE8004170B585
:1040C00000F058F9097EFC3E00F007B881EA0301D0
:1040D0004FF0000001F00041704781EA030100F059
:1040E00097B9F0BCBDE800414FF00000214970478E
:1040F000FFFDFBF9F7F5F4F2F0EEEDEBE9E8E6E4AD
:10410000E3E1E0DEDDDBDAD8D7D5D4D3D1D0CFCD33
:10411000CCCBCAC8C7C6C5C4C2C1C0BFBEBDBCBB6C
:10412000BAB9B8B7B6B5B4B3B2B1B0AFAEADACAB67
:10413000AAA9A8A8A7A6A5A4A3A3A2A1A09F9F9E41
:104140009D9C9C9B9A9999989797969595949393F3
:10415000929191908F8F8E8E8D8C8C8B8B8A89898A
:10416000888887878685858484838382828181800D
:104170000000FF070000F87F10F0004248BF4042F7
:10418000B0FA80F310FA03F10AD0C3F11D0303F56E
:1041900080634FEA415002EB035202EBD12170479A
:1041A0004FF000007047000051EA030C17D41CF5D3
:1041B000801F58BFBCF5801F00F10680994218BFD0
:1041C000704708BF9042704707D711F5801F58BF4E
:1041D00013F5801F19D499427047894270471CF526
:1041E000801F08D5BCF5801FF7D58B4218BF7047DC
:1041F00008BF824270474FF4001C1CEB410F38BFD0
:104200001CEB430F01D28B42704770B500F0B2F83F
:10421000922449004FF000514FF08053FFF748BE01
:10422000DFF848C170B51CEA111E1EBF1CEA131549
:104230009EEA0C0F95EA0C0F00F06F8081EA0304F0
:1042400023EA4C134EEAD47E21EA4C1141F480114A
:1042500043F48013AE44A1FB024CA0FB0365AEF116
:104260007F7E361955EB0C05A1FB034C4CF1000386
:10427000A0FB021C16EB0C06654153F1000309423A
:1042800018BF46F0010613F4007F0BD14FEA03314B
:104290004FEA0530340341EA155140EA16506FF0F9
:1042A00003020AE04FEAC3214FEAC520F40241EAC3
:1042B000555140EA56506FF0020202EB2E4201EBDC
:1042C000025585EACE710AD05FEA440C18BF24F08B
:1042D000004450F1000041F1000120EAD47040F2A6
:1042E000FE7C624500D270BDA84214BF4FF08044EE
:1042F0004FF04044002E08BF0024BEF1806FA8BFDD
:10430000A1F1C041BDE8704080F282804FF0000012
:1043100001F1C04101F0004170479EEA0C0F0CEA28
:10432000131518BF95EA0C0F06D04FF0000081EA74
:10433000030E0EF0004170BD00F01CF88900013E34
:1043400000F007B800F009B84FEA430C5FEA5C5C84
:1043500008D081EA030100F05BB84FEA410C5FEA44
:104360005C5CF6D14FF00000014970470000FF0788
:104370000000F87F0EF1020E2EF0030E5EF8046BC3
:10438000364205D4012A43EB030515F5001F12D868
:10439000012841EB010C1CF5001F0CD80ED14FEA8F
:1043A000D17C15F5001F0CEB4C0C0CF1020C08BF76
:1043B0004CEBD37C04E04FF0080C01E04FEAD37CD7
:1043C0000CEB4C0526FA05F606F00706B6F1040CD0
:1043D00006D20EEB860CBDE870404CF0010C604735
:1043E000DFE80CF0090B02024FF000414FF0000033
:1043F000A1F5002170BD19461046012851EB0104BA
:1044000018BFD4F5001484BF002001F0004170BD36
:104410000808A0F500114FEA3101704753EA010C7A
:1044200017D41CF5801F58BFBCF5801F00F1068013
:104430008B4218BF704708BF8242704707D713F5F9
:10444000801F58BF11F5801F19D48B4270479B42C3
:1044500070471CF5801F08D5BCF5801FF7D5994221
:1044600018BF704708BF904270474FF4001C1CEB08
:10447000430F38BF1CEB410F01D2994270470FB474
:104480000CBC03BCFFF7C1BE91EA030F10B581F06D
:1044900000413FF56DAC83F0004300F0D5B800005B
:1044A0002DE9F04101F5801CBCF5001FC0F2A98088
:1044B0004FEA115C21EA0C510CF1FD0C41F4801122
:1044C0005FEA5C0C0CF5C07C01D34000494130A48C
:1044D000890241EA905187028E0E0A0CA45D04FB0A
:1044E00004F602FB06F6C6F14046A4FB0662F60D92
:1044F00046EA422606FB06F4A4FB01235242C3F11E
:10450000404338BF5B1EA6FB02420024E6FB0324A7
:10451000D20B42EA4446A6FB0623A1FB02E2A3FB20
:1045200007E4E3FB61426442C2F1404E38BFAEF1A2
:10453000010EA6FB04234FF00002E6FB0E32A2FBA5
:1045400003463400E2FB6264A1FB06E6A4FB07E835
:10455000E4FB61687642C8F1405838BFA8F1010811
:10456000A2FB06E4A3FB08E5E2FB6854A1FB05E619
:10457000A7FB04E8E1FB648618F1200556F100066C
:10458000A809A8F11B08B10908F03F08B8F10A0F03
:1045900040EA86601CD901EB0C51BDE8F08100BFF8
:1045A000FCF5EEE8E2DDD8D3CFCBC7C3C0BDB9B6CA
:1045B000B4B1AEACA9A7A5A3A19F9D9B9A989695CF
:1045C0009392908F8D8C8B89888786858483828156
:1045D000A0FB006800FB01F208EB4208B8EB87285B
:1045E00007D5341858EB0104D5D5401C51F1000112
:1045F000D1E7341A78EB0104CDD4401E71F10001EB
:10460000C9E75FEA4C0C5FEA9C5C0DD105D34FF023
:10461000000001F00041BDE8F081BDE8F04170B557
:10462000FFF7A8FE6DDBFFBEBDE8F0414FF00000D4
:10463000004970470000F87F10B591EA030F48BFAA
:1046400083F000433FF594AB841A71EB030C07D25F
:1046500012198CF0004C43EB0C03001B61EB0C01B6
:10466000DFF8A4E14FEA1154A4EB135C1EEA430FF8
:1046700018BF9EEA445F00F0B08023EA6E03524206
:1046800021EA0451C3EB6E0338BF5B1EDCF1200E40
:1046900025D322FA0CFE10EB0E0043FA0CFE41EB80
:1046A0000E01CCF1200E03FA0EFE10EB0E0051F1BC
:1046B0000001CCF1200E29D412FA0EF201EB0451C4
:1046C000BDE8104058BF7047401C1CBFB2F1004FFE
:1046D000704700280CBF491C20F00100704712EB06
:1046E000020E43EB030218BF4FF0010E4EEA4202E6
:1046F000ACF1200CDCF11E0E54D943FA0CFE10EB89
:104700000E0051F1FF31CCF11E0ED5D50EF1010E88
:1047100012FA0EFE404141EB010101EB445C5FEAFD
:104720005C5C10D910EBDE7001EB045138BFBEF1B8
:10473000004FBDE8104018BF704700280CBF491C4F
:1047400020F00100704730D24FEAD42C11F500114F
:1047500024F400641BD0B1FA81F20B3AA41AA41E0F
:10476000D2F12003914030FA03F31943904001EB5A
:10477000CC71002C01EB0451BDE81040A8BF70477C
:1047800001F1C0414FF0000001F000417047B0FA64
:1047900080F310FA03F100D110BDE41A173C48056C
:1047A000C90AE4E701EB045110BD491001EB0451C3
:1047B000BDE810404FEA300002E04FF000017047C2
:1047C0004A0008BF0042F8D0B2F5001F28BF70476A
:1047D00001F000414FF0000070479EEA445F07D0AF
:1047E00011EA5E0FBDE8104004BF002100207047B1
:1047F000BDE8104070B5FFF7BDFD00BF40DFF63EDD
:1048000083F00041104670470000E0FF43004FEA8C
:10481000D30C4FEA3C0C43401FBF40070CF16051E2
:1048200013F0FE4F70471CF0006F03D100200CF016
:10483000004170470CF0004343EA507010B540EA65
:10484000CC0000F00EF800BF000000924FEA00011B
:10485000FFF7DEBD4FF000414FF00000A1F5002151
:1048600070470EF1020E2EF0030E5EF8044B244248
:1048700004D44FEA4102B2F17F4F11D84FEA40030E
:10488000B3F17F4F0CD80ED14FEAD07CB2F17F4FFD
:104890000CEB4C0C0CF1020C08BF4CEBD17C04E08F
:1048A0004FF0080C01E04FEAD17C0CEB4C0324FAEA
:1048B00003F404F00704B4F1040C06D20EEB840CEC
:1048C000BDE810404CF0010C6047DFE80CF0070831
:1048D00002024FF00040A0F5800010BD08464200E3
:1048E00018BFD2F1807288BF00F0004010BD4FF0B9
:1048F0004070E1EE100A7047FF2141EAD050C00538
:104900007047000610160006101600000000000098
:10491000000001020304060708090000000001026C
:104920000304000000000000555555555555C53F7E
:104930007D6FEB0312D6D4BF5544880E55C1C93FD5
:104940003B8F68B52882A4BF88B20175E0EF493F6C
:1049500009F7FD0DE13D023F4B2D8A1C273A03C0AC
:10496000C88A599CE52A004059018D1B6C06E6BF98
:1049700082922EB1C5B8B33F9849000800000020CC
:104980008C000000C4010008244A00088C000020AC
:10499000040E0000E001000800000000000000001C
:1049A00000000000010000001000000000000000F6
:1049B0000024F400000000000000000000000000DF
:1049C00000000000000000000000000000000000E7
:1049D00000000000000000040004000400040202C3
:1049E00000000000000000000000000000000000C7
:1049F00000000000000000000000000000000000B7
:104A000000000000000000000000000000000000A6
:104A10000000000000000000000000000000000096
:044A2000000400008E
:040000050800018965
:00000001FF
