Component: ARM Compiler 5.06 update 6 (build 750) Tool: armlink [4d35ed]

==============================================================================

Section Cross References

    startup_stm32f405xx.o(STACK) refers (Special) to heapauxi.o(.text) for __use_two_region_memory
    startup_stm32f405xx.o(HEAP) refers (Special) to heapauxi.o(.text) for __use_two_region_memory
    startup_stm32f405xx.o(RESET) refers (Special) to heapauxi.o(.text) for __use_two_region_memory
    startup_stm32f405xx.o(RESET) refers to startup_stm32f405xx.o(STACK) for __initial_sp
    startup_stm32f405xx.o(RESET) refers to startup_stm32f405xx.o(.text) for Reset_Handler
    startup_stm32f405xx.o(RESET) refers to stm32f4xx_it.o(i.NMI_Handler) for NMI_Handler
    startup_stm32f405xx.o(RESET) refers to stm32f4xx_it.o(i.HardFault_Handler) for HardFault_Handler
    startup_stm32f405xx.o(RESET) refers to stm32f4xx_it.o(i.MemManage_Handler) for MemManage_Handler
    startup_stm32f405xx.o(RESET) refers to stm32f4xx_it.o(i.BusFault_Handler) for BusFault_Handler
    startup_stm32f405xx.o(RESET) refers to stm32f4xx_it.o(i.UsageFault_Handler) for UsageFault_Handler
    startup_stm32f405xx.o(RESET) refers to stm32f4xx_it.o(i.SVC_Handler) for SVC_Handler
    startup_stm32f405xx.o(RESET) refers to stm32f4xx_it.o(i.DebugMon_Handler) for DebugMon_Handler
    startup_stm32f405xx.o(RESET) refers to stm32f4xx_it.o(i.PendSV_Handler) for PendSV_Handler
    startup_stm32f405xx.o(RESET) refers to stm32f4xx_it.o(i.SysTick_Handler) for SysTick_Handler
    startup_stm32f405xx.o(RESET) refers to stm32f4xx_it.o(i.DMA1_Stream5_IRQHandler) for DMA1_Stream5_IRQHandler
    startup_stm32f405xx.o(RESET) refers to stm32f4xx_it.o(i.DMA1_Stream6_IRQHandler) for DMA1_Stream6_IRQHandler
    startup_stm32f405xx.o(RESET) refers to stm32f4xx_it.o(i.CAN1_RX0_IRQHandler) for CAN1_RX0_IRQHandler
    startup_stm32f405xx.o(RESET) refers to stm32f4xx_it.o(i.TIM2_IRQHandler) for TIM2_IRQHandler
==============================================================================

Removing Unused input sections from the image.

    Removing main.o(.rev16_text), (4 bytes).
    Removing main.o(.revsh_text), (4 bytes).
    Removing main.o(.rrx_text), (6 bytes).
    Removing gpio.o(.rev16_text), (4 bytes).
    Removing gpio.o(.revsh_text), (4 bytes).
    Removing gpio.o(.rrx_text), (6 bytes).
    Removing can.o(.rev16_text), (4 bytes).
    Removing can.o(.revsh_text), (4 bytes).
    Removing can.o(.rrx_text), (6 bytes).
    Removing can.o(i.CAN_Start_IT), (72 bytes).
    Removing can.o(i.HAL_CAN_MspDeInit), (116 bytes).
    Removing dma.o(.rev16_text), (4 bytes).
    Removing dma.o(.revsh_text), (4 bytes).
    Removing dma.o(.rrx_text), (6 bytes).
    Removing tim.o(.rev16_text), (4 bytes).
    Removing tim.o(.revsh_text), (4 bytes).
    Removing tim.o(.rrx_text), (6 bytes).
    Removing tim.o(i.HAL_TIM_Base_MspDeInit), (32 bytes).
==============================================================================

Image Symbol Table

    Local Symbols

    Symbol Name                              Value     Ov Type        Size  Object(Section)

    ../Drivers/STM32F4xx_HAL_Driver/Src/stm32f4xx_hal.c 0x00000000   Number         0  stm32f4xx_hal.o ABSOLUTE
    ../Drivers/STM32F4xx_HAL_Driver/Src/stm32f4xx_hal_can.c 0x00000000   Number         0  stm32f4xx_hal_can.o ABSOLUTE
    ../Drivers/STM32F4xx_HAL_Driver/Src/stm32f4xx_hal_cortex.c 0x00000000   Number         0  stm32f4xx_hal_cortex.o ABSOLUTE
    ../Drivers/STM32F4xx_HAL_Driver/Src/stm32f4xx_hal_dma.c 0x00000000   Number         0  stm32f4xx_hal_dma.o ABSOLUTE
    ../Drivers/STM32F4xx_HAL_Driver/Src/stm32f4xx_hal_dma_ex.c 0x00000000   Number         0  stm32f4xx_hal_dma_ex.o ABSOLUTE
    ../Drivers/STM32F4xx_HAL_Driver/Src/stm32f4xx_hal_exti.c 0x00000000   Number         0  stm32f4xx_hal_exti.o ABSOLUTE
    ../Drivers/STM32F4xx_HAL_Driver/Src/stm32f4xx_hal_flash.c 0x00000000   Number         0  stm32f4xx_hal_flash.o ABSOLUTE
    ../Drivers/STM32F4xx_HAL_Driver/Src/stm32f4xx_hal_flash_ex.c 0x00000000   Number         0  stm32f4xx_hal_flash_ex.o ABSOLUTE
    ../Drivers/STM32F4xx_HAL_Driver/Src/stm32f4xx_hal_flash_ramfunc.c 0x00000000   Number         0  stm32f4xx_hal_flash_ramfunc.o ABSOLUTE
    ../Drivers/STM32F4xx_HAL_Driver/Src/stm32f4xx_hal_gpio.c 0x00000000   Number         0  stm32f4xx_hal_gpio.o ABSOLUTE
    ../Drivers/STM32F4xx_HAL_Driver/Src/stm32f4xx_hal_pwr.c 0x00000000   Number         0  stm32f4xx_hal_pwr.o ABSOLUTE
    ../Drivers/STM32F4xx_HAL_Driver/Src/stm32f4xx_hal_pwr_ex.c 0x00000000   Number         0  stm32f4xx_hal_pwr_ex.o ABSOLUTE
    ../Drivers/STM32F4xx_HAL_Driver/Src/stm32f4xx_hal_rcc.c 0x00000000   Number         0  stm32f4xx_hal_rcc.o ABSOLUTE
    ../Drivers/STM32F4xx_HAL_Driver/Src/stm32f4xx_hal_rcc_ex.c 0x00000000   Number         0  stm32f4xx_hal_rcc_ex.o ABSOLUTE
    ../Drivers/STM32F4xx_HAL_Driver/Src/stm32f4xx_hal_tim.c 0x00000000   Number         0  stm32f4xx_hal_tim.o ABSOLUTE
    ../Drivers/STM32F4xx_HAL_Driver/Src/stm32f4xx_hal_tim_ex.c 0x00000000   Number         0  stm32f4xx_hal_tim_ex.o ABSOLUTE
    ../Drivers/STM32F4xx_HAL_Driver/Src/stm32f4xx_hal_uart.c 0x00000000   Number         0  stm32f4xx_hal_uart.o ABSOLUTE
    ../Src/can.c                             0x00000000   Number         0  can.o ABSOLUTE
    ../Src/dma.c                             0x00000000   Number         0  dma.o ABSOLUTE
    ../Src/gpio.c                            0x00000000   Number         0  gpio.o ABSOLUTE
    ../Src/main.c                            0x00000000   Number         0  main.o ABSOLUTE
    ../Src/stm32f4xx_hal_msp.c               0x00000000   Number         0  stm32f4xx_hal_msp.o ABSOLUTE
    ../Src/stm32f4xx_it.c                    0x00000000   Number         0  stm32f4xx_it.o ABSOLUTE
    ../Src/system_stm32f4xx.c                0x00000000   Number         0  system_stm32f4xx.o ABSOLUTE
    ../Src/tim.c                             0x00000000   Number         0  tim.o ABSOLUTE
    ../Src/usart.c                           0x00000000   Number         0  usart.o ABSOLUTE
    ../clib/angel/boardlib.s                 0x00000000   Number         0  boardinit3.o ABSOLUTE
    ../clib/angel/boardlib.s                 0x00000000   Number         0  boardshut.o ABSOLUTE
    ../clib/angel/boardlib.s                 0x00000000   Number         0  boardinit1.o ABSOLUTE
    ../clib/angel/boardlib.s                 0x00000000   Number         0  boardinit2.o ABSOLUTE
    ../clib/angel/handlers.s                 0x00000000   Number         0  __scatter_zi.o ABSOLUTE
    ../clib/angel/handlers.s                 0x00000000   Number         0  __scatter_copy.o ABSOLUTE
    ../clib/angel/kernel.s                   0x00000000   Number         0  __rtentry.o ABSOLUTE
    ../clib/angel/kernel.s                   0x00000000   Number         0  rtexit.o ABSOLUTE
    ../clib/angel/kernel.s                   0x00000000   Number         0  __rtentry4.o ABSOLUTE
    ../clib/angel/kernel.s                   0x00000000   Number         0  rtexit2.o ABSOLUTE
    ../clib/angel/kernel.s                   0x00000000   Number         0  __rtentry2.o ABSOLUTE
    ../clib/angel/rt.s                       0x00000000   Number         0  aeabi_ldiv0.o ABSOLUTE
    ../clib/angel/rt.s                       0x00000000   Number         0  aeabi_ldiv0_sigfpe.o ABSOLUTE
    ../clib/angel/rt.s                       0x00000000   Number         0  rt_raise.o ABSOLUTE
    ../clib/angel/rt.s                       0x00000000   Number         0  rt_errno_addr_intlibspace.o ABSOLUTE
    ../clib/angel/rt.s                       0x00000000   Number         0  rt_errno_addr.o ABSOLUTE
    ../clib/angel/rt.s                       0x00000000   Number         0  rt_div0.o ABSOLUTE
    ../clib/angel/scatter.s                  0x00000000   Number         0  __scatter.o ABSOLUTE
    ../clib/angel/startup.s                  0x00000000   Number         0  __main.o ABSOLUTE
    ../clib/angel/sys.s                      0x00000000   Number         0  sys_stackheap_outer.o ABSOLUTE
    ../clib/angel/sys.s                      0x00000000   Number         0  indicate_semi.o ABSOLUTE
    ../clib/angel/sys.s                      0x00000000   Number         0  use_no_semi.o ABSOLUTE
    ../clib/angel/sys.s                      0x00000000   Number         0  libspace.o ABSOLUTE
    ../clib/angel/sysapp.c                   0x00000000   Number         0  sys_wrch.o ABSOLUTE
    ../clib/angel/sysapp.c                   0x00000000   Number         0  sys_command.o ABSOLUTE
    ../clib/angel/sysapp.c                   0x00000000   Number         0  sys_exit.o ABSOLUTE
    ../clib/armsys.c                         0x00000000   Number         0  argv_veneer.o ABSOLUTE
    ../clib/armsys.c                         0x00000000   Number         0  _get_argv_nomalloc.o ABSOLUTE
    ../clib/armsys.c                         0x00000000   Number         0  argv_veneer.o ABSOLUTE
    ../clib/armsys.c                         0x00000000   Number         0  no_argv.o ABSOLUTE
    ../clib/fenv.c                           0x00000000   Number         0  _rserrno.o ABSOLUTE
    ../clib/heapalloc.c                      0x00000000   Number         0  hrguard.o ABSOLUTE
    ../clib/heapaux.c                        0x00000000   Number         0  heapauxi.o ABSOLUTE
    ../clib/libinit.s                        0x00000000   Number         0  libshutdown2.o ABSOLUTE
    ../clib/libinit.s                        0x00000000   Number         0  libinit2.o ABSOLUTE
    ../clib/libinit.s                        0x00000000   Number         0  libshutdown.o ABSOLUTE
    ../clib/libinit.s                        0x00000000   Number         0  libinit.o ABSOLUTE
    ../clib/longlong.s                       0x00000000   Number         0  lludivv7m.o ABSOLUTE
    ../clib/memcpset.s                       0x00000000   Number         0  rt_memclr_w.o ABSOLUTE
    ../clib/signal.c                         0x00000000   Number         0  defsig_fpe_inner.o ABSOLUTE
    ../clib/signal.c                         0x00000000   Number         0  defsig_fpe_formal.o ABSOLUTE
    ../clib/signal.c                         0x00000000   Number         0  defsig_rtmem_outer.o ABSOLUTE
    ../clib/signal.c                         0x00000000   Number         0  defsig_rtmem_inner.o ABSOLUTE
    ../clib/signal.c                         0x00000000   Number         0  defsig_rtred_inner.o ABSOLUTE
    ../clib/signal.c                         0x00000000   Number         0  defsig_general.o ABSOLUTE
    ../clib/signal.c                         0x00000000   Number         0  defsig_exit.o ABSOLUTE
    ../clib/signal.c                         0x00000000   Number         0  defsig_fpe_outer.o ABSOLUTE
    ../clib/signal.c                         0x00000000   Number         0  __raise.o ABSOLUTE
    ../clib/signal.c                         0x00000000   Number         0  defsig_other.o ABSOLUTE
    ../clib/signal.c                         0x00000000   Number         0  defsig_segv_inner.o ABSOLUTE
    ../clib/signal.c                         0x00000000   Number         0  defsig_cppl_inner.o ABSOLUTE
    ../clib/signal.c                         0x00000000   Number         0  defsig_pvfn_inner.o ABSOLUTE
    ../clib/signal.c                         0x00000000   Number         0  defsig_stak_inner.o ABSOLUTE
    ../clib/signal.c                         0x00000000   Number         0  defsig_rtmem_formal.o ABSOLUTE
    ../clib/signal.c                         0x00000000   Number         0  defsig_abrt_inner.o ABSOLUTE
    ../clib/signal.s                         0x00000000   Number         0  defsig.o ABSOLUTE
    ../clib/stdlib.c                         0x00000000   Number         0  exit.o ABSOLUTE
    ../fplib/basic.s                         0x00000000   Number         0  basic.o ABSOLUTE
    ../fplib/d2f.s                           0x00000000   Number         0  d2f.o ABSOLUTE
    ../fplib/daddsub.s                       0x00000000   Number         0  daddsub_clz.o ABSOLUTE
    ../fplib/dcmpi.s                         0x00000000   Number         0  dcmpi.o ABSOLUTE
    ../fplib/ddiv.s                          0x00000000   Number         0  ddiv.o ABSOLUTE
    ../fplib/deqf.s                          0x00000000   Number         0  deqf.o ABSOLUTE
    ../fplib/dfix.s                          0x00000000   Number         0  dfix.o ABSOLUTE
    ../fplib/dflt.s                          0x00000000   Number         0  dflt_clz.o ABSOLUTE
    ../fplib/dleqf.s                         0x00000000   Number         0  dleqf.o ABSOLUTE
    ../fplib/dmul.s                          0x00000000   Number         0  dmul.o ABSOLUTE
    ../fplib/dnaninf.s                       0x00000000   Number         0  dnaninf.o ABSOLUTE
    ../fplib/dretinf.s                       0x00000000   Number         0  dretinf.o ABSOLUTE
    ../fplib/drleqf.s                        0x00000000   Number         0  drleqf.o ABSOLUTE
    ../fplib/dsqrt.s                         0x00000000   Number         0  dsqrt_umaal.o ABSOLUTE
    ../fplib/f2d.s                           0x00000000   Number         0  f2d.o ABSOLUTE
    ../fplib/fnaninf.s                       0x00000000   Number         0  fnaninf.o ABSOLUTE
    ../fplib/fpinit.s                        0x00000000   Number         0  fpinit.o ABSOLUTE
    ../fplib/fretinf.s                       0x00000000   Number         0  fretinf.o ABSOLUTE
    ../fplib/usenofp.s                       0x00000000   Number         0  usenofp.o ABSOLUTE
    ../mathlib/atan.c                        0x00000000   Number         0  atan.o ABSOLUTE
    ../mathlib/atan.c                        0x00000000   Number         0  atan_x.o ABSOLUTE
    ../mathlib/atan2.c                       0x00000000   Number         0  atan2.o ABSOLUTE
    ../mathlib/atan2.c                       0x00000000   Number         0  atan2_x.o ABSOLUTE
    ../mathlib/cos.c                         0x00000000   Number         0  cos.o ABSOLUTE
    ../mathlib/cos.c                         0x00000000   Number         0  cos_x.o ABSOLUTE
    ../mathlib/cos_i.c                       0x00000000   Number         0  cos_i.o ABSOLUTE
    ../mathlib/dunder.c                      0x00000000   Number         0  dunder.o ABSOLUTE
    ../mathlib/fabs.c                        0x00000000   Number         0  fabs.o ABSOLUTE
    ../mathlib/fpclassify.c                  0x00000000   Number         0  fpclassify.o ABSOLUTE
    ../mathlib/poly.c                        0x00000000   Number         0  poly.o ABSOLUTE
    ../mathlib/qnan.c                        0x00000000   Number         0  qnan.o ABSOLUTE
    ../mathlib/rred.c                        0x00000000   Number         0  rred.o ABSOLUTE
    ../mathlib/sin.c                         0x00000000   Number         0  sin.o ABSOLUTE
    ../mathlib/sin.c                         0x00000000   Number         0  sin_x.o ABSOLUTE
    ../mathlib/sin_i.c                       0x00000000   Number         0  sin_i.o ABSOLUTE
    ../mathlib/sin_i.c                       0x00000000   Number         0  sin_i_x.o ABSOLUTE
    ../mathlib/sqrt.c                        0x00000000   Number         0  sqrt_x.o ABSOLUTE
    ../mathlib/sqrt.c                        0x00000000   Number         0  sqrt.o ABSOLUTE
    ..\Behavior\Chassis_behavior.c           0x00000000   Number         0  chassis_behavior.o ABSOLUTE
    ..\Drivers\STM32F4xx_HAL_Driver\Src\stm32f4xx_hal.c 0x00000000   Number         0  stm32f4xx_hal.o ABSOLUTE
    ..\Drivers\STM32F4xx_HAL_Driver\Src\stm32f4xx_hal_can.c 0x00000000   Number         0  stm32f4xx_hal_can.o ABSOLUTE
    ..\Drivers\STM32F4xx_HAL_Driver\Src\stm32f4xx_hal_cortex.c 0x00000000   Number         0  stm32f4xx_hal_cortex.o ABSOLUTE
    ..\Drivers\STM32F4xx_HAL_Driver\Src\stm32f4xx_hal_dma.c 0x00000000   Number         0  stm32f4xx_hal_dma.o ABSOLUTE
    ..\Drivers\STM32F4xx_HAL_Driver\Src\stm32f4xx_hal_dma_ex.c 0x00000000   Number         0  stm32f4xx_hal_dma_ex.o ABSOLUTE
    ..\Drivers\STM32F4xx_HAL_Driver\Src\stm32f4xx_hal_exti.c 0x00000000   Number         0  stm32f4xx_hal_exti.o ABSOLUTE
    ..\Drivers\STM32F4xx_HAL_Driver\Src\stm32f4xx_hal_flash.c 0x00000000   Number         0  stm32f4xx_hal_flash.o ABSOLUTE
    ..\Drivers\STM32F4xx_HAL_Driver\Src\stm32f4xx_hal_flash_ex.c 0x00000000   Number         0  stm32f4xx_hal_flash_ex.o ABSOLUTE
    ..\Drivers\STM32F4xx_HAL_Driver\Src\stm32f4xx_hal_flash_ramfunc.c 0x00000000   Number         0  stm32f4xx_hal_flash_ramfunc.o ABSOLUTE
    ..\Drivers\STM32F4xx_HAL_Driver\Src\stm32f4xx_hal_gpio.c 0x00000000   Number         0  stm32f4xx_hal_gpio.o ABSOLUTE
    ..\Drivers\STM32F4xx_HAL_Driver\Src\stm32f4xx_hal_pwr.c 0x00000000   Number         0  stm32f4xx_hal_pwr.o ABSOLUTE
    ..\Drivers\STM32F4xx_HAL_Driver\Src\stm32f4xx_hal_pwr_ex.c 0x00000000   Number         0  stm32f4xx_hal_pwr_ex.o ABSOLUTE
    ..\Drivers\STM32F4xx_HAL_Driver\Src\stm32f4xx_hal_rcc.c 0x00000000   Number         0  stm32f4xx_hal_rcc.o ABSOLUTE
    ..\Drivers\STM32F4xx_HAL_Driver\Src\stm32f4xx_hal_rcc_ex.c 0x00000000   Number         0  stm32f4xx_hal_rcc_ex.o ABSOLUTE
    ..\Drivers\STM32F4xx_HAL_Driver\Src\stm32f4xx_hal_tim.c 0x00000000   Number         0  stm32f4xx_hal_tim.o ABSOLUTE
    ..\Drivers\STM32F4xx_HAL_Driver\Src\stm32f4xx_hal_tim_ex.c 0x00000000   Number         0  stm32f4xx_hal_tim_ex.o ABSOLUTE
    ..\Drivers\STM32F4xx_HAL_Driver\Src\stm32f4xx_hal_uart.c 0x00000000   Number         0  stm32f4xx_hal_uart.o ABSOLUTE
    ..\IFR_Lib\ifr_can.c                     0x00000000   Number         0  ifr_can.o ABSOLUTE
    ..\IFR_Lib\ifr_dji_motor.c               0x00000000   Number         0  ifr_dji_motor.o ABSOLUTE
    ..\IFR_Lib\ifr_dji_remote.c              0x00000000   Number         0  ifr_dji_remote.o ABSOLUTE
    ..\IFR_Lib\ifr_pid.c                     0x00000000   Number         0  ifr_pid.o ABSOLUTE
    ..\IFR_Lib\ifr_state.c                   0x00000000   Number         0  ifr_state.o ABSOLUTE
    ..\IFR_Lib\ifr_usart.c                   0x00000000   Number         0  ifr_usart.o ABSOLUTE
    ..\Src\can.c                             0x00000000   Number         0  can.o ABSOLUTE
    ..\Src\dma.c                             0x00000000   Number         0  dma.o ABSOLUTE
    ..\Src\gpio.c                            0x00000000   Number         0  gpio.o ABSOLUTE
    ..\Src\main.c                            0x00000000   Number         0  main.o ABSOLUTE
    ..\Src\stm32f4xx_hal_msp.c               0x00000000   Number         0  stm32f4xx_hal_msp.o ABSOLUTE
    ..\Src\stm32f4xx_it.c                    0x00000000   Number         0  stm32f4xx_it.o ABSOLUTE
    ..\Src\system_stm32f4xx.c                0x00000000   Number         0  system_stm32f4xx.o ABSOLUTE
    ..\Src\tim.c                             0x00000000   Number         0  tim.o ABSOLUTE
    ..\Src\usart.c                           0x00000000   Number         0  usart.o ABSOLUTE
    ..\Task\Chassis_task.c                   0x00000000   Number         0  chassis_task.o ABSOLUTE
    ..\\Behavior\\Chassis_behavior.c         0x00000000   Number         0  chassis_behavior.o ABSOLUTE
    ..\\IFR_Lib\\ifr_can.c                   0x00000000   Number         0  ifr_can.o ABSOLUTE
    ..\\IFR_Lib\\ifr_dji_motor.c             0x00000000   Number         0  ifr_dji_motor.o ABSOLUTE
    ..\\IFR_Lib\\ifr_dji_remote.c            0x00000000   Number         0  ifr_dji_remote.o ABSOLUTE
    ..\\IFR_Lib\\ifr_pid.c                   0x00000000   Number         0  ifr_pid.o ABSOLUTE
    ..\\IFR_Lib\\ifr_state.c                 0x00000000   Number         0  ifr_state.o ABSOLUTE
    ..\\IFR_Lib\\ifr_usart.c                 0x00000000   Number         0  ifr_usart.o ABSOLUTE
    ..\\Task\\Chassis_task.c                 0x00000000   Number         0  chassis_task.o ABSOLUTE
    dc.s                                     0x00000000   Number         0  dc.o ABSOLUTE
    startup_stm32f405xx.s                    0x00000000   Number         0  startup_stm32f405xx.o ABSOLUTE
    RESET                                    0x08000000   Section      392  startup_stm32f405xx.o(RESET)
    !!!main                                  0x08000188   Section        8  __main.o(!!!main)
    !!!scatter                               0x08000190   Section       52  __scatter.o(!!!scatter)
    !!handler_copy                           0x080001c4   Section       26  __scatter_copy.o(!!handler_copy)
    !!handler_zi                             0x080001e0   Section       28  __scatter_zi.o(!!handler_zi)
    .ARM.Collect$$libinit$$00000000          0x080001fc   Section        2  libinit.o(.ARM.Collect$$libinit$$00000000)
    .ARM.Collect$$libinit$$00000001          0x080001fe   Section        4  libinit2.o(.ARM.Collect$$libinit$$00000001)
    .ARM.Collect$$libinit$$00000004          0x08000202   Section        0  libinit2.o(.ARM.Collect$$libinit$$00000004)
    .ARM.Collect$$libinit$$0000000A          0x08000202   Section        0  libinit2.o(.ARM.Collect$$libinit$$0000000A)
    .ARM.Collect$$libinit$$0000000C          0x08000202   Section        0  libinit2.o(.ARM.Collect$$libinit$$0000000C)
    .ARM.Collect$$libinit$$0000000E          0x08000202   Section        0  libinit2.o(.ARM.Collect$$libinit$$0000000E)
    .ARM.Collect$$libinit$$00000011          0x08000202   Section        0  libinit2.o(.ARM.Collect$$libinit$$00000011)
    .ARM.Collect$$libinit$$00000013          0x08000202   Section        0  libinit2.o(.ARM.Collect$$libinit$$00000013)
    .ARM.Collect$$libinit$$00000015          0x08000202   Section        0  libinit2.o(.ARM.Collect$$libinit$$00000015)
    .ARM.Collect$$libinit$$00000017          0x08000202   Section        0  libinit2.o(.ARM.Collect$$libinit$$00000017)
    .ARM.Collect$$libinit$$00000019          0x08000202   Section        0  libinit2.o(.ARM.Collect$$libinit$$00000019)
    .ARM.Collect$$libinit$$0000001B          0x08000202   Section        0  libinit2.o(.ARM.Collect$$libinit$$0000001B)
    .ARM.Collect$$libinit$$0000001D          0x08000202   Section        0  libinit2.o(.ARM.Collect$$libinit$$0000001D)
    .ARM.Collect$$libinit$$0000001F          0x08000202   Section        0  libinit2.o(.ARM.Collect$$libinit$$0000001F)
    .ARM.Collect$$libinit$$00000021          0x08000202   Section        0  libinit2.o(.ARM.Collect$$libinit$$00000021)
    .ARM.Collect$$libinit$$00000023          0x08000202   Section        0  libinit2.o(.ARM.Collect$$libinit$$00000023)
    .ARM.Collect$$libinit$$00000025          0x08000202   Section        0  libinit2.o(.ARM.Collect$$libinit$$00000025)
    .ARM.Collect$$libinit$$0000002C          0x08000202   Section        0  libinit2.o(.ARM.Collect$$libinit$$0000002C)
    .ARM.Collect$$libinit$$0000002E          0x08000202   Section        0  libinit2.o(.ARM.Collect$$libinit$$0000002E)
    .ARM.Collect$$libinit$$00000030          0x08000202   Section        0  libinit2.o(.ARM.Collect$$libinit$$00000030)
    .ARM.Collect$$libinit$$00000032          0x08000202   Section        0  libinit2.o(.ARM.Collect$$libinit$$00000032)
    .ARM.Collect$$libinit$$00000033          0x08000202   Section        2  libinit2.o(.ARM.Collect$$libinit$$00000033)
    .ARM.Collect$$libshutdown$$00000000      0x08000204   Section        2  libshutdown.o(.ARM.Collect$$libshutdown$$00000000)
    .ARM.Collect$$libshutdown$$00000002      0x08000206   Section        0  libshutdown2.o(.ARM.Collect$$libshutdown$$00000002)
    .ARM.Collect$$libshutdown$$00000004      0x08000206   Section        0  libshutdown2.o(.ARM.Collect$$libshutdown$$00000004)
    .ARM.Collect$$libshutdown$$00000007      0x08000206   Section        0  libshutdown2.o(.ARM.Collect$$libshutdown$$00000007)
    .ARM.Collect$$libshutdown$$0000000A      0x08000206   Section        0  libshutdown2.o(.ARM.Collect$$libshutdown$$0000000A)
    .ARM.Collect$$libshutdown$$0000000C      0x08000206   Section        0  libshutdown2.o(.ARM.Collect$$libshutdown$$0000000C)
    .ARM.Collect$$libshutdown$$0000000F      0x08000206   Section        0  libshutdown2.o(.ARM.Collect$$libshutdown$$0000000F)
    .ARM.Collect$$libshutdown$$00000010      0x08000206   Section        2  libshutdown2.o(.ARM.Collect$$libshutdown$$00000010)
    .ARM.Collect$$rtentry$$00000000          0x08000208   Section        0  __rtentry.o(.ARM.Collect$$rtentry$$00000000)
    .ARM.Collect$$rtentry$$00000002          0x08000208   Section        0  __rtentry2.o(.ARM.Collect$$rtentry$$00000002)
    .ARM.Collect$$rtentry$$00000004          0x08000208   Section        6  __rtentry4.o(.ARM.Collect$$rtentry$$00000004)
    .ARM.Collect$$rtentry$$00000009          0x0800020e   Section        0  __rtentry2.o(.ARM.Collect$$rtentry$$00000009)
    .ARM.Collect$$rtentry$$0000000A          0x0800020e   Section        4  __rtentry2.o(.ARM.Collect$$rtentry$$0000000A)
    .ARM.Collect$$rtentry$$0000000C          0x08000212   Section        0  __rtentry2.o(.ARM.Collect$$rtentry$$0000000C)
    .ARM.Collect$$rtentry$$0000000D          0x08000212   Section        8  __rtentry2.o(.ARM.Collect$$rtentry$$0000000D)
    .ARM.Collect$$rtexit$$00000000           0x0800021a   Section        2  rtexit.o(.ARM.Collect$$rtexit$$00000000)
    .ARM.Collect$$rtexit$$00000002           0x0800021c   Section        0  rtexit2.o(.ARM.Collect$$rtexit$$00000002)
    .ARM.Collect$$rtexit$$00000003           0x0800021c   Section        4  rtexit2.o(.ARM.Collect$$rtexit$$00000003)
    .ARM.Collect$$rtexit$$00000004           0x08000220   Section        6  rtexit2.o(.ARM.Collect$$rtexit$$00000004)
    .text                                    0x08000228   Section       64  startup_stm32f405xx.o(.text)
    $v0                                      0x08000228   Number         0  startup_stm32f405xx.o(.text)
    .text                                    0x08000268   Section      238  lludivv7m.o(.text)
    .text                                    0x08000356   Section       78  rt_memclr_w.o(.text)
    .text                                    0x080003a4   Section        0  heapauxi.o(.text)
    .text                                    0x080003aa   Section        0  _rserrno.o(.text)
    .text                                    0x080003c0   Section        8  rt_errno_addr_intlibspace.o(.text)
    .text                                    0x080003c8   Section        8  libspace.o(.text)
    .text                                    0x080003d0   Section       74  sys_stackheap_outer.o(.text)
    .text                                    0x0800041a   Section        0  exit.o(.text)
    .text                                    0x0800042c   Section        0  sys_exit.o(.text)
    .text                                    0x08000438   Section        2  use_no_semi.o(.text)
    .text                                    0x0800043a   Section        0  indicate_semi.o(.text)
    i.ALL_Init                               0x0800043c   Section        0  chassis_task.o(i.ALL_Init)
    i.BusFault_Handler                       0x0800048c   Section        0  stm32f4xx_it.o(i.BusFault_Handler)
    i.CAN1_RX0_IRQHandler                    0x08000490   Section        0  stm32f4xx_it.o(i.CAN1_RX0_IRQHandler)
    i.CAN2_RX0_IRQHandler                    0x0800049c   Section        0  stm32f4xx_it.o(i.CAN2_RX0_IRQHandler)
    i.ChassisMove_Control                    0x080004a8   Section        0  chassis_task.o(i.ChassisMove_Control)
    i.DMA1_Stream5_IRQHandler                0x080004c4   Section        0  stm32f4xx_it.o(i.DMA1_Stream5_IRQHandler)
    i.DMA1_Stream6_IRQHandler                0x080004d0   Section        0  stm32f4xx_it.o(i.DMA1_Stream6_IRQHandler)
    i.DMA2_Stream2_IRQHandler                0x080004dc   Section        0  stm32f4xx_it.o(i.DMA2_Stream2_IRQHandler)
    i.DMA_CalcBaseAndBitshift                0x080004e8   Section        0  stm32f4xx_hal_dma.o(i.DMA_CalcBaseAndBitshift)
    DMA_CalcBaseAndBitshift                  0x080004e9   Thumb Code    34  stm32f4xx_hal_dma.o(i.DMA_CalcBaseAndBitshift)
    i.DMA_CheckFifoParam                     0x08000510   Section        0  stm32f4xx_hal_dma.o(i.DMA_CheckFifoParam)
    DMA_CheckFifoParam                       0x08000511   Thumb Code    84  stm32f4xx_hal_dma.o(i.DMA_CheckFifoParam)
    i.DMA_MultiBufferSetConfig               0x08000564   Section        0  stm32f4xx_hal_dma_ex.o(i.DMA_MultiBufferSetConfig)
    DMA_MultiBufferSetConfig                 0x08000565   Thumb Code    30  stm32f4xx_hal_dma_ex.o(i.DMA_MultiBufferSetConfig)
    i.DebugMon_Handler                       0x08000582   Section        0  stm32f4xx_it.o(i.DebugMon_Handler)
    i.Error_Handler                          0x08000584   Section        0  main.o(i.Error_Handler)
    i.HAL_CAN_ActivateNotification           0x08000588   Section        0  stm32f4xx_hal_can.o(i.HAL_CAN_ActivateNotification)
    i.HAL_CAN_AddTxMessage                   0x080005ac   Section        0  stm32f4xx_hal_can.o(i.HAL_CAN_AddTxMessage)
    i.HAL_CAN_ConfigFilter                   0x08000674   Section        0  stm32f4xx_hal_can.o(i.HAL_CAN_ConfigFilter)
    i.HAL_CAN_ErrorCallback                  0x08000780   Section        0  stm32f4xx_hal_can.o(i.HAL_CAN_ErrorCallback)
    i.HAL_CAN_GetRxMessage                   0x08000782   Section        0  stm32f4xx_hal_can.o(i.HAL_CAN_GetRxMessage)
    i.HAL_CAN_IRQHandler                     0x0800086a   Section        0  stm32f4xx_hal_can.o(i.HAL_CAN_IRQHandler)
    i.HAL_CAN_Init                           0x08000a60   Section        0  stm32f4xx_hal_can.o(i.HAL_CAN_Init)
    i.HAL_CAN_MspInit                        0x08000bf0   Section        0  can.o(i.HAL_CAN_MspInit)
    i.HAL_CAN_RegisterCallback               0x08000cf0   Section        0  stm32f4xx_hal_can.o(i.HAL_CAN_RegisterCallback)
    i.HAL_CAN_RxFifo0FullCallback            0x08000d7c   Section        0  stm32f4xx_hal_can.o(i.HAL_CAN_RxFifo0FullCallback)
    i.HAL_CAN_RxFifo0MsgPendingCallback      0x08000d7e   Section        0  stm32f4xx_hal_can.o(i.HAL_CAN_RxFifo0MsgPendingCallback)
    i.HAL_CAN_RxFifo1FullCallback            0x08000d80   Section        0  stm32f4xx_hal_can.o(i.HAL_CAN_RxFifo1FullCallback)
    i.HAL_CAN_RxFifo1MsgPendingCallback      0x08000d82   Section        0  stm32f4xx_hal_can.o(i.HAL_CAN_RxFifo1MsgPendingCallback)
    i.HAL_CAN_SleepCallback                  0x08000d84   Section        0  stm32f4xx_hal_can.o(i.HAL_CAN_SleepCallback)
    i.HAL_CAN_Start                          0x08000d88   Section        0  stm32f4xx_hal_can.o(i.HAL_CAN_Start)
    i.HAL_CAN_TxMailbox0AbortCallback        0x08000de0   Section        0  stm32f4xx_hal_can.o(i.HAL_CAN_TxMailbox0AbortCallback)
    i.HAL_CAN_TxMailbox0CompleteCallback     0x08000de2   Section        0  stm32f4xx_hal_can.o(i.HAL_CAN_TxMailbox0CompleteCallback)
    i.HAL_CAN_TxMailbox1AbortCallback        0x08000de4   Section        0  stm32f4xx_hal_can.o(i.HAL_CAN_TxMailbox1AbortCallback)
    i.HAL_CAN_TxMailbox1CompleteCallback     0x08000de6   Section        0  stm32f4xx_hal_can.o(i.HAL_CAN_TxMailbox1CompleteCallback)
    i.HAL_CAN_TxMailbox2AbortCallback        0x08000de8   Section        0  stm32f4xx_hal_can.o(i.HAL_CAN_TxMailbox2AbortCallback)
    i.HAL_CAN_TxMailbox2CompleteCallback     0x08000dea   Section        0  stm32f4xx_hal_can.o(i.HAL_CAN_TxMailbox2CompleteCallback)
    i.HAL_CAN_WakeUpFromRxMsgCallback        0x08000dec   Section        0  stm32f4xx_hal_can.o(i.HAL_CAN_WakeUpFromRxMsgCallback)
    i.HAL_DMAEx_MultiBufferStart             0x08000dee   Section        0  stm32f4xx_hal_dma_ex.o(i.HAL_DMAEx_MultiBufferStart)
    i.HAL_DMA_Abort                          0x08000e52   Section        0  stm32f4xx_hal_dma.o(i.HAL_DMA_Abort)
    i.HAL_DMA_Abort_IT                       0x08000ee4   Section        0  stm32f4xx_hal_dma.o(i.HAL_DMA_Abort_IT)
    i.HAL_DMA_IRQHandler                     0x08000f08   Section        0  stm32f4xx_hal_dma.o(i.HAL_DMA_IRQHandler)
    i.HAL_DMA_Init                           0x080010a8   Section        0  stm32f4xx_hal_dma.o(i.HAL_DMA_Init)
    i.HAL_GPIO_Init                          0x0800117c   Section        0  stm32f4xx_hal_gpio.o(i.HAL_GPIO_Init)
    i.HAL_GetTick                            0x0800136c   Section        0  stm32f4xx_hal.o(i.HAL_GetTick)
    i.HAL_IncTick                            0x08001378   Section        0  stm32f4xx_hal.o(i.HAL_IncTick)
    i.HAL_Init                               0x08001388   Section        0  stm32f4xx_hal.o(i.HAL_Init)
    i.HAL_InitTick                           0x080013bc   Section        0  stm32f4xx_hal.o(i.HAL_InitTick)
    i.HAL_MspInit                            0x080013fc   Section        0  stm32f4xx_hal_msp.o(i.HAL_MspInit)
    i.HAL_NVIC_EnableIRQ                     0x0800142c   Section        0  stm32f4xx_hal_cortex.o(i.HAL_NVIC_EnableIRQ)
    i.HAL_NVIC_SetPriority                   0x08001448   Section        0  stm32f4xx_hal_cortex.o(i.HAL_NVIC_SetPriority)
    i.HAL_NVIC_SetPriorityGrouping           0x08001488   Section        0  stm32f4xx_hal_cortex.o(i.HAL_NVIC_SetPriorityGrouping)
    i.HAL_RCC_ClockConfig                    0x080014ac   Section        0  stm32f4xx_hal_rcc.o(i.HAL_RCC_ClockConfig)
    i.HAL_RCC_GetPCLK1Freq                   0x080015e0   Section        0  stm32f4xx_hal_rcc.o(i.HAL_RCC_GetPCLK1Freq)
    i.HAL_RCC_GetPCLK2Freq                   0x08001600   Section        0  stm32f4xx_hal_rcc.o(i.HAL_RCC_GetPCLK2Freq)
    i.HAL_RCC_GetSysClockFreq                0x08001620   Section        0  stm32f4xx_hal_rcc.o(i.HAL_RCC_GetSysClockFreq)
    i.HAL_RCC_OscConfig                      0x08001680   Section        0  stm32f4xx_hal_rcc.o(i.HAL_RCC_OscConfig)
    i.HAL_SYSTICK_Config                     0x080019ec   Section        0  stm32f4xx_hal_cortex.o(i.HAL_SYSTICK_Config)
    i.HAL_TIMEx_BreakCallback                0x08001a14   Section        0  stm32f4xx_hal_tim_ex.o(i.HAL_TIMEx_BreakCallback)
    i.HAL_TIMEx_CommutCallback               0x08001a16   Section        0  stm32f4xx_hal_tim_ex.o(i.HAL_TIMEx_CommutCallback)
    i.HAL_TIMEx_MasterConfigSynchronization  0x08001a18   Section        0  stm32f4xx_hal_tim_ex.o(i.HAL_TIMEx_MasterConfigSynchronization)
    i.HAL_TIM_Base_Init                      0x08001aa8   Section        0  stm32f4xx_hal_tim.o(i.HAL_TIM_Base_Init)
    i.HAL_TIM_Base_MspInit                   0x08001b04   Section        0  tim.o(i.HAL_TIM_Base_MspInit)
    i.HAL_TIM_Base_Start_IT                  0x08001b3c   Section        0  stm32f4xx_hal_tim.o(i.HAL_TIM_Base_Start_IT)
    i.HAL_TIM_ConfigClockSource              0x08001bbc   Section        0  stm32f4xx_hal_tim.o(i.HAL_TIM_ConfigClockSource)
    i.HAL_TIM_IC_CaptureCallback             0x08001c98   Section        0  stm32f4xx_hal_tim.o(i.HAL_TIM_IC_CaptureCallback)
    i.HAL_TIM_IRQHandler                     0x08001c9a   Section        0  stm32f4xx_hal_tim.o(i.HAL_TIM_IRQHandler)
    i.HAL_TIM_OC_DelayElapsedCallback        0x08001e00   Section        0  stm32f4xx_hal_tim.o(i.HAL_TIM_OC_DelayElapsedCallback)
    i.HAL_TIM_PWM_PulseFinishedCallback      0x08001e02   Section        0  stm32f4xx_hal_tim.o(i.HAL_TIM_PWM_PulseFinishedCallback)
    i.HAL_TIM_PeriodElapsedCallback          0x08001e04   Section        0  chassis_task.o(i.HAL_TIM_PeriodElapsedCallback)
    i.HAL_TIM_TriggerCallback                0x08001e1c   Section        0  stm32f4xx_hal_tim.o(i.HAL_TIM_TriggerCallback)
    i.HAL_UARTEx_RxEventCallback             0x08001e1e   Section        0  stm32f4xx_hal_uart.o(i.HAL_UARTEx_RxEventCallback)
    i.HAL_UART_AbortCpltCallback             0x08001e20   Section        0  stm32f4xx_hal_uart.o(i.HAL_UART_AbortCpltCallback)
    i.HAL_UART_AbortReceiveCpltCallback      0x08001e22   Section        0  stm32f4xx_hal_uart.o(i.HAL_UART_AbortReceiveCpltCallback)
    i.HAL_UART_AbortTransmitCpltCallback     0x08001e24   Section        0  stm32f4xx_hal_uart.o(i.HAL_UART_AbortTransmitCpltCallback)
    i.HAL_UART_ErrorCallback                 0x08001e26   Section        0  stm32f4xx_hal_uart.o(i.HAL_UART_ErrorCallback)
    i.HAL_UART_IRQHandler                    0x08001e28   Section        0  stm32f4xx_hal_uart.o(i.HAL_UART_IRQHandler)
    i.HAL_UART_Init                          0x08002090   Section        0  stm32f4xx_hal_uart.o(i.HAL_UART_Init)
    i.HAL_UART_MspInit                       0x08002104   Section        0  usart.o(i.HAL_UART_MspInit)
    i.HAL_UART_RegisterRxEventCallback       0x08002274   Section        0  stm32f4xx_hal_uart.o(i.HAL_UART_RegisterRxEventCallback)
    i.HAL_UART_RxCpltCallback                0x080022b6   Section        0  stm32f4xx_hal_uart.o(i.HAL_UART_RxCpltCallback)
    i.HAL_UART_RxHalfCpltCallback            0x080022b8   Section        0  stm32f4xx_hal_uart.o(i.HAL_UART_RxHalfCpltCallback)
    i.HAL_UART_TxCpltCallback                0x080022ba   Section        0  stm32f4xx_hal_uart.o(i.HAL_UART_TxCpltCallback)
    i.HAL_UART_TxHalfCpltCallback            0x080022bc   Section        0  stm32f4xx_hal_uart.o(i.HAL_UART_TxHalfCpltCallback)
    i.HardFault_Handler                      0x080022be   Section        0  stm32f4xx_it.o(i.HardFault_Handler)
    i.IFR_CAN_Receive_Start_Init             0x080022c0   Section        0  ifr_can.o(i.IFR_CAN_Receive_Start_Init)
    i.IFR_CAN_Recevice_Callback              0x08002354   Section        0  ifr_can.o(i.IFR_CAN_Recevice_Callback)
    i.IFR_DJI_Motor_Analysis                 0x080023c4   Section        0  ifr_dji_motor.o(i.IFR_DJI_Motor_Analysis)
    i.IFR_DJI_Motor_Transmit                 0x08002440   Section        0  ifr_dji_motor.o(i.IFR_DJI_Motor_Transmit)
    i.IFR_DJI_Remote_Process                 0x08002520   Section        0  ifr_dji_remote.o(i.IFR_DJI_Remote_Process)
    i.IFR_PID_Init                           0x0800259c   Section        0  ifr_pid.o(i.IFR_PID_Init)
    i.IFR_Positional_PID                     0x080025b4   Section        0  ifr_pid.o(i.IFR_Positional_PID)
    i.IFR_UDBx_Init                          0x080026b0   Section        0  ifr_usart.o(i.IFR_UDBx_Init)
    i.IFR_Uart_DoubleBuffer_Recevice_Callback 0x08002760   Section        0  ifr_usart.o(i.IFR_Uart_DoubleBuffer_Recevice_Callback)
    IFR_Uart_DoubleBuffer_Recevice_Callback  0x08002761   Thumb Code   172  ifr_usart.o(i.IFR_Uart_DoubleBuffer_Recevice_Callback)
    i.Key_Analysis                           0x08002828   Section        0  ifr_dji_remote.o(i.Key_Analysis)
    Key_Analysis                             0x08002829   Thumb Code   124  ifr_dji_remote.o(i.Key_Analysis)
    i.MX_CAN1_Init                           0x080028ac   Section        0  can.o(i.MX_CAN1_Init)
    i.MX_CAN2_Init                           0x080028e8   Section        0  can.o(i.MX_CAN2_Init)
    i.MX_DMA_Init                            0x08002924   Section        0  dma.o(i.MX_DMA_Init)
    i.MX_GPIO_Init                           0x08002980   Section        0  gpio.o(i.MX_GPIO_Init)
    i.MX_TIM2_Init                           0x080029bc   Section        0  tim.o(i.MX_TIM2_Init)
    i.MX_USART1_UART_Init                    0x08002a20   Section        0  usart.o(i.MX_USART1_UART_Init)
    i.MX_USART2_UART_Init                    0x08002a64   Section        0  usart.o(i.MX_USART2_UART_Init)
    i.MemManage_Handler                      0x08002a9c   Section        0  stm32f4xx_it.o(i.MemManage_Handler)
    i.MotorTarget_Set                        0x08002aa0   Section        0  chassis_behavior.o(i.MotorTarget_Set)
    i.Motor_Drive                            0x08002bd0   Section        0  chassis_behavior.o(i.Motor_Drive)
    i.NMI_Handler                            0x08002c50   Section        0  stm32f4xx_it.o(i.NMI_Handler)
    i.PID_ALL_Init                           0x08002c54   Section        0  chassis_task.o(i.PID_ALL_Init)
    i.PID_pos                                0x08002d98   Section        0  ifr_pid.o(i.PID_pos)
    i.PendSV_Handler                         0x08002dcc   Section        0  stm32f4xx_it.o(i.PendSV_Handler)
    i.SVC_Handler                            0x08002dce   Section        0  stm32f4xx_it.o(i.SVC_Handler)
    i.State_Machine                          0x08002dd0   Section        0  ifr_state.o(i.State_Machine)
    i.SysTick_Handler                        0x08002e20   Section        0  stm32f4xx_it.o(i.SysTick_Handler)
    i.SystemClock_Config                     0x08002e24   Section        0  main.o(i.SystemClock_Config)
    i.SystemInit                             0x08002eb8   Section        0  system_stm32f4xx.o(i.SystemInit)
    i.TIM2_IRQHandler                        0x08002ec8   Section        0  stm32f4xx_it.o(i.TIM2_IRQHandler)
    i.TIM_Base_SetConfig                     0x08002ed4   Section        0  stm32f4xx_hal_tim.o(i.TIM_Base_SetConfig)
    i.TIM_ETR_SetConfig                      0x08002f9c   Section        0  stm32f4xx_hal_tim.o(i.TIM_ETR_SetConfig)
    i.TIM_ITRx_SetConfig                     0x08002fb0   Section        0  stm32f4xx_hal_tim.o(i.TIM_ITRx_SetConfig)
    TIM_ITRx_SetConfig                       0x08002fb1   Thumb Code    16  stm32f4xx_hal_tim.o(i.TIM_ITRx_SetConfig)
    i.TIM_TI1_ConfigInputStage               0x08002fc0   Section        0  stm32f4xx_hal_tim.o(i.TIM_TI1_ConfigInputStage)
    TIM_TI1_ConfigInputStage                 0x08002fc1   Thumb Code    34  stm32f4xx_hal_tim.o(i.TIM_TI1_ConfigInputStage)
    i.TIM_TI2_ConfigInputStage               0x08002fe2   Section        0  stm32f4xx_hal_tim.o(i.TIM_TI2_ConfigInputStage)
    TIM_TI2_ConfigInputStage                 0x08002fe3   Thumb Code    36  stm32f4xx_hal_tim.o(i.TIM_TI2_ConfigInputStage)
    i.TarSpeed_Receive                       0x08003008   Section        0  chassis_behavior.o(i.TarSpeed_Receive)
    i.ThreeSteering_MoveIK                   0x08003040   Section        0  chassis_behavior.o(i.ThreeSteering_MoveIK)
    i.UART_DMAAbortOnError                   0x080037a4   Section        0  stm32f4xx_hal_uart.o(i.UART_DMAAbortOnError)
    UART_DMAAbortOnError                     0x080037a5   Thumb Code    12  stm32f4xx_hal_uart.o(i.UART_DMAAbortOnError)
    i.UART_EndRxTransfer                     0x080037b0   Section        0  stm32f4xx_hal_uart.o(i.UART_EndRxTransfer)
    UART_EndRxTransfer                       0x080037b1   Thumb Code    78  stm32f4xx_hal_uart.o(i.UART_EndRxTransfer)
    i.UART_InitCallbacksToDefault            0x08003800   Section        0  stm32f4xx_hal_uart.o(i.UART_InitCallbacksToDefault)
    i.UART_Receive_IT                        0x0800384c   Section        0  stm32f4xx_hal_uart.o(i.UART_Receive_IT)
    UART_Receive_IT                          0x0800384d   Thumb Code   192  stm32f4xx_hal_uart.o(i.UART_Receive_IT)
    i.UART_SetConfig                         0x0800390c   Section        0  stm32f4xx_hal_uart.o(i.UART_SetConfig)
    UART_SetConfig                           0x0800390d   Thumb Code   258  stm32f4xx_hal_uart.o(i.UART_SetConfig)
    i.USART1_IRQHandler                      0x08003a18   Section        0  stm32f4xx_it.o(i.USART1_IRQHandler)
    i.USART2_IRQHandler                      0x08003a24   Section        0  stm32f4xx_it.o(i.USART2_IRQHandler)
    i.UsageFault_Handler                     0x08003a30   Section        0  stm32f4xx_it.o(i.UsageFault_Handler)
    i.__ARM_fpclassify                       0x08003a32   Section        0  fpclassify.o(i.__ARM_fpclassify)
    i.__NVIC_SetPriority                     0x08003a62   Section        0  stm32f4xx_hal_cortex.o(i.__NVIC_SetPriority)
    __NVIC_SetPriority                       0x08003a63   Thumb Code    32  stm32f4xx_hal_cortex.o(i.__NVIC_SetPriority)
    i.__hardfp_atan                          0x08003a88   Section        0  atan.o(i.__hardfp_atan)
    i.__hardfp_atan2                         0x08003d60   Section        0  atan2.o(i.__hardfp_atan2)
    i.__hardfp_cos                           0x08003f50   Section        0  cos.o(i.__hardfp_cos)
    i.__hardfp_sin                           0x08004018   Section        0  sin.o(i.__hardfp_sin)
    i.__hardfp_sqrt                          0x080040e0   Section        0  sqrt.o(i.__hardfp_sqrt)
    i.__ieee754_rem_pio2                     0x08004160   Section        0  rred.o(i.__ieee754_rem_pio2)
    i.__kernel_cos                           0x08004598   Section        0  cos_i.o(i.__kernel_cos)
    i.__kernel_poly                          0x08004708   Section        0  poly.o(i.__kernel_poly)
    i.__kernel_sin                           0x08004800   Section        0  sin_i.o(i.__kernel_sin)
    i.__mathlib_dbl_infnan                   0x08004930   Section        0  dunder.o(i.__mathlib_dbl_infnan)
    i.__mathlib_dbl_infnan2                  0x08004944   Section        0  dunder.o(i.__mathlib_dbl_infnan2)
    i.__mathlib_dbl_invalid                  0x08004958   Section        0  dunder.o(i.__mathlib_dbl_invalid)
    i.__mathlib_dbl_underflow                0x08004978   Section        0  dunder.o(i.__mathlib_dbl_underflow)
    i.atan                                   0x08004998   Section        0  atan.o(i.atan)
    i.fabs                                   0x080049a8   Section        0  fabs.o(i.fabs)
    i.main                                   0x080049c0   Section        0  main.o(i.main)
    x$fpl$basic                              0x080049ea   Section       24  basic.o(x$fpl$basic)
    $v0                                      0x080049ea   Number         0  basic.o(x$fpl$basic)
    x$fpl$d2f                                0x08004a04   Section       98  d2f.o(x$fpl$d2f)
    $v0                                      0x08004a04   Number         0  d2f.o(x$fpl$d2f)
    x$fpl$dadd                               0x08004a68   Section      336  daddsub_clz.o(x$fpl$dadd)
    $v0                                      0x08004a68   Number         0  daddsub_clz.o(x$fpl$dadd)
    _dadd1                                   0x08004a79   Thumb Code     0  daddsub_clz.o(x$fpl$dadd)
    x$fpl$dcmpinf                            0x08004bb8   Section       24  dcmpi.o(x$fpl$dcmpinf)
    $v0                                      0x08004bb8   Number         0  dcmpi.o(x$fpl$dcmpinf)
    x$fpl$ddiv                               0x08004bd0   Section      688  ddiv.o(x$fpl$ddiv)
    $v0                                      0x08004bd0   Number         0  ddiv.o(x$fpl$ddiv)
    ddiv_entry                               0x08004bd7   Thumb Code     0  ddiv.o(x$fpl$ddiv)
    x$fpl$deqf                               0x08004e80   Section      120  deqf.o(x$fpl$deqf)
    $v0                                      0x08004e80   Number         0  deqf.o(x$fpl$deqf)
    x$fpl$dfix                               0x08004ef8   Section       94  dfix.o(x$fpl$dfix)
    $v0                                      0x08004ef8   Number         0  dfix.o(x$fpl$dfix)
    x$fpl$dflt                               0x08004f56   Section       46  dflt_clz.o(x$fpl$dflt)
    $v0                                      0x08004f56   Number         0  dflt_clz.o(x$fpl$dflt)
    x$fpl$dfltu                              0x08004f84   Section       38  dflt_clz.o(x$fpl$dfltu)
    $v0                                      0x08004f84   Number         0  dflt_clz.o(x$fpl$dfltu)
    x$fpl$dleqf                              0x08004fac   Section      120  dleqf.o(x$fpl$dleqf)
    $v0                                      0x08004fac   Number         0  dleqf.o(x$fpl$dleqf)
    x$fpl$dmul                               0x08005024   Section      340  dmul.o(x$fpl$dmul)
    $v0                                      0x08005024   Number         0  dmul.o(x$fpl$dmul)
    x$fpl$dnaninf                            0x08005178   Section      156  dnaninf.o(x$fpl$dnaninf)
    $v0                                      0x08005178   Number         0  dnaninf.o(x$fpl$dnaninf)
    x$fpl$dretinf                            0x08005214   Section       12  dretinf.o(x$fpl$dretinf)
    $v0                                      0x08005214   Number         0  dretinf.o(x$fpl$dretinf)
    x$fpl$drleqf                             0x08005220   Section      108  drleqf.o(x$fpl$drleqf)
    $v0                                      0x08005220   Number         0  drleqf.o(x$fpl$drleqf)
    x$fpl$drsb                               0x0800528c   Section       22  daddsub_clz.o(x$fpl$drsb)
    $v0                                      0x0800528c   Number         0  daddsub_clz.o(x$fpl$drsb)
    x$fpl$dsqrt                              0x080052a4   Section      408  dsqrt_umaal.o(x$fpl$dsqrt)
    $v0                                      0x080052a4   Number         0  dsqrt_umaal.o(x$fpl$dsqrt)
    x$fpl$dsub                               0x0800543c   Section      468  daddsub_clz.o(x$fpl$dsub)
    $v0                                      0x0800543c   Number         0  daddsub_clz.o(x$fpl$dsub)
    _dsub1                                   0x0800544d   Thumb Code     0  daddsub_clz.o(x$fpl$dsub)
    x$fpl$f2d                                0x08005610   Section       86  f2d.o(x$fpl$f2d)
    $v0                                      0x08005610   Number         0  f2d.o(x$fpl$f2d)
    x$fpl$fnaninf                            0x08005666   Section      140  fnaninf.o(x$fpl$fnaninf)
    $v0                                      0x08005666   Number         0  fnaninf.o(x$fpl$fnaninf)
    x$fpl$fpinit                             0x080056f2   Section       10  fpinit.o(x$fpl$fpinit)
    $v0                                      0x080056f2   Number         0  fpinit.o(x$fpl$fpinit)
    x$fpl$fretinf                            0x080056fc   Section       10  fretinf.o(x$fpl$fretinf)
    $v0                                      0x080056fc   Number         0  fretinf.o(x$fpl$fretinf)
    .constdata                               0x08005706   Section        8  stm32f4xx_hal_dma.o(.constdata)
    x$fpl$usenofp                            0x08005706   Section        0  usenofp.o(x$fpl$usenofp)
    flagBitshiftOffset                       0x08005706   Data           8  stm32f4xx_hal_dma.o(.constdata)
    .constdata                               0x0800570e   Section       16  system_stm32f4xx.o(.constdata)
    .constdata                               0x0800571e   Section        8  system_stm32f4xx.o(.constdata)
    .constdata                               0x08005728   Section      152  atan.o(.constdata)
    atanhi                                   0x08005728   Data          32  atan.o(.constdata)
    atanlo                                   0x08005748   Data          32  atan.o(.constdata)
    aTodd                                    0x08005768   Data          40  atan.o(.constdata)
    aTeven                                   0x08005790   Data          48  atan.o(.constdata)
    .constdata                               0x080057c0   Section       48  cos_i.o(.constdata)
    C                                        0x080057c0   Data          48  cos_i.o(.constdata)
    .constdata                               0x080057f0   Section        8  qnan.o(.constdata)
    .constdata                               0x080057f8   Section      200  rred.o(.constdata)
    pio2s                                    0x080057f8   Data          48  rred.o(.constdata)
    twooverpi                                0x08005828   Data         152  rred.o(.constdata)
    .constdata                               0x080058c0   Section       40  sin_i.o(.constdata)
    S                                        0x080058c0   Data          40  sin_i.o(.constdata)
    .data                                    0x20000000   Section        4  can.o(.data)
    HAL_RCC_CAN1_CLK_ENABLED                 0x20000000   Data           4  can.o(.data)
    .data                                    0x20000004   Section       12  stm32f4xx_hal.o(.data)
    .data                                    0x20000010   Section        4  system_stm32f4xx.o(.data)
    .data                                    0x20000014   Section       26  ifr_dji_remote.o(.data)
    i                                        0x20000014   Data           4  ifr_dji_remote.o(.data)
    .data                                    0x20000030   Section        4  ifr_pid.o(.data)
    .data                                    0x20000034   Section        1  ifr_state.o(.data)
    .data                                    0x20000038   Section       32  chassis_behavior.o(.data)
    .bss                                     0x20000058   Section      200  can.o(.bss)
    .bss                                     0x20000120   Section       72  tim.o(.bss)
    .bss                                     0x20000168   Section      520  usart.o(.bss)
    .bss                                     0x20000370   Section      664  chassis_task.o(.bss)
    .bss                                     0x20000608   Section      120  ifr_can.o(.bss)
    .bss                                     0x20000680   Section      448  ifr_dji_motor.o(.bss)
    .bss                                     0x20000840   Section       96  ifr_dji_remote.o(.bss)
    .bss                                     0x200008a0   Section      972  ifr_usart.o(.bss)
    .bss                                     0x20000c6c   Section       88  chassis_behavior.o(.bss)
    .bss                                     0x20000cc4   Section       10  chassis_behavior.o(.bss)
    .bss                                     0x20000cd0   Section       96  libspace.o(.bss)
    HEAP                                     0x20000d30   Section      512  startup_stm32f405xx.o(HEAP)
    Heap_Mem                                 0x20000d30   Data         512  startup_stm32f405xx.o(HEAP)
    STACK                                    0x20000f30   Section     1024  startup_stm32f405xx.o(STACK)
    Stack_Mem                                0x20000f30   Data        1024  startup_stm32f405xx.o(STACK)
    __initial_sp                             0x20001330   Data           0  startup_stm32f405xx.o(STACK)

    Global Symbols

    Symbol Name                              Value     Ov Type        Size  Object(Section)

    BuildAttributes$$THM_ISAv4$E$P$D$K$B$S$7EM$VFPi3$EXTD16$VFPS$VFMA$PE$A:L22UL41UL21$X:L11$S22US41US21$IEEE1$IW$USESV6$~STKCKD$USESV7$~SHL$OTIME$ROPI$IEEEX$EBA8$UX$STANDARDLIB$REQ8$PRES8$EABIv2 0x00000000   Number         0  anon$$obj.o ABSOLUTE
    __ARM_use_no_argv                        0x00000000   Number         0  main.o ABSOLUTE
    __ARM_exceptions_init                     - Undefined Weak Reference
    __alloca_initialize                       - Undefined Weak Reference
    __arm_preinit_                            - Undefined Weak Reference
    __cpp_initialize__aeabi_                  - Undefined Weak Reference
    __cxa_finalize                            - Undefined Weak Reference
    __rt_locale                               - Undefined Weak Reference
    __sigvec_lookup                           - Undefined Weak Reference
    _atexit_init                              - Undefined Weak Reference
    _call_atexit_fns                          - Undefined Weak Reference
    _clock_init                               - Undefined Weak Reference
    _fp_trap_init                             - Undefined Weak Reference
    _fp_trap_shutdown                         - Undefined Weak Reference
    _get_lc_collate                           - Undefined Weak Reference
    _get_lc_ctype                             - Undefined Weak Reference
    _get_lc_monetary                          - Undefined Weak Reference
    _get_lc_numeric                           - Undefined Weak Reference
    _get_lc_time                              - Undefined Weak Reference
    _getenv_init                              - Undefined Weak Reference
    _handle_redirection                       - Undefined Weak Reference
    _init_alloc                               - Undefined Weak Reference
    _init_user_alloc                          - Undefined Weak Reference
    _initio                                   - Undefined Weak Reference
    _rand_init                                - Undefined Weak Reference
    _signal_finish                            - Undefined Weak Reference
    _signal_init                              - Undefined Weak Reference
    _terminate_alloc                          - Undefined Weak Reference
    _terminate_user_alloc                     - Undefined Weak Reference
    _terminateio                              - Undefined Weak Reference
    __Vectors_Size                           0x00000188   Number         0  startup_stm32f405xx.o ABSOLUTE
    __Vectors                                0x08000000   Data           4  startup_stm32f405xx.o(RESET)
    __Vectors_End                            0x08000188   Data           0  startup_stm32f405xx.o(RESET)
    __main                                   0x08000189   Thumb Code     8  __main.o(!!!main)
    __scatterload                            0x08000191   Thumb Code     0  __scatter.o(!!!scatter)
    __scatterload_rt2                        0x08000191   Thumb Code    44  __scatter.o(!!!scatter)
    __scatterload_rt2_thumb_only             0x08000191   Thumb Code     0  __scatter.o(!!!scatter)
    __scatterload_null                       0x0800019f   Thumb Code     0  __scatter.o(!!!scatter)
    __scatterload_copy                       0x080001c5   Thumb Code    26  __scatter_copy.o(!!handler_copy)
    __scatterload_zeroinit                   0x080001e1   Thumb Code    28  __scatter_zi.o(!!handler_zi)
    __rt_lib_init                            0x080001fd   Thumb Code     0  libinit.o(.ARM.Collect$$libinit$$00000000)
    __rt_lib_init_fp_1                       0x080001ff   Thumb Code     0  libinit2.o(.ARM.Collect$$libinit$$00000001)
    __rt_lib_init_alloca_1                   0x08000203   Thumb Code     0  libinit2.o(.ARM.Collect$$libinit$$0000002E)
    __rt_lib_init_argv_1                     0x08000203   Thumb Code     0  libinit2.o(.ARM.Collect$$libinit$$0000002C)
    __rt_lib_init_atexit_1                   0x08000203   Thumb Code     0  libinit2.o(.ARM.Collect$$libinit$$0000001B)
    __rt_lib_init_clock_1                    0x08000203   Thumb Code     0  libinit2.o(.ARM.Collect$$libinit$$00000021)
    __rt_lib_init_cpp_1                      0x08000203   Thumb Code     0  libinit2.o(.ARM.Collect$$libinit$$00000032)
    __rt_lib_init_exceptions_1               0x08000203   Thumb Code     0  libinit2.o(.ARM.Collect$$libinit$$00000030)
    __rt_lib_init_fp_trap_1                  0x08000203   Thumb Code     0  libinit2.o(.ARM.Collect$$libinit$$0000001F)
    __rt_lib_init_getenv_1                   0x08000203   Thumb Code     0  libinit2.o(.ARM.Collect$$libinit$$00000023)
    __rt_lib_init_heap_1                     0x08000203   Thumb Code     0  libinit2.o(.ARM.Collect$$libinit$$0000000A)
    __rt_lib_init_lc_collate_1               0x08000203   Thumb Code     0  libinit2.o(.ARM.Collect$$libinit$$00000011)
    __rt_lib_init_lc_ctype_1                 0x08000203   Thumb Code     0  libinit2.o(.ARM.Collect$$libinit$$00000013)
    __rt_lib_init_lc_monetary_1              0x08000203   Thumb Code     0  libinit2.o(.ARM.Collect$$libinit$$00000015)
    __rt_lib_init_lc_numeric_1               0x08000203   Thumb Code     0  libinit2.o(.ARM.Collect$$libinit$$00000017)
    __rt_lib_init_lc_time_1                  0x08000203   Thumb Code     0  libinit2.o(.ARM.Collect$$libinit$$00000019)
    __rt_lib_init_preinit_1                  0x08000203   Thumb Code     0  libinit2.o(.ARM.Collect$$libinit$$00000004)
    __rt_lib_init_rand_1                     0x08000203   Thumb Code     0  libinit2.o(.ARM.Collect$$libinit$$0000000E)
    __rt_lib_init_return                     0x08000203   Thumb Code     0  libinit2.o(.ARM.Collect$$libinit$$00000033)
    __rt_lib_init_signal_1                   0x08000203   Thumb Code     0  libinit2.o(.ARM.Collect$$libinit$$0000001D)
    __rt_lib_init_stdio_1                    0x08000203   Thumb Code     0  libinit2.o(.ARM.Collect$$libinit$$00000025)
    __rt_lib_init_user_alloc_1               0x08000203   Thumb Code     0  libinit2.o(.ARM.Collect$$libinit$$0000000C)
    __rt_lib_shutdown                        0x08000205   Thumb Code     0  libshutdown.o(.ARM.Collect$$libshutdown$$00000000)
    __rt_lib_shutdown_cpp_1                  0x08000207   Thumb Code     0  libshutdown2.o(.ARM.Collect$$libshutdown$$00000002)
    __rt_lib_shutdown_fp_trap_1              0x08000207   Thumb Code     0  libshutdown2.o(.ARM.Collect$$libshutdown$$00000007)
    __rt_lib_shutdown_heap_1                 0x08000207   Thumb Code     0  libshutdown2.o(.ARM.Collect$$libshutdown$$0000000F)
    __rt_lib_shutdown_return                 0x08000207   Thumb Code     0  libshutdown2.o(.ARM.Collect$$libshutdown$$00000010)
    __rt_lib_shutdown_signal_1               0x08000207   Thumb Code     0  libshutdown2.o(.ARM.Collect$$libshutdown$$0000000A)
    __rt_lib_shutdown_stdio_1                0x08000207   Thumb Code     0  libshutdown2.o(.ARM.Collect$$libshutdown$$00000004)
    __rt_lib_shutdown_user_alloc_1           0x08000207   Thumb Code     0  libshutdown2.o(.ARM.Collect$$libshutdown$$0000000C)
    __rt_entry                               0x08000209   Thumb Code     0  __rtentry.o(.ARM.Collect$$rtentry$$00000000)
    __rt_entry_presh_1                       0x08000209   Thumb Code     0  __rtentry2.o(.ARM.Collect$$rtentry$$00000002)
    __rt_entry_sh                            0x08000209   Thumb Code     0  __rtentry4.o(.ARM.Collect$$rtentry$$00000004)
    __rt_entry_li                            0x0800020f   Thumb Code     0  __rtentry2.o(.ARM.Collect$$rtentry$$0000000A)
    __rt_entry_postsh_1                      0x0800020f   Thumb Code     0  __rtentry2.o(.ARM.Collect$$rtentry$$00000009)
    __rt_entry_main                          0x08000213   Thumb Code     0  __rtentry2.o(.ARM.Collect$$rtentry$$0000000D)
    __rt_entry_postli_1                      0x08000213   Thumb Code     0  __rtentry2.o(.ARM.Collect$$rtentry$$0000000C)
    __rt_exit                                0x0800021b   Thumb Code     0  rtexit.o(.ARM.Collect$$rtexit$$00000000)
    __rt_exit_ls                             0x0800021d   Thumb Code     0  rtexit2.o(.ARM.Collect$$rtexit$$00000003)
    __rt_exit_prels_1                        0x0800021d   Thumb Code     0  rtexit2.o(.ARM.Collect$$rtexit$$00000002)
    __rt_exit_exit                           0x08000221   Thumb Code     0  rtexit2.o(.ARM.Collect$$rtexit$$00000004)
    Reset_Handler                            0x08000229   Thumb Code     8  startup_stm32f405xx.o(.text)
    ADC_IRQHandler                           0x08000243   Thumb Code     0  startup_stm32f405xx.o(.text)
    CAN1_RX1_IRQHandler                      0x08000243   Thumb Code     0  startup_stm32f405xx.o(.text)
    CAN1_SCE_IRQHandler                      0x08000243   Thumb Code     0  startup_stm32f405xx.o(.text)
    CAN1_TX_IRQHandler                       0x08000243   Thumb Code     0  startup_stm32f405xx.o(.text)
    CAN2_RX1_IRQHandler                      0x08000243   Thumb Code     0  startup_stm32f405xx.o(.text)
    CAN2_SCE_IRQHandler                      0x08000243   Thumb Code     0  startup_stm32f405xx.o(.text)
    CAN2_TX_IRQHandler                       0x08000243   Thumb Code     0  startup_stm32f405xx.o(.text)
    DMA1_Stream0_IRQHandler                  0x08000243   Thumb Code     0  startup_stm32f405xx.o(.text)
    DMA1_Stream1_IRQHandler                  0x08000243   Thumb Code     0  startup_stm32f405xx.o(.text)
    DMA1_Stream2_IRQHandler                  0x08000243   Thumb Code     0  startup_stm32f405xx.o(.text)
    DMA1_Stream3_IRQHandler                  0x08000243   Thumb Code     0  startup_stm32f405xx.o(.text)
    DMA1_Stream4_IRQHandler                  0x08000243   Thumb Code     0  startup_stm32f405xx.o(.text)
    DMA1_Stream7_IRQHandler                  0x08000243   Thumb Code     0  startup_stm32f405xx.o(.text)
    DMA2_Stream0_IRQHandler                  0x08000243   Thumb Code     0  startup_stm32f405xx.o(.text)
    DMA2_Stream1_IRQHandler                  0x08000243   Thumb Code     0  startup_stm32f405xx.o(.text)
    DMA2_Stream3_IRQHandler                  0x08000243   Thumb Code     0  startup_stm32f405xx.o(.text)
    DMA2_Stream4_IRQHandler                  0x08000243   Thumb Code     0  startup_stm32f405xx.o(.text)
    DMA2_Stream5_IRQHandler                  0x08000243   Thumb Code     0  startup_stm32f405xx.o(.text)
    DMA2_Stream6_IRQHandler                  0x08000243   Thumb Code     0  startup_stm32f405xx.o(.text)
    DMA2_Stream7_IRQHandler                  0x08000243   Thumb Code     0  startup_stm32f405xx.o(.text)
    EXTI0_IRQHandler                         0x08000243   Thumb Code     0  startup_stm32f405xx.o(.text)
    EXTI15_10_IRQHandler                     0x08000243   Thumb Code     0  startup_stm32f405xx.o(.text)
    EXTI1_IRQHandler                         0x08000243   Thumb Code     0  startup_stm32f405xx.o(.text)
    EXTI2_IRQHandler                         0x08000243   Thumb Code     0  startup_stm32f405xx.o(.text)
    EXTI3_IRQHandler                         0x08000243   Thumb Code     0  startup_stm32f405xx.o(.text)
    EXTI4_IRQHandler                         0x08000243   Thumb Code     0  startup_stm32f405xx.o(.text)
    EXTI9_5_IRQHandler                       0x08000243   Thumb Code     0  startup_stm32f405xx.o(.text)
    FLASH_IRQHandler                         0x08000243   Thumb Code     0  startup_stm32f405xx.o(.text)
    FMC_IRQHandler                           0x08000243   Thumb Code     0  startup_stm32f405xx.o(.text)
    FPU_IRQHandler                           0x08000243   Thumb Code     0  startup_stm32f405xx.o(.text)
    HASH_RNG_IRQHandler                      0x08000243   Thumb Code     0  startup_stm32f405xx.o(.text)
    I2C1_ER_IRQHandler                       0x08000243   Thumb Code     0  startup_stm32f405xx.o(.text)
    I2C1_EV_IRQHandler                       0x08000243   Thumb Code     0  startup_stm32f405xx.o(.text)
    I2C2_ER_IRQHandler                       0x08000243   Thumb Code     0  startup_stm32f405xx.o(.text)
    I2C2_EV_IRQHandler                       0x08000243   Thumb Code     0  startup_stm32f405xx.o(.text)
    I2C3_ER_IRQHandler                       0x08000243   Thumb Code     0  startup_stm32f405xx.o(.text)
    I2C3_EV_IRQHandler                       0x08000243   Thumb Code     0  startup_stm32f405xx.o(.text)
    OTG_FS_IRQHandler                        0x08000243   Thumb Code     0  startup_stm32f405xx.o(.text)
    OTG_FS_WKUP_IRQHandler                   0x08000243   Thumb Code     0  startup_stm32f405xx.o(.text)
    OTG_HS_EP1_IN_IRQHandler                 0x08000243   Thumb Code     0  startup_stm32f405xx.o(.text)
    OTG_HS_EP1_OUT_IRQHandler                0x08000243   Thumb Code     0  startup_stm32f405xx.o(.text)
    OTG_HS_IRQHandler                        0x08000243   Thumb Code     0  startup_stm32f405xx.o(.text)
    OTG_HS_WKUP_IRQHandler                   0x08000243   Thumb Code     0  startup_stm32f405xx.o(.text)
    PVD_IRQHandler                           0x08000243   Thumb Code     0  startup_stm32f405xx.o(.text)
    RCC_IRQHandler                           0x08000243   Thumb Code     0  startup_stm32f405xx.o(.text)
    RTC_Alarm_IRQHandler                     0x08000243   Thumb Code     0  startup_stm32f405xx.o(.text)
    RTC_WKUP_IRQHandler                      0x08000243   Thumb Code     0  startup_stm32f405xx.o(.text)
    SDIO_IRQHandler                          0x08000243   Thumb Code     0  startup_stm32f405xx.o(.text)
    SPI1_IRQHandler                          0x08000243   Thumb Code     0  startup_stm32f405xx.o(.text)
    SPI2_IRQHandler                          0x08000243   Thumb Code     0  startup_stm32f405xx.o(.text)
    SPI3_IRQHandler                          0x08000243   Thumb Code     0  startup_stm32f405xx.o(.text)
    TAMP_STAMP_IRQHandler                    0x08000243   Thumb Code     0  startup_stm32f405xx.o(.text)
    TIM1_BRK_TIM9_IRQHandler                 0x08000243   Thumb Code     0  startup_stm32f405xx.o(.text)
    TIM1_CC_IRQHandler                       0x08000243   Thumb Code     0  startup_stm32f405xx.o(.text)
    TIM1_TRG_COM_TIM11_IRQHandler            0x08000243   Thumb Code     0  startup_stm32f405xx.o(.text)
    TIM1_UP_TIM10_IRQHandler                 0x08000243   Thumb Code     0  startup_stm32f405xx.o(.text)
    TIM3_IRQHandler                          0x08000243   Thumb Code     0  startup_stm32f405xx.o(.text)
    TIM4_IRQHandler                          0x08000243   Thumb Code     0  startup_stm32f405xx.o(.text)
    TIM5_IRQHandler                          0x08000243   Thumb Code     0  startup_stm32f405xx.o(.text)
    TIM6_DAC_IRQHandler                      0x08000243   Thumb Code     0  startup_stm32f405xx.o(.text)
    TIM7_IRQHandler                          0x08000243   Thumb Code     0  startup_stm32f405xx.o(.text)
    TIM8_BRK_TIM12_IRQHandler                0x08000243   Thumb Code     0  startup_stm32f405xx.o(.text)
    TIM8_CC_IRQHandler                       0x08000243   Thumb Code     0  startup_stm32f405xx.o(.text)
    TIM8_TRG_COM_TIM14_IRQHandler            0x08000243   Thumb Code     0  startup_stm32f405xx.o(.text)
    TIM8_UP_TIM13_IRQHandler                 0x08000243   Thumb Code     0  startup_stm32f405xx.o(.text)
    UART4_IRQHandler                         0x08000243   Thumb Code     0  startup_stm32f405xx.o(.text)
    UART5_IRQHandler                         0x08000243   Thumb Code     0  startup_stm32f405xx.o(.text)
    USART3_IRQHandler                        0x08000243   Thumb Code     0  startup_stm32f405xx.o(.text)
    USART6_IRQHandler                        0x08000243   Thumb Code     0  startup_stm32f405xx.o(.text)
    WWDG_IRQHandler                          0x08000243   Thumb Code     0  startup_stm32f405xx.o(.text)
    __user_initial_stackheap                 0x08000245   Thumb Code     0  startup_stm32f405xx.o(.text)
    __aeabi_uldivmod                         0x08000269   Thumb Code     0  lludivv7m.o(.text)
    _ll_udiv                                 0x08000269   Thumb Code   238  lludivv7m.o(.text)
    __aeabi_memclr4                          0x08000357   Thumb Code     0  rt_memclr_w.o(.text)
    __aeabi_memclr8                          0x08000357   Thumb Code     0  rt_memclr_w.o(.text)
    __rt_memclr_w                            0x08000357   Thumb Code    78  rt_memclr_w.o(.text)
    _memset_w                                0x0800035b   Thumb Code     0  rt_memclr_w.o(.text)
    __use_two_region_memory                  0x080003a5   Thumb Code     2  heapauxi.o(.text)
    __rt_heap_escrow$2region                 0x080003a7   Thumb Code     2  heapauxi.o(.text)
    __rt_heap_expand$2region                 0x080003a9   Thumb Code     2  heapauxi.o(.text)
    __read_errno                             0x080003ab   Thumb Code    10  _rserrno.o(.text)
    __set_errno                              0x080003b5   Thumb Code    12  _rserrno.o(.text)
    __aeabi_errno_addr                       0x080003c1   Thumb Code     8  rt_errno_addr_intlibspace.o(.text)
    __errno$intlibspace                      0x080003c1   Thumb Code     0  rt_errno_addr_intlibspace.o(.text)
    __rt_errno_addr$intlibspace              0x080003c1   Thumb Code     0  rt_errno_addr_intlibspace.o(.text)
    __user_libspace                          0x080003c9   Thumb Code     8  libspace.o(.text)
    __user_perproc_libspace                  0x080003c9   Thumb Code     0  libspace.o(.text)
    __user_perthread_libspace                0x080003c9   Thumb Code     0  libspace.o(.text)
    __user_setup_stackheap                   0x080003d1   Thumb Code    74  sys_stackheap_outer.o(.text)
    exit                                     0x0800041b   Thumb Code    18  exit.o(.text)
    _sys_exit                                0x0800042d   Thumb Code     8  sys_exit.o(.text)
    __I$use$semihosting                      0x08000439   Thumb Code     0  use_no_semi.o(.text)
    __use_no_semihosting_swi                 0x08000439   Thumb Code     2  use_no_semi.o(.text)
    __semihosting_library_function           0x0800043b   Thumb Code     0  indicate_semi.o(.text)
    ALL_Init                                 0x0800043d   Thumb Code    48  chassis_task.o(i.ALL_Init)
    BusFault_Handler                         0x0800048d   Thumb Code     2  stm32f4xx_it.o(i.BusFault_Handler)
    CAN1_RX0_IRQHandler                      0x08000491   Thumb Code     6  stm32f4xx_it.o(i.CAN1_RX0_IRQHandler)
    CAN2_RX0_IRQHandler                      0x0800049d   Thumb Code     6  stm32f4xx_it.o(i.CAN2_RX0_IRQHandler)
    ChassisMove_Control                      0x080004a9   Thumb Code    24  chassis_task.o(i.ChassisMove_Control)
    DMA1_Stream5_IRQHandler                  0x080004c5   Thumb Code     6  stm32f4xx_it.o(i.DMA1_Stream5_IRQHandler)
    DMA1_Stream6_IRQHandler                  0x080004d1   Thumb Code     6  stm32f4xx_it.o(i.DMA1_Stream6_IRQHandler)
    DMA2_Stream2_IRQHandler                  0x080004dd   Thumb Code     6  stm32f4xx_it.o(i.DMA2_Stream2_IRQHandler)
    DebugMon_Handler                         0x08000583   Thumb Code     2  stm32f4xx_it.o(i.DebugMon_Handler)
    Error_Handler                            0x08000585   Thumb Code     4  main.o(i.Error_Handler)
    HAL_CAN_ActivateNotification             0x08000589   Thumb Code    36  stm32f4xx_hal_can.o(i.HAL_CAN_ActivateNotification)
    HAL_CAN_AddTxMessage                     0x080005ad   Thumb Code   200  stm32f4xx_hal_can.o(i.HAL_CAN_AddTxMessage)
    HAL_CAN_ConfigFilter                     0x08000675   Thumb Code   262  stm32f4xx_hal_can.o(i.HAL_CAN_ConfigFilter)
    HAL_CAN_ErrorCallback                    0x08000781   Thumb Code     2  stm32f4xx_hal_can.o(i.HAL_CAN_ErrorCallback)
    HAL_CAN_GetRxMessage                     0x08000783   Thumb Code   232  stm32f4xx_hal_can.o(i.HAL_CAN_GetRxMessage)
    HAL_CAN_IRQHandler                       0x0800086b   Thumb Code   500  stm32f4xx_hal_can.o(i.HAL_CAN_IRQHandler)
    HAL_CAN_Init                             0x08000a61   Thumb Code   342  stm32f4xx_hal_can.o(i.HAL_CAN_Init)
    HAL_CAN_MspInit                          0x08000bf1   Thumb Code   232  can.o(i.HAL_CAN_MspInit)
    HAL_CAN_RegisterCallback                 0x08000cf1   Thumb Code   140  stm32f4xx_hal_can.o(i.HAL_CAN_RegisterCallback)
    HAL_CAN_RxFifo0FullCallback              0x08000d7d   Thumb Code     2  stm32f4xx_hal_can.o(i.HAL_CAN_RxFifo0FullCallback)
    HAL_CAN_RxFifo0MsgPendingCallback        0x08000d7f   Thumb Code     2  stm32f4xx_hal_can.o(i.HAL_CAN_RxFifo0MsgPendingCallback)
    HAL_CAN_RxFifo1FullCallback              0x08000d81   Thumb Code     2  stm32f4xx_hal_can.o(i.HAL_CAN_RxFifo1FullCallback)
    HAL_CAN_RxFifo1MsgPendingCallback        0x08000d83   Thumb Code     2  stm32f4xx_hal_can.o(i.HAL_CAN_RxFifo1MsgPendingCallback)
    HAL_CAN_SleepCallback                    0x08000d85   Thumb Code     2  stm32f4xx_hal_can.o(i.HAL_CAN_SleepCallback)
    HAL_CAN_Start                            0x08000d89   Thumb Code    88  stm32f4xx_hal_can.o(i.HAL_CAN_Start)
    HAL_CAN_TxMailbox0AbortCallback          0x08000de1   Thumb Code     2  stm32f4xx_hal_can.o(i.HAL_CAN_TxMailbox0AbortCallback)
    HAL_CAN_TxMailbox0CompleteCallback       0x08000de3   Thumb Code     2  stm32f4xx_hal_can.o(i.HAL_CAN_TxMailbox0CompleteCallback)
    HAL_CAN_TxMailbox1AbortCallback          0x08000de5   Thumb Code     2  stm32f4xx_hal_can.o(i.HAL_CAN_TxMailbox1AbortCallback)
    HAL_CAN_TxMailbox1CompleteCallback       0x08000de7   Thumb Code     2  stm32f4xx_hal_can.o(i.HAL_CAN_TxMailbox1CompleteCallback)
    HAL_CAN_TxMailbox2AbortCallback          0x08000de9   Thumb Code     2  stm32f4xx_hal_can.o(i.HAL_CAN_TxMailbox2AbortCallback)
    HAL_CAN_TxMailbox2CompleteCallback       0x08000deb   Thumb Code     2  stm32f4xx_hal_can.o(i.HAL_CAN_TxMailbox2CompleteCallback)
    HAL_CAN_WakeUpFromRxMsgCallback          0x08000ded   Thumb Code     2  stm32f4xx_hal_can.o(i.HAL_CAN_WakeUpFromRxMsgCallback)
    HAL_DMAEx_MultiBufferStart               0x08000def   Thumb Code   100  stm32f4xx_hal_dma_ex.o(i.HAL_DMAEx_MultiBufferStart)
    HAL_DMA_Abort                            0x08000e53   Thumb Code   146  stm32f4xx_hal_dma.o(i.HAL_DMA_Abort)
    HAL_DMA_Abort_IT                         0x08000ee5   Thumb Code    36  stm32f4xx_hal_dma.o(i.HAL_DMA_Abort_IT)
    HAL_DMA_IRQHandler                       0x08000f09   Thumb Code   412  stm32f4xx_hal_dma.o(i.HAL_DMA_IRQHandler)
    HAL_DMA_Init                             0x080010a9   Thumb Code   206  stm32f4xx_hal_dma.o(i.HAL_DMA_Init)
    HAL_GPIO_Init                            0x0800117d   Thumb Code   450  stm32f4xx_hal_gpio.o(i.HAL_GPIO_Init)
    HAL_GetTick                              0x0800136d   Thumb Code     6  stm32f4xx_hal.o(i.HAL_GetTick)
    HAL_IncTick                              0x08001379   Thumb Code    12  stm32f4xx_hal.o(i.HAL_IncTick)
    HAL_Init                                 0x08001389   Thumb Code    48  stm32f4xx_hal.o(i.HAL_Init)
    HAL_InitTick                             0x080013bd   Thumb Code    54  stm32f4xx_hal.o(i.HAL_InitTick)
    HAL_MspInit                              0x080013fd   Thumb Code    42  stm32f4xx_hal_msp.o(i.HAL_MspInit)
    HAL_NVIC_EnableIRQ                       0x0800142d   Thumb Code    26  stm32f4xx_hal_cortex.o(i.HAL_NVIC_EnableIRQ)
    HAL_NVIC_SetPriority                     0x08001449   Thumb Code    60  stm32f4xx_hal_cortex.o(i.HAL_NVIC_SetPriority)
    HAL_NVIC_SetPriorityGrouping             0x08001489   Thumb Code    26  stm32f4xx_hal_cortex.o(i.HAL_NVIC_SetPriorityGrouping)
    HAL_RCC_ClockConfig                      0x080014ad   Thumb Code   288  stm32f4xx_hal_rcc.o(i.HAL_RCC_ClockConfig)
    HAL_RCC_GetPCLK1Freq                     0x080015e1   Thumb Code    20  stm32f4xx_hal_rcc.o(i.HAL_RCC_GetPCLK1Freq)
    HAL_RCC_GetPCLK2Freq                     0x08001601   Thumb Code    20  stm32f4xx_hal_rcc.o(i.HAL_RCC_GetPCLK2Freq)
    HAL_RCC_GetSysClockFreq                  0x08001621   Thumb Code    88  stm32f4xx_hal_rcc.o(i.HAL_RCC_GetSysClockFreq)
    HAL_RCC_OscConfig                        0x08001681   Thumb Code   856  stm32f4xx_hal_rcc.o(i.HAL_RCC_OscConfig)
    HAL_SYSTICK_Config                       0x080019ed   Thumb Code    40  stm32f4xx_hal_cortex.o(i.HAL_SYSTICK_Config)
    HAL_TIMEx_BreakCallback                  0x08001a15   Thumb Code     2  stm32f4xx_hal_tim_ex.o(i.HAL_TIMEx_BreakCallback)
    HAL_TIMEx_CommutCallback                 0x08001a17   Thumb Code     2  stm32f4xx_hal_tim_ex.o(i.HAL_TIMEx_CommutCallback)
    HAL_TIMEx_MasterConfigSynchronization    0x08001a19   Thumb Code   116  stm32f4xx_hal_tim_ex.o(i.HAL_TIMEx_MasterConfigSynchronization)
    HAL_TIM_Base_Init                        0x08001aa9   Thumb Code    90  stm32f4xx_hal_tim.o(i.HAL_TIM_Base_Init)
    HAL_TIM_Base_MspInit                     0x08001b05   Thumb Code    50  tim.o(i.HAL_TIM_Base_MspInit)
    HAL_TIM_Base_Start_IT                    0x08001b3d   Thumb Code   100  stm32f4xx_hal_tim.o(i.HAL_TIM_Base_Start_IT)
    HAL_TIM_ConfigClockSource                0x08001bbd   Thumb Code   220  stm32f4xx_hal_tim.o(i.HAL_TIM_ConfigClockSource)
    HAL_TIM_IC_CaptureCallback               0x08001c99   Thumb Code     2  stm32f4xx_hal_tim.o(i.HAL_TIM_IC_CaptureCallback)
    HAL_TIM_IRQHandler                       0x08001c9b   Thumb Code   358  stm32f4xx_hal_tim.o(i.HAL_TIM_IRQHandler)
    HAL_TIM_OC_DelayElapsedCallback          0x08001e01   Thumb Code     2  stm32f4xx_hal_tim.o(i.HAL_TIM_OC_DelayElapsedCallback)
    HAL_TIM_PWM_PulseFinishedCallback        0x08001e03   Thumb Code     2  stm32f4xx_hal_tim.o(i.HAL_TIM_PWM_PulseFinishedCallback)
    HAL_TIM_PeriodElapsedCallback            0x08001e05   Thumb Code    24  chassis_task.o(i.HAL_TIM_PeriodElapsedCallback)
    HAL_TIM_TriggerCallback                  0x08001e1d   Thumb Code     2  stm32f4xx_hal_tim.o(i.HAL_TIM_TriggerCallback)
    HAL_UARTEx_RxEventCallback               0x08001e1f   Thumb Code     2  stm32f4xx_hal_uart.o(i.HAL_UARTEx_RxEventCallback)
    HAL_UART_AbortCpltCallback               0x08001e21   Thumb Code     2  stm32f4xx_hal_uart.o(i.HAL_UART_AbortCpltCallback)
    HAL_UART_AbortReceiveCpltCallback        0x08001e23   Thumb Code     2  stm32f4xx_hal_uart.o(i.HAL_UART_AbortReceiveCpltCallback)
    HAL_UART_AbortTransmitCpltCallback       0x08001e25   Thumb Code     2  stm32f4xx_hal_uart.o(i.HAL_UART_AbortTransmitCpltCallback)
    HAL_UART_ErrorCallback                   0x08001e27   Thumb Code     2  stm32f4xx_hal_uart.o(i.HAL_UART_ErrorCallback)
    HAL_UART_IRQHandler                      0x08001e29   Thumb Code   612  stm32f4xx_hal_uart.o(i.HAL_UART_IRQHandler)
    HAL_UART_Init                            0x08002091   Thumb Code   112  stm32f4xx_hal_uart.o(i.HAL_UART_Init)
    HAL_UART_MspInit                         0x08002105   Thumb Code   338  usart.o(i.HAL_UART_MspInit)
    HAL_UART_RegisterRxEventCallback         0x08002275   Thumb Code    66  stm32f4xx_hal_uart.o(i.HAL_UART_RegisterRxEventCallback)
    HAL_UART_RxCpltCallback                  0x080022b7   Thumb Code     2  stm32f4xx_hal_uart.o(i.HAL_UART_RxCpltCallback)
    HAL_UART_RxHalfCpltCallback              0x080022b9   Thumb Code     2  stm32f4xx_hal_uart.o(i.HAL_UART_RxHalfCpltCallback)
    HAL_UART_TxCpltCallback                  0x080022bb   Thumb Code     2  stm32f4xx_hal_uart.o(i.HAL_UART_TxCpltCallback)
    HAL_UART_TxHalfCpltCallback              0x080022bd   Thumb Code     2  stm32f4xx_hal_uart.o(i.HAL_UART_TxHalfCpltCallback)
    HardFault_Handler                        0x080022bf   Thumb Code     2  stm32f4xx_it.o(i.HardFault_Handler)
    IFR_CAN_Receive_Start_Init               0x080022c1   Thumb Code   132  ifr_can.o(i.IFR_CAN_Receive_Start_Init)
    IFR_CAN_Recevice_Callback                0x08002355   Thumb Code    98  ifr_can.o(i.IFR_CAN_Recevice_Callback)
    IFR_DJI_Motor_Analysis                   0x080023c5   Thumb Code   118  ifr_dji_motor.o(i.IFR_DJI_Motor_Analysis)
    IFR_DJI_Motor_Transmit                   0x08002441   Thumb Code   210  ifr_dji_motor.o(i.IFR_DJI_Motor_Transmit)
    IFR_DJI_Remote_Process                   0x08002521   Thumb Code   118  ifr_dji_remote.o(i.IFR_DJI_Remote_Process)
    IFR_PID_Init                             0x0800259d   Thumb Code    22  ifr_pid.o(i.IFR_PID_Init)
    IFR_Positional_PID                       0x080025b5   Thumb Code   248  ifr_pid.o(i.IFR_Positional_PID)
    IFR_UDBx_Init                            0x080026b1   Thumb Code   144  ifr_usart.o(i.IFR_UDBx_Init)
    MX_CAN1_Init                             0x080028ad   Thumb Code    52  can.o(i.MX_CAN1_Init)
    MX_CAN2_Init                             0x080028e9   Thumb Code    52  can.o(i.MX_CAN2_Init)
    MX_DMA_Init                              0x08002925   Thumb Code    88  dma.o(i.MX_DMA_Init)
    MX_GPIO_Init                             0x08002981   Thumb Code    54  gpio.o(i.MX_GPIO_Init)
    MX_TIM2_Init                             0x080029bd   Thumb Code    96  tim.o(i.MX_TIM2_Init)
    MX_USART1_UART_Init                      0x08002a21   Thumb Code    54  usart.o(i.MX_USART1_UART_Init)
    MX_USART2_UART_Init                      0x08002a65   Thumb Code    48  usart.o(i.MX_USART2_UART_Init)
    MemManage_Handler                        0x08002a9d   Thumb Code     2  stm32f4xx_it.o(i.MemManage_Handler)
    MotorTarget_Set                          0x08002aa1   Thumb Code   276  chassis_behavior.o(i.MotorTarget_Set)
    Motor_Drive                              0x08002bd1   Thumb Code   114  chassis_behavior.o(i.Motor_Drive)
    NMI_Handler                              0x08002c51   Thumb Code     2  stm32f4xx_it.o(i.NMI_Handler)
    PID_ALL_Init                             0x08002c55   Thumb Code   306  chassis_task.o(i.PID_ALL_Init)
    PID_pos                                  0x08002d99   Thumb Code    48  ifr_pid.o(i.PID_pos)
    PendSV_Handler                           0x08002dcd   Thumb Code     2  stm32f4xx_it.o(i.PendSV_Handler)
    SVC_Handler                              0x08002dcf   Thumb Code     2  stm32f4xx_it.o(i.SVC_Handler)
    State_Machine                            0x08002dd1   Thumb Code    64  ifr_state.o(i.State_Machine)
    SysTick_Handler                          0x08002e21   Thumb Code     4  stm32f4xx_it.o(i.SysTick_Handler)
    SystemClock_Config                       0x08002e25   Thumb Code   138  main.o(i.SystemClock_Config)
    SystemInit                               0x08002eb9   Thumb Code    12  system_stm32f4xx.o(i.SystemInit)
    TIM2_IRQHandler                          0x08002ec9   Thumb Code     6  stm32f4xx_it.o(i.TIM2_IRQHandler)
    TIM_Base_SetConfig                       0x08002ed5   Thumb Code   156  stm32f4xx_hal_tim.o(i.TIM_Base_SetConfig)
    TIM_ETR_SetConfig                        0x08002f9d   Thumb Code    20  stm32f4xx_hal_tim.o(i.TIM_ETR_SetConfig)
    TarSpeed_Receive                         0x08003009   Thumb Code    52  chassis_behavior.o(i.TarSpeed_Receive)
    ThreeSteering_MoveIK                     0x08003041   Thumb Code  1878  chassis_behavior.o(i.ThreeSteering_MoveIK)
    UART_InitCallbacksToDefault              0x08003801   Thumb Code    38  stm32f4xx_hal_uart.o(i.UART_InitCallbacksToDefault)
    USART1_IRQHandler                        0x08003a19   Thumb Code     6  stm32f4xx_it.o(i.USART1_IRQHandler)
    USART2_IRQHandler                        0x08003a25   Thumb Code     6  stm32f4xx_it.o(i.USART2_IRQHandler)
    UsageFault_Handler                       0x08003a31   Thumb Code     2  stm32f4xx_it.o(i.UsageFault_Handler)
    __ARM_fpclassify                         0x08003a33   Thumb Code    48  fpclassify.o(i.__ARM_fpclassify)
    __hardfp_atan                            0x08003a89   Thumb Code   622  atan.o(i.__hardfp_atan)
    __hardfp_atan2                           0x08003d61   Thumb Code   432  atan2.o(i.__hardfp_atan2)
    __hardfp_cos                             0x08003f51   Thumb Code   180  cos.o(i.__hardfp_cos)
    __hardfp_sin                             0x08004019   Thumb Code   180  sin.o(i.__hardfp_sin)
    __hardfp_sqrt                            0x080040e1   Thumb Code   122  sqrt.o(i.__hardfp_sqrt)
    __ieee754_rem_pio2                       0x08004161   Thumb Code   938  rred.o(i.__ieee754_rem_pio2)
    __kernel_cos                             0x08004599   Thumb Code   322  cos_i.o(i.__kernel_cos)
    __kernel_poly                            0x08004709   Thumb Code   248  poly.o(i.__kernel_poly)
    __kernel_sin                             0x08004801   Thumb Code   280  sin_i.o(i.__kernel_sin)
    __mathlib_dbl_infnan                     0x08004931   Thumb Code    20  dunder.o(i.__mathlib_dbl_infnan)
    __mathlib_dbl_infnan2                    0x08004945   Thumb Code    20  dunder.o(i.__mathlib_dbl_infnan2)
    __mathlib_dbl_invalid                    0x08004959   Thumb Code    24  dunder.o(i.__mathlib_dbl_invalid)
    __mathlib_dbl_underflow                  0x08004979   Thumb Code    24  dunder.o(i.__mathlib_dbl_underflow)
    atan                                     0x08004999   Thumb Code    16  atan.o(i.atan)
    fabs                                     0x080049a9   Thumb Code    24  fabs.o(i.fabs)
    main                                     0x080049c1   Thumb Code    42  main.o(i.main)
    __aeabi_dneg                             0x080049eb   Thumb Code     0  basic.o(x$fpl$basic)
    _dneg                                    0x080049eb   Thumb Code     6  basic.o(x$fpl$basic)
    __aeabi_fneg                             0x080049f1   Thumb Code     0  basic.o(x$fpl$basic)
    _fneg                                    0x080049f1   Thumb Code     6  basic.o(x$fpl$basic)
    _dabs                                    0x080049f7   Thumb Code     6  basic.o(x$fpl$basic)
    _fabs                                    0x080049fd   Thumb Code     6  basic.o(x$fpl$basic)
    __aeabi_d2f                              0x08004a05   Thumb Code     0  d2f.o(x$fpl$d2f)
    _d2f                                     0x08004a05   Thumb Code    98  d2f.o(x$fpl$d2f)
    __aeabi_dadd                             0x08004a69   Thumb Code     0  daddsub_clz.o(x$fpl$dadd)
    _dadd                                    0x08004a69   Thumb Code   332  daddsub_clz.o(x$fpl$dadd)
    __fpl_dcmp_Inf                           0x08004bb9   Thumb Code    24  dcmpi.o(x$fpl$dcmpinf)
    __aeabi_ddiv                             0x08004bd1   Thumb Code     0  ddiv.o(x$fpl$ddiv)
    _ddiv                                    0x08004bd1   Thumb Code   552  ddiv.o(x$fpl$ddiv)
    __aeabi_cdcmpeq                          0x08004e81   Thumb Code     0  deqf.o(x$fpl$deqf)
    _dcmpeq                                  0x08004e81   Thumb Code   120  deqf.o(x$fpl$deqf)
    __aeabi_d2iz                             0x08004ef9   Thumb Code     0  dfix.o(x$fpl$dfix)
    _dfix                                    0x08004ef9   Thumb Code    94  dfix.o(x$fpl$dfix)
    __aeabi_i2d                              0x08004f57   Thumb Code     0  dflt_clz.o(x$fpl$dflt)
    _dflt                                    0x08004f57   Thumb Code    46  dflt_clz.o(x$fpl$dflt)
    __aeabi_ui2d                             0x08004f85   Thumb Code     0  dflt_clz.o(x$fpl$dfltu)
    _dfltu                                   0x08004f85   Thumb Code    38  dflt_clz.o(x$fpl$dfltu)
    __aeabi_cdcmple                          0x08004fad   Thumb Code     0  dleqf.o(x$fpl$dleqf)
    _dcmple                                  0x08004fad   Thumb Code   120  dleqf.o(x$fpl$dleqf)
    __fpl_dcmple_InfNaN                      0x0800500f   Thumb Code     0  dleqf.o(x$fpl$dleqf)
    __aeabi_dmul                             0x08005025   Thumb Code     0  dmul.o(x$fpl$dmul)
    _dmul                                    0x08005025   Thumb Code   332  dmul.o(x$fpl$dmul)
    __fpl_dnaninf                            0x08005179   Thumb Code   156  dnaninf.o(x$fpl$dnaninf)
    __fpl_dretinf                            0x08005215   Thumb Code    12  dretinf.o(x$fpl$dretinf)
    __aeabi_cdrcmple                         0x08005221   Thumb Code     0  drleqf.o(x$fpl$drleqf)
    _drcmple                                 0x08005221   Thumb Code   108  drleqf.o(x$fpl$drleqf)
    __aeabi_drsub                            0x0800528d   Thumb Code     0  daddsub_clz.o(x$fpl$drsb)
    _drsb                                    0x0800528d   Thumb Code    22  daddsub_clz.o(x$fpl$drsb)
    _dsqrt                                   0x080052a5   Thumb Code   404  dsqrt_umaal.o(x$fpl$dsqrt)
    __aeabi_dsub                             0x0800543d   Thumb Code     0  daddsub_clz.o(x$fpl$dsub)
    _dsub                                    0x0800543d   Thumb Code   464  daddsub_clz.o(x$fpl$dsub)
    __aeabi_f2d                              0x08005611   Thumb Code     0  f2d.o(x$fpl$f2d)
    _f2d                                     0x08005611   Thumb Code    86  f2d.o(x$fpl$f2d)
    __fpl_fnaninf                            0x08005667   Thumb Code   140  fnaninf.o(x$fpl$fnaninf)
    _fp_init                                 0x080056f3   Thumb Code    10  fpinit.o(x$fpl$fpinit)
    __fplib_config_fpu_vfp                   0x080056fb   Thumb Code     0  fpinit.o(x$fpl$fpinit)
    __fplib_config_pureend_doubles           0x080056fb   Thumb Code     0  fpinit.o(x$fpl$fpinit)
    __fpl_fretinf                            0x080056fd   Thumb Code    10  fretinf.o(x$fpl$fretinf)
    __I$use$fp                               0x08005706   Number         0  usenofp.o(x$fpl$usenofp)
    AHBPrescTable                            0x0800570e   Data          16  system_stm32f4xx.o(.constdata)
    APBPrescTable                            0x0800571e   Data           8  system_stm32f4xx.o(.constdata)
    __mathlib_zero                           0x080057f0   Data           8  qnan.o(.constdata)
    Region$$Table$$Base                      0x080058e8   Number         0  anon$$obj.o(Region$$Table)
    Region$$Table$$Limit                     0x08005908   Number         0  anon$$obj.o(Region$$Table)
    uwTickFreq                               0x20000004   Data           1  stm32f4xx_hal.o(.data)
    uwTickPrio                               0x20000008   Data           4  stm32f4xx_hal.o(.data)
    uwTick                                   0x2000000c   Data           4  stm32f4xx_hal.o(.data)
    SystemCoreClock                          0x20000010   Data           4  system_stm32f4xx.o(.data)
    RC_CtrlData                              0x20000018   Data          22  ifr_dji_remote.o(.data)
    output_pos                               0x20000030   Data           4  ifr_pid.o(.data)
    State                                    0x20000034   Data           1  ifr_state.o(.data)
    a                                        0x20000038   Data           4  chassis_behavior.o(.data)
    b                                        0x2000003c   Data           4  chassis_behavior.o(.data)
    V_car                                    0x20000040   Data           8  chassis_behavior.o(.data)
    angle_car                                0x20000048   Data           8  chassis_behavior.o(.data)
    R_car                                    0x20000050   Data           8  chassis_behavior.o(.data)
    hcan1                                    0x20000058   Data         100  can.o(.bss)
    hcan2                                    0x200000bc   Data         100  can.o(.bss)
    htim2                                    0x20000120   Data          72  tim.o(.bss)
    huart1                                   0x20000168   Data         116  usart.o(.bss)
    huart2                                   0x200001dc   Data         116  usart.o(.bss)
    hdma_usart1_rx                           0x20000250   Data          96  usart.o(.bss)
    hdma_usart2_rx                           0x200002b0   Data          96  usart.o(.bss)
    hdma_usart2_tx                           0x20000310   Data          96  usart.o(.bss)
    Chassis_control                          0x20000370   Data         664  chassis_task.o(.bss)
    CAN_RxMessage                            0x20000608   Data         120  ifr_can.o(.bss)
    DJI_Motor                                0x20000680   Data         448  ifr_dji_motor.o(.bss)
    KeyBoardData                             0x20000840   Data          96  ifr_dji_remote.o(.bss)
    UDB_List                                 0x200008a0   Data         972  ifr_usart.o(.bss)
    angle                                    0x20000c6c   Data          20  chassis_behavior.o(.bss)
    speed                                    0x20000c80   Data          20  chassis_behavior.o(.bss)
    Motor_Tar                                0x20000c94   Data          32  chassis_behavior.o(.bss)
    cir                                      0x20000cb4   Data          16  chassis_behavior.o(.bss)
    rx_vel                                   0x20000cc4   Data          10  chassis_behavior.o(.bss)
    __libspace_start                         0x20000cd0   Data          96  libspace.o(.bss)
    __temporary_stack_top$libspace           0x20000d30   Data           0  libspace.o(.bss)



==============================================================================

Memory Map of the image

  Image Entry point : 0x08000189

  Load Region LR_IROM1 (Base: 0x08000000, Size: 0x00005960, Max: 0x00100000, ABSOLUTE)

    Execution Region ER_IROM1 (Exec base: 0x08000000, Load base: 0x08000000, Size: 0x00005908, Max: 0x00100000, ABSOLUTE)

    Exec Addr    Load Addr    Size         Type   Attr      Idx    E Section Name        Object

    0x08000000   0x08000000   0x00000188   Data   RO            3    RESET               startup_stm32f405xx.o
    0x08000188   0x08000188   0x00000008   Code   RO         3763  * !!!main             c_w.l(__main.o)
    0x08000190   0x08000190   0x00000034   Code   RO         4085    !!!scatter          c_w.l(__scatter.o)
    0x080001c4   0x080001c4   0x0000001a   Code   RO         4087    !!handler_copy      c_w.l(__scatter_copy.o)
    0x080001de   0x080001de   0x00000002   PAD
    0x080001e0   0x080001e0   0x0000001c   Code   RO         4089    !!handler_zi        c_w.l(__scatter_zi.o)
    0x080001fc   0x080001fc   0x00000002   Code   RO         3958    .ARM.Collect$$libinit$$00000000  c_w.l(libinit.o)
    0x080001fe   0x080001fe   0x00000004   Code   RO         3967    .ARM.Collect$$libinit$$00000001  c_w.l(libinit2.o)
    0x08000202   0x08000202   0x00000000   Code   RO         3970    .ARM.Collect$$libinit$$00000004  c_w.l(libinit2.o)
    0x08000202   0x08000202   0x00000000   Code   RO         3973    .ARM.Collect$$libinit$$0000000A  c_w.l(libinit2.o)
    0x08000202   0x08000202   0x00000000   Code   RO         3975    .ARM.Collect$$libinit$$0000000C  c_w.l(libinit2.o)
    0x08000202   0x08000202   0x00000000   Code   RO         3977    .ARM.Collect$$libinit$$0000000E  c_w.l(libinit2.o)
    0x08000202   0x08000202   0x00000000   Code   RO         3980    .ARM.Collect$$libinit$$00000011  c_w.l(libinit2.o)
    0x08000202   0x08000202   0x00000000   Code   RO         3982    .ARM.Collect$$libinit$$00000013  c_w.l(libinit2.o)
    0x08000202   0x08000202   0x00000000   Code   RO         3984    .ARM.Collect$$libinit$$00000015  c_w.l(libinit2.o)
    0x08000202   0x08000202   0x00000000   Code   RO         3986    .ARM.Collect$$libinit$$00000017  c_w.l(libinit2.o)
    0x08000202   0x08000202   0x00000000   Code   RO         3988    .ARM.Collect$$libinit$$00000019  c_w.l(libinit2.o)
    0x08000202   0x08000202   0x00000000   Code   RO         3990    .ARM.Collect$$libinit$$0000001B  c_w.l(libinit2.o)
    0x08000202   0x08000202   0x00000000   Code   RO         3992    .ARM.Collect$$libinit$$0000001D  c_w.l(libinit2.o)
    0x08000202   0x08000202   0x00000000   Code   RO         3994    .ARM.Collect$$libinit$$0000001F  c_w.l(libinit2.o)
    0x08000202   0x08000202   0x00000000   Code   RO         3996    .ARM.Collect$$libinit$$00000021  c_w.l(libinit2.o)
    0x08000202   0x08000202   0x00000000   Code   RO         3998    .ARM.Collect$$libinit$$00000023  c_w.l(libinit2.o)
    0x08000202   0x08000202   0x00000000   Code   RO         4000    .ARM.Collect$$libinit$$00000025  c_w.l(libinit2.o)
    0x08000202   0x08000202   0x00000000   Code   RO         4004    .ARM.Collect$$libinit$$0000002C  c_w.l(libinit2.o)
    0x08000202   0x08000202   0x00000000   Code   RO         4006    .ARM.Collect$$libinit$$0000002E  c_w.l(libinit2.o)
    0x08000202   0x08000202   0x00000000   Code   RO         4008    .ARM.Collect$$libinit$$00000030  c_w.l(libinit2.o)
    0x08000202   0x08000202   0x00000000   Code   RO         4010    .ARM.Collect$$libinit$$00000032  c_w.l(libinit2.o)
    0x08000202   0x08000202   0x00000002   Code   RO         4011    .ARM.Collect$$libinit$$00000033  c_w.l(libinit2.o)
    0x08000204   0x08000204   0x00000002   Code   RO         4042    .ARM.Collect$$libshutdown$$00000000  c_w.l(libshutdown.o)
    0x08000206   0x08000206   0x00000000   Code   RO         4068    .ARM.Collect$$libshutdown$$00000002  c_w.l(libshutdown2.o)
    0x08000206   0x08000206   0x00000000   Code   RO         4070    .ARM.Collect$$libshutdown$$00000004  c_w.l(libshutdown2.o)
    0x08000206   0x08000206   0x00000000   Code   RO         4073    .ARM.Collect$$libshutdown$$00000007  c_w.l(libshutdown2.o)
    0x08000206   0x08000206   0x00000000   Code   RO         4076    .ARM.Collect$$libshutdown$$0000000A  c_w.l(libshutdown2.o)
    0x08000206   0x08000206   0x00000000   Code   RO         4078    .ARM.Collect$$libshutdown$$0000000C  c_w.l(libshutdown2.o)
    0x08000206   0x08000206   0x00000000   Code   RO         4081    .ARM.Collect$$libshutdown$$0000000F  c_w.l(libshutdown2.o)
    0x08000206   0x08000206   0x00000002   Code   RO         4082    .ARM.Collect$$libshutdown$$00000010  c_w.l(libshutdown2.o)
    0x08000208   0x08000208   0x00000000   Code   RO         3843    .ARM.Collect$$rtentry$$00000000  c_w.l(__rtentry.o)
    0x08000208   0x08000208   0x00000000   Code   RO         3913    .ARM.Collect$$rtentry$$00000002  c_w.l(__rtentry2.o)
    0x08000208   0x08000208   0x00000006   Code   RO         3925    .ARM.Collect$$rtentry$$00000004  c_w.l(__rtentry4.o)
    0x0800020e   0x0800020e   0x00000000   Code   RO         3915    .ARM.Collect$$rtentry$$00000009  c_w.l(__rtentry2.o)
    0x0800020e   0x0800020e   0x00000004   Code   RO         3916    .ARM.Collect$$rtentry$$0000000A  c_w.l(__rtentry2.o)
    0x08000212   0x08000212   0x00000000   Code   RO         3918    .ARM.Collect$$rtentry$$0000000C  c_w.l(__rtentry2.o)
    0x08000212   0x08000212   0x00000008   Code   RO         3919    .ARM.Collect$$rtentry$$0000000D  c_w.l(__rtentry2.o)
    0x0800021a   0x0800021a   0x00000002   Code   RO         3959    .ARM.Collect$$rtexit$$00000000  c_w.l(rtexit.o)
    0x0800021c   0x0800021c   0x00000000   Code   RO         4015    .ARM.Collect$$rtexit$$00000002  c_w.l(rtexit2.o)
    0x0800021c   0x0800021c   0x00000004   Code   RO         4016    .ARM.Collect$$rtexit$$00000003  c_w.l(rtexit2.o)
    0x08000220   0x08000220   0x00000006   Code   RO         4017    .ARM.Collect$$rtexit$$00000004  c_w.l(rtexit2.o)
    0x08000226   0x08000226   0x00000002   PAD
    0x08000228   0x08000228   0x00000040   Code   RO            4    .text               startup_stm32f405xx.o
    0x08000268   0x08000268   0x000000ee   Code   RO         3757    .text               c_w.l(lludivv7m.o)
    0x08000356   0x08000356   0x0000004e   Code   RO         3759    .text               c_w.l(rt_memclr_w.o)
    0x080003a4   0x080003a4   0x00000006   Code   RO         3761    .text               c_w.l(heapauxi.o)
    0x080003aa   0x080003aa   0x00000016   Code   RO         3848    .text               c_w.l(_rserrno.o)
    0x080003c0   0x080003c0   0x00000008   Code   RO         3932    .text               c_w.l(rt_errno_addr_intlibspace.o)
    0x080003c8   0x080003c8   0x00000008   Code   RO         3942    .text               c_w.l(libspace.o)
    0x080003d0   0x080003d0   0x0000004a   Code   RO         3945    .text               c_w.l(sys_stackheap_outer.o)
    0x0800041a   0x0800041a   0x00000012   Code   RO         3947    .text               c_w.l(exit.o)
    0x0800042c   0x0800042c   0x0000000c   Code   RO         4012    .text               c_w.l(sys_exit.o)
    0x08000438   0x08000438   0x00000002   Code   RO         4031    .text               c_w.l(use_no_semi.o)
    0x0800043a   0x0800043a   0x00000000   Code   RO         4033    .text               c_w.l(indicate_semi.o)
    0x0800043a   0x0800043a   0x00000002   PAD
    0x0800043c   0x0800043c   0x00000050   Code   RO         3416    i.ALL_Init          chassis_task.o
    0x0800048c   0x0800048c   0x00000002   Code   RO          485    i.BusFault_Handler  stm32f4xx_it.o
    0x0800048e   0x0800048e   0x00000002   PAD
    0x08000490   0x08000490   0x0000000c   Code   RO          486    i.CAN1_RX0_IRQHandler  stm32f4xx_it.o
    0x0800049c   0x0800049c   0x0000000c   Code   RO          487    i.CAN2_RX0_IRQHandler  stm32f4xx_it.o
    0x080004a8   0x080004a8   0x0000001c   Code   RO         3417    i.ChassisMove_Control  chassis_task.o
    0x080004c4   0x080004c4   0x0000000c   Code   RO          488    i.DMA1_Stream5_IRQHandler  stm32f4xx_it.o
    0x080004d0   0x080004d0   0x0000000c   Code   RO          489    i.DMA1_Stream6_IRQHandler  stm32f4xx_it.o
    0x080004dc   0x080004dc   0x0000000c   Code   RO          490    i.DMA2_Stream2_IRQHandler  stm32f4xx_it.o
    0x080004e8   0x080004e8   0x00000028   Code   RO         1345    i.DMA_CalcBaseAndBitshift  stm32f4xx_hal_dma.o
    0x08000510   0x08000510   0x00000054   Code   RO         1346    i.DMA_CheckFifoParam  stm32f4xx_hal_dma.o
    0x08000564   0x08000564   0x0000001e   Code   RO         1304    i.DMA_MultiBufferSetConfig  stm32f4xx_hal_dma_ex.o
    0x08000582   0x08000582   0x00000002   Code   RO          491    i.DebugMon_Handler  stm32f4xx_it.o
    0x08000584   0x08000584   0x00000004   Code   RO           13    i.Error_Handler     main.o
    0x08000588   0x08000588   0x00000024   Code   RO          641    i.HAL_CAN_ActivateNotification  stm32f4xx_hal_can.o
    0x080005ac   0x080005ac   0x000000c8   Code   RO          642    i.HAL_CAN_AddTxMessage  stm32f4xx_hal_can.o
    0x08000674   0x08000674   0x0000010c   Code   RO          643    i.HAL_CAN_ConfigFilter  stm32f4xx_hal_can.o
    0x08000780   0x08000780   0x00000002   Code   RO          646    i.HAL_CAN_ErrorCallback  stm32f4xx_hal_can.o
    0x08000782   0x08000782   0x000000e8   Code   RO          649    i.HAL_CAN_GetRxMessage  stm32f4xx_hal_can.o
    0x0800086a   0x0800086a   0x000001f4   Code   RO          653    i.HAL_CAN_IRQHandler  stm32f4xx_hal_can.o
    0x08000a5e   0x08000a5e   0x00000002   PAD
    0x08000a60   0x08000a60   0x00000190   Code   RO          654    i.HAL_CAN_Init      stm32f4xx_hal_can.o
    0x08000bf0   0x08000bf0   0x00000100   Code   RO          315    i.HAL_CAN_MspInit   can.o
    0x08000cf0   0x08000cf0   0x0000008c   Code   RO          659    i.HAL_CAN_RegisterCallback  stm32f4xx_hal_can.o
    0x08000d7c   0x08000d7c   0x00000002   Code   RO          662    i.HAL_CAN_RxFifo0FullCallback  stm32f4xx_hal_can.o
    0x08000d7e   0x08000d7e   0x00000002   Code   RO          663    i.HAL_CAN_RxFifo0MsgPendingCallback  stm32f4xx_hal_can.o
    0x08000d80   0x08000d80   0x00000002   Code   RO          664    i.HAL_CAN_RxFifo1FullCallback  stm32f4xx_hal_can.o
    0x08000d82   0x08000d82   0x00000002   Code   RO          665    i.HAL_CAN_RxFifo1MsgPendingCallback  stm32f4xx_hal_can.o
    0x08000d84   0x08000d84   0x00000002   Code   RO          666    i.HAL_CAN_SleepCallback  stm32f4xx_hal_can.o
    0x08000d86   0x08000d86   0x00000002   PAD
    0x08000d88   0x08000d88   0x00000058   Code   RO          667    i.HAL_CAN_Start     stm32f4xx_hal_can.o
    0x08000de0   0x08000de0   0x00000002   Code   RO          669    i.HAL_CAN_TxMailbox0AbortCallback  stm32f4xx_hal_can.o
    0x08000de2   0x08000de2   0x00000002   Code   RO          670    i.HAL_CAN_TxMailbox0CompleteCallback  stm32f4xx_hal_can.o
    0x08000de4   0x08000de4   0x00000002   Code   RO          671    i.HAL_CAN_TxMailbox1AbortCallback  stm32f4xx_hal_can.o
    0x08000de6   0x08000de6   0x00000002   Code   RO          672    i.HAL_CAN_TxMailbox1CompleteCallback  stm32f4xx_hal_can.o
    0x08000de8   0x08000de8   0x00000002   Code   RO          673    i.HAL_CAN_TxMailbox2AbortCallback  stm32f4xx_hal_can.o
    0x08000dea   0x08000dea   0x00000002   Code   RO          674    i.HAL_CAN_TxMailbox2CompleteCallback  stm32f4xx_hal_can.o
    0x08000dec   0x08000dec   0x00000002   Code   RO          677    i.HAL_CAN_WakeUpFromRxMsgCallback  stm32f4xx_hal_can.o
    0x08000dee   0x08000dee   0x00000064   Code   RO         1306    i.HAL_DMAEx_MultiBufferStart  stm32f4xx_hal_dma_ex.o
    0x08000e52   0x08000e52   0x00000092   Code   RO         1348    i.HAL_DMA_Abort     stm32f4xx_hal_dma.o
    0x08000ee4   0x08000ee4   0x00000024   Code   RO         1349    i.HAL_DMA_Abort_IT  stm32f4xx_hal_dma.o
    0x08000f08   0x08000f08   0x000001a0   Code   RO         1353    i.HAL_DMA_IRQHandler  stm32f4xx_hal_dma.o
    0x080010a8   0x080010a8   0x000000d4   Code   RO         1354    i.HAL_DMA_Init      stm32f4xx_hal_dma.o
    0x0800117c   0x0800117c   0x000001f0   Code   RO         1241    i.HAL_GPIO_Init     stm32f4xx_hal_gpio.o
    0x0800136c   0x0800136c   0x0000000c   Code   RO         1773    i.HAL_GetTick       stm32f4xx_hal.o
    0x08001378   0x08001378   0x00000010   Code   RO         1779    i.HAL_IncTick       stm32f4xx_hal.o
    0x08001388   0x08001388   0x00000034   Code   RO         1780    i.HAL_Init          stm32f4xx_hal.o
    0x080013bc   0x080013bc   0x00000040   Code   RO         1781    i.HAL_InitTick      stm32f4xx_hal.o
    0x080013fc   0x080013fc   0x00000030   Code   RO          616    i.HAL_MspInit       stm32f4xx_hal_msp.o
    0x0800142c   0x0800142c   0x0000001a   Code   RO         1630    i.HAL_NVIC_EnableIRQ  stm32f4xx_hal_cortex.o
    0x08001446   0x08001446   0x00000002   PAD
    0x08001448   0x08001448   0x00000040   Code   RO         1636    i.HAL_NVIC_SetPriority  stm32f4xx_hal_cortex.o
    0x08001488   0x08001488   0x00000024   Code   RO         1637    i.HAL_NVIC_SetPriorityGrouping  stm32f4xx_hal_cortex.o
    0x080014ac   0x080014ac   0x00000134   Code   RO          887    i.HAL_RCC_ClockConfig  stm32f4xx_hal_rcc.o
    0x080015e0   0x080015e0   0x00000020   Code   RO          894    i.HAL_RCC_GetPCLK1Freq  stm32f4xx_hal_rcc.o
    0x08001600   0x08001600   0x00000020   Code   RO          895    i.HAL_RCC_GetPCLK2Freq  stm32f4xx_hal_rcc.o
    0x08001620   0x08001620   0x00000060   Code   RO          896    i.HAL_RCC_GetSysClockFreq  stm32f4xx_hal_rcc.o
    0x08001680   0x08001680   0x0000036c   Code   RO          899    i.HAL_RCC_OscConfig  stm32f4xx_hal_rcc.o
    0x080019ec   0x080019ec   0x00000028   Code   RO         1641    i.HAL_SYSTICK_Config  stm32f4xx_hal_cortex.o
    0x08001a14   0x08001a14   0x00000002   Code   RO         2724    i.HAL_TIMEx_BreakCallback  stm32f4xx_hal_tim_ex.o
    0x08001a16   0x08001a16   0x00000002   Code   RO         2725    i.HAL_TIMEx_CommutCallback  stm32f4xx_hal_tim_ex.o
    0x08001a18   0x08001a18   0x00000090   Code   RO         2743    i.HAL_TIMEx_MasterConfigSynchronization  stm32f4xx_hal_tim_ex.o
    0x08001aa8   0x08001aa8   0x0000005a   Code   RO         2020    i.HAL_TIM_Base_Init  stm32f4xx_hal_tim.o
    0x08001b02   0x08001b02   0x00000002   PAD
    0x08001b04   0x08001b04   0x00000038   Code   RO          396    i.HAL_TIM_Base_MspInit  tim.o
    0x08001b3c   0x08001b3c   0x00000080   Code   RO         2025    i.HAL_TIM_Base_Start_IT  stm32f4xx_hal_tim.o
    0x08001bbc   0x08001bbc   0x000000dc   Code   RO         2029    i.HAL_TIM_ConfigClockSource  stm32f4xx_hal_tim.o
    0x08001c98   0x08001c98   0x00000002   Code   RO         2054    i.HAL_TIM_IC_CaptureCallback  stm32f4xx_hal_tim.o
    0x08001c9a   0x08001c9a   0x00000166   Code   RO         2068    i.HAL_TIM_IRQHandler  stm32f4xx_hal_tim.o
    0x08001e00   0x08001e00   0x00000002   Code   RO         2071    i.HAL_TIM_OC_DelayElapsedCallback  stm32f4xx_hal_tim.o
    0x08001e02   0x08001e02   0x00000002   Code   RO         2098    i.HAL_TIM_PWM_PulseFinishedCallback  stm32f4xx_hal_tim.o
    0x08001e04   0x08001e04   0x00000018   Code   RO         3418    i.HAL_TIM_PeriodElapsedCallback  chassis_task.o
    0x08001e1c   0x08001e1c   0x00000002   Code   RO         2111    i.HAL_TIM_TriggerCallback  stm32f4xx_hal_tim.o
    0x08001e1e   0x08001e1e   0x00000002   Code   RO         3002    i.HAL_UARTEx_RxEventCallback  stm32f4xx_hal_uart.o
    0x08001e20   0x08001e20   0x00000002   Code   RO         3004    i.HAL_UART_AbortCpltCallback  stm32f4xx_hal_uart.o
    0x08001e22   0x08001e22   0x00000002   Code   RO         3006    i.HAL_UART_AbortReceiveCpltCallback  stm32f4xx_hal_uart.o
    0x08001e24   0x08001e24   0x00000002   Code   RO         3009    i.HAL_UART_AbortTransmitCpltCallback  stm32f4xx_hal_uart.o
    0x08001e26   0x08001e26   0x00000002   Code   RO         3016    i.HAL_UART_ErrorCallback  stm32f4xx_hal_uart.o
    0x08001e28   0x08001e28   0x00000268   Code   RO         3019    i.HAL_UART_IRQHandler  stm32f4xx_hal_uart.o
    0x08002090   0x08002090   0x00000074   Code   RO         3020    i.HAL_UART_Init     stm32f4xx_hal_uart.o
    0x08002104   0x08002104   0x00000170   Code   RO          438    i.HAL_UART_MspInit  usart.o
    0x08002274   0x08002274   0x00000042   Code   RO         3027    i.HAL_UART_RegisterRxEventCallback  stm32f4xx_hal_uart.o
    0x080022b6   0x080022b6   0x00000002   Code   RO         3028    i.HAL_UART_RxCpltCallback  stm32f4xx_hal_uart.o
    0x080022b8   0x080022b8   0x00000002   Code   RO         3029    i.HAL_UART_RxHalfCpltCallback  stm32f4xx_hal_uart.o
    0x080022ba   0x080022ba   0x00000002   Code   RO         3033    i.HAL_UART_TxCpltCallback  stm32f4xx_hal_uart.o
    0x080022bc   0x080022bc   0x00000002   Code   RO         3034    i.HAL_UART_TxHalfCpltCallback  stm32f4xx_hal_uart.o
    0x080022be   0x080022be   0x00000002   Code   RO          492    i.HardFault_Handler  stm32f4xx_it.o
    0x080022c0   0x080022c0   0x00000094   Code   RO         3467    i.IFR_CAN_Receive_Start_Init  ifr_can.o
    0x08002354   0x08002354   0x00000070   Code   RO         3468    i.IFR_CAN_Recevice_Callback  ifr_can.o
    0x080023c4   0x080023c4   0x0000007c   Code   RO         3503    i.IFR_DJI_Motor_Analysis  ifr_dji_motor.o
    0x08002440   0x08002440   0x000000e0   Code   RO         3505    i.IFR_DJI_Motor_Transmit  ifr_dji_motor.o
    0x08002520   0x08002520   0x0000007c   Code   RO         3547    i.IFR_DJI_Remote_Process  ifr_dji_remote.o
    0x0800259c   0x0800259c   0x00000016   Code   RO         3593    i.IFR_PID_Init      ifr_pid.o
    0x080025b2   0x080025b2   0x00000002   PAD
    0x080025b4   0x080025b4   0x000000fc   Code   RO         3594    i.IFR_Positional_PID  ifr_pid.o
    0x080026b0   0x080026b0   0x000000b0   Code   RO         3669    i.IFR_UDBx_Init     ifr_usart.o
    0x08002760   0x08002760   0x000000c8   Code   RO         3670    i.IFR_Uart_DoubleBuffer_Recevice_Callback  ifr_usart.o
    0x08002828   0x08002828   0x00000084   Code   RO         3548    i.Key_Analysis      ifr_dji_remote.o
    0x080028ac   0x080028ac   0x0000003c   Code   RO          316    i.MX_CAN1_Init      can.o
    0x080028e8   0x080028e8   0x0000003c   Code   RO          317    i.MX_CAN2_Init      can.o
    0x08002924   0x08002924   0x0000005c   Code   RO          368    i.MX_DMA_Init       dma.o
    0x08002980   0x08002980   0x0000003c   Code   RO          193    i.MX_GPIO_Init      gpio.o
    0x080029bc   0x080029bc   0x00000064   Code   RO          397    i.MX_TIM2_Init      tim.o
    0x08002a20   0x08002a20   0x00000044   Code   RO          439    i.MX_USART1_UART_Init  usart.o
    0x08002a64   0x08002a64   0x00000038   Code   RO          440    i.MX_USART2_UART_Init  usart.o
    0x08002a9c   0x08002a9c   0x00000002   Code   RO          493    i.MemManage_Handler  stm32f4xx_it.o
    0x08002a9e   0x08002a9e   0x00000002   PAD
    0x08002aa0   0x08002aa0   0x00000130   Code   RO         3710    i.MotorTarget_Set   chassis_behavior.o
    0x08002bd0   0x08002bd0   0x00000080   Code   RO         3711    i.Motor_Drive       chassis_behavior.o
    0x08002c50   0x08002c50   0x00000002   Code   RO          494    i.NMI_Handler       stm32f4xx_it.o
    0x08002c52   0x08002c52   0x00000002   PAD
    0x08002c54   0x08002c54   0x00000144   Code   RO         3419    i.PID_ALL_Init      chassis_task.o
    0x08002d98   0x08002d98   0x00000034   Code   RO         3595    i.PID_pos           ifr_pid.o
    0x08002dcc   0x08002dcc   0x00000002   Code   RO          495    i.PendSV_Handler    stm32f4xx_it.o
    0x08002dce   0x08002dce   0x00000002   Code   RO          496    i.SVC_Handler       stm32f4xx_it.o
    0x08002dd0   0x08002dd0   0x00000050   Code   RO         3640    i.State_Machine     ifr_state.o
    0x08002e20   0x08002e20   0x00000004   Code   RO          497    i.SysTick_Handler   stm32f4xx_it.o
    0x08002e24   0x08002e24   0x00000094   Code   RO           14    i.SystemClock_Config  main.o
    0x08002eb8   0x08002eb8   0x00000010   Code   RO         3379    i.SystemInit        system_stm32f4xx.o
    0x08002ec8   0x08002ec8   0x0000000c   Code   RO          498    i.TIM2_IRQHandler   stm32f4xx_it.o
    0x08002ed4   0x08002ed4   0x000000c8   Code   RO         2113    i.TIM_Base_SetConfig  stm32f4xx_hal_tim.o
    0x08002f9c   0x08002f9c   0x00000014   Code   RO         2124    i.TIM_ETR_SetConfig  stm32f4xx_hal_tim.o
    0x08002fb0   0x08002fb0   0x00000010   Code   RO         2125    i.TIM_ITRx_SetConfig  stm32f4xx_hal_tim.o
    0x08002fc0   0x08002fc0   0x00000022   Code   RO         2131    i.TIM_TI1_ConfigInputStage  stm32f4xx_hal_tim.o
    0x08002fe2   0x08002fe2   0x00000024   Code   RO         2133    i.TIM_TI2_ConfigInputStage  stm32f4xx_hal_tim.o
    0x08003006   0x08003006   0x00000002   PAD
    0x08003008   0x08003008   0x00000038   Code   RO         3712    i.TarSpeed_Receive  chassis_behavior.o
    0x08003040   0x08003040   0x00000764   Code   RO         3713    i.ThreeSteering_MoveIK  chassis_behavior.o
    0x080037a4   0x080037a4   0x0000000c   Code   RO         3037    i.UART_DMAAbortOnError  stm32f4xx_hal_uart.o
    0x080037b0   0x080037b0   0x0000004e   Code   RO         3047    i.UART_EndRxTransfer  stm32f4xx_hal_uart.o
    0x080037fe   0x080037fe   0x00000002   PAD
    0x08003800   0x08003800   0x0000004c   Code   RO         3049    i.UART_InitCallbacksToDefault  stm32f4xx_hal_uart.o
    0x0800384c   0x0800384c   0x000000c0   Code   RO         3050    i.UART_Receive_IT   stm32f4xx_hal_uart.o
    0x0800390c   0x0800390c   0x0000010c   Code   RO         3051    i.UART_SetConfig    stm32f4xx_hal_uart.o
    0x08003a18   0x08003a18   0x0000000c   Code   RO          499    i.USART1_IRQHandler  stm32f4xx_it.o
    0x08003a24   0x08003a24   0x0000000c   Code   RO          500    i.USART2_IRQHandler  stm32f4xx_it.o
    0x08003a30   0x08003a30   0x00000002   Code   RO          501    i.UsageFault_Handler  stm32f4xx_it.o
    0x08003a32   0x08003a32   0x00000030   Code   RO         3938    i.__ARM_fpclassify  m_wm.l(fpclassify.o)
    0x08003a62   0x08003a62   0x00000020   Code   RO         1643    i.__NVIC_SetPriority  stm32f4xx_hal_cortex.o
    0x08003a82   0x08003a82   0x00000006   PAD
    0x08003a88   0x08003a88   0x000002d8   Code   RO         3863    i.__hardfp_atan     m_wm.l(atan.o)
    0x08003d60   0x08003d60   0x000001f0   Code   RO         3795    i.__hardfp_atan2    m_wm.l(atan2.o)
    0x08003f50   0x08003f50   0x000000c8   Code   RO         3807    i.__hardfp_cos      m_wm.l(cos.o)
    0x08004018   0x08004018   0x000000c8   Code   RO         3819    i.__hardfp_sin      m_wm.l(sin.o)
    0x080040e0   0x080040e0   0x0000007a   Code   RO         3831    i.__hardfp_sqrt     m_wm.l(sqrt.o)
    0x0800415a   0x0800415a   0x00000006   PAD
    0x08004160   0x08004160   0x00000438   Code   RO         3901    i.__ieee754_rem_pio2  m_wm.l(rred.o)
    0x08004598   0x08004598   0x00000170   Code   RO         3877    i.__kernel_cos      m_wm.l(cos_i.o)
    0x08004708   0x08004708   0x000000f8   Code   RO         3940    i.__kernel_poly     m_wm.l(poly.o)
    0x08004800   0x08004800   0x00000130   Code   RO         3906    i.__kernel_sin      m_wm.l(sin_i.o)
    0x08004930   0x08004930   0x00000014   Code   RO         3881    i.__mathlib_dbl_infnan  m_wm.l(dunder.o)
    0x08004944   0x08004944   0x00000014   Code   RO         3882    i.__mathlib_dbl_infnan2  m_wm.l(dunder.o)
    0x08004958   0x08004958   0x00000020   Code   RO         3883    i.__mathlib_dbl_invalid  m_wm.l(dunder.o)
    0x08004978   0x08004978   0x00000020   Code   RO         3886    i.__mathlib_dbl_underflow  m_wm.l(dunder.o)
    0x08004998   0x08004998   0x00000010   Code   RO         3865    i.atan              m_wm.l(atan.o)
    0x080049a8   0x080049a8   0x00000018   Code   RO         3896    i.fabs              m_wm.l(fabs.o)
    0x080049c0   0x080049c0   0x0000002a   Code   RO           15    i.main              main.o
    0x080049ea   0x080049ea   0x00000018   Code   RO         3765    x$fpl$basic         fz_wm.l(basic.o)
    0x08004a02   0x08004a02   0x00000002   PAD
    0x08004a04   0x08004a04   0x00000062   Code   RO         3767    x$fpl$d2f           fz_wm.l(d2f.o)
    0x08004a66   0x08004a66   0x00000002   PAD
    0x08004a68   0x08004a68   0x00000150   Code   RO         3769    x$fpl$dadd          fz_wm.l(daddsub_clz.o)
    0x08004bb8   0x08004bb8   0x00000018   Code   RO         3850    x$fpl$dcmpinf       fz_wm.l(dcmpi.o)
    0x08004bd0   0x08004bd0   0x000002b0   Code   RO         3776    x$fpl$ddiv          fz_wm.l(ddiv.o)
    0x08004e80   0x08004e80   0x00000078   Code   RO         3779    x$fpl$deqf          fz_wm.l(deqf.o)
    0x08004ef8   0x08004ef8   0x0000005e   Code   RO         3934    x$fpl$dfix          fz_wm.l(dfix.o)
    0x08004f56   0x08004f56   0x0000002e   Code   RO         3782    x$fpl$dflt          fz_wm.l(dflt_clz.o)
    0x08004f84   0x08004f84   0x00000026   Code   RO         3781    x$fpl$dfltu         fz_wm.l(dflt_clz.o)
    0x08004faa   0x08004faa   0x00000002   PAD
    0x08004fac   0x08004fac   0x00000078   Code   RO         3787    x$fpl$dleqf         fz_wm.l(dleqf.o)
    0x08005024   0x08005024   0x00000154   Code   RO         3789    x$fpl$dmul          fz_wm.l(dmul.o)
    0x08005178   0x08005178   0x0000009c   Code   RO         3852    x$fpl$dnaninf       fz_wm.l(dnaninf.o)
    0x08005214   0x08005214   0x0000000c   Code   RO         3854    x$fpl$dretinf       fz_wm.l(dretinf.o)
    0x08005220   0x08005220   0x0000006c   Code   RO         3791    x$fpl$drleqf        fz_wm.l(drleqf.o)
    0x0800528c   0x0800528c   0x00000016   Code   RO         3770    x$fpl$drsb          fz_wm.l(daddsub_clz.o)
    0x080052a2   0x080052a2   0x00000002   PAD
    0x080052a4   0x080052a4   0x00000198   Code   RO         3856    x$fpl$dsqrt         fz_wm.l(dsqrt_umaal.o)
    0x0800543c   0x0800543c   0x000001d4   Code   RO         3771    x$fpl$dsub          fz_wm.l(daddsub_clz.o)
    0x08005610   0x08005610   0x00000056   Code   RO         3793    x$fpl$f2d           fz_wm.l(f2d.o)
    0x08005666   0x08005666   0x0000008c   Code   RO         3858    x$fpl$fnaninf       fz_wm.l(fnaninf.o)
    0x080056f2   0x080056f2   0x0000000a   Code   RO         4027    x$fpl$fpinit        fz_wm.l(fpinit.o)
    0x080056fc   0x080056fc   0x0000000a   Code   RO         3860    x$fpl$fretinf       fz_wm.l(fretinf.o)
    0x08005706   0x08005706   0x00000000   Code   RO         3862    x$fpl$usenofp       fz_wm.l(usenofp.o)
    0x08005706   0x08005706   0x00000008   Data   RO         1360    .constdata          stm32f4xx_hal_dma.o
    0x0800570e   0x0800570e   0x00000010   Data   RO         3380    .constdata          system_stm32f4xx.o
    0x0800571e   0x0800571e   0x00000008   Data   RO         3381    .constdata          system_stm32f4xx.o
    0x08005726   0x08005726   0x00000002   PAD
    0x08005728   0x08005728   0x00000098   Data   RO         3866    .constdata          m_wm.l(atan.o)
    0x080057c0   0x080057c0   0x00000030   Data   RO         3878    .constdata          m_wm.l(cos_i.o)
    0x080057f0   0x080057f0   0x00000008   Data   RO         3900    .constdata          m_wm.l(qnan.o)
    0x080057f8   0x080057f8   0x000000c8   Data   RO         3903    .constdata          m_wm.l(rred.o)
    0x080058c0   0x080058c0   0x00000028   Data   RO         3907    .constdata          m_wm.l(sin_i.o)
    0x080058e8   0x080058e8   0x00000020   Data   RO         4083    Region$$Table       anon$$obj.o


    Execution Region RW_IRAM2 (Exec base: 0x10000000, Load base: 0x08005960, Size: 0x00000000, Max: 0x00010000, ABSOLUTE)

    **** No section assigned to this execution region ****


    Execution Region RW_IRAM1 (Exec base: 0x20000000, Load base: 0x08005908, Size: 0x00001330, Max: 0x00020000, ABSOLUTE)

    Exec Addr    Load Addr    Size         Type   Attr      Idx    E Section Name        Object

    0x20000000   0x08005908   0x00000004   Data   RW          319    .data               can.o
    0x20000004   0x0800590c   0x0000000c   Data   RW         1787    .data               stm32f4xx_hal.o
    0x20000010   0x08005918   0x00000004   Data   RW         3382    .data               system_stm32f4xx.o
    0x20000014   0x0800591c   0x0000001a   Data   RW         3550    .data               ifr_dji_remote.o
    0x2000002e   0x08005936   0x00000002   PAD
    0x20000030   0x08005938   0x00000004   Data   RW         3596    .data               ifr_pid.o
    0x20000034   0x0800593c   0x00000001   Data   RW         3642    .data               ifr_state.o
    0x20000035   0x0800593d   0x00000003   PAD
    0x20000038   0x08005940   0x00000020   Data   RW         3716    .data               chassis_behavior.o
    0x20000058        -       0x000000c8   Zero   RW          318    .bss                can.o
    0x20000120        -       0x00000048   Zero   RW          398    .bss                tim.o
    0x20000168        -       0x00000208   Zero   RW          441    .bss                usart.o
    0x20000370        -       0x00000298   Zero   RW         3420    .bss                chassis_task.o
    0x20000608        -       0x00000078   Zero   RW         3469    .bss                ifr_can.o
    0x20000680        -       0x000001c0   Zero   RW         3506    .bss                ifr_dji_motor.o
    0x20000840        -       0x00000060   Zero   RW         3549    .bss                ifr_dji_remote.o
    0x200008a0        -       0x000003cc   Zero   RW         3672    .bss                ifr_usart.o
    0x20000c6c        -       0x00000058   Zero   RW         3714    .bss                chassis_behavior.o
    0x20000cc4        -       0x0000000a   Zero   RW         3715    .bss                chassis_behavior.o
    0x20000cce   0x08005960   0x00000002   PAD
    0x20000cd0        -       0x00000060   Zero   RW         3943    .bss                c_w.l(libspace.o)
    0x20000d30        -       0x00000200   Zero   RW            2    HEAP                startup_stm32f405xx.o
    0x20000f30        -       0x00000400   Zero   RW            1    STACK               startup_stm32f405xx.o


==============================================================================

Image component sizes


      Code (inc. data)   RO Data    RW Data    ZI Data      Debug   Object Name

       376         40          0          4        200       2466   can.o
      2380        134          0         32         98       4339   chassis_behavior.o
       456         54          0          0        664       3178   chassis_task.o
        92          4          0          0          0        822   dma.o
        60          6          0          0          0     650515   gpio.o
       260         30          0          0        120       2621   ifr_can.o
       348         20          0          0        448       2866   ifr_dji_motor.o
       256         14          0         26         96       2588   ifr_dji_remote.o
       326          8          0          4          0       3283   ifr_pid.o
        80         16          0          1          0       1333   ifr_state.o
       376         60          0          0        972       3019   ifr_usart.o
       194         10          0          0          0     628492   main.o
        64         26        392          0       1536        852   startup_stm32f405xx.o
       144         24          0         12          0       8821   stm32f4xx_hal.o
      1890         80          0          0          0      16042   stm32f4xx_hal_can.o
       198         14          0          0          0      33999   stm32f4xx_hal_cortex.o
       934         16          8          0          0       5667   stm32f4xx_hal_dma.o
       130          0          0          0          0       2173   stm32f4xx_hal_dma_ex.o
       496         46          0          0          0       1548   stm32f4xx_hal_gpio.o
        48          6          0          0          0        846   stm32f4xx_hal_msp.o
      1344         72          0          0          0       5288   stm32f4xx_hal_rcc.o
      1110         72          0          0          0      10269   stm32f4xx_hal_tim.o
       148         28          0          0          0       2485   stm32f4xx_hal_tim_ex.o
      1442         56          0          0          0      12627   stm32f4xx_hal_uart.o
       116         48          0          0          0       7926   stm32f4xx_it.o
        16          4         24          4          0       1131   system_stm32f4xx.o
       156         10          0          0         72       1694   tim.o
       492         52          0          0        520       2692   usart.o

    ----------------------------------------------------------------------
     13958        950        458         88       4728    1419582   Object Totals
         0          0         32          0          0          0   (incl. Generated)
        26          0          2          5          2          0   (incl. Padding)

    ----------------------------------------------------------------------

      Code (inc. data)   RO Data    RW Data    ZI Data      Debug   Library Member Name

         8          0          0          0          0         68   __main.o
         0          0          0          0          0          0   __rtentry.o
        12          0          0          0          0          0   __rtentry2.o
         6          0          0          0          0          0   __rtentry4.o
        52          8          0          0          0          0   __scatter.o
        26          0          0          0          0          0   __scatter_copy.o
        28          0          0          0          0          0   __scatter_zi.o
        22          0          0          0          0        100   _rserrno.o
        18          0          0          0          0         80   exit.o
         6          0          0          0          0        152   heapauxi.o
         0          0          0          0          0          0   indicate_semi.o
         2          0          0          0          0          0   libinit.o
         6          0          0          0          0          0   libinit2.o
         2          0          0          0          0          0   libshutdown.o
         2          0          0          0          0          0   libshutdown2.o
         8          4          0          0         96         68   libspace.o
       238          0          0          0          0        100   lludivv7m.o
         8          4          0          0          0         68   rt_errno_addr_intlibspace.o
        78          0          0          0          0         80   rt_memclr_w.o
         2          0          0          0          0          0   rtexit.o
        10          0          0          0          0          0   rtexit2.o
        12          4          0          0          0         68   sys_exit.o
        74          0          0          0          0         80   sys_stackheap_outer.o
         2          0          0          0          0         68   use_no_semi.o
        24          0          0          0          0        164   basic.o
        98          4          0          0          0        140   d2f.o
       826         16          0          0          0        492   daddsub_clz.o
        24          0          0          0          0        116   dcmpi.o
       688        140          0          0          0        256   ddiv.o
       120          4          0          0          0        140   deqf.o
        94          4          0          0          0        140   dfix.o
        84          0          0          0          0        232   dflt_clz.o
       120          4          0          0          0        140   dleqf.o
       340         12          0          0          0        152   dmul.o
       156          4          0          0          0        140   dnaninf.o
        12          0          0          0          0        116   dretinf.o
       108          0          0          0          0        128   drleqf.o
       408         56          0          0          0        168   dsqrt_umaal.o
        86          4          0          0          0        132   f2d.o
       140          4          0          0          0        132   fnaninf.o
        10          0          0          0          0        116   fpinit.o
        10          0          0          0          0        116   fretinf.o
         0          0          0          0          0          0   usenofp.o
       744        106        152          0          0        352   atan.o
       496         64          0          0          0        192   atan2.o
       200         20          0          0          0        164   cos.o
       368         46         48          0          0        200   cos_i.o
       104         16          0          0          0        496   dunder.o
        24          0          0          0          0        124   fabs.o
        48          0          0          0          0        124   fpclassify.o
       248          0          0          0          0        152   poly.o
         0          0          8          0          0          0   qnan.o
      1080        142        200          0          0        188   rred.o
       200         20          0          0          0        164   sin.o
       304         24         40          0          0        208   sin_i.o
       122          0          0          0          0        148   sqrt.o

    ----------------------------------------------------------------------
      7928        710        448          0         96       6464   Library Totals
        20          0          0          0          0          0   (incl. Padding)

    ----------------------------------------------------------------------

      Code (inc. data)   RO Data    RW Data    ZI Data      Debug   Library Name

       622         20          0          0         96        932   c_w.l
      3348        252          0          0          0       3020   fz_wm.l
      3938        438        448          0          0       2512   m_wm.l

    ----------------------------------------------------------------------
      7928        710        448          0         96       6464   Library Totals

    ----------------------------------------------------------------------

==============================================================================


      Code (inc. data)   RO Data    RW Data    ZI Data      Debug   

     21886       1660        906         88       4824    1410282   Grand Totals
     21886       1660        906         88       4824    1410282   ELF Image Totals
     21886       1660        906         88          0          0   ROM Totals

==============================================================================

    Total RO  Size (Code + RO Data)                22792 (  22.26kB)
    Total RW  Size (RW Data + ZI Data)              4912 (   4.80kB)
    Total ROM Size (Code + RO Data + RW Data)      22880 (  22.34kB)

==============================================================================

