:020000040800F2
:100000003013002029020008512C0008BF220008EC
:100010009D2A00088D040008313A00080000000005
:10002000000000000000000000000000CF2D0008CC
:100030008305000800000000CD2D0008212E0008D7
:10004000430200084302000843020008430200087C
:10005000430200084302000843020008430200086C
:10006000430200084302000843020008430200085C
:10007000430200084302000843020008430200084C
:10008000C5040008D1040008430200084302000828
:1000900091040008430200084302000843020008DC
:1000A000430200084302000843020008430200081C
:1000B000C92E00084302000843020008430200085A
:1000C00043020008430200084302000843020008FC
:1000D00043020008193A0008253A000843020008C4
:1000E00043020008430200084302000843020008DC
:1000F00043020008430200084302000843020008CC
:1001000043020008430200084302000843020008BB
:1001100043020008430200084302000843020008AB
:100120004302000843020008DD04000843020008FF
:100130004302000800000000000000004302000825
:100140009D0400084302000843020008430200081F
:10015000430200084302000843020008430200086B
:10016000430200084302000843020008430200085B
:1001700043020008430200080000000000000000E5
:10018000430200084302000800F002F800F03CF8C7
:100190000AA090E8000C82448344AAF10107DA45E2
:1001A00001D100F031F8AFF2090EBAE80F0013F0F8
:1001B000010F18BFFB1A43F0010318472C5700002A
:1001C0004C570000103A24BF78C878C1FAD85207BB
:1001D00024BF30C830C144BF04680C6070470000C1
:1001E0000023002400250026103A28BF78C1FBD840
:1001F000520728BF30C148BF0B6070471FB505F0DC
:1002000078FA1FBD10B510BD00F0E2F81146FFF7F7
:10021000F5FF04F0D5FB00F000F903B4FFF7F2FF9F
:1002200003BC00F003F90000094880470948004773
:10023000FEE7FEE7FEE7FEE7FEE7FEE7FEE7FEE796
:10024000FEE7FEE704480549054A064B70470000F3
:10025000B92E000889010008300D0020301300205D
:10026000300F0020300F002053EA020C00F06980AC
:100270002DE9F04B4FF00006002B1FBFB3FA83F5BA
:1002800003FA05F424FA05F65E4012BF1643B2FAEB
:1002900082F502FA05F4C5F120051EBF22FA05FC1D
:1002A00044EA0C04203556EA044C4FEA144418BFC3
:1002B000641C4FF000084FF00009904271EB030CF2
:1002C00039D3002919BFB1FA81F701FA07F6B0FA5C
:1002D00080F700FA07F6C7F120071EBF20FA07FCD7
:1002E00046EA0C062037B6FBF4FCA7EB0507103FE7
:1002F00007F01F0BCBF120060CFA0BFB2CFA06F6CD
:1003000044BFB3460026202FA4BF5E464FF0000B2B
:100310005BEA060C08BF4FF0010B19EB0B09ABFBB6
:10032000027C48EB0608C01B06FB02CC0BFB03CC8F
:1003300071EB0C01C1E70B46024641464846BDE859
:10034000F08B13B54FF000004FF00001AFF30080C9
:10035000BDE81C4070474FF0000200B513469446BC
:100360009646203922BFA0E80C50A0E80C50B1F10D
:100370002001BFF4F7AF090728BFA0E80C5048BF21
:100380000CC05DF804EB890028BF40F8042B08BFBF
:10039000704748BF20F8022B11F0804F18BF00F8BB
:1003A000012B704770477047704710B500F008F890
:1003B000006810BD10B5044600F002F8046010BDDE
:1003C00000487047D00C002000487047D00C002037
:1003D0007546FFF7F9FFAE4605006946534620F023
:1003E0000700854618B020B5FFF72CFFBDE8204078
:1003F0004FF000064FF000074FF000084FF0000BE1
:1004000021F00701AC46ACE8C009ACE8C009ACE893
:10041000C009ACE8C0098D46704710B50446AFF37B
:1004200000802046BDE81040FFF7F7BE01491820C4
:10043000ABBEFEE7260002007047000010B502F0D8
:1004400009FC0A4801F07AFB09490A4802F030F930
:1004500009490A4802F02CF909490A4801F030FF1D
:10046000BDE810400649084801F02ABF20010020DD
:1004700009300008DC010020212500086801002067
:10048000C523000858000020BC000020FEE7000043
:10049000014800F0EAB9000058000020014800F0CF
:1004A000E4B90000BC00002010B5054802F0C8FD0A
:1004B000034802F0F5FABDE81040014802F088BB9D
:1004C00070030020014800F01FBD0000B0020020B2
:1004D000014800F019BD000010030020014800F0A1
:1004E00013BD00005002002001681823CAB2103A60
:1004F000B2FBF3F2054B6FF30901032A9B5CC36562
:1005000000D9091D8165084670470000065700089C
:1005100010B5014600208B698A6A4FF0C07453B150
:10052000B3F5005F15D072B1012A0CD0022A0AD0AF
:10053000032A09D104E01AB1012A06D0022A03D104
:10054000C96AC90100D5012010BDC96AA142FAD00B
:1005500010BD002AF7D0012AF2D0022AF3D0032AD4
:10056000F3D010BD10B5046863608368402B036846
:1005700003D099600068C26010BD9A600068C160D5
:1005800010BD704772B6FEE790F82020012A07D010
:10059000022A05D0416A41F480214162012070475E
:1005A000006842690A43426100207047F0B590F844
:1005B00020500468A468012D05D0022D03D0416AA3
:1005C00041F4802153E014F0406F01D1E5004BD598
:1005D000C4F30164022C03D9416A41F4000146E0EE
:1005E0000125A5401D608D684FF4C0739DB1CE6894
:1005F00035434E6845EAC605066803EB0417F55116
:100600004FF4C275076805EB04150E697E51097D2C
:10061000012905D009E00E88CD6845EA4655EBE78B
:1006200001684E5946F480764E511179D2F8055042
:100630004FF4C67641EA0525016806EB04168D5194
:100640001178D2F801204FF4C47541EA0221026802
:1006500005EB04155151006803EB0411425842F0B8
:10066000010242500020F0BD416A41F40011416294
:100670000120F0BD10B590F82020012A07D0022AF1
:1006800005D0416A41F480214162012010BD3B4800
:10069000D0F8002242F00102C0F80022D0F8002277
:1006A00022F47C52C0F80022D0F800224B6A42EAC1
:1006B0000322C0F800220A7D02F01F0301229A40A3
:1006C000D0F81C329343C0F81C32CB69B3B9D0F8D0
:1006D0000C329343C0F80C328C894B6864F31F438F
:1006E0004C6900EBC404C4F840320C890B6864F315
:1006F0001F434C6900EBC404C4F84432CB69012B9E
:1007000016D1D0F80C321343C0F80C320C884B6869
:1007100064F31F434C6900EBC404C4F840320C89F5
:10072000CB6864F31F434C6900EBC404C4F8443243
:100730008B69002BD0F804320ED01343C0F804327A
:100740000B69002BD0F8143208D01343C0F81432D0
:10075000096A012904D008E09343EFE79343F5E7E2
:10076000D0F81C121143C0F81C12D0F8001221F06E
:100770000101C0F80012002010BD0000006400401C
:10078000704730B590F82040012C05D0022C03D0E2
:10079000416A41F480215DE00468002955D0246954
:1007A000A40754D04FF4D874056804EB01142D59F4
:1007B00015F00405956005682D594ED0ED0855607B
:1007C00005682C5904F00204D4604FF4DA7405680B
:1007D00004EB01142D5905F00F05156105682D591D
:1007E000C5F30725956105682C59240C54614FF415
:1007F000DC72046802EB0112A4581C700468A4584F
:10080000240A5C700468A458240C9C700468A258E4
:10081000120EDA704FF4DE72046802EB0112A45873
:100820001C710468A458240A5C710468A458240C40
:100830009C710468A258120EDA71006881B10169D6
:1008400041F020010161002030BDE468A8E7416A61
:1008500041F400114162012030BD6D0D1560AFE71C
:10086000C16841F02001C160EDE72DE9F05F054668
:10087000006800244669D0F804908768D0F80CA07E
:10088000D0F810B0D0F81880F10742D0F90712D094
:1008900001218160B80701D5A96A0AE0780702D56D
:1008A0004FF4006407E0380702D54FF4805402E0AB
:1008B000696B28468847F80514D529684FF480707D
:1008C0008860B80501D5E96A0AE0780502D544F4E4
:1008D000005407E0380502D544F4804402E0A96BD7
:1008E00028468847F80314D529684FF4803088607B
:1008F000B80301D5296B0AE0780302D544F400441B
:1009000007E0380302D544F4803402E0E96B28465E
:10091000884730074FF0100706D55FEACA6003D555
:10092000286844F40074C760700708D55FEA0A704D
:1009300005D529680820C860696C28468847B00733
:1009400006D52868C068800702D0296C28468847E9
:10095000700606D55FEACB6003D5286844F480644E
:100960000761B00608D55FEA0B7005D52968082035
:100970000861E96C28468847F00606D528680069B2
:10098000800702D0A96C28468847B00307D55FEAE4
:10099000C96004D528684760296D28468847F00358
:1009A00008D55FEA097005D5296808204860696D97
:1009B00028468847300446D55FEA497040D5F0059F
:1009C00004D55FEAC87001D044F00104B00504D535
:1009D0005FEA887001D544F00204700504D55FEA2F
:1009E000487001D544F00404300529D518F0700F83
:1009F00026D008F07000402815D006DC102809D059
:100A000020280AD0302816D10AE050280ED06028BD
:100A100011D10EE044F008040DE044F010040AE0A7
:100A200044F0200407E044F0400404E044F0800473
:100A300001E044F480742868816921F070018161CB
:100A4000296804204860002C07D0686A2043686247
:100A50002846A96DBDE8F05F0847BDE8F09F00009B
:100A600070B5040003D094F8200010B122E00120FA
:100A700070BD51482064514860645148A064514899
:100A8000E0645148A0625148E062514820635148F7
:100A900060635148A0635148E06351482065514864
:100AA00060655148A065E06D08B95048E0650146B1
:100AB000204688472068016841F00101016000F08C
:100AC00055FC0546052604E000F050FC401B0A28B2
:100AD00011D820684068C007F6D02068016821F06E
:100AE0000201016000F042FC05460BE000F03EFC14
:100AF000401B0A2806D9606A40F40030606284F81E
:100B00002060B4E7206840688007EFD4207E012889
:100B1000206801683DD021F080010160607E0128DD
:100B20002068016838D021F040010160A07E0128D2
:100B30002068016833D021F020010160E07E0128A7
:100B4000206801682ED041F010010160207F01284B
:100B50002068016829D021F008010160607F012828
:100B60002068016824D021F004010160D4E9020169
:100B70000843D4E90412114308436168491E08433D
:100B80002168C86100206062012084F820000020F4
:100B900070BD41F08001C0E741F04001C5E741F080
:100BA0002001CAE721F01001CFE741F00801D4E7A6
:100BB00041F00401D9E700007F0D00087D0D000819
:100BC000830D0008810D0008E30D0008E70D000803
:100BD000EB0D0008E10D0008E50D0008E90D000827
:100BE000850D0008ED0D000881070008F10B0008D5
:100BF000F0B587B0044614216846FFF7ACFB374BCD
:100C00003748DFF8D4E01968D4F800C0344A022528
:100C10000326092710300024491CF44524D119600B
:100C2000012907D1016841F000710160006800F0FE
:100C300000700590106840F001001060106802AB71
:100C400000F0010005904FF4C050CDE9000583E8A5
:100C5000D0006946234800F091FA00221146142082
:100C600000F0F2FB142033E0DFF87CE0F44531D1F2
:100C7000D0F800C04CF0806CC0F800C0D0F800C0C4
:100C800001290CF0806CCDF814C0196007D10168FF
:100C900041F000710160006800F00070059010687C
:100CA00040F002001060106802AB00F002000590F6
:100CB0004FF44050CDE9000583E8D00069460B4869
:100CC00000F05CFA00221146402000F0BDFB4020FD
:100CD00000F0ACFB07B0F0BD006400400000002055
:100CE000303802400000024000680040000402402A
:100CF00010B500233AB190F82040012C09D090F8AB
:100D0000204064B32FE0416A41F480014162012038
:100D100010BD0F2927D2DFE801F0080A0C0E1012CF
:100D20001416181A1C1E202D2F00826220E0C262A9
:100D30001EE002631CE042631AE0826318E0C263B3
:100D400016E0026414E0426412E0826410E0C264BF
:100D50000EE002650CE042650AE0826508E00D29BC
:100D600008D00E2908D0416A41F480014162012374
:100D7000184610BDC265FBE70266F9E77047704789
:100D8000704770477047000070B5044690F8200027
:100D9000012804D0606A40F40020606218E002205C
:100DA00084F820002068016821F00101016000F052
:100DB000DDFA05460EE000BF00F0D8FA401B0A2815
:100DC00008D9606A40F400306062052084F8200091
:100DD000012070BD20684068C007EDD1606270BD21
:100DE00070477047704770477047704770472DE9EC
:100DF000F041044680680025069E80280ED094F8B5
:100E0000340001280FD0012084F8340094F8350014
:100E100001280AD002252846BDE8F0814FF48070F1
:100E200060650125F7E70220F6E7022084F8350027
:100E30002068076847F4802707602068036133460D
:100E40002046FFF78FFB2068016841F00101016037
:100E5000E1E72DE9F0410446876D00F087FA064688
:100E600094F835000025022806D08020606584F8BB
:100E700034500120BDE8F0812068016821F016019E
:100E800001602068416921F080014161206C08B94E
:100E9000A06C20B12068016821F008010160206881
:100EA000016821F0010101600CE000F05FFA801B95
:100EB000052807D920206065032084F8350084F8D0
:100EC0003450D7E720680068C007EED194F85C1072
:100ED0003F208840B860012084F8350084F8345001
:100EE0000020C7E790F83510022903D08021416522
:100EF00001207047052180F835100068016821F055
:100F000001010160002070472DE9F84304464FF0CD
:100F10000009CDF8009063484FF41651A56D0068A4
:100F2000B0FBF1F72E6894F85C10082000FA01F18C
:100F300031420FD021680A6852070BD50A6822F0A7
:100F400004020A6094F85C108840A860606D40F06C
:100F50000100606594F85C104FF0010808FA01F098
:100F6000304208D021684969090604D5A860606D3F
:100F700040F00200606594F85C1004208840304224
:100F800008D021680968890704D5A860606D40F021
:100F90000400606594F85C1010208840304218D03E
:100FA00021680968090714D5A86020680168490309
:100FB00004D50068000308D5A16C07E00168C905E5
:100FC00003D4016821F008010160216C09B12046B9
:100FD000884794F85C1020208840304231D0216846
:100FE0000968C9062DD5A86094F835000528206841
:100FF000016806D0490347D5006800031DD4616C21
:101000001CE021F0160101602068416921F0800197
:101010004161206C08B9A06C20B12068016821F002
:101020000801016094F85C103F208840A86084F8B3
:10103000358084F83490216D1FE0E16B09B12046C2
:101040008847606D00282BD0606DC00714D0052044
:1010500084F835002068016821F0010101600098E2
:10106000401C0090B84203D820680068C007F6D141
:1010700084F8358084F83490E16C002910D001B0F8
:101080002046BDE8F04308470168C905D5D401688A
:1010900021F01001016084F8358084F83490CCE7A9
:1010A000BDE8F883100000202DE9F041044600F06F
:1010B0005DF906465CB1022084F83500002584F80D
:1010C00034502068016821F0010101600DE0012029
:1010D000BDE8F08100F04AF9801B052805D92020E1
:1010E0006065032084F83500F2E720680068C007D7
:1010F000F0D12268116820480140D4E90103184367
:10110000D4E903363343184363691843A36918438A
:10111000E3691843236A18430843616A042903D129
:10112000D4E90B1319430843106020684069666ACC
:1011300020F0070130460E43012704280CD1A06A95
:101140000643E06A40B12046FFF7E2F920B14020B3
:10115000606584F83570BAE7206846612046FFF77D
:10116000C3F994F85C203F2191408160656584F863
:1011700035700020ACE700003F8010F02DE9F84FFB
:10118000DFF8BCA1002201250AF1040B03264FF071
:101190000F090BF1040E00BF0B6805FA02F423409F
:1011A000A34270D10F7907F00307012F01D0022F5E
:1011B00016D187684FEA420806FA08FC27EA0C07AE
:1011C000D1F80CC00CFA08FC4CEA070CC0F808C0B7
:1011D0004768A7430C79C4F3001494403C4344602F
:1011E0000C79E443A4070AD0C4684FEA420C06FA1B
:1011F0000CF7BC438F6807FA0CF72743C7600C79DC
:1012000004F00304022C12D1D40800EB840CDCF8A7
:1012100020405707FF0E09FA07F824EA0804D1F81E
:10122000108008FA07F848EA0408CCF8208004681F
:101230004FEA420C06FA0CF7BC430F7907F003079C
:1012400007FA0CF7274307604C6814F4403F70D04E
:101250003C4C276847F480472760246822F0030746
:1012600004F480440094384C07EB040CDCF8084884
:1012700097074FEA177809FA08F7BC43334FB8428B
:1012800002D1002724E054E0314FB84201D10127B8
:101290001EE0304FB84201D1022719E02E4FB8426C
:1012A00001D1032714E02D4FB84201D104270FE0EC
:1012B0002B4FB84201D105270AE02A4FB84201D18D
:1012C000062705E0284FB84201D1072700E008278C
:1012D00007FA08F72743CCF80878DAF800405746B1
:1012E000D1F804C09C435FEACC3C00D51C433C6071
:1012F000DBF800405F46D1F804C09C435FEA8C3CB9
:1013000000D51C433C60DEF800407746D1F804C0AD
:101310009C435FEACC2C00D51C433C60084F0C3743
:101320003C68D1F804C09C435FEA8C2C00D51C4378
:101330003C60521C102AFFF42FAFBDE8F88F00006C
:10134000003C0140443802400030014000000240AF
:101350000004024000080240000C0240001002405D
:101360000014024000180240001C0240014880683E
:101370007047000004000020024881680278114490
:1013800081607047040000200B4810B5016841F4EB
:1013900000710160016841F480610160016841F4FD
:1013A00080710160032000F06FF80F2000F006F854
:1013B00000F024F8002010BD003C024070B50D4D37
:1013C00004464FF47A712878B1FBF0F00A490968B5
:1013D000B1FBF0F000F00AFB48B9102C07D2002254
:1013E0002146501E00F030F800206C6070BD0120D6
:1013F00070BD000004000020100000200A4808B55D
:10140000016841F480410160006800F48040009070
:101410000548001F016841F080510160006800F03C
:101420008050009008BD000044380240002809DBCD
:1014300000F01F02012191404009800000F1E020EE
:10144000C0F8001170470000F0B40E4B1B680C464A
:10145000C3F30223C3F10705042D00D90425191D88
:10146000072901D2002300E0DB1E012606FA05F160
:10147000491E214099409E40761E16403143F0BCE3
:1014800002F0EFBA0CED00E0064900F00702086830
:101490004FF6FF03184040EA0220034A1043086059
:1014A000704700000CED00E00000FA052DE9F04760
:1014B0000E46050065D0DFF81481D8F80000F7B2B9
:1014C00000F00700B04207D288F80070D8F800009A
:1014D00000F00700B04254D128683D4C810712D576
:1014E000400703D5206840F4E050206028780007CA
:1014F00003D5206840F4604020602068A96820F08F
:10150000F000084320602878C0072DD03049686873
:101510000839012812D0022813D0032811D00968F5
:10152000890700292DDA216821F003010143216098
:10153000FFF71CFF814641F2883A0EE009688903F3
:10154000EFE709688901ECE7FFF710FFA0EB09015D
:10155000514502D90320BDE8F0872068696800F092
:101560000C00B0EB810FEFD1D8F80010404601F02D
:101570000701B14207D90770006800F00700B042C8
:1015800001D00120E7E72878400705D52068E96801
:1015900020F4E050084320602878000706D5206832
:1015A000296920F4604040EAC100206000F038F86A
:1015B0002168084AC1F30311515CC840064908601C
:1015C00006480068FFF7FAFE0020C4E7003C02402E
:1015D000083802400E5700081000002008000020C4
:1015E0000448054900680968044AC1F38221515C36
:1015F000C840704710000020083802401E570008FD
:101600000448054900680968044AC1F34231515C45
:10161000C840704710000020083802401E570008DC
:10162000154810B5006810F00C02144813D0411092
:10163000042A0FD0082A0ED10F4C241F22682368D9
:1016400002F03F025B0207D52068C0F38810A0FBC0
:10165000010106E0084610BD2168C1F38811A1FB15
:1016600000010023FEF700FE2168C1F30141491C7F
:101670004900B0FBF1F010BD083802400024F4002E
:101680002DE9F84F04006ED02078DFF84C93C007A6
:10169000A9F104054AD009F104000168C1F38101F0
:1016A000012908D00068C0F3810002280AD1D9F8C6
:1016B0000000400206D52868800337D560680028FE
:1016C000E1D033E06068B0F5803F10D0B0F5A02FD6
:1016D000286810D020F480302860286820F480200A
:1016E00028606068A8B1FFF741FE06460DE0286853
:1016F00040F48030F4E740F480202860F7E700BF32
:10170000FFF734FE801B642873D828688003F7D560
:101710000CE0FFF72BFE064605E000BFFFF726FEB4
:10172000801B6428F0D828688003F7D42078DFF87D
:10173000AC8280074FF0000A3ED5A748001D016823
:1017400011F00C0F08D00068C0F3810002280BD103
:10175000D9F80000400207D42868800716D5E06851
:10176000012800D112E033E1E068B8B10120C8F8E7
:101770000000FFF7FBFD064605E000BFFFF7F6FDA2
:10178000801B0228C0D828688007F7D528682169FF
:1017900020F0F80040EAC10028600DE0C8F800A081
:1017A000FFF7E4FD064604E0FFF7E0FD801B02289A
:1017B0001FD828688007F7D42078000722D5864FE5
:1017C00087486169703771B101210160FFF7CEFD73
:1017D000064604E0FFF7CAFD801B022809D83868D6
:1017E0008007F7D50EE0C0F800A0FFF7BFFD064662
:1017F00005E082E0FFF7BAFD801B02287DD838683B
:101800008007F7D42078400768D5DFF8CCB10027EF
:101810000BF13C0BDBF80000C0000BD4DBF8001030
:1018200041F08051CBF80010DBF80000012700F0F8
:10183000805000906B4E3068C00510D4306840F482
:1018400080703060FFF792FD009005E0FFF78EFD9D
:101850000099401A022850D83068C005F6D55E4E6F
:10186000A0686C3601280FD00528306810D020F011
:1018700001003060306820F004003060A068B8B12A
:10188000FFF774FD00900FE0306840F00100F4E7CE
:1018900040F004003060F7E7FFF768FD0099411A57
:1018A00041F28830814266D830688007F4D50EE076
:1018B000FFF75CFD009007E0FFF758FD0099411A23
:1018C00041F28830814256D830688007F4D42FB175
:1018D000DBF8001021F08051CBF80010A069C8B3EC
:1018E0003D49091D0968C1F3810102294AD0022836
:1018F000504607D0C8F8600000E03CE0FFF736FD36
:1019000004463BE04746C8F86000FFF72FFD064657
:1019100005E000BFFFF72AFD801B02282BD82868AE
:101920008001F7D4D4E907010843A16A2E4A490887
:1019300002EB0141626A41EA8211084394F82C10DB
:1019400040EA0161C9F8001001203866FFF70EFD7A
:10195000044606E03EE000BFFFF708FD001B02283A
:1019600009D828688001F7D534E000BFFFF7FEFCF6
:10197000001B022802D90320BDE8F88F28688001E7
:10198000F4D427E00128F7D0D9F80000E26900F488
:10199000800191421CD1226A00F03F01914217D18F
:1019A00047F6C071626A0140B1EB821F10D1A26A92
:1019B0004FF0FF3300F4403103EB5202B1EB024F22
:1019C00006D194F82C1000F07060B0EB016F01D0DC
:1019D0000120D1E70020CFE7043802400000474251
:1019E000800E4742007000400000FFFF10B5401E0F
:1019F000B0F1807F01D3012010BD4FF0E024606181
:101A00000F21601702F02DF80020A061072020614F
:101A1000002010BD7047704770B590F83C20012A37
:101A200032D0012480F83C40022280F83D20036837
:101A30005A689D6822F070060A6832435A60134B58
:101A400002689A4214D0B2F1804F11D0104B9A42E2
:101A50000ED0104B9A420BD00F4B9A4208D00F4B2E
:101A60009A4205D00E4B9A4202D00E4B9A4204D1B4
:101A7000496825F080031943916080F83D400021BA
:101A800080F83C10084670BD022070BD0000014087
:101A90000004004000080040000C00400004014029
:101AA000004001400018004010B5040003D094F835
:101AB0003D0010B107E0012010BD002084F83C007B
:101AC000204600F01FF8022084F83D00211D206808
:101AD00001F000FA012084F8460084F83E0084F802
:101AE0003F0084F8400084F8410084F8420084F804
:101AF000430084F8440084F8450084F83D00002049
:101B000010BD000008B50068B0F1804F12D10A483E
:101B1000016841F0010101600068002200F001004D
:101B2000009011461C20FFF78FFCBDE808401C20E8
:101B3000FFF77CBC08BD00004038024090F83D1023
:101B4000012901D001207047022180F83D10016871
:101B5000CA6842F00102CA6000681149884214D084
:101B6000B0F1804F11D00F4988420ED00E49884203
:101B70000BD00E49884208D00D49884205D00D4946
:101B8000884202D00C49884204D1816801F00701E3
:101B9000062903D0016841F001010160002070476F
:101BA000000001400004004000080040000C00401C
:101BB00000040140004001400018004070B5044698
:101BC00090F83C000025012817D0012684F83C60DD
:101BD000022084F83D002068826822F0770222F417
:101BE0007F4282600868502838D00DDC20284FD012
:101BF00005DC90B3102811D14AE0022070BD3028D6
:101C000046D040280AD13BE060282FD070280DD064
:101C1000B0F5805F03D0B0F5005F12D0012584F8E5
:101C20003D60002084F83C00284670BDCB68D1E9B7
:101C30000121206801F0B2F92068816841F0770144
:101C400009E0CB68D1E90121206801F0A7F92068FB
:101C5000816841F480418160E1E719E0CA68496820
:101C6000206801F0ADF95021206806E0CA68496893
:101C7000206801F0B6F96021206801F099F9CEE7FB
:101C8000CA684968206801F09BF940212068F4E7A0
:101C9000226801461046F0E7704770B504460068B8
:101CA00001694FF00005C943890715D4C168C943CC
:101CB000890711D4E91E016101202077206880691D
:101CC0008007204602D0FFF7E7FF04E000F098F815
:101CD000204600F096F8257720680169C943490736
:101CE00017D4C168C943490713D46FF004010161D7
:101CF000022020772068806910F4407F204602D0BF
:101D0000FFF7CAFF04E000F07BF8204600F079F806
:101D1000257720680169C943090716D4C168C943FA
:101D2000090712D46FF008010161042020772068B0
:101D3000C0698007204602D0FFF7AEFF04E000F044
:101D40005FF8204600F05DF8257720680169C943F7
:101D5000C90617D4C168C943C90613D46FF010016E
:101D60000161082020772068C06910F4407F204678
:101D700002D0FFF791FF04E000F042F8204600F0A7
:101D800040F8257720680169C943C90708D1C168AF
:101D9000C943C90704D1891E0161204600F032F809
:101DA00020680169C943090609D4C168C943090605
:101DB00005D46FF0800101612046FFF72BFE2068FB
:101DC0000169C943490609D4C168C943490605D414
:101DD0006FF040010161204600F020F820680169A1
:101DE000C94389060BD4C168C943890607D46FF07B
:101DF000200101612046BDE87040FFF70CBE70BDB8
:101E00007047704710B50068B0F1804F05D100F001
:101E1000DFFFBDE81040FEF747BB10BD70477047BD
:101E20007047704770477047F8B501680446086806
:101E3000CA684B6910F00F0F4FF0000556D003F041
:101E4000010602F49077374361D0C10705D0D10570
:101E500003D5216C41F001012164410705D5D90763
:101E600003D0216C41F002012164810705D5D90717
:101E700003D0216C41F004012164010707D502F071
:101E80002001314303D0216C41F008012164216C11
:101E900000293BD0800604D5900602D5204601F0EB
:101EA000D5FC20684069216CC0F38010090700D47C
:101EB00040B3204601F07CFC2068406940061ED5F6
:101EC0002068143050E8001F21F0400140E8001263
:101ED000002AF5D1A06B90B16C490165A06BFFF7AA
:101EE00001F8002812D0A06B016DCBE083060ED55F
:101EF00093060CD52046BDE8F84001F0A7BC20466B
:101F0000616DBFE0616D204688472564F8BD266B92
:101F10002023012E7BD1C60679D5D60677D5086851
:101F2000486800904869400640D5A16B0868406841
:101F30000004000CEAD0A28D8242E7D9E085C8698E
:101F4000B0F5807F2DD020680C3050E8001F21F4C0
:101F5000807140E80012002AF5D12068143050E862
:101F6000001F21F0010140E80012002AF5D120688D
:101F7000143050E8001F21F0400140E80012002A10
:101F8000F5D184F83E30256320680C3050E8001FFE
:101F900021F0100140E80012002AF5D1A06BFEF7F5
:101FA00058FFA08DE18D401A81B229E0A08DE18D0E
:101FB000401A81B2E08D0028A8D00029A6D0206860
:101FC0000C3050E8002F22F4907240E80026002EDA
:101FD000F5D12068143050E8002F22F0010240E8CB
:101FE0000026002EF5D184F83E30256320680C30A1
:101FF00050E8002F22F0100240E80023002BF5D11A
:10200000A26E01B02046BDE8F0401047FFE705068C
:102010002CD515062AD594F83D0021287FF476AFFB
:10202000A068B0F5805F01D12069B0B1206A411C81
:102030002162216800784860E08C401E0004000C9A
:10204000E084EBD12068C16821F08001C160206884
:10205000C16841F04001C160F8BD206A0088C0F34A
:1020600008004860206A801C2062E5E74006F3D53E
:102070005006F1D5CA68204622F04002CA6084F8B2
:102080003D30A16C01B0BDE8F0400847A53700081D
:1020900070B5040004D094F83D00002510B10DE0A7
:1020A000012070BD84F83C50204601F0A9FBE06E91
:1020B00008B91348E066014620468847242084F882
:1020C0003D002068C16821F40051C160204601F044
:1020D0001DFC2068016921F490410161206841697B
:1020E00021F02A0141612068C16841F40051C160BA
:1020F0002564202084F83D0084F83E00002070BD57
:10210000052100082DE9F04387B0064614216846F2
:10211000FEF721F9DFF840C1022231684F4803235E
:102120000725DFF83C81002497064FF4806961455C
:1021300037D14A491431D1F800C04CF0100CC1F825
:1021400000C0096801F010010591016841F001012A
:1021500001600068694600F00100059058028DE8B2
:102160001500CDE903354046FFF708F83E4D3D48E0
:102170002860C5E90174C5E903496C61AC61EC6193
:102180002C6228466C62FEF78FFF08B1FEF7FAF961
:10219000B563002211462520AE63FFF755F92520CF
:1021A00054E0DFF8C8C0614552D12C491031D1F854
:1021B00000C04CF4003CC1F800C0096801F40031D3
:1021C0000591016841F0010101600068694600F075
:1021D000010005900C208DE81500CDE9033540463F
:1021E000FEF7CCFF204D22486035B8462860C5E98F
:1021F0000174C5E903496C61AC61EC612C624F4626
:1022000028466C62FEF750FF08B1FEF7BBF9B563D4
:10221000AE63154D1648C0351830E5E80208402079
:1022200091C5114845F81449C030AC61EC612C628D
:102230006C62FEF739FF08B1FEF7A4F9756300225E
:1022400011462620AE63FFF7FFF82620FFF7EEF8D1
:1022500007B0BDE8F08300000010014030380240B4
:102260000000024040640240500200200044004050
:10227000886002400022A1B190F83C30012B16D0BA
:10228000012380F83C3090F83D30202B11D0016CB8
:1022900041F0200101640122002180F83C10104629
:1022A0007047016C41F02001016401207047022059
:1022B00070478166F0E77047704770477047FEE7E8
:1022C00010B5044600681F4B8AB0984201D1002027
:1022D00006E01D4A904201D1012001E04FF0FF309D
:1022E000C0EB0012194800EB820292F8380002EBB2
:1022F0008000416212F8380F0021401C10702268E3
:102300000E209A4201D1059100E0059004910990B8
:10231000012001910291CDE90610039100910890EE
:1023200069462046FEF7A6F9094A06212046FEF72F
:10233000DFFC02212046FEF727F92046FEF724FDA8
:102340000AB010BD0064004000680040080600208C
:10235000552300082DE9F047174A0168914201D141
:10236000002106E0154A914201D1012101E04FF020
:10237000FF31CEB2DFF84890C6EB061809EB8801B2
:102380000C4601F11C031D4622460021FEF7F9F917
:1023900000280ED1002708E004EB870159F8282017
:1023A0004B6A2946304698477F1C94F83810B9424A
:1023B000F2DCBDE8F08700000064004000680040E7
:1023C0000806002010B5A2F20122072A34D8C0EB7B
:1023D000C0041A4892B20B8800EB4410C2EBC20250
:1023E00000EB82005BBA83814A8852BA02818A88F4
:1023F00052BA428089798180817911B903800121A3
:102400008171B0F90C30B0F90020991A09B2B1F518
:10241000805F05DB41691944891AA1F5005108E084
:1024200011F5805F41691944A1EB020101DC01F55E
:10243000005141618189018010BD000080060020AB
:1024400030B505460068334989B0884201D1002083
:1024500006E03149884201D1012001E04FF0FF3010
:102460000021049105914FF4007102910821069119
:10247000C0EBC001294808AB00EB41146A46208B31
:10248000010A8DF800108DF80100A08E010A8DF868
:1024900002108DF80300B4F85000010A8DF8041002
:1024A0008DF80500B4F86C00010A8DF806108DF85F
:1024B000070002A92846FEF779F808B1FEF762F88E
:1024C00040F2FF10029034F8880F08AB010A8DF833
:1024D00000108DF80100A08B6A46010A8DF80210E9
:1024E0008DF80300208F010A8DF804108DF8050087
:1024F000B4F85400010A8DF806108DF8070002A9FF
:102500002846FEF753F8002801D0FEF73BF809B043
:1025100030BD0000006400400068004080060020DC
:1025200010B5002836D001881B4CC1F30A01218068
:1025300041788278C90841EA4211C1F30A016180F9
:102540008178C278890941EA8201027941EA8221CF
:10255000C1F30A01A18001794279490841EAC21117
:10256000C1F30A01E1804179890921724179C1F3FE
:1025700001116172C18861810189A1814189E18173
:10258000017B2174417B6174C089608200F04CF949
:102590000120207510BD000018000020C0ED0C1AAD
:1025A00080ED042AC0ED062A80ED083A80EC030A8B
:1025B0007047000070EE600AC0ED030A90ED040A57
:1025C000F4EEC00AF1EE10FA01DD80ED030AD0ED61
:1025D000030AB1EE400AF4EEC00AF1EE10FA02D39B
:1025E000B0EE600A01E080ED030AB5EEC00AF1EE3C
:1025F00010FA01DCB1EE400AD0ED080AB4EEE00AB0
:10260000F1EE10FA03D89FED290A80ED030AD0ED10
:10261000050A90ED030A30EE801A80ED051AD0ED20
:10262000060AB4EEE01AF1EE10FA01DDC0ED050A7B
:1026300090ED051AF1EE600AB4EEE01AF1EE10FA30
:1026400001D2C0ED050AD0ED090A30EE601A80ED26
:10265000071AD0ED000AD0ED011A90ED052A60EEC0
:10266000800A41EE820AD0ED021A41EE810AC0EDE5
:102670000B0A90ED0C1AF4EEC10AF1EE10FA01DD2E
:1026800080ED0B1AD0ED0B1AF1EE410AF4EEE01AD0
:10269000F1EE10FA01D2C0ED0B0A80ED090A90EDBF
:1026A0000B0ABDEEC00A10EE100A704700000000D1
:1026B000F8B505460068224A904201D1012019E090
:1026C000204A904201D1022014E01F4A904201D1D9
:1026D00003200FE01D4A904201D104200AE01C4A69
:1026E000904201D1052005E01A4A904201D106200E
:1026F00000E0002000EBC00000EB4002164832264C
:1027000000EB82042846A4F86460A1661349FFF731
:10271000B1FD2868C16841F01001C1600120286343
:10272000AE850096296804F132032246091DA86B84
:10273000FEF75DFB2868416941F040014161F8BD49
:10274000001001400044004000480040004C0040A0
:102750000050004000140140A0080020612700083C
:1027600030B42A4A0168914201D1012119E0284A76
:10277000914201D1022114E0264A914201D1032164
:102780000FE0254A914201D104210AE0234A9142F7
:1027900001D1052105E0224A914201D1062100E044
:1027A0000021826B1268136801EBC10143F3C0443E
:1027B00001EB41031B49556801EB830393F8641057
:1027C000491B1568C9B225F001051560826B1268B6
:1027D0001568641C2D03156802D525F4002501E059
:1027E00045F400251560806B0068026842F0010224
:1027F00002609A6E002A07D004EBC40000EB0410BC
:1028000030BC03EB4000104730BC70470010014063
:102810000044004000480040004C00400050004090
:1028200000140140A00800201E48418A1E4801F003
:1028300001028270C1F340020272C1F3800282730E
:10284000C1F3C0020275C1F300128276C1F34012D7
:1028500080F82020C1F3801280F82620C1F3C01236
:1028600080F82C20C1F3002280F83220C1F34022EE
:1028700080F83820C1F3802280F83E20C1F3C022C6
:1028800080F84420C1F3003280F84A20C1F340327E
:1028900080F85020C1F3803280F85620C90B80F8B0
:1028A0005C10704718000020400800200D4810B54B
:1028B0000B4901601021416000218160C16001610C
:1028C0004161017641768176C17601774177FEF7E5
:1028D000C7F8002803D0BDE81040FDF753BE10BD77
:1028E00000640040580000200D4810B50B490160FD
:1028F0001021416000218160C16001614161017668
:1029000041768176C17601774177FEF7A9F80028F4
:1029100003D0BDE81040FDF735BE10BD0068004093
:10292000BC000020154808B5016841F48001016031
:10293000016801F480010091016841F40011016017
:102940000068002200F40010009011461020FEF7ED
:102950007BFD1020FEF76AFD002211461120FEF7D4
:1029600073FD1120FEF762FD002211463A20FEF7AA
:102970006BFDBDE808403A20FEF758BD30380240F4
:102980000D4808B5016841F080010160016801F05F
:1029900080010091016841F001010160016801F0CE
:1029A00001010091016841F002010160006800F03E
:1029B0000200009008BD00003038024010B586B01B
:1029C00000241648009401940294039404944FF058
:1029D0008041059401605321C0E9011440F2E731C0
:1029E000C0E903148461FFF75FF808B1FDF7CAFD81
:1029F0004FF48050009069460848FFF7DFF808B1AF
:102A0000FDF7C0FD049404A904480594FFF704F8F9
:102A1000002801D0FDF7B6FD06B010BD2001002052
:102A20000E4810B50C4901600D4941604FF48051CA
:102A3000816000214FF48062C0E903120C22C0E9DA
:102A40000521C161FFF724FB002803D0BDE8104039
:102A5000FDF798BD10BD0000001001406801002086
:102A6000A08601000C4810B50A4901604FF4E1311D
:102A70004160002181600C22C160C0E904128161C3
:102A8000C161FFF705FB002803D0BDE81040FDF74A
:102A900079BD10BD00440040DC010020FEE70000CD
:102AA000F0B5444E444F00229FED441ADFED440A36
:102AB000444C00BF02EB820100EB011504EB8203E2
:102AC000696900EE101A0029F8EEC01A93ED030AA6
:102AD00071EEC01A11EE90CA3CDBB44509DC01EE80
:102AE000901AF8EEE11A71EEC01A11EE90CABC45C8
:102AF0001CD901EE901ADFF8D0E0F8EEE11A71EE81
:102B0000C01A11EE90CAF44541DD30EE010A3BE0F7
:102B100030EE200A02E000BF30EE600A83ED030AC7
:102B200093ED000AB1EE400A83ED000A04EB820146
:102B3000521C91ED030A032ABDEEC00A85ED040A7A
:102B400091ED000ABDEEC00A10EE101AA5F84A1168
:102B5000B0DBF0BDB44509DC01EE901AF8EEE11AE5
:102B600071EEC01A11EE90CABC45DFD901EE901A81
:102B7000DFF858E0F8EEE11A71EEC01A11EE90CAD3
:102B8000F44504D930EE410A83ED030ACEE701EEA5
:102B9000901AF8EEE11AF4EEC01AF1EE10FAB7DC72
:102BA00001EE901AF8EEE11AF4EEC01AF1EE10FA06
:102BB000B2D3BBE7D00FC93FD00FC9BFD00FC940B8
:102BC000D00F4940940C0020DCCB9640DCCB96C063
:102BD0002DE9F041DFF86C800746002505EB850004
:102BE00007EB0014B4F9480100EE100AB4F94A01E9
:102BF000F8EEC00A00EE100A04F5AE70B8EEC00A96
:102C0000FFF7D8FCC5EBC50208EB8206A6F8F80072
:102C100094ED050A04F11C00F8EEC00A94ED040AD4
:102C2000B8EEC00A00F0B8F86D1CA6F8D801032D64
:102C3000D4DB0548FFF704FCBDE8F0410348FFF78B
:102C4000FFBB00008006002058000020BC000020D0
:102C5000FEE7000010B52DED028B9FED4B8AB0EE24
:102C6000483ADFED4A8AB0EE481AF0EE480AF0EE34
:102C7000682AB0EE682AF0EE681AB0EE480A4448B6
:102C8000FFF78CFC4248B0EE483AF0EE682AB0EE0E
:102C9000682AF0EE681AB0EE481AF0EE480AB0EE74
:102CA000480A5030FFF77AFC3948B0EE483AF0EE67
:102CB000682AB0EE682AF0EE681AB0EE481AF0EE14
:102CC000480AB0EE480AA030FFF768FC3048B0EE82
:102CD000483AF0EE682AB0EE682AF0EE681AB0EED4
:102CE000481AF0EE480AB0EE480AF030FFF756FCFA
:102CF000B0EE483AF0EE682AB0EE682AF0EE681AB4
:102D0000B0EE481AF0EE480AB0EE480A2148FFF744
:102D100045FC2048B0EE483AF0EE682AB0EE682A4A
:102D2000F0EE681AB0EE481AF0EE480AB0EE480A23
:102D30005030FFF733FC1648B0EE483AF0EE682A00
:102D4000B0EE682AF0EE681AB0EE481AF0EE480AC3
:102D5000B0EE480AA038FFF721FCB0EE483AF0EE9A
:102D6000682AB0EE682AF0EE681AB0EE481AF0EE63
:102D7000480AB0EE480ABDEC028B0548BDE8104099
:102D80005038FFF70BBC0000000000000000484274
:102D9000CC0400208C03002000B5F0EE402A014650
:102DA000FFF708FC084A00EE900AB0EE620A1060D5
:102DB000F8EEE00A0846FFF7FDFB91ED0B0ABDEEC9
:102DC000C00A10EE100A00BD3000002070477047A6
:102DD00070B50F48007838B1012818D1BDE87040AF
:102DE0000A210C4800F010B90B4CA08802F0CAF878
:102DF0000A4DC5E9A201E08805F5207502F0C2F888
:102E0000C5E90001208802F0BDF8C5E9040170BDE4
:102E100034000020C40C00201800002070030020A3
:102E2000FEF7AABA30B593B030216846FDF793FAA1
:102E300014210CA8FDF78FFA1D480025016841F008
:102E400080510160006800F08050119019480168BD
:102E500041F4804101600068022400F48040119038
:102E600001200090000401908001CDE9064008AAED
:102E70000420A82182E813000B906846FEF700FCAE
:102E800008B172B6FEE70CA90F2081E831004FF4BB
:102E9000A0500F904FF48050109005210CA8FEF721
:102EA00005FB002801D072B6FEE713B030BD00006C
:102EB00040380240007000400248016841F470014F
:102EC0000160704788ED00E00148FEF7E6BE0000B3
:102ED00020010020F0B50268254C264D264E274FD4
:102EE000274B4FF0804CA04209D0604507D0A84244
:102EF00005D0B04203D0B84201D0984204D122F0AC
:102F0000700E4A6842EA0E02A0421BD0604519D0FA
:102F1000A84217D0B04215D0B84213D0984211D071
:102F2000184DA8420ED0184DA8420BD0174DA842FC
:102F300008D0174DA84205D0164DA84202D0164D14
:102F4000A84203D122F44075CA682A434D6922F091
:102F500080022A4302608A68C2620A688262A042D2
:102F600001D0984201D10969016301214161F0BD9D
:102F7000000001400004004000080040000C004038
:102F8000000401400040014000440140004801406D
:102F900000180040001C00400020004010B584686C
:102FA00042EA032224F47F440A432243826010BD94
:102FB000826822F070020A4342F007018160704784
:102FC00010B5036A046A24F001040462846924F0E1
:102FD000F00444EA021423F00A020A438461026204
:102FE00010BD10B5036A23F0100303628369046AFD
:102FF00023F4704343EA023224F0A00343EA0111B0
:103000008261016210BD000070B504460078C007FF
:1030100013D134F8010F40BA01F0B4FF074DE5E9D0
:10302000A001608840BA01F0ADFFC5E90201A088A7
:1030300040BA01F0A7FFC5E9040170BD700300208C
:103040002DE9F041F94F04462DED088B9FEDF8AACC
:103050009FEDF88B9FEDF99ADFEDF99A90EDA00BBB
:10306000F84D07F1140653EC102B51EC100B01F046
:10307000D9FF94EDA20B41EC1B0B53EC102B51EC40
:10308000100B01F0CFFF53EC1B2B01F0EDFC41ECDA
:10309000100B01F025F885ED020B94EDA01B94EDCB
:1030A000A20B00F05DFE85ED040B53EC182B51ECE8
:1030B000100B02F0B5F806D295ED040B53EC102B73
:1030C0009FEDE10B0EE095ED040B53EC182B51EC4A
:1030D000100B01F06BFF0BD295ED040B53EC102B92
:1030E0009FEDDB0B51EC100B02F0A8F9C5E90401D0
:1030F00094EDA40B53EC182B51EC100B01F0C0FE17
:103100003AD194EDA00B53EC182B51EC100B01F0BD
:10311000B7FE0CD194EDA20BB0EE481AF0EE681A8F
:1031200053EC112B51EC100B01F0AAFE24D095EDBD
:10313000040B51EC100B01F065FC00EE100AB1EE2F
:10314000400A87ED040A00EE100AB1EE400A87ED4E
:10315000010A00EE100AB1EE400A87ED030A95ED70
:10316000020B51EC100B01F04DFC00EE100A306127
:103170007060B1EE400AD9E294EDA40B53EC182B29
:1031800051EC100B01F07CFE42D094EDA00B53ECFF
:10319000182B51EC100B01F073FE39D194EDA20BFA
:1031A000B0EE481AF0EE681A53EC112B51EC100BEC
:1031B00001F066FE2CD19FEDA80A87ED040A9FED71
:1031C000A70A87ED010A9FEDA60A87ED030A94ED91
:1031D000A48B9FEDA40B51EC180B53EC102B01F0BA
:1031E00021FF0D4645EC100B044651EC100B01F08D
:1031F00009FC45EC104B306151EC100B01F002FC66
:103200009FED9A0B706053EC102B51EC180B81E280
:1032100094EDA40B53EC182B51EC100B01F030FE85
:103220007ED094EDA00B53EC182B51EC100B01F059
:1032300027FE08D194EDA20B53EC182B51EC100B88
:1032400001F01EFEECD094EDA40B53EC102B95ED89
:10325000020B51EC100B01F0BBFC53EC182B01F0EE
:10326000DFFF94EDA40B53EC102B95ED020B51EC0A
:10327000100B02D201F0ACFC03E001F0A9FC01F05C
:10328000B4FBC5E9060195ED040B00F0C5FE95ED14
:10329000061B51EC100B53EC112B01F0C3FE01F097
:1032A000B1FB686095ED040B00F052FE95ED061B36
:1032B00051EC100B53EC112B01F0B4FE01F0A2FB0A
:1032C000286094EDA40B53EC182B51EC100B01F07B
:1032D0006DFE286873D202F09BF995ED010A41EC6E
:1032E0001B0B30EE4A0A10EE100A02F091F941EC85
:1032F000100BB0EE4B1AF0EE6B1A00F031FD51ECF2
:10330000100B01F07FFB00EE100AB1EE400A87EDD2
:10331000040A95ED000A30EE490A10EE100A00E0AA
:10332000FEE102F075F995ED010A41EC1B0B30EE60
:10333000290A10EE100A02F06BF941EC100BB0EE06
:103340004B1AF0EE6B1A00F00BFD51EC100B01F074
:1033500059FB00EE100AB1EE400A87ED010A95ED27
:10336000000A30EE090A10EE100A02F051F995ED4C
:10337000010A41EC1B0B30EE290A10EE100A02F094
:1033800047F941EC100BB0EE4B1AF0EE6B1A00F05F
:10339000E7FC51EC100B01F035FB00EE100A53EC8A
:1033A000182BB1EE400A87ED030A95ED020B51ECA4
:1033B000100B01F035FF03D295ED02BB08E0A3E04E
:1033C00095ED020B51EC100B01F00FFB41EC1B0BC8
:1033D00095ED010AD5ED000A30EE4A0A20EE000A0A
:1033E00000EEA00A10EE100A02F012F941EC100BE8
:1033F00000F076FE95ED061B51EC100B53EC112BF3
:1034000001F0E6FB53EC1B2B01F00CFE01F0FAFA85
:10341000306195ED020B53EC182B51EC100B01F0C1
:10342000FFFE27D295ED02AB2CE000006C0C0020D3
:103430001D5AA43E0000000000000000FFB28B3EB9
:103440001D5A243E3800002000000000FA210940E7
:1034500000000000FA2109C0D00FC93F8B0A063FC7
:103460008B0A06BF000000A0438BD43F000000A0E1
:10347000438BD4BF95ED020B51EC100B01F0B5FA64
:1034800041EC1A0B95ED010AD5ED000A30EE290A40
:1034900070EEC90A20EE000A00EEA00A10EE100A33
:1034A00002F0B6F841EC100B00F01AFE95ED061B89
:1034B00051EC100B53EC112B01F08AFB53EC1A2B3F
:1034C00001F0B0FD01F09EFA706095ED020B53EC37
:1034D000182B51EC100B01F0A3FE02D295ED028BDC
:1034E00007E095ED020B51EC100B01F07EFA41EC78
:1034F000180B95ED010AD5ED000A30EE290A70EEA1
:10350000890A20EE000AEFE002F082F895ED010A48
:1035100041EC1B0B30EE0A0A10EE100A02F078F8AC
:1035200041EC100BB0EE4B1AF0EE6B1A00F018FCE9
:1035300051EC100B01F066FA00EE100AB1EE400AF1
:1035400087ED040A95ED000A30EE090A10EE100A24
:1035500002F05EF895ED010A41EC1B0B30EE690AB2
:1035600010EE100A02F054F841EC100BB0EE4B1ABA
:10357000F0EE6B1A00F0F4FB51EC100B01F042FA84
:1035800000EE100AB1EE400A87ED010A95ED000A3F
:1035900030EE490A10EE100A02F03AF895ED010AF1
:1035A00041EC1B0B30EE690A10EE100A02F030F805
:1035B00041EC100BB0EE4B1AF0EE6B1A00F0D0FBA2
:1035C00051EC100B01F01EFA00EE100A53EC182B10
:1035D000B1EE400A87ED030A95ED020B51EC100B9A
:1035E00001F01EFE02D295ED02BB07E095ED020B45
:1035F00051EC100B01F0F9F941EC1B0B95ED010AB0
:10360000D5ED000A30EE0A0A20EE000A00EEA00A0C
:1036100010EE100A01F0FCFF41EC100B00F060FD11
:1036200095ED061B51EC100B53EC112B01F0D0FA69
:1036300053EC1B2B01F0F6FC01F0E4F9306195ED41
:10364000020B53EC182B51EC100B01F0E9FD02D2E8
:1036500095ED02AB07E095ED020B51EC100B01F07C
:10366000C4F941EC1A0B95ED010AD5ED000A30EED4
:10367000690A70EE890A20EE000A00EEA00A10EE38
:10368000100A01F0C5FF41EC100B00F029FD95ED8B
:10369000061B51EC100B53EC112B01F099FA53EC73
:1036A0001A2B01F0BFFC01F0ADF9706095ED020B33
:1036B00053EC182B51EC100B01F0B2FD02D295ED3A
:1036C000028B07E095ED020B51EC100B01F08DF928
:1036D00041EC180B95ED010AD5ED000A30EE690AB0
:1036E00070EEC90A20EE000A00EEA00A10EE100AE1
:1036F00001F08EFF41EC100B00F0F2FC51EC100BCE
:1037000001F073F995ED061B53EC112B01F060FAF3
:1037100053EC182B01F086FC01F074F9F06007E01F
:103720009FED1D0A86ED040A86ED010A86ED030A67
:103730001A4896ED040A00F1200180ED000A96ED8A
:10374000010A80ED010A96ED030A80ED020A91ED6F
:10375000000AD7ED040AB8EEC01A9FED110A41EE37
:10376000000AC0ED030A91ED011AD7ED010AB8EE87
:10377000C11A41EE000AC0ED040A91ED021AD7ED1C
:10378000030AB8EEC11A41EE000AC0ED050ABDEC0D
:10379000088BBDE8F081000000000000940C0020C0
:1037A000D00FC940806B0021C185C184416D08479D
:1037B00001680C3151E8002F22F4907241E8002397
:1037C000002BF5D10168143151E8002F22F00102DD
:1037D00041E80023002BF5D1016B012909D10168D3
:1037E0000C3151E8002F22F0100241E80023002B99
:1037F000F5D1202180F83E100021016370470000C0
:1038000009494164094981640949C164094901655B
:1038100009494165094981650949C1650949016647
:103820000949816670470000BD220008BB220008DC
:10383000B9220008B7220008271E0008211E000830
:10384000251E0008231E00081F1E000808B590F85A
:103850003E10222901D0022008BD82684FF4805317
:103860009A4201D1016921B1816A9A421BD04AB1C1
:103870000AE00268816A5268C2F308020A80816A1B
:10388000891C08E0026972B10268526802F07F0286
:103890000A70816A491C8162C18D491E0904090CA4
:1038A000C18503D019E002685268F1E70168CA686F
:1038B00022F02002CA600168CA6822F48072CA60DD
:1038C00001684A6922F001024A61202180F83E1015
:1038D000016B012903D0016D8847002008BD00213C
:1038E000016301680C3151E8002F22F0100241E819
:1038F0000023002BF5D101680A68D20602D50A68B8
:1039000049680091826E818D9047E6E770B5044664
:1039100000680169E26821F44051114301612169A5
:10392000A068E26908436169114308432168CA68D5
:1039300049F20C639A430243CA6020684169A26954
:1039400021F440711143416131492068884202D01D
:103950003049884202D1FDF753FE01E0FDF740FEF9
:10396000E2690023192164253226B2F5004F62680E
:1039700028D0A0FB0101930F9200FCF775FC0146D3
:10398000B0FBF5F06FF01802504301EB800006EB3E
:103990000010B0FBF5F000F0F002B1FBF5F002EB27
:1039A0000012B1FBF5F06FF01803584301EB8000F3
:1039B00006EB0010B0FBF5F000F00F00216810449A
:1039C000886070BDA0FB010192185B41FCF74CFCC4
:1039D0000146B0FBF5F00201B1FBF5F06FF0180302
:1039E000584301EB800006EBC000B0FBF5F000F09F
:1039F000F80002EB4002B1FBF5F0584301EB800008
:103A000006EBC000B0FBF5F000F00700D6E70000C1
:103A100000100140001401400148FEF705BA000003
:103A2000680100200148FEF7FFB90000DC0100201A
:103A3000FEE703B401984100009850EAC12018BF86
:103A400004204A0D18BF40F0010040F2FF72B2EBB3
:103A5000515F08BF40F00200012808BF052002B0F6
:103A600070470907090E002804DB00F1E02080F808
:103A70000014704700F00F0000F1E02080F8141DE2
:103A8000704700000000000070B59B482DED020B50
:103A90002DED068B079D25F00044A04218DC9748C9
:103AA000844202DC0AD1069840B19DED060BBDECC4
:103AB000068B02B0BDE8704000F03ABF002DCCBFCD
:103AC0009FED8F0B9FED900BBDEC068B02B070BD90
:103AD0008F48A04215DD8F48A042D8BF4FF0FF3479
:103AE00058DD9DED060B51EC100BFFF7A2FF0428EB
:103AF00008BF00F041FF9DED060BBDEC068B02B048
:103B000070BD9DED060B51EC100B00F04DFFCDE9A3
:103B1000060181489FED828BA0423CDD8248A04295
:103B20001FDD00249FED82AB9DED060B53EC1A2B9D
:103B300051EC100B00F098FF9DED060B41EC190BBA
:103B400053EC1A2B51EC100B01F06CFA53EC182BC0
:103B500001F074FC53EC192B01F03AF8CDE90601A1
:103B600049E09DED060B012453EC182B51EC100B92
:103B700000F07AFF9DED060B41EC190B53EC182B6E
:103B800051EC100B01F05AFC53EC192B01F020F80A
:103B9000CDE906012FE06848A0421FDD02249FED19
:103BA000689B9DED060B53EC192B51EC100B01F0AB
:103BB00039FA53EC182B00F057FF9DED060B41EC42
:103BC000180B53EC192B51EC100B01F037FC53EC94
:103BD000182B00F0FDFFCDE906010CE09DED060B72
:103BE000032453EC102B9FED580B51EC100B00F0FD
:103BF000EFFFCDE906019DED060B53EC102B51ECC8
:103C0000100B01F00FFA41EC180B53EC182B01F0DC
:103C100009FA41EC190B4E480621B0EE490AF0EEC4
:103C2000690A784400F070FD53EC182B51EC100B2E
:103C300001F0F8F941EC180B4648B0EE490AF0EEF5
:103C4000690A0521784400F05FFD53EC192B51EC13
:103C5000100B01F0E7F941EC100B51EC180B53EC91
:103C6000102B002C0EDA00F0FFFE9DED061B53EC2E
:103C7000112B01F0D7F99DED061B53EC112B01F030
:103C800005FB35E000F0F0FE9DED061B53EC112B1B
:103C900001F0C8F941EC100B2F48784400EBC40048
:103CA00090ED001B51EC100B53EC112B01F0C6FBF7
:103CB0009DED061B53EC112B01F0C0FB41EC100BEA
:103CC0002648784400EBC40090ED001B51EC100B2B
:103CD00053EC112B01F0DAFA41EC100B002DA2BFCE
:103CE000BDEC068B02B070BD51EC100B00F07DFEF8
:103CF00041EC100B01E70000000010440000F07FD1
:103D0000182D4454FB21F93F182D4454FB21F9BFD1
:103D10000000DC3F0000203E0000F33F00000000F8
:103D2000000000000000F03F0000E63F000000003F
:103D30000000000000000040008003400000000080
:103D4000000000000000F83F000000000000F0BF8D
:103D50006A1B0000201B0000AA1A0000621A000063
:103D600070B56B4E2DED040B2DED028B82B0DDF89E
:103D70001CC0DDE905235C422CF000411C4341EAF4
:103D8000D474049D22F00040B44205D86C422C4308
:103D900040EAD474B4420BD99DED061B9DED040B93
:103DA00002B0BDEC028B04B0BDE8704000F0CABDAB
:103DB000ACF14054A4F17F641C430BD0022404EA0C
:103DC000AC7444EAD27405439FED538B9FED542BA2
:103DD00007D015E09DED040B51EC100B00F0DCFD5D
:103DE00042E0002C11BF012C9DED040B02B0BDEC94
:103DF000028B04BF04B070BD022C38D0032C3BD022
:103E00000B439FED491B9FED4A0B0AD0B14218D1DD
:103E1000B04209D121F0804120F080400791059007
:103E20000FE0002A15DA10E0434B7B44002C08BF5A
:103E300093ED000B0DD0012C10D0022C17D0032CC9
:103E40001AD0B0421DD1002A03DAB0EE410AF0EEDA
:103E5000610A02B0BDEC028B04B070BD93ED000BA3
:103E600051EC100B00F0C1FD41EC100BF1E7B0EE8E
:103E7000480AF0EE680AECE7B0EE420AF0EE620A99
:103E8000E7E7401A00153C28C8BF8DED000B19DC90
:103E9000BCF1000FBEBF10F13C0F9FED290B8DED63
:103EA000000B0FDB9DED060B53EC102B9DED040B6F
:103EB00051EC100B00F08CFE00F076FD00F06CFD74
:103EC000CDE90001002C08BF9DED000BC1D0012CF5
:103ED00010D0022C9FED1C0B53EC102B9DED000B12
:103EE00051EC100B0DD001F0A9FA53EC182B01F096
:103EF000A5FAB9E7019880F0004001909DED000B14
:103F0000A7E701F09BFA53EC182B01F0BFF9ABE7E0
:103F10000000F07F00000000182D4454FB210940F0
:103F2000182D4454FB2109C0182D4454FB21F9BF1E
:103F3000182D4454FB21F93FC21900000000000075
:103F40000000000000000000075C143326A6A13C1E
:103F500010B52F499FED2C1B2DED020B84B0059859
:103F600020F000408842D8BF9DED040B2DDD29498B
:103F7000884209D1049840B94FF00100FCF71AFAC1
:103F800000F0EAFC06B010BD05DB9DED040B00F06F
:103F9000CFFC06B010BD68469DED040B00F0E0F8C4
:103FA00010F0030004BF9DED021B9DED000B0CD033
:103FB00001280ED09DED021B9DED000B022817D0AD
:103FC000012000F01DFC06B010BD00F0E5FA06B0BF
:103FD00010BD9DED021B9DED000B012000F010FCBB
:103FE00051EC100B00F001FD06B041EC100B10BDC0
:103FF00000F0D2FA51EC100B00F0F7FC06B041ECE7
:10400000100B10BD000000000000000000000000C8
:10401000FB21E93F0000F07F10B52F499FED2C1BDD
:104020002DED020B84B0059820F000408842DCBFE3
:1040300000209DED040B32DD2849884209D1049807
:1040400040B94FF00100FCF7B5F900F085FC06B06F
:1040500010BD05DB9DED040B00F06AFC06B010BD41
:1040600068469DED040B00F07BF810F0030011D0C2
:10407000012818D09DED021B9DED000B02281AD0DF
:1040800000F08AFA51EC100B00F0AFFC06B041ECE6
:10409000100B10BD9DED021B9DED000B012000F0EB
:1040A000AFFB06B010BD9DED021B9DED000B00F0B7
:1040B00073FA06B010BD012000F0A2FB51EC100B0A
:1040C00000F093FC06B041EC100B10BD00000000A6
:1040D0000000000000000000FB21E93F0000F07F2D
:1040E00000B52DED048BB0EE409AF0EE609A83B0EF
:1040F00051EC190B01F0D6F841EC180B18EE100A30
:1041000018EE901A8DED008B002818BF012008438F
:1041100020F00040C0F17F6000F1E040C00F14D0FB
:1041200019EE101A19EE900A8DED009B002918BFA8
:104130000121084320F00040C0F17F6000F1E04021
:10414000C00F04BF0120FCF735F9B0EE480A03B0F8
:10415000F0EE680ABDEC048B00BD0000000000001A
:104160002DE9F14F04462DED020B2DED088B8AB0A1
:104170009FEDE70B80ED020B139EE74826F000450C
:1041800085420ADC9DED120B002084ED000B0AB085
:10419000BDEC088B03B0BDE8F08FE0489FEDE0ABCD
:1041A0009FEDE1BBA84247DDE14F9FEDE39B9FED13
:1041B000E48B9DED120B53EC1A2B51EC100B002EDF
:1041C0001CDD01F03BF941EC100BBD4208D053EC73
:1041D0001B2B51EC100B01F031F9C4E900010BE08D
:1041E00053EC192B51EC100B01F028F953EC182B60
:1041F00001F024F9C4E900010120C8E700F034FC13
:1042000041EC100BBD4208D053EC1B2B51EC100BB2
:1042100000F02AFCC4E900010BE053EC192B51EC2F
:10422000100B00F021FC53EC182B00F01DFCC4E92E
:1042300000014FF0FF30AAE7C348A84279DB9DEDAB
:10424000120B51EC100B00F0AFFB41EC180B9FED83
:10425000C00B53EC102B00F0E5FE9FEDBF1B53ECA1
:10426000112B00F001FC00F047FE074600F073FE42
:1042700041EC190B53EC1A2B00F0D4FE53EC182B25
:1042800001F004F841EC180B53EC1B2B51EC190B0B
:1042900000F0C8FEDFF8C8A241EC100B4FEA155839
:1042A0000125FA4453EC102B51EC180B01F0C6F821
:1042B000032DC4E900013DD0C1F30A5005EB4511BF
:1042C000A8EB00001139814234DA0AEB051BB0EE8D
:1042D00048AA9BED000BF0EE68AA53EC102B51ECB2
:1042E000190B00F09FFE41EC1B0B51EC1A0B53EC29
:1042F0001B2B01F0A3F841EC180B51EC1A0B53ECFB
:10430000182B01F09BF853EC1B2B01F097F89BED59
:10431000020B41EC1A0B53EC102B51EC190B00F073
:1043200081FE53EC1A2B01F089F841EC100B6D1C47
:10433000B8E70EE0002EA8BF3846BFF628AF94EDD0
:10434000000B51EC100B00F050FBC4E90001784267
:104350001DE7C6F3130040F4801EC6F30A50A0F216
:10436000F530471100F01F05C5F12000DDF848B019
:1043700008900020069007900520EC467949002D12
:1043800007EB0002794408BF51F8221009D051F818
:10439000223001EB8201AB404A68089922FA01F110
:1043A0001943A1FB0E26A1FB0B131A449A4234BFFA
:1043B0000123002303EB06080CEB8003D3E901A6DD
:1043C0000E448E4234BF0121002192448A4411B12F
:1043D000924502D903E0924501D2012100E000217B
:1043E000C3E901A641444CF82010011EA0F10100D0
:1043F000C4DC029800F10050850F0298DDE90367E4
:104400008000DDF8148000F0A6FD41EC1A0B304668
:1044100000F0B8FD9FED541B53EC112B00F002FE91
:1044200041EC1B0B384600F0ADFD9FED511B53ECEA
:10443000112B00F0F7FD41EC180B404600F0A2FDF7
:104440009FED4D1B53EC112B00F0ECFD41EC190BD3
:1044500051EC180B53EC192B00F006FB53EC1B2B03
:1044600000F002FB53EC1A2B00F0FEFACDE9080134
:10447000002008909DED080B53EC1A2B51EC100B0B
:1044800000F0DCFF53EC1B2B00F0D8FF53EC182B93
:1044900000F0D4FF53EC192B00F0F8FE9FED381B11
:1044A00053EC112B00F0BEFD9FED370B41EC180BC8
:1044B00053EC102B9DED080B51EC100B00F0B2FDEE
:1044C00053EC182B00F0D0FA9FED310B41EC180B98
:1044D00053EC102B9DED080B51EC100B00F0A2FDDE
:1044E00053EC182B00F0C0FA41EC100B139810F0AD
:1044F000004F06D06D4251EC100B00F076FA41EC03
:10450000100B284684ED000B41E60000000000007F
:104510000000000000000000FB21E93F7CD90240C0
:1045200000004054FB21F93F3163621A61B4D03D71
:10453000FB21F93F000000000000601A61B4D03D8B
:104540007370032E8A19A33BFB2139410000000040
:1045500083C8C96D305FE43F000000000000E03F09
:1045600052150000A0140000000000000000103EE2
:10457000000000000000103C000000000000103AA5
:10458000182D4454FB21F93D3326A611460B113C4E
:1045900000000054FB21F93D10B52DED040B2DED6D
:1045A000088B82B0B0EE419AF0EE619A0B9820F041
:1045B00000449FED4BABB4F1795F11DA9DED0A0B2E
:1045C00051EC100B00F098FC002801BFB0EE4A0A35
:1045D000F0EE6A0A02B0BDEC088B04BF04B010BD57
:1045E0009DED0A0B53EC102B51EC100B00F01AFD53
:1045F00041EC180B3C480621B0EE480AF0EE680A80
:10460000784400F081F853EC182B51EC100B00F0BB
:1046100009FD9DED0A0B41EC1B0B53EC192B51ECE2
:10462000100B00F0FFFC41EC190B53EC1B2B51EC71
:10463000180B00F0F7FC53EC192B00F0FFFE9FED78
:104640002C0B41EC190B53EC102B51EC180B00F018
:10465000E9FC41EC100B2848844210DA53EC192B8A
:1046600051EC100B00F0EAFE53EC1A2B00F00EFE9A
:1046700041EC100B02B0BDEC088B04B010BD1F481C
:10468000A042BCBF9FED1E1B8DED001B06DBA4F5F9
:1046900000100190002000909DED001B51EC100BCC
:1046A00053EC112B00F0CAFE9DED000B41EC180BF2
:1046B00053EC102B51EC1A0B00F0C0FE41EC1A0B1E
:1046C00053EC192B51EC180B00F0B8FE53EC1A2BDD
:1046D00000F0DCFD41EC100BCCE700000000000016
:1046E000000000000000F03FBC11000000000000CE
:1046F000000000000000E03F3333D33F0000E93FFB
:10470000000000000000D23F70B504462DED028B82
:104710004D1E00EBC500B0EE408AF0EE608A90EDD1
:10472000000B35F0060017D053EC182B51EC100B92
:1047300000F078FC41EC100B6D1E04EBC50090ED11
:10474000001B51EC100B53EC112B00F08DF941ECD8
:10475000100B35F00600E7D1022D36D0042D1CD009
:10476000062D1CBFBDEC028B70BD53EC182B51EC19
:10477000100B00F057FC94ED0A1B53EC112B00F0CA
:1047800073F953EC182B00F04DFC94ED081B53EC1F
:10479000112B00F069F941EC100B53EC182B51EC84
:1047A000100B00F03FFC94ED061B53EC112B00F0B6
:1047B0005BF953EC182B00F035FC94ED040B53EC33
:1047C000102B00F051F941EC100B53EC182B51EC6D
:1047D000100B00F027FC94ED021B53EC112B00F0A2
:1047E00043F953EC182B00F01DFC94ED001B53EC27
:1047F000112B00F039F9BDEC028B41EC100B70BDB0
:1048000031B504462DED040B2DED0A8BB0EE41BA07
:10481000F0EE61BA0B989DED0A0B20F00040B0F16C
:10482000795F0DDA51EC100BFFF703F9042808BF8C
:1048300000F0A2F89DED0A0BBDEC0A8B05B030BD6F
:1048400053EC102B51EC100B00F0ECFB41EC180B6F
:104850009DED0A0B53EC182B51EC100B00F0E2FB12
:1048600041EC190B2C48B0EE480AF0EE680A05211D
:104870007844FFF749FF9FED2ACBB0EE40AAF0EE57
:1048800060AA9CB353EC1C2B51EC190B00F0CAFB33
:1048900041EC1C0B53EC1A2B51EC190B00F0C2FB32
:1048A0009FED210B41EC190B53EC102B51EC1B0B22
:1048B00000F0B8FB53EC192B00F0C0FD53EC182BA3
:1048C00000F0B0FB53EC1B2B00F0B8FD53EC1C2B9D
:1048D00000F0B4FD9DED0A1B53EC112B00F0D6FC4B
:1048E000BDEC0A8B05B041EC100B30BDFFE753EC7B
:1048F0001A2B51EC180B00F095FB53EC1C2B00F01D
:10490000B3F853EC192B00F08DFB9DED0A1B53EC13
:10491000112B00F0A9F8E3E74C10000000000000A4
:10492000495555555555C5BF000000000000E03FF2
:1049300010B553EC102B51EC100B00F095F841EC36
:10494000100B10BD10B553EC112B51EC100B00F0F7
:104950008BF841EC100B10BD9FED050B10B553EC1F
:10496000102B51EC100B00F033F941EC100B10BD83
:1049700000000000000000009FED050B10B553EC97
:10498000102B51EC100B00F04DFB41EC100B10BD47
:10499000000000000000001010B541EC100BFFF704
:1049A00073F851EC100B10BD82B0CDE9000121F07D
:1049B000004001909DED000B02B051EC100B7047D0
:1049C000FCF7E2FCFEF72EFAFDF7DAFFFDF7AAFF8F
:1049D000FDF76CFFFEF724F8FDF7F0FFFDF784FF0D
:1049E000FEF740F8FBF72AFDFEE781F00041704733
:1049F00080F00040704721F00041704720F00040F7
:104A00007047000021F00042A2F16052B2F5801F11
:104A100001F0004328BFD2F17F6C0BD95FEA001C84
:104A200043EAC20242EB507018BF704728BF20F023
:104A300001007047B2F5801FBCBF184670474FEAAF
:104A4000410C1CF5001F02D2084600F057BE70B59D
:104A500000F092FB00000089FFF7F6BF4FF0004026
:104A6000A0F580007047000010B591EA030F48BF21
:104A700083F0004300F1EA84841A71EB030C05D241
:104A8000121943EB0C03001B61EB0C01DFF824E16E
:104A90004FEA1154A4EB135C1EEA430F18BF9EEAC1
:104AA000445F73D023EA0E03DCF1200E21EA0451A7
:104AB00043F4801332D322FA0CFE10EB0E0023FADB
:104AC0000CFE41EB0E01CCF1200E03FA0EFE10EBB2
:104AD0000E0051F10001B1F5801FCCF1200E32D251
:104AE00001EB045112FA0EF2BDE8104058BF7047B6
:104AF000401C38BF5FEA420218BF7047002814BF4D
:104B000020F0010041F100014FEA410313F5001FBD
:104B100038BF7047A1F1C04100F07CBB012A43EBD4
:104B20000302ACF1200CDCF11F0E32BF4FF0000E7F
:104B300023FA0CF310EB030041EB0451B4EB115FCB
:104B4000D0D0A1EB045101F5801149085FEA300093
:104B500001EB04510ED350F1000038BF12FA0EFEE3
:104B600008D1BDE81040C9E7401C38BF5FEA4202E7
:104B7000CAD1C3E7BDE810404FEA410313F5001F57
:104B800038BF7047A1F1C04100F044BB9EEA445FCA
:104B900008D011EA5E0FBDE8104004BF01F00041EB
:104BA00000207047BDE8104070B500F0E5FA00BF86
:104BB00064FBBE3E0000E0FF491058BFC1F1404118
:104BC0005B1058BFC3F140438B42EFF30080704746
:104BD0002DE9C04130B4DFF8A0C23CEA111418BF7F
:104BE0003CEA131400F0EC8081EA03051CEA11147E
:104BF00044EAD57418BF1CEA131500F0C780A4EB73
:104C000005044FF0004545EAC12145EAC32341EAC6
:104C1000505143EA525304F17F74994204F5003431
:104C20004FEAC0204FEAC22208BF904200F09C80A9
:104C30004FEA13650FF24016765D4FEA134506FB07
:104C400005F7C7F1807706FB07F74FEAD737A7FBD1
:104C500003687642C8F58038A7FB06CE38BFA8F1B6
:104C6000010807FB08E64FF0000EA6FB028CE6FBEE
:104C700003CEDCF1000CCEF1004E38BFAEF1010ED8
:104C8000A6FB0C584FF000074FF00005E6FB0E871F
:104C9000A1FB08C6A0FB07CE16EB0E0645F10005EA
:104CA000E1FB076515F1E04E7EBFA4F580345FEAB5
:104CB00046066D4116F1800745F100054FEA1727BA
:104CC0004FEA066647EA0567A6F1DE46B6F1805F61
:104CD0004FEA15251FD9384624F0010C05EBC471A5
:104CE000BCF1FE6F01EB0C1102D8F0BCBDE80081F5
:104CF00024425CBF01F5801E9EEAC47F02D4F0BC52
:104D0000BDE80081244238D4F0BCA1F1C041BDE827
:104D1000004100F07FBA4FEAD22242EA43524FEA02
:104D2000D323A7FB02864FEAD02040EA415007FB7D
:104D300003661EEA0E0F4FEAD12105FB026658BF3B
:104D4000A6EB0056B6EB00564FEA520E4EEAC37E73
:104D500018EB0E0E56EB530EBDD518EB02085E4154
:104D60007F1C55F10005B6E74FF480154FF00007A2
:104D70004FF000064FF00008ADE7F0BC4FF0000028
:104D800001F1C04101F00041BDE8008111EA0C1FB2
:104D90000CEA131500D00CE013EA0C1F00F025807C
:104DA0004FF00000F0BC81EA030101F00041BDE8D2
:104DB0000081F0BCBDE8004181EA030100F02ABA9D
:104DC000F0BCBDE8004170B500F0D6F9097EFC3EAC
:104DD00000F007B881EA03014FF0000001F0004144
:104DE000704781EA030100F015BAF0BCBDE800414C
:104DF0004FF0000021497047FFFDFBF9F7F5F4F291
:104E0000F0EEEDEBE9E8E6E4E3E1E0DEDDDBDAD865
:104E1000D7D5D4D3D1D0CFCDCCCBCAC8C7C6C5C4C3
:104E2000C2C1C0BFBEBDBCBBBAB9B8B7B6B5B4B3DA
:104E3000B2B1B0AFAEADACABAAA9A8A8A7A6A5A4C5
:104E4000A3A3A2A1A09F9F9E9D9C9C9B9A99999889
:104E50009797969595949393929191908F8F8E8E2C
:104E60008D8C8C8B8B8A89898888878786858584B9
:104E700084838382828181800000FF070000F87FA5
:104E800051EA030C17D41CF5801F58BFBCF5801FD6
:104E900000F10680994218BF704708BF90427047E2
:104EA00007D711F5801F58BF13F5801F19D49942F9
:104EB0007047894270471CF5801F08D5BCF5801FDC
:104EC000F7D58B4218BF704708BF824270474FF436
:104ED000001C1CEB410F38BF1CEB430F01D28B426F
:104EE000704770B500F048F9922449004FF0005126
:104EF0004FF08053FFF760BE4FEA41034FEA535330
:104F0000A3F58063D3F11E03C8BFD3F1210C0CDDE0
:104F10004FF0004242EAC12242EA505232FA03FC08
:104F20008CEAE17CACEBE1707047102BC4BF002031
:104F3000704703F5787CBCF1FF3F04D06FF000426E
:104F400082EA2100704770B500F016F9499224807A
:104F500000207047F2E710F0004248BF4042B0FA2C
:104F600080F310FA03F10AD0C3F11D0303F5806347
:104F70004FEA415002EB035202EBD12170474FF050
:104F800000007047B0FA80F310FA03F10AD0C3F1C1
:104F90001D0303F580634FEA41504FEA035202EBD1
:104FA000D12170474FF000007047000051EA030C18
:104FB00017D41CF5801F58BFBCF5801F00F1068078
:104FC000994218BF704708BF9042704707D711F544
:104FD000801F58BF13F5801F19D49942704789422A
:104FE00070471CF5801F08D5BCF5801FF7D58B4294
:104FF00018BF704708BF824270474FF4001C1CEB7B
:10500000410F38BF1CEB430F01D28B42704770B584
:1050100000F0B2F8922449004FF000514FF0805355
:10502000FFF7CABDDFF848C170B51CEA111E1EBFEC
:105030001CEA13159EEA0C0F95EA0C0F00F06F8026
:1050400081EA030423EA4C134EEAD47E21EA4C1190
:1050500041F4801143F48013AE44A1FB024CA0FB49
:105060000365AEF17F7E361955EB0C05A1FB034CB1
:105070004CF10003A0FB021C16EB0C06654153F13A
:105080000003094218BF46F0010613F4007F0BD15C
:105090004FEA03314FEA0530340341EA155140EA43
:1050A00016506FF003020AE04FEAC3214FEAC52011
:1050B000F40241EA555140EA56506FF0020202EB09
:1050C0002E4201EB025585EACE710AD05FEA440C0C
:1050D00018BF24F0004450F1000041F1000120EA23
:1050E000D47040F2FE7C624500D270BDA84214BF6D
:1050F0004FF080444FF04044002E08BF0024BEF122
:10510000806FA8BFA1F1C041BDE8704080F28280ED
:105110004FF0000001F1C04101F0004170479EEAEC
:105120000C0F0CEA131518BF95EA0C0F06D04FF0C0
:10513000000081EA030E0EF0004170BD00F01CF883
:105140008900013E00F007B800F009B84FEA430CAF
:105150005FEA5C5C08D081EA030100F05BB84FEACB
:10516000410C5FEA5C5CF6D14FF0000001497047EA
:105170000000FF070000F87F0EF1020E2EF0030E74
:105180005EF8046B364205D4012A43EB030515F59E
:10519000001F12D8012841EB010C1CF5001F0CD890
:1051A0000ED14FEAD17C15F5001F0CEB4C0C0CF125
:1051B000020C08BF4CEBD37C04E04FF0080C01E07C
:1051C0004FEAD37C0CEB4C0526FA05F606F00706F1
:1051D000B6F1040C06D20EEB860CBDE870404CF024
:1051E000010C6047DFE80CF0090B02024FF00041B0
:1051F0004FF00000A1F5002170BD194610460128AE
:1052000051EB010418BFD4F5001484BF002001F055
:10521000004170BD0808A0F500114FEA3101704748
:1052200053EA010C17D41CF5801F58BFBCF5801F32
:1052300000F106808B4218BF704708BF824270475A
:1052400007D713F5801F58BF11F5801F19D48B4263
:1052500070479B4270471CF5801F08D5BCF5801F26
:10526000F7D5994218BF704708BF904270474FF476
:10527000001C1CEB430F38BF1CEB410F01D29942BD
:1052800070470FB40CBC03BCFFF7C1BE91EA030F1B
:1052900010B581F000413FF5EFAB83F0004300F023
:1052A000D5B800002DE9F04101F5801CBCF5001FC8
:1052B000C0F2A9804FEA115C21EA0C510CF1FD0CFF
:1052C00041F480115FEA5C0C0CF5C07C01D3400016
:1052D000494130A4890241EA905187028E0E0A0C9E
:1052E000A45D04FB04F602FB06F6C6F14046A4FBEF
:1052F0000662F60D46EA422606FB06F4A4FB0123ED
:105300005242C3F1404338BF5B1EA6FB0242002459
:10531000E6FB0324D20B42EA4446A6FB0623A1FB8C
:1053200002E2A3FB07E4E3FB61426442C2F1404EA8
:1053300038BFAEF1010EA6FB04234FF00002E6FBDE
:105340000E32A2FB03463400E2FB6264A1FB06E6D8
:10535000A4FB07E8E4FB61687642C8F1405838BF17
:10536000A8F10108A2FB06E4A3FB08E5E2FB6854F0
:10537000A1FB05E6A7FB04E8E1FB648618F1200524
:1053800056F10006A809A8F11B08B10908F03F086A
:10539000B8F10A0F40EA86601CD901EB0C51BDE858
:1053A000F08100BFFCF5EEE8E2DDD8D3CFCBC7C378
:1053B000C0BDB9B6B4B1AEACA9A7A5A3A19F9D9B32
:1053C0009A9896959392908F8D8C8B8988878685F5
:1053D00084838281A0FB006800FB01F208EB420895
:1053E000B8EB872807D5341858EB0104D5D5401CF5
:1053F00051F10001D1E7341A78EB0104CDD4401EFD
:1054000071F10001C9E75FEA4C0C5FEA9C5C0DD1C9
:1054100005D34FF0000001F00041BDE8F081BDE888
:10542000F04170B5FFF7A8FE6DDBFFBEBDE8F041AF
:105430004FF00000004970470000F87F10B591EA76
:10544000030F48BF83F000433FF516AB841A71EB9E
:10545000030C07D212198CF0004C43EB0C03001B19
:1054600061EB0C01DFF8A4E14FEA1154A4EB135CEB
:105470001EEA430F18BF9EEA445F00F0B08023EAA3
:105480006E03524221EA0451C3EB6E0338BF5B1E28
:10549000DCF1200E25D322FA0CFE10EB0E0043FAAD
:1054A0000CFE41EB0E01CCF1200E03FA0EFE10EBC8
:1054B0000E0051F10001CCF1200E29D412FA0EF2A7
:1054C00001EB0451BDE8104058BF7047401C1CBFA1
:1054D000B2F1004F704700280CBF491C20F00100BA
:1054E000704712EB020E43EB030218BF4FF0010EA0
:1054F0004EEA4202ACF1200CDCF11E0E54D943FA04
:105500000CFE10EB0E0051F1FF31CCF11E0ED5D583
:105510000EF1010E12FA0EFE404141EB010101EBCA
:10552000445C5FEA5C5C10D910EBDE7001EB045167
:1055300038BFBEF1004FBDE8104018BF70470028CB
:105540000CBF491C20F00100704730D24FEAD42C28
:1055500011F5001124F400641BD0B1FA81F20B3A6A
:10556000A41AA41ED2F12003914030FA03F3194388
:10557000904001EBCC71002C01EB0451BDE81040D0
:10558000A8BF704701F1C0414FF0000001F0004199
:105590007047B0FA80F310FA03F100D110BDE41A9D
:1055A000173C4805C90AE4E701EB045110BD491056
:1055B00001EB0451BDE810404FEA300002E04FF02B
:1055C000000170474A0008BF0042F8D0B2F5001F42
:1055D00028BF704701F000414FF0000070479EEA7D
:1055E000445F07D011EA5E0FBDE8104004BF002100
:1055F00000207047BDE8104070B5FFF7BDFD00BF4B
:1056000040DFF63E83F00041104670470000E0FFA7
:1056100043004FEAD30C4FEA3C0C43401FBF400706
:105620000CF1605113F0FE4F70471CF0006F03D176
:1056300000200CF0004170470CF0004343EA50702A
:1056400010B540EACC0000F00EF800BF0000009258
:105650004FEA0001FFF7DEBD4FF000414FF00000C0
:10566000A1F5002170470EF1020E2EF0030E5EF838
:10567000044B244204D44FEA4102B2F17F4F11D8C7
:105680004FEA4003B3F17F4F0CD80ED14FEAD07CE4
:10569000B2F17F4F0CEB4C0C0CF1020C08BF4CEB41
:1056A000D17C04E04FF0080C01E04FEAD17C0CEB18
:1056B0004C0324FA03F404F00704B4F1040C06D2FA
:1056C0000EEB840CBDE810404CF0010C6047DFE8A5
:1056D0000CF0070802024FF00040A0F5800010BD5A
:1056E0000846420018BFD2F1807288BF00F0004027
:1056F00010BD4FF04070E1EE100A7047FF2141EA03
:10570000D050C005704700061016000610160000A5
:105710000000000000000102030406070809000061
:1057200000000102030400004FBB610567ACDD3FD0
:10573000182D4454FB21E93F9BF681D20B73EF3FB8
:10574000182D4454FB21F93FE2652F227F2B7A3C30
:10575000075C143326A6813CBDCBF07A8807703CE9
:10576000075C143326A6913CC4EB98999999C9BF5C
:10577000711623FEC671BCBF6D9A74AFF2B0B3BF91
:105780009AFDDE522DDEADBF2F6C6A2C44B4A2BF51
:105790000D5555555555D53FFF8300922449C23FBD
:1057A0006E204CC5CD45B73F513DD0A0660DB13FF1
:1057B000EB0D76244B7BA93F11DA22E33AAD903F03
:1057C0004C5555555555A53F7751C1166CC156BF1F
:1057D0009015CB19A001FA3EAD529C804F7E92BE2F
:1057E000C4B1B4BD9EEE213ED43888BEE9FAA8BD4E
:1057F000000000000000000000004054FB21F93FC1
:105800003163621A61B4D03D0000601A61B4D03DCA
:105810007370032E8A19A33B0000002E8A19A33B44
:10582000C14920259A837B39000000000000000058
:105830006E83F9A22915444ED15727FCC0DD34F5FB
:10584000999562DB4190433CAB6351FE61C5BBDE81
:105850003A6E24B7E0D24D42EA2E49061C92D10995
:105860001CEB1DFE3EA729B1F53582E88444BB2E12
:1058700026709CE9417E5FB439D69139F43953835F
:105880008B5F849C3B28F9BDFF97F81F0F9805DEBE
:105890008B112FEF1F6D0A5ACF7E366DB709CB27BC
:1058A000663F464F2DEA5F9EC7BA27757BF1E5EB51
:1058B000F739073DEA92528AB15FFB6B085D8D1F95
:1058C000A6F810111111813FD561C119A0012ABF9D
:1058D0007DFEB157E31DC73EEB9C2B8AE6E55ABE21
:1058E0007CD5CF5A3AD9E53D085900080000002080
:1058F00058000000C401000860590008580000204A
:10590000D8120000E00100080000000001000000C3
:1059100010000000000000000024F400000000005F
:105920000004000400040004010100000000000065
:105930000000000000000000000000000000000067
:105940000000000000000000000000000000000057
:105950000000000000000000000000000000000047
:040000050800018965
:00000001FF
